ARM GAS  /tmp/ccqtoIOx.s 			page 1


   1              		.cpu cortex-m7
   2              		.eabi_attribute 27, 1
   3              		.eabi_attribute 28, 1
   4              		.eabi_attribute 20, 1
   5              		.eabi_attribute 21, 1
   6              		.eabi_attribute 23, 3
   7              		.eabi_attribute 24, 1
   8              		.eabi_attribute 25, 1
   9              		.eabi_attribute 26, 1
  10              		.eabi_attribute 30, 1
  11              		.eabi_attribute 34, 1
  12              		.eabi_attribute 18, 4
  13              		.file	"ov7670_driver.c"
  14              		.text
  15              	.Ltext0:
  16              		.cfi_sections	.debug_frame
  17              		.section	.text.GetSize,"ax",%progbits
  18              		.align	1
  19              		.arch armv7e-m
  20              		.syntax unified
  21              		.thumb
  22              		.thumb_func
  23              		.fpu fpv5-sp-d16
  25              	GetSize:
  26              	.LVL0:
  27              	.LFB150:
  28              		.file 1 "Src/ov7670_driver.c"
   1:Src/ov7670_driver.c **** 
   2:Src/ov7670_driver.c **** /* Includes ------------------------------------------------------------------*/
   3:Src/ov7670_driver.c **** #include "stm32746g_discovery.h"
   4:Src/ov7670_driver.c **** #include "ov7670_driver.h"
   5:Src/ov7670_driver.c **** 
   6:Src/ov7670_driver.c **** #define CAMERA_VGA_RES_X          640
   7:Src/ov7670_driver.c **** #define CAMERA_VGA_RES_Y          480
   8:Src/ov7670_driver.c **** #define CAMERA_QVGA_RES_X         320
   9:Src/ov7670_driver.c **** #define CAMERA_QVGA_RES_Y         240
  10:Src/ov7670_driver.c **** 
  11:Src/ov7670_driver.c **** 
  12:Src/ov7670_driver.c **** 
  13:Src/ov7670_driver.c **** DCMI_HandleTypeDef  hDcmiHandler;
  14:Src/ov7670_driver.c **** CAMERA_DrvTypeDef   *camera_drv;
  15:Src/ov7670_driver.c **** static uint32_t CameraCurrentResolution;
  16:Src/ov7670_driver.c **** static uint32_t CameraHwAddress;
  17:Src/ov7670_driver.c **** static uint32_t GetSize(uint32_t resolution);
  18:Src/ov7670_driver.c **** 
  19:Src/ov7670_driver.c **** 
  20:Src/ov7670_driver.c **** 
  21:Src/ov7670_driver.c **** uint8_t CAMERA_Init(uint32_t Resolution)
  22:Src/ov7670_driver.c **** { 
  23:Src/ov7670_driver.c ****   DCMI_HandleTypeDef *phdcmi;
  24:Src/ov7670_driver.c ****   uint8_t status = CAMERA_ERROR;
  25:Src/ov7670_driver.c **** 
  26:Src/ov7670_driver.c ****   /* Get the DCMI handle structure */
  27:Src/ov7670_driver.c ****   phdcmi = &hDcmiHandler;
  28:Src/ov7670_driver.c **** 
  29:Src/ov7670_driver.c ****   /*** Configures the DCMI to interface with the camera module ***/
  30:Src/ov7670_driver.c ****   /* DCMI configuration */
ARM GAS  /tmp/ccqtoIOx.s 			page 2


  31:Src/ov7670_driver.c ****   phdcmi->Init.CaptureRate      = DCMI_CR_ALL_FRAME;
  32:Src/ov7670_driver.c ****   phdcmi->Init.HSPolarity       = DCMI_HSPOLARITY_LOW;
  33:Src/ov7670_driver.c ****   phdcmi->Init.SynchroMode      = DCMI_SYNCHRO_HARDWARE;
  34:Src/ov7670_driver.c ****   phdcmi->Init.VSPolarity       = DCMI_VSPOLARITY_HIGH;
  35:Src/ov7670_driver.c ****   phdcmi->Init.ExtendedDataMode = DCMI_EXTEND_DATA_8B;
  36:Src/ov7670_driver.c ****   phdcmi->Init.PCKPolarity      = DCMI_PCKPOLARITY_RISING;
  37:Src/ov7670_driver.c ****   phdcmi->Instance              = DCMI;
  38:Src/ov7670_driver.c **** 
  39:Src/ov7670_driver.c ****   /* Power up camera */
  40:Src/ov7670_driver.c ****   CAMERA_PwrUp();
  41:Src/ov7670_driver.c **** 
  42:Src/ov7670_driver.c ****   /* Initialize the camera driver structure */
  43:Src/ov7670_driver.c ****   camera_drv = &ov7670_drv;
  44:Src/ov7670_driver.c ****   CameraHwAddress = CAMERA_I2C_ADDRESS;
  45:Src/ov7670_driver.c **** 
  46:Src/ov7670_driver.c ****   /* DCMI Initialization */
  47:Src/ov7670_driver.c ****   CAMERA_MspInit(&hDcmiHandler, NULL);
  48:Src/ov7670_driver.c ****   HAL_DCMI_Init(phdcmi);
  49:Src/ov7670_driver.c ****   ov7670_Init(CameraHwAddress, Resolution);
  50:Src/ov7670_driver.c ****   HAL_DCMI_DisableCROP(phdcmi);
  51:Src/ov7670_driver.c ****   CameraCurrentResolution = Resolution;
  52:Src/ov7670_driver.c **** 
  53:Src/ov7670_driver.c ****   /* Return CAMERA_OK status */
  54:Src/ov7670_driver.c ****   status = CAMERA_OK;
  55:Src/ov7670_driver.c **** 
  56:Src/ov7670_driver.c ****   return status;
  57:Src/ov7670_driver.c **** }
  58:Src/ov7670_driver.c **** 
  59:Src/ov7670_driver.c **** 
  60:Src/ov7670_driver.c **** uint8_t CAMERA_DeInit(void)
  61:Src/ov7670_driver.c **** { 
  62:Src/ov7670_driver.c ****   hDcmiHandler.Instance              = DCMI;
  63:Src/ov7670_driver.c ****   HAL_DCMI_DeInit(&hDcmiHandler);
  64:Src/ov7670_driver.c ****   CAMERA_MspDeInit(&hDcmiHandler, NULL);
  65:Src/ov7670_driver.c ****   return CAMERA_OK;
  66:Src/ov7670_driver.c **** }
  67:Src/ov7670_driver.c **** 
  68:Src/ov7670_driver.c **** /**
  69:Src/ov7670_driver.c ****   * @brief  Starts the camera capture in continuous mode.
  70:Src/ov7670_driver.c ****   * @param  buff: pointer to the camera output buffer
  71:Src/ov7670_driver.c ****   * @retval None
  72:Src/ov7670_driver.c ****   */
  73:Src/ov7670_driver.c **** void CAMERA_ContinuousStart(uint8_t *buff)
  74:Src/ov7670_driver.c **** { 
  75:Src/ov7670_driver.c ****   /* Start the camera capture */
  76:Src/ov7670_driver.c ****   HAL_DCMI_Start_DMA(&hDcmiHandler, DCMI_MODE_CONTINUOUS, (uint32_t)buff, GetSize(CameraCurrentReso
  77:Src/ov7670_driver.c **** }
  78:Src/ov7670_driver.c **** 
  79:Src/ov7670_driver.c **** /**
  80:Src/ov7670_driver.c ****   * @brief  Starts the camera capture in snapshot mode.
  81:Src/ov7670_driver.c ****   * @param  buff: pointer to the camera output buffer
  82:Src/ov7670_driver.c ****   * @retval None
  83:Src/ov7670_driver.c ****   */
  84:Src/ov7670_driver.c **** void CAMERA_SnapshotStart(uint8_t *buff)
  85:Src/ov7670_driver.c **** { 
  86:Src/ov7670_driver.c ****   /* Start the camera capture */
  87:Src/ov7670_driver.c ****   HAL_DCMI_Start_DMA(&hDcmiHandler, DCMI_MODE_SNAPSHOT, (uint32_t)buff, GetSize(CameraCurrentResolu
ARM GAS  /tmp/ccqtoIOx.s 			page 3


  88:Src/ov7670_driver.c **** }
  89:Src/ov7670_driver.c **** 
  90:Src/ov7670_driver.c **** /**
  91:Src/ov7670_driver.c ****   * @brief Suspend the CAMERA capture 
  92:Src/ov7670_driver.c ****   * @retval None
  93:Src/ov7670_driver.c ****   */
  94:Src/ov7670_driver.c **** void CAMERA_Suspend(void) 
  95:Src/ov7670_driver.c **** {
  96:Src/ov7670_driver.c ****   /* Suspend the Camera Capture */
  97:Src/ov7670_driver.c ****   HAL_DCMI_Suspend(&hDcmiHandler);  
  98:Src/ov7670_driver.c **** }
  99:Src/ov7670_driver.c **** 
 100:Src/ov7670_driver.c **** /**
 101:Src/ov7670_driver.c ****   * @brief Resume the CAMERA capture 
 102:Src/ov7670_driver.c ****   * @retval None
 103:Src/ov7670_driver.c ****   */
 104:Src/ov7670_driver.c **** void CAMERA_Resume(void) 
 105:Src/ov7670_driver.c **** {
 106:Src/ov7670_driver.c ****   /* Start the Camera Capture */
 107:Src/ov7670_driver.c ****   HAL_DCMI_Resume(&hDcmiHandler);
 108:Src/ov7670_driver.c **** }
 109:Src/ov7670_driver.c **** 
 110:Src/ov7670_driver.c **** /**
 111:Src/ov7670_driver.c ****   * @brief  Stop the CAMERA capture 
 112:Src/ov7670_driver.c ****   * @retval Camera status
 113:Src/ov7670_driver.c ****   */
 114:Src/ov7670_driver.c **** uint8_t CAMERA_Stop(void) 
 115:Src/ov7670_driver.c **** {
 116:Src/ov7670_driver.c ****   uint8_t status = CAMERA_ERROR;
 117:Src/ov7670_driver.c ****   if(HAL_DCMI_Stop(&hDcmiHandler) == HAL_OK)
 118:Src/ov7670_driver.c ****   {
 119:Src/ov7670_driver.c ****      status = CAMERA_OK;
 120:Src/ov7670_driver.c ****   }
 121:Src/ov7670_driver.c ****   
 122:Src/ov7670_driver.c ****   /* Set Camera in Power Down */
 123:Src/ov7670_driver.c ****   CAMERA_PwrDown();
 124:Src/ov7670_driver.c **** 
 125:Src/ov7670_driver.c ****   return status;
 126:Src/ov7670_driver.c **** }
 127:Src/ov7670_driver.c **** 
 128:Src/ov7670_driver.c **** /**
 129:Src/ov7670_driver.c ****   * @brief  CANERA power up
 130:Src/ov7670_driver.c ****   * @retval None
 131:Src/ov7670_driver.c ****   */
 132:Src/ov7670_driver.c **** void CAMERA_PwrUp(void)
 133:Src/ov7670_driver.c **** {
 134:Src/ov7670_driver.c ****   GPIO_InitTypeDef gpio_init_structure;
 135:Src/ov7670_driver.c **** 
 136:Src/ov7670_driver.c ****   /* Enable GPIO clock */
 137:Src/ov7670_driver.c ****   __HAL_RCC_GPIOH_CLK_ENABLE();
 138:Src/ov7670_driver.c **** 
 139:Src/ov7670_driver.c ****   /*** Configure the GPIO ***/
 140:Src/ov7670_driver.c ****   /* Configure DCMI GPIO as alternate function */
 141:Src/ov7670_driver.c ****   gpio_init_structure.Pin       = GPIO_PIN_13;
 142:Src/ov7670_driver.c ****   gpio_init_structure.Mode      = GPIO_MODE_OUTPUT_PP;
 143:Src/ov7670_driver.c ****   gpio_init_structure.Pull      = GPIO_NOPULL;
 144:Src/ov7670_driver.c ****   gpio_init_structure.Speed     = GPIO_SPEED_HIGH;
ARM GAS  /tmp/ccqtoIOx.s 			page 4


 145:Src/ov7670_driver.c ****   HAL_GPIO_Init(GPIOH, &gpio_init_structure);
 146:Src/ov7670_driver.c **** 
 147:Src/ov7670_driver.c ****   /* De-assert the camera POWER_DOWN pin (active high) */
 148:Src/ov7670_driver.c ****   HAL_GPIO_WritePin(GPIOH, GPIO_PIN_13, GPIO_PIN_RESET);
 149:Src/ov7670_driver.c **** 
 150:Src/ov7670_driver.c ****   HAL_Delay(3);     /* POWER_DOWN de-asserted during 3ms */
 151:Src/ov7670_driver.c **** }
 152:Src/ov7670_driver.c **** 
 153:Src/ov7670_driver.c **** /**
 154:Src/ov7670_driver.c ****   * @brief  CAMERA power down
 155:Src/ov7670_driver.c ****   * @retval None
 156:Src/ov7670_driver.c ****   */
 157:Src/ov7670_driver.c **** void CAMERA_PwrDown(void)
 158:Src/ov7670_driver.c **** {
 159:Src/ov7670_driver.c ****   GPIO_InitTypeDef gpio_init_structure;
 160:Src/ov7670_driver.c **** 
 161:Src/ov7670_driver.c ****   /* Enable GPIO clock */
 162:Src/ov7670_driver.c ****   __HAL_RCC_GPIOH_CLK_ENABLE();
 163:Src/ov7670_driver.c **** 
 164:Src/ov7670_driver.c ****   /*** Configure the GPIO ***/
 165:Src/ov7670_driver.c ****   /* Configure DCMI GPIO as alternate function */
 166:Src/ov7670_driver.c ****   gpio_init_structure.Pin       = GPIO_PIN_13;
 167:Src/ov7670_driver.c ****   gpio_init_structure.Mode      = GPIO_MODE_OUTPUT_PP;
 168:Src/ov7670_driver.c ****   gpio_init_structure.Pull      = GPIO_NOPULL;
 169:Src/ov7670_driver.c ****   gpio_init_structure.Speed     = GPIO_SPEED_HIGH;
 170:Src/ov7670_driver.c ****   HAL_GPIO_Init(GPIOH, &gpio_init_structure);
 171:Src/ov7670_driver.c **** 
 172:Src/ov7670_driver.c ****   /* Assert the camera POWER_DOWN pin (active high) */
 173:Src/ov7670_driver.c ****   HAL_GPIO_WritePin(GPIOH, GPIO_PIN_13, GPIO_PIN_SET);
 174:Src/ov7670_driver.c **** }
 175:Src/ov7670_driver.c **** 
 176:Src/ov7670_driver.c **** 
 177:Src/ov7670_driver.c **** /**
 178:Src/ov7670_driver.c ****   * @brief  Get the capture size in pixels unit.
 179:Src/ov7670_driver.c ****   * @param  resolution: the current resolution.
 180:Src/ov7670_driver.c ****   * @retval capture size in pixels unit.
 181:Src/ov7670_driver.c ****   */
 182:Src/ov7670_driver.c **** static uint32_t GetSize(uint32_t resolution)
 183:Src/ov7670_driver.c **** { 
  29              		.loc 1 183 1 view -0
  30              		.cfi_startproc
  31              		@ args = 0, pretend = 0, frame = 0
  32              		@ frame_needed = 0, uses_anonymous_args = 0
  33              		@ link register save eliminated.
 184:Src/ov7670_driver.c ****   uint32_t size = 0;
  34              		.loc 1 184 3 view .LVU1
 185:Src/ov7670_driver.c ****   
 186:Src/ov7670_driver.c ****   /* Get capture size */
 187:Src/ov7670_driver.c ****   switch (resolution)
  35              		.loc 1 187 3 view .LVU2
  36 0000 0128     		cmp	r0, #1
  37 0002 04D0     		beq	.L3
  38 0004 0328     		cmp	r0, #3
  39 0006 05D1     		bne	.L4
 188:Src/ov7670_driver.c ****   {  
 189:Src/ov7670_driver.c ****   case CAMERA_R320x240:
 190:Src/ov7670_driver.c ****     {
ARM GAS  /tmp/ccqtoIOx.s 			page 5


 191:Src/ov7670_driver.c ****       size =  320*240/2;
 192:Src/ov7670_driver.c ****     }
 193:Src/ov7670_driver.c ****     break;
 194:Src/ov7670_driver.c ****   case CAMERA_R640x480:
 195:Src/ov7670_driver.c ****     {
 196:Src/ov7670_driver.c ****       size =  0x25800;
  40              		.loc 1 196 12 is_stmt 0 view .LVU3
  41 0008 4FF41630 		mov	r0, #153600
  42              	.LVL1:
  43              		.loc 1 196 12 view .LVU4
  44 000c 7047     		bx	lr
  45              	.LVL2:
  46              	.L3:
 191:Src/ov7670_driver.c ****     }
  47              		.loc 1 191 12 view .LVU5
  48 000e 4FF41640 		mov	r0, #38400
  49              	.LVL3:
 191:Src/ov7670_driver.c ****     }
  50              		.loc 1 191 12 view .LVU6
  51 0012 7047     		bx	lr
  52              	.LVL4:
  53              	.L4:
 187:Src/ov7670_driver.c ****   {  
  54              		.loc 1 187 3 view .LVU7
  55 0014 0020     		movs	r0, #0
  56              	.LVL5:
 197:Src/ov7670_driver.c ****     }    
 198:Src/ov7670_driver.c ****     break;
 199:Src/ov7670_driver.c ****   default:
 200:Src/ov7670_driver.c ****     {
 201:Src/ov7670_driver.c ****       break;
 202:Src/ov7670_driver.c ****     }
 203:Src/ov7670_driver.c ****   }
 204:Src/ov7670_driver.c ****   
 205:Src/ov7670_driver.c ****   return size;
  57              		.loc 1 205 3 is_stmt 1 view .LVU8
 206:Src/ov7670_driver.c **** }
  58              		.loc 1 206 1 is_stmt 0 view .LVU9
  59 0016 7047     		bx	lr
  60              		.cfi_endproc
  61              	.LFE150:
  63              		.section	.text.ov7670_Config,"ax",%progbits
  64              		.align	1
  65              		.global	ov7670_Config
  66              		.syntax unified
  67              		.thumb
  68              		.thumb_func
  69              		.fpu fpv5-sp-d16
  71              	ov7670_Config:
  72              	.LVL6:
  73              	.LFB163:
 207:Src/ov7670_driver.c **** 
 208:Src/ov7670_driver.c **** /**
 209:Src/ov7670_driver.c ****   * @brief  Initializes the DCMI MSP.
 210:Src/ov7670_driver.c ****   * @param  hdcmi: HDMI handle 
 211:Src/ov7670_driver.c ****   * @param  Params
 212:Src/ov7670_driver.c ****   * @retval None
ARM GAS  /tmp/ccqtoIOx.s 			page 6


 213:Src/ov7670_driver.c ****   */
 214:Src/ov7670_driver.c **** __weak void CAMERA_MspInit(DCMI_HandleTypeDef *hdcmi, void *Params)
 215:Src/ov7670_driver.c **** {
 216:Src/ov7670_driver.c ****   static DMA_HandleTypeDef hdma_handler;
 217:Src/ov7670_driver.c ****   GPIO_InitTypeDef gpio_init_structure;
 218:Src/ov7670_driver.c ****   
 219:Src/ov7670_driver.c ****   /*** Enable peripherals and GPIO clocks ***/
 220:Src/ov7670_driver.c ****   /* Enable DCMI clock */
 221:Src/ov7670_driver.c ****   __HAL_RCC_DCMI_CLK_ENABLE();
 222:Src/ov7670_driver.c **** 
 223:Src/ov7670_driver.c ****   /* Enable DMA2 clock */
 224:Src/ov7670_driver.c ****   __HAL_RCC_DMA2_CLK_ENABLE();
 225:Src/ov7670_driver.c ****   
 226:Src/ov7670_driver.c ****   /* Enable GPIO clocks */
 227:Src/ov7670_driver.c ****   __HAL_RCC_GPIOA_CLK_ENABLE();
 228:Src/ov7670_driver.c ****   __HAL_RCC_GPIOD_CLK_ENABLE();
 229:Src/ov7670_driver.c ****   __HAL_RCC_GPIOE_CLK_ENABLE();
 230:Src/ov7670_driver.c ****   __HAL_RCC_GPIOG_CLK_ENABLE();
 231:Src/ov7670_driver.c ****   __HAL_RCC_GPIOH_CLK_ENABLE();
 232:Src/ov7670_driver.c **** 
 233:Src/ov7670_driver.c ****   /*** Configure the GPIO ***/
 234:Src/ov7670_driver.c ****   /* Configure DCMI GPIO as alternate function */
 235:Src/ov7670_driver.c ****   gpio_init_structure.Pin       = GPIO_PIN_4 | GPIO_PIN_6;
 236:Src/ov7670_driver.c ****   gpio_init_structure.Mode      = GPIO_MODE_AF_PP;
 237:Src/ov7670_driver.c ****   gpio_init_structure.Pull      = GPIO_PULLUP;
 238:Src/ov7670_driver.c ****   gpio_init_structure.Speed     = GPIO_SPEED_HIGH;
 239:Src/ov7670_driver.c ****   gpio_init_structure.Alternate = GPIO_AF13_DCMI;
 240:Src/ov7670_driver.c ****   HAL_GPIO_Init(GPIOA, &gpio_init_structure);
 241:Src/ov7670_driver.c **** 
 242:Src/ov7670_driver.c ****   gpio_init_structure.Pin       = GPIO_PIN_3;
 243:Src/ov7670_driver.c ****   gpio_init_structure.Mode      = GPIO_MODE_AF_PP;
 244:Src/ov7670_driver.c ****   gpio_init_structure.Pull      = GPIO_PULLUP;
 245:Src/ov7670_driver.c ****   gpio_init_structure.Speed     = GPIO_SPEED_HIGH;
 246:Src/ov7670_driver.c ****   gpio_init_structure.Alternate = GPIO_AF13_DCMI;
 247:Src/ov7670_driver.c ****   HAL_GPIO_Init(GPIOD, &gpio_init_structure);
 248:Src/ov7670_driver.c **** 
 249:Src/ov7670_driver.c ****   gpio_init_structure.Pin       = GPIO_PIN_5 | GPIO_PIN_6;
 250:Src/ov7670_driver.c ****   gpio_init_structure.Mode      = GPIO_MODE_AF_PP;
 251:Src/ov7670_driver.c ****   gpio_init_structure.Pull      = GPIO_PULLUP;
 252:Src/ov7670_driver.c ****   gpio_init_structure.Speed     = GPIO_SPEED_HIGH;
 253:Src/ov7670_driver.c ****   gpio_init_structure.Alternate = GPIO_AF13_DCMI;
 254:Src/ov7670_driver.c ****   HAL_GPIO_Init(GPIOE, &gpio_init_structure);
 255:Src/ov7670_driver.c **** 
 256:Src/ov7670_driver.c ****   gpio_init_structure.Pin       = GPIO_PIN_9;
 257:Src/ov7670_driver.c ****   gpio_init_structure.Mode      = GPIO_MODE_AF_PP;
 258:Src/ov7670_driver.c ****   gpio_init_structure.Pull      = GPIO_PULLUP;
 259:Src/ov7670_driver.c ****   gpio_init_structure.Speed     = GPIO_SPEED_HIGH;
 260:Src/ov7670_driver.c ****   gpio_init_structure.Alternate = GPIO_AF13_DCMI;
 261:Src/ov7670_driver.c ****   HAL_GPIO_Init(GPIOG, &gpio_init_structure);
 262:Src/ov7670_driver.c **** 
 263:Src/ov7670_driver.c ****   gpio_init_structure.Pin       = GPIO_PIN_9 | GPIO_PIN_10  | GPIO_PIN_11  |\
 264:Src/ov7670_driver.c ****                                   GPIO_PIN_12 | GPIO_PIN_14;
 265:Src/ov7670_driver.c ****   gpio_init_structure.Mode      = GPIO_MODE_AF_PP;
 266:Src/ov7670_driver.c ****   gpio_init_structure.Pull      = GPIO_PULLUP;
 267:Src/ov7670_driver.c ****   gpio_init_structure.Speed     = GPIO_SPEED_HIGH;
 268:Src/ov7670_driver.c ****   gpio_init_structure.Alternate = GPIO_AF13_DCMI;
 269:Src/ov7670_driver.c ****   HAL_GPIO_Init(GPIOH, &gpio_init_structure);
ARM GAS  /tmp/ccqtoIOx.s 			page 7


 270:Src/ov7670_driver.c **** 
 271:Src/ov7670_driver.c ****   /*** Configure the DMA ***/
 272:Src/ov7670_driver.c ****   /* Set the parameters to be configured */
 273:Src/ov7670_driver.c ****   hdma_handler.Init.Channel             = DMA_CHANNEL_1;
 274:Src/ov7670_driver.c ****   hdma_handler.Init.Direction           = DMA_PERIPH_TO_MEMORY;
 275:Src/ov7670_driver.c ****   hdma_handler.Init.PeriphInc           = DMA_PINC_DISABLE;
 276:Src/ov7670_driver.c ****   hdma_handler.Init.MemInc              = DMA_MINC_ENABLE;
 277:Src/ov7670_driver.c ****   hdma_handler.Init.PeriphDataAlignment = DMA_PDATAALIGN_WORD;
 278:Src/ov7670_driver.c ****   hdma_handler.Init.MemDataAlignment    = DMA_MDATAALIGN_WORD;
 279:Src/ov7670_driver.c ****   hdma_handler.Init.Mode                = DMA_CIRCULAR;
 280:Src/ov7670_driver.c ****   hdma_handler.Init.Priority            = DMA_PRIORITY_HIGH;
 281:Src/ov7670_driver.c ****   hdma_handler.Init.FIFOMode            = DMA_FIFOMODE_DISABLE;
 282:Src/ov7670_driver.c ****   hdma_handler.Init.FIFOThreshold       = DMA_FIFO_THRESHOLD_FULL;
 283:Src/ov7670_driver.c ****   hdma_handler.Init.MemBurst            = DMA_MBURST_SINGLE;
 284:Src/ov7670_driver.c ****   hdma_handler.Init.PeriphBurst         = DMA_PBURST_SINGLE; 
 285:Src/ov7670_driver.c **** 
 286:Src/ov7670_driver.c ****   hdma_handler.Instance = DMA2_Stream1;
 287:Src/ov7670_driver.c **** 
 288:Src/ov7670_driver.c ****   /* Associate the initialized DMA handle to the DCMI handle */
 289:Src/ov7670_driver.c ****   __HAL_LINKDMA(hdcmi, DMA_Handle, hdma_handler);
 290:Src/ov7670_driver.c ****   
 291:Src/ov7670_driver.c ****   /*** Configure the NVIC for DCMI and DMA ***/
 292:Src/ov7670_driver.c ****   /* NVIC configuration for DCMI transfer complete interrupt */
 293:Src/ov7670_driver.c ****   HAL_NVIC_SetPriority(DCMI_IRQn, 0x0F, 0);
 294:Src/ov7670_driver.c ****   HAL_NVIC_EnableIRQ(DCMI_IRQn);  
 295:Src/ov7670_driver.c ****   
 296:Src/ov7670_driver.c ****   /* NVIC configuration for DMA2D transfer complete interrupt */
 297:Src/ov7670_driver.c ****   HAL_NVIC_SetPriority(DMA2_Stream1_IRQn, 0x0F, 0);
 298:Src/ov7670_driver.c ****   HAL_NVIC_EnableIRQ(DMA2_Stream1_IRQn);
 299:Src/ov7670_driver.c ****   
 300:Src/ov7670_driver.c ****   /* Configure the DMA stream */
 301:Src/ov7670_driver.c ****   HAL_DMA_Init(hdcmi->DMA_Handle);  
 302:Src/ov7670_driver.c **** }
 303:Src/ov7670_driver.c **** 
 304:Src/ov7670_driver.c **** 
 305:Src/ov7670_driver.c **** /**
 306:Src/ov7670_driver.c ****   * @brief  DeInitializes the DCMI MSP.
 307:Src/ov7670_driver.c ****   * @param  hdcmi: HDMI handle 
 308:Src/ov7670_driver.c ****   * @param  Params
 309:Src/ov7670_driver.c ****   * @retval None
 310:Src/ov7670_driver.c ****   */
 311:Src/ov7670_driver.c **** __weak void CAMERA_MspDeInit(DCMI_HandleTypeDef *hdcmi, void *Params)
 312:Src/ov7670_driver.c **** {
 313:Src/ov7670_driver.c ****   /* Disable NVIC  for DCMI transfer complete interrupt */
 314:Src/ov7670_driver.c ****   HAL_NVIC_DisableIRQ(DCMI_IRQn);  
 315:Src/ov7670_driver.c ****   
 316:Src/ov7670_driver.c ****   /* Disable NVIC for DMA2 transfer complete interrupt */
 317:Src/ov7670_driver.c ****   HAL_NVIC_DisableIRQ(DMA2_Stream1_IRQn);
 318:Src/ov7670_driver.c ****   
 319:Src/ov7670_driver.c ****   /* Configure the DMA stream */
 320:Src/ov7670_driver.c ****   HAL_DMA_DeInit(hdcmi->DMA_Handle);  
 321:Src/ov7670_driver.c **** 
 322:Src/ov7670_driver.c ****   /* Disable DCMI clock */
 323:Src/ov7670_driver.c ****   __HAL_RCC_DCMI_CLK_DISABLE();
 324:Src/ov7670_driver.c **** 
 325:Src/ov7670_driver.c ****   /* GPIO pins clock and DMA clock can be shut down in the application 
 326:Src/ov7670_driver.c ****      by surcharging this __weak function */ 
ARM GAS  /tmp/ccqtoIOx.s 			page 8


 327:Src/ov7670_driver.c **** }
 328:Src/ov7670_driver.c **** 
 329:Src/ov7670_driver.c **** /**
 330:Src/ov7670_driver.c ****   * @brief  Line event callback
 331:Src/ov7670_driver.c ****   * @param  hdcmi: pointer to the DCMI handle  
 332:Src/ov7670_driver.c ****   * @retval None
 333:Src/ov7670_driver.c ****   */
 334:Src/ov7670_driver.c **** void HAL_DCMI_LineEventCallback(DCMI_HandleTypeDef *hdcmi)
 335:Src/ov7670_driver.c **** {        
 336:Src/ov7670_driver.c ****   CAMERA_LineEventCallback();
 337:Src/ov7670_driver.c **** }
 338:Src/ov7670_driver.c **** 
 339:Src/ov7670_driver.c **** /**
 340:Src/ov7670_driver.c ****   * @brief  Line Event callback.
 341:Src/ov7670_driver.c ****   * @retval None
 342:Src/ov7670_driver.c ****   */
 343:Src/ov7670_driver.c **** __weak void CAMERA_LineEventCallback(void)
 344:Src/ov7670_driver.c **** {
 345:Src/ov7670_driver.c ****   /* NOTE : This function Should not be modified, when the callback is needed,
 346:Src/ov7670_driver.c ****             the HAL_DCMI_LineEventCallback could be implemented in the user file
 347:Src/ov7670_driver.c ****    */
 348:Src/ov7670_driver.c **** }
 349:Src/ov7670_driver.c **** 
 350:Src/ov7670_driver.c **** /**
 351:Src/ov7670_driver.c ****   * @brief  VSYNC event callback
 352:Src/ov7670_driver.c ****   * @param  hdcmi: pointer to the DCMI handle  
 353:Src/ov7670_driver.c ****   * @retval None
 354:Src/ov7670_driver.c ****   */
 355:Src/ov7670_driver.c **** void HAL_DCMI_VsyncEventCallback(DCMI_HandleTypeDef *hdcmi)
 356:Src/ov7670_driver.c **** {        
 357:Src/ov7670_driver.c ****   CAMERA_VsyncEventCallback();
 358:Src/ov7670_driver.c **** }
 359:Src/ov7670_driver.c **** 
 360:Src/ov7670_driver.c **** /**
 361:Src/ov7670_driver.c ****   * @brief  VSYNC Event callback.
 362:Src/ov7670_driver.c ****   * @retval None
 363:Src/ov7670_driver.c ****   */
 364:Src/ov7670_driver.c **** __weak void CAMERA_VsyncEventCallback(void)
 365:Src/ov7670_driver.c **** {
 366:Src/ov7670_driver.c ****   /* NOTE : This function Should not be modified, when the callback is needed,
 367:Src/ov7670_driver.c ****             the HAL_DCMI_VsyncEventCallback could be implemented in the user file
 368:Src/ov7670_driver.c ****    */
 369:Src/ov7670_driver.c **** }
 370:Src/ov7670_driver.c **** 
 371:Src/ov7670_driver.c **** /**
 372:Src/ov7670_driver.c ****   * @brief  Frame event callback
 373:Src/ov7670_driver.c ****   * @param  hdcmi: pointer to the DCMI handle  
 374:Src/ov7670_driver.c ****   * @retval None
 375:Src/ov7670_driver.c ****   */
 376:Src/ov7670_driver.c **** void HAL_DCMI_FrameEventCallback(DCMI_HandleTypeDef *hdcmi)
 377:Src/ov7670_driver.c **** {        
 378:Src/ov7670_driver.c ****   CAMERA_FrameEventCallback();
 379:Src/ov7670_driver.c **** }
 380:Src/ov7670_driver.c **** 
 381:Src/ov7670_driver.c **** /**
 382:Src/ov7670_driver.c ****   * @brief  Frame Event callback.
 383:Src/ov7670_driver.c ****   * @retval None
ARM GAS  /tmp/ccqtoIOx.s 			page 9


 384:Src/ov7670_driver.c ****   */
 385:Src/ov7670_driver.c **** __weak void CAMERA_FrameEventCallback(void)
 386:Src/ov7670_driver.c **** {
 387:Src/ov7670_driver.c ****   /* NOTE : This function Should not be modified, when the callback is needed,
 388:Src/ov7670_driver.c ****             the HAL_DCMI_FrameEventCallback could be implemented in the user file
 389:Src/ov7670_driver.c ****    */
 390:Src/ov7670_driver.c **** }
 391:Src/ov7670_driver.c **** 
 392:Src/ov7670_driver.c **** /**
 393:Src/ov7670_driver.c ****   * @brief  Error callback
 394:Src/ov7670_driver.c ****   * @param  hdcmi: pointer to the DCMI handle  
 395:Src/ov7670_driver.c ****   * @retval None
 396:Src/ov7670_driver.c ****   */
 397:Src/ov7670_driver.c **** void HAL_DCMI_ErrorCallback(DCMI_HandleTypeDef *hdcmi)
 398:Src/ov7670_driver.c **** {        
 399:Src/ov7670_driver.c ****   CAMERA_ErrorCallback();
 400:Src/ov7670_driver.c **** }
 401:Src/ov7670_driver.c **** 
 402:Src/ov7670_driver.c **** /**
 403:Src/ov7670_driver.c ****   * @brief  Error callback.
 404:Src/ov7670_driver.c ****   * @retval None
 405:Src/ov7670_driver.c ****   */
 406:Src/ov7670_driver.c **** __weak void CAMERA_ErrorCallback(void)
 407:Src/ov7670_driver.c **** {
 408:Src/ov7670_driver.c ****   /* NOTE : This function Should not be modified, when the callback is needed,
 409:Src/ov7670_driver.c ****             the HAL_DCMI_ErrorCallback could be implemented in the user file
 410:Src/ov7670_driver.c ****    */
 411:Src/ov7670_driver.c **** }
 412:Src/ov7670_driver.c **** 
 413:Src/ov7670_driver.c **** 
 414:Src/ov7670_driver.c **** 
 415:Src/ov7670_driver.c **** CAMERA_DrvTypeDef   ov7670_drv = 
 416:Src/ov7670_driver.c **** {
 417:Src/ov7670_driver.c ****   ov7670_Init,
 418:Src/ov7670_driver.c ****   ov7670_ReadID,  
 419:Src/ov7670_driver.c ****   ov7670_Config,
 420:Src/ov7670_driver.c **** };
 421:Src/ov7670_driver.c **** 
 422:Src/ov7670_driver.c **** /* Initialization sequence for QVGA resolution (320x240) - I'm sorry, it's ugly, half is stolen fro
 423:Src/ov7670_driver.c **** const unsigned char ov7670_QVGA[][2]=
 424:Src/ov7670_driver.c **** {
 425:Src/ov7670_driver.c **** 
 426:Src/ov7670_driver.c ****     // Image format
 427:Src/ov7670_driver.c **** 		{ 0x12, 0x14 },		// 0x14 = QVGA size, RGB mode; 0x11 = QVGA, raw bayer
 428:Src/ov7670_driver.c **** 		{ 0xc, 0x8 }, //
 429:Src/ov7670_driver.c **** 		{ 0x11, 0b1000000 }, //
 430:Src/ov7670_driver.c **** 
 431:Src/ov7670_driver.c **** 		{ 0xb0, 0x84 },		//
 432:Src/ov7670_driver.c ****     {0x40, 0x10},
 433:Src/ov7670_driver.c **** 
 434:Src/ov7670_driver.c **** 		// Hardware window
 435:Src/ov7670_driver.c **** 		{ 0x32, 0x80 },		//HREF
 436:Src/ov7670_driver.c **** 		{ 0x17, 0x17 },		//HSTART
 437:Src/ov7670_driver.c **** 		{ 0x18, 0x05 },		//HSTOP
 438:Src/ov7670_driver.c **** 		{ 0x03, 0x0a },		//VREF
 439:Src/ov7670_driver.c **** 		{ 0x19, 0x02 },		//VSTART
 440:Src/ov7670_driver.c **** 		{ 0x1a, 0x7a },		//VSTOP
ARM GAS  /tmp/ccqtoIOx.s 			page 10


 441:Src/ov7670_driver.c **** 
 442:Src/ov7670_driver.c ****     // FPS and clock speed setup
 443:Src/ov7670_driver.c ****     //{ 0x11, 0x80 },
 444:Src/ov7670_driver.c ****     //{ 0x6b, 0x0a },
 445:Src/ov7670_driver.c ****     //{ 0x2a, 0x00 },
 446:Src/ov7670_driver.c ****     //{ 0x2b, 0x00 },
 447:Src/ov7670_driver.c ****     //{ 0x92, 0x66 },
 448:Src/ov7670_driver.c ****     //{ 0x93, 0x00 },
 449:Src/ov7670_driver.c ****     //{ 0x3b, 0x0a }
 450:Src/ov7670_driver.c **** 
 451:Src/ov7670_driver.c ****     //14.3 fps, 12Mhz pclk  -> you need a decently short and well shielded pixclk
 452:Src/ov7670_driver.c ****     { 0x11, 0x00 },
 453:Src/ov7670_driver.c ****     { 0x6b, 0x0a },
 454:Src/ov7670_driver.c ****     { 0x2a, 0x00 },
 455:Src/ov7670_driver.c ****     { 0x2b, 0x00 },
 456:Src/ov7670_driver.c ****     { 0x92, 0x1a },
 457:Src/ov7670_driver.c ****     { 0x93, 0x00 },
 458:Src/ov7670_driver.c ****     { 0x3b, 0x0a },
 459:Src/ov7670_driver.c **** 
 460:Src/ov7670_driver.c **** };
 461:Src/ov7670_driver.c **** 
 462:Src/ov7670_driver.c **** /**
 463:Src/ov7670_driver.c ****   * @brief  Initializes the ov7670 CAMERA component.
 464:Src/ov7670_driver.c ****   * @param  DeviceAddr: Device address on communication Bus.
 465:Src/ov7670_driver.c ****   * @param  resolution: Camera resolution
 466:Src/ov7670_driver.c ****   * @retval None
 467:Src/ov7670_driver.c ****   */
 468:Src/ov7670_driver.c **** void ov7670_Init(uint16_t DeviceAddr, uint32_t resolution)
 469:Src/ov7670_driver.c **** {
 470:Src/ov7670_driver.c ****   uint32_t index;
 471:Src/ov7670_driver.c ****   
 472:Src/ov7670_driver.c ****   /* Initialize I2C */
 473:Src/ov7670_driver.c ****   CAMERA_IO_Init();    
 474:Src/ov7670_driver.c ****   
 475:Src/ov7670_driver.c ****   /* Prepare the camera to be configured by resetting all its registers */
 476:Src/ov7670_driver.c ****   CAMERA_IO_Write(DeviceAddr, ov7670_SENSOR_COM7, 0x80);
 477:Src/ov7670_driver.c ****   CAMERA_Delay(200);
 478:Src/ov7670_driver.c ****   
 479:Src/ov7670_driver.c ****   /* Initialize ov7670 */
 480:Src/ov7670_driver.c ****   switch (resolution)
 481:Src/ov7670_driver.c ****   {   
 482:Src/ov7670_driver.c ****   case CAMERA_R320x240:
 483:Src/ov7670_driver.c ****     {
 484:Src/ov7670_driver.c ****       for(index=0; index<(sizeof(ov7670_QVGA)/2); index++)
 485:Src/ov7670_driver.c ****       {
 486:Src/ov7670_driver.c ****         CAMERA_IO_Write(DeviceAddr, ov7670_QVGA[index][0], ov7670_QVGA[index][1]);
 487:Src/ov7670_driver.c ****         CAMERA_Delay(10);
 488:Src/ov7670_driver.c ****       } 
 489:Src/ov7670_driver.c ****       break;
 490:Src/ov7670_driver.c ****     }
 491:Src/ov7670_driver.c ****   default:
 492:Src/ov7670_driver.c ****     {
 493:Src/ov7670_driver.c ****       break;
 494:Src/ov7670_driver.c ****     }
 495:Src/ov7670_driver.c ****   }
 496:Src/ov7670_driver.c **** }
 497:Src/ov7670_driver.c **** 
ARM GAS  /tmp/ccqtoIOx.s 			page 11


 498:Src/ov7670_driver.c **** 
 499:Src/ov7670_driver.c **** /**
 500:Src/ov7670_driver.c ****   * @brief  Read the ov7670 Camera identity.
 501:Src/ov7670_driver.c ****   * @param  DeviceAddr: Device address on communication Bus.
 502:Src/ov7670_driver.c ****   * @retval the ov7670 ID
 503:Src/ov7670_driver.c ****   */
 504:Src/ov7670_driver.c **** uint16_t ov7670_ReadID(uint16_t DeviceAddr)
 505:Src/ov7670_driver.c **** {
 506:Src/ov7670_driver.c ****   /* Initialize I2C */
 507:Src/ov7670_driver.c ****   CAMERA_IO_Init();
 508:Src/ov7670_driver.c ****   
 509:Src/ov7670_driver.c ****   /* Get the camera ID */
 510:Src/ov7670_driver.c ****   return (CAMERA_IO_Read(DeviceAddr, ov7670_SENSOR_PIDH));
 511:Src/ov7670_driver.c **** }
 512:Src/ov7670_driver.c **** 
 513:Src/ov7670_driver.c **** void ov7670_Config(uint16_t DeviceAddr, uint32_t feature, uint32_t value, uint32_t BR_value){
  74              		.loc 1 513 93 is_stmt 1 view -0
  75              		.cfi_startproc
  76              		@ args = 0, pretend = 0, frame = 0
  77              		@ frame_needed = 0, uses_anonymous_args = 0
  78              		@ link register save eliminated.
 514:Src/ov7670_driver.c ****   ;
  79              		.loc 1 514 3 view .LVU11
 515:Src/ov7670_driver.c **** }
  80              		.loc 1 515 1 is_stmt 0 view .LVU12
  81 0000 7047     		bx	lr
  82              		.cfi_endproc
  83              	.LFE163:
  85              		.section	.text.ov7670_Init,"ax",%progbits
  86              		.align	1
  87              		.global	ov7670_Init
  88              		.syntax unified
  89              		.thumb
  90              		.thumb_func
  91              		.fpu fpv5-sp-d16
  93              	ov7670_Init:
  94              	.LVL7:
  95              	.LFB161:
 469:Src/ov7670_driver.c ****   uint32_t index;
  96              		.loc 1 469 1 is_stmt 1 view -0
  97              		.cfi_startproc
  98              		@ args = 0, pretend = 0, frame = 0
  99              		@ frame_needed = 0, uses_anonymous_args = 0
 469:Src/ov7670_driver.c ****   uint32_t index;
 100              		.loc 1 469 1 is_stmt 0 view .LVU14
 101 0000 38B5     		push	{r3, r4, r5, lr}
 102              	.LCFI0:
 103              		.cfi_def_cfa_offset 16
 104              		.cfi_offset 3, -16
 105              		.cfi_offset 4, -12
 106              		.cfi_offset 5, -8
 107              		.cfi_offset 14, -4
 108 0002 0546     		mov	r5, r0
 109 0004 0C46     		mov	r4, r1
 470:Src/ov7670_driver.c ****   
 110              		.loc 1 470 3 is_stmt 1 view .LVU15
 473:Src/ov7670_driver.c ****   
ARM GAS  /tmp/ccqtoIOx.s 			page 12


 111              		.loc 1 473 3 view .LVU16
 112 0006 FFF7FEFF 		bl	CAMERA_IO_Init
 113              	.LVL8:
 476:Src/ov7670_driver.c ****   CAMERA_Delay(200);
 114              		.loc 1 476 3 view .LVU17
 115 000a EDB2     		uxtb	r5, r5
 116 000c 8022     		movs	r2, #128
 117 000e 1221     		movs	r1, #18
 118 0010 2846     		mov	r0, r5
 119 0012 FFF7FEFF 		bl	CAMERA_IO_Write
 120              	.LVL9:
 477:Src/ov7670_driver.c ****   
 121              		.loc 1 477 3 view .LVU18
 122 0016 C820     		movs	r0, #200
 123 0018 FFF7FEFF 		bl	CAMERA_Delay
 124              	.LVL10:
 480:Src/ov7670_driver.c ****   {   
 125              		.loc 1 480 3 view .LVU19
 126 001c 012C     		cmp	r4, #1
 127 001e 00D0     		beq	.L12
 128              	.LVL11:
 129              	.L6:
 496:Src/ov7670_driver.c **** 
 130              		.loc 1 496 1 is_stmt 0 view .LVU20
 131 0020 38BD     		pop	{r3, r4, r5, pc}
 132              	.LVL12:
 133              	.L12:
 484:Src/ov7670_driver.c ****       {
 134              		.loc 1 484 16 view .LVU21
 135 0022 0024     		movs	r4, #0
 136              	.LVL13:
 137              	.L7:
 484:Src/ov7670_driver.c ****       {
 138              		.loc 1 484 20 is_stmt 1 discriminator 1 view .LVU22
 484:Src/ov7670_driver.c ****       {
 139              		.loc 1 484 7 is_stmt 0 discriminator 1 view .LVU23
 140 0024 112C     		cmp	r4, #17
 141 0026 FBD8     		bhi	.L6
 486:Src/ov7670_driver.c ****         CAMERA_Delay(10);
 142              		.loc 1 486 9 is_stmt 1 discriminator 3 view .LVU24
 143 0028 064B     		ldr	r3, .L13
 144 002a 03EB4402 		add	r2, r3, r4, lsl #1
 145 002e 5278     		ldrb	r2, [r2, #1]	@ zero_extendqisi2
 146 0030 13F81410 		ldrb	r1, [r3, r4, lsl #1]	@ zero_extendqisi2
 147 0034 2846     		mov	r0, r5
 148 0036 FFF7FEFF 		bl	CAMERA_IO_Write
 149              	.LVL14:
 487:Src/ov7670_driver.c ****       } 
 150              		.loc 1 487 9 discriminator 3 view .LVU25
 151 003a 0A20     		movs	r0, #10
 152 003c FFF7FEFF 		bl	CAMERA_Delay
 153              	.LVL15:
 484:Src/ov7670_driver.c ****       {
 154              		.loc 1 484 51 discriminator 3 view .LVU26
 484:Src/ov7670_driver.c ****       {
 155              		.loc 1 484 56 is_stmt 0 discriminator 3 view .LVU27
 156 0040 0134     		adds	r4, r4, #1
ARM GAS  /tmp/ccqtoIOx.s 			page 13


 157              	.LVL16:
 484:Src/ov7670_driver.c ****       {
 158              		.loc 1 484 56 discriminator 3 view .LVU28
 159 0042 EFE7     		b	.L7
 160              	.L14:
 161              		.align	2
 162              	.L13:
 163 0044 00000000 		.word	.LANCHOR0
 164              		.cfi_endproc
 165              	.LFE161:
 167              		.section	.text.ov7670_ReadID,"ax",%progbits
 168              		.align	1
 169              		.global	ov7670_ReadID
 170              		.syntax unified
 171              		.thumb
 172              		.thumb_func
 173              		.fpu fpv5-sp-d16
 175              	ov7670_ReadID:
 176              	.LVL17:
 177              	.LFB162:
 505:Src/ov7670_driver.c ****   /* Initialize I2C */
 178              		.loc 1 505 1 is_stmt 1 view -0
 179              		.cfi_startproc
 180              		@ args = 0, pretend = 0, frame = 0
 181              		@ frame_needed = 0, uses_anonymous_args = 0
 505:Src/ov7670_driver.c ****   /* Initialize I2C */
 182              		.loc 1 505 1 is_stmt 0 view .LVU30
 183 0000 10B5     		push	{r4, lr}
 184              	.LCFI1:
 185              		.cfi_def_cfa_offset 8
 186              		.cfi_offset 4, -8
 187              		.cfi_offset 14, -4
 188 0002 0446     		mov	r4, r0
 507:Src/ov7670_driver.c ****   
 189              		.loc 1 507 3 is_stmt 1 view .LVU31
 190 0004 FFF7FEFF 		bl	CAMERA_IO_Init
 191              	.LVL18:
 510:Src/ov7670_driver.c **** }
 192              		.loc 1 510 3 view .LVU32
 510:Src/ov7670_driver.c **** }
 193              		.loc 1 510 11 is_stmt 0 view .LVU33
 194 0008 0A21     		movs	r1, #10
 195 000a E0B2     		uxtb	r0, r4
 196 000c FFF7FEFF 		bl	CAMERA_IO_Read
 197              	.LVL19:
 511:Src/ov7670_driver.c **** 
 198              		.loc 1 511 1 view .LVU34
 199 0010 80B2     		uxth	r0, r0
 200 0012 10BD     		pop	{r4, pc}
 201              		.cfi_endproc
 202              	.LFE162:
 204              		.section	.text.CAMERA_ContinuousStart,"ax",%progbits
 205              		.align	1
 206              		.global	CAMERA_ContinuousStart
 207              		.syntax unified
 208              		.thumb
 209              		.thumb_func
ARM GAS  /tmp/ccqtoIOx.s 			page 14


 210              		.fpu fpv5-sp-d16
 212              	CAMERA_ContinuousStart:
 213              	.LVL20:
 214              	.LFB143:
  74:Src/ov7670_driver.c ****   /* Start the camera capture */
 215              		.loc 1 74 1 is_stmt 1 view -0
 216              		.cfi_startproc
 217              		@ args = 0, pretend = 0, frame = 0
 218              		@ frame_needed = 0, uses_anonymous_args = 0
  74:Src/ov7670_driver.c ****   /* Start the camera capture */
 219              		.loc 1 74 1 is_stmt 0 view .LVU36
 220 0000 10B5     		push	{r4, lr}
 221              	.LCFI2:
 222              		.cfi_def_cfa_offset 8
 223              		.cfi_offset 4, -8
 224              		.cfi_offset 14, -4
 225 0002 0446     		mov	r4, r0
  76:Src/ov7670_driver.c **** }
 226              		.loc 1 76 3 is_stmt 1 view .LVU37
 227 0004 054B     		ldr	r3, .L19
 228 0006 1868     		ldr	r0, [r3]
 229              	.LVL21:
  76:Src/ov7670_driver.c **** }
 230              		.loc 1 76 3 is_stmt 0 view .LVU38
 231 0008 FFF7FEFF 		bl	GetSize
 232              	.LVL22:
 233 000c 0346     		mov	r3, r0
 234 000e 2246     		mov	r2, r4
 235 0010 0021     		movs	r1, #0
 236 0012 0348     		ldr	r0, .L19+4
 237 0014 FFF7FEFF 		bl	HAL_DCMI_Start_DMA
 238              	.LVL23:
  77:Src/ov7670_driver.c **** 
 239              		.loc 1 77 1 view .LVU39
 240 0018 10BD     		pop	{r4, pc}
 241              	.LVL24:
 242              	.L20:
  77:Src/ov7670_driver.c **** 
 243              		.loc 1 77 1 view .LVU40
 244 001a 00BF     		.align	2
 245              	.L19:
 246 001c 00000000 		.word	.LANCHOR1
 247 0020 00000000 		.word	hDcmiHandler
 248              		.cfi_endproc
 249              	.LFE143:
 251              		.section	.text.CAMERA_SnapshotStart,"ax",%progbits
 252              		.align	1
 253              		.global	CAMERA_SnapshotStart
 254              		.syntax unified
 255              		.thumb
 256              		.thumb_func
 257              		.fpu fpv5-sp-d16
 259              	CAMERA_SnapshotStart:
 260              	.LVL25:
 261              	.LFB144:
  85:Src/ov7670_driver.c ****   /* Start the camera capture */
 262              		.loc 1 85 1 is_stmt 1 view -0
ARM GAS  /tmp/ccqtoIOx.s 			page 15


 263              		.cfi_startproc
 264              		@ args = 0, pretend = 0, frame = 0
 265              		@ frame_needed = 0, uses_anonymous_args = 0
  85:Src/ov7670_driver.c ****   /* Start the camera capture */
 266              		.loc 1 85 1 is_stmt 0 view .LVU42
 267 0000 10B5     		push	{r4, lr}
 268              	.LCFI3:
 269              		.cfi_def_cfa_offset 8
 270              		.cfi_offset 4, -8
 271              		.cfi_offset 14, -4
 272 0002 0446     		mov	r4, r0
  87:Src/ov7670_driver.c **** }
 273              		.loc 1 87 3 is_stmt 1 view .LVU43
 274 0004 054B     		ldr	r3, .L23
 275 0006 1868     		ldr	r0, [r3]
 276              	.LVL26:
  87:Src/ov7670_driver.c **** }
 277              		.loc 1 87 3 is_stmt 0 view .LVU44
 278 0008 FFF7FEFF 		bl	GetSize
 279              	.LVL27:
 280 000c 0346     		mov	r3, r0
 281 000e 2246     		mov	r2, r4
 282 0010 0221     		movs	r1, #2
 283 0012 0348     		ldr	r0, .L23+4
 284 0014 FFF7FEFF 		bl	HAL_DCMI_Start_DMA
 285              	.LVL28:
  88:Src/ov7670_driver.c **** 
 286              		.loc 1 88 1 view .LVU45
 287 0018 10BD     		pop	{r4, pc}
 288              	.LVL29:
 289              	.L24:
  88:Src/ov7670_driver.c **** 
 290              		.loc 1 88 1 view .LVU46
 291 001a 00BF     		.align	2
 292              	.L23:
 293 001c 00000000 		.word	.LANCHOR1
 294 0020 00000000 		.word	hDcmiHandler
 295              		.cfi_endproc
 296              	.LFE144:
 298              		.section	.text.CAMERA_Suspend,"ax",%progbits
 299              		.align	1
 300              		.global	CAMERA_Suspend
 301              		.syntax unified
 302              		.thumb
 303              		.thumb_func
 304              		.fpu fpv5-sp-d16
 306              	CAMERA_Suspend:
 307              	.LFB145:
  95:Src/ov7670_driver.c ****   /* Suspend the Camera Capture */
 308              		.loc 1 95 1 is_stmt 1 view -0
 309              		.cfi_startproc
 310              		@ args = 0, pretend = 0, frame = 0
 311              		@ frame_needed = 0, uses_anonymous_args = 0
 312 0000 08B5     		push	{r3, lr}
 313              	.LCFI4:
 314              		.cfi_def_cfa_offset 8
 315              		.cfi_offset 3, -8
ARM GAS  /tmp/ccqtoIOx.s 			page 16


 316              		.cfi_offset 14, -4
  97:Src/ov7670_driver.c **** }
 317              		.loc 1 97 3 view .LVU48
 318 0002 0248     		ldr	r0, .L27
 319 0004 FFF7FEFF 		bl	HAL_DCMI_Suspend
 320              	.LVL30:
  98:Src/ov7670_driver.c **** 
 321              		.loc 1 98 1 is_stmt 0 view .LVU49
 322 0008 08BD     		pop	{r3, pc}
 323              	.L28:
 324 000a 00BF     		.align	2
 325              	.L27:
 326 000c 00000000 		.word	hDcmiHandler
 327              		.cfi_endproc
 328              	.LFE145:
 330              		.section	.text.CAMERA_Resume,"ax",%progbits
 331              		.align	1
 332              		.global	CAMERA_Resume
 333              		.syntax unified
 334              		.thumb
 335              		.thumb_func
 336              		.fpu fpv5-sp-d16
 338              	CAMERA_Resume:
 339              	.LFB146:
 105:Src/ov7670_driver.c ****   /* Start the Camera Capture */
 340              		.loc 1 105 1 is_stmt 1 view -0
 341              		.cfi_startproc
 342              		@ args = 0, pretend = 0, frame = 0
 343              		@ frame_needed = 0, uses_anonymous_args = 0
 344 0000 08B5     		push	{r3, lr}
 345              	.LCFI5:
 346              		.cfi_def_cfa_offset 8
 347              		.cfi_offset 3, -8
 348              		.cfi_offset 14, -4
 107:Src/ov7670_driver.c **** }
 349              		.loc 1 107 3 view .LVU51
 350 0002 0248     		ldr	r0, .L31
 351 0004 FFF7FEFF 		bl	HAL_DCMI_Resume
 352              	.LVL31:
 108:Src/ov7670_driver.c **** 
 353              		.loc 1 108 1 is_stmt 0 view .LVU52
 354 0008 08BD     		pop	{r3, pc}
 355              	.L32:
 356 000a 00BF     		.align	2
 357              	.L31:
 358 000c 00000000 		.word	hDcmiHandler
 359              		.cfi_endproc
 360              	.LFE146:
 362              		.section	.text.CAMERA_PwrUp,"ax",%progbits
 363              		.align	1
 364              		.global	CAMERA_PwrUp
 365              		.syntax unified
 366              		.thumb
 367              		.thumb_func
 368              		.fpu fpv5-sp-d16
 370              	CAMERA_PwrUp:
 371              	.LFB148:
ARM GAS  /tmp/ccqtoIOx.s 			page 17


 133:Src/ov7670_driver.c ****   GPIO_InitTypeDef gpio_init_structure;
 372              		.loc 1 133 1 is_stmt 1 view -0
 373              		.cfi_startproc
 374              		@ args = 0, pretend = 0, frame = 24
 375              		@ frame_needed = 0, uses_anonymous_args = 0
 376 0000 F0B5     		push	{r4, r5, r6, r7, lr}
 377              	.LCFI6:
 378              		.cfi_def_cfa_offset 20
 379              		.cfi_offset 4, -20
 380              		.cfi_offset 5, -16
 381              		.cfi_offset 6, -12
 382              		.cfi_offset 7, -8
 383              		.cfi_offset 14, -4
 384 0002 87B0     		sub	sp, sp, #28
 385              	.LCFI7:
 386              		.cfi_def_cfa_offset 48
 134:Src/ov7670_driver.c **** 
 387              		.loc 1 134 3 view .LVU54
 137:Src/ov7670_driver.c **** 
 388              		.loc 1 137 3 view .LVU55
 389              	.LBB2:
 137:Src/ov7670_driver.c **** 
 390              		.loc 1 137 3 view .LVU56
 137:Src/ov7670_driver.c **** 
 391              		.loc 1 137 3 view .LVU57
 392 0004 104B     		ldr	r3, .L35
 393 0006 1A6B     		ldr	r2, [r3, #48]
 394 0008 42F08002 		orr	r2, r2, #128
 395 000c 1A63     		str	r2, [r3, #48]
 137:Src/ov7670_driver.c **** 
 396              		.loc 1 137 3 view .LVU58
 397 000e 1B6B     		ldr	r3, [r3, #48]
 398 0010 03F08003 		and	r3, r3, #128
 399 0014 0093     		str	r3, [sp]
 137:Src/ov7670_driver.c **** 
 400              		.loc 1 137 3 view .LVU59
 401 0016 009B     		ldr	r3, [sp]
 402              	.LBE2:
 137:Src/ov7670_driver.c **** 
 403              		.loc 1 137 3 view .LVU60
 141:Src/ov7670_driver.c ****   gpio_init_structure.Mode      = GPIO_MODE_OUTPUT_PP;
 404              		.loc 1 141 3 view .LVU61
 141:Src/ov7670_driver.c ****   gpio_init_structure.Mode      = GPIO_MODE_OUTPUT_PP;
 405              		.loc 1 141 33 is_stmt 0 view .LVU62
 406 0018 4FF40056 		mov	r6, #8192
 407 001c 0196     		str	r6, [sp, #4]
 142:Src/ov7670_driver.c ****   gpio_init_structure.Pull      = GPIO_NOPULL;
 408              		.loc 1 142 3 is_stmt 1 view .LVU63
 142:Src/ov7670_driver.c ****   gpio_init_structure.Pull      = GPIO_NOPULL;
 409              		.loc 1 142 33 is_stmt 0 view .LVU64
 410 001e 0123     		movs	r3, #1
 411 0020 0293     		str	r3, [sp, #8]
 143:Src/ov7670_driver.c ****   gpio_init_structure.Speed     = GPIO_SPEED_HIGH;
 412              		.loc 1 143 3 is_stmt 1 view .LVU65
 143:Src/ov7670_driver.c ****   gpio_init_structure.Speed     = GPIO_SPEED_HIGH;
 413              		.loc 1 143 33 is_stmt 0 view .LVU66
 414 0022 0027     		movs	r7, #0
ARM GAS  /tmp/ccqtoIOx.s 			page 18


 415 0024 0397     		str	r7, [sp, #12]
 144:Src/ov7670_driver.c ****   HAL_GPIO_Init(GPIOH, &gpio_init_structure);
 416              		.loc 1 144 3 is_stmt 1 view .LVU67
 144:Src/ov7670_driver.c ****   HAL_GPIO_Init(GPIOH, &gpio_init_structure);
 417              		.loc 1 144 33 is_stmt 0 view .LVU68
 418 0026 0324     		movs	r4, #3
 419 0028 0494     		str	r4, [sp, #16]
 145:Src/ov7670_driver.c **** 
 420              		.loc 1 145 3 is_stmt 1 view .LVU69
 421 002a 084D     		ldr	r5, .L35+4
 422 002c 01A9     		add	r1, sp, #4
 423 002e 2846     		mov	r0, r5
 424 0030 FFF7FEFF 		bl	HAL_GPIO_Init
 425              	.LVL32:
 148:Src/ov7670_driver.c **** 
 426              		.loc 1 148 3 view .LVU70
 427 0034 3A46     		mov	r2, r7
 428 0036 3146     		mov	r1, r6
 429 0038 2846     		mov	r0, r5
 430 003a FFF7FEFF 		bl	HAL_GPIO_WritePin
 431              	.LVL33:
 150:Src/ov7670_driver.c **** }
 432              		.loc 1 150 3 view .LVU71
 433 003e 2046     		mov	r0, r4
 434 0040 FFF7FEFF 		bl	HAL_Delay
 435              	.LVL34:
 151:Src/ov7670_driver.c **** 
 436              		.loc 1 151 1 is_stmt 0 view .LVU72
 437 0044 07B0     		add	sp, sp, #28
 438              	.LCFI8:
 439              		.cfi_def_cfa_offset 20
 440              		@ sp needed
 441 0046 F0BD     		pop	{r4, r5, r6, r7, pc}
 442              	.L36:
 443              		.align	2
 444              	.L35:
 445 0048 00380240 		.word	1073887232
 446 004c 001C0240 		.word	1073880064
 447              		.cfi_endproc
 448              	.LFE148:
 450              		.section	.text.CAMERA_PwrDown,"ax",%progbits
 451              		.align	1
 452              		.global	CAMERA_PwrDown
 453              		.syntax unified
 454              		.thumb
 455              		.thumb_func
 456              		.fpu fpv5-sp-d16
 458              	CAMERA_PwrDown:
 459              	.LFB149:
 158:Src/ov7670_driver.c ****   GPIO_InitTypeDef gpio_init_structure;
 460              		.loc 1 158 1 is_stmt 1 view -0
 461              		.cfi_startproc
 462              		@ args = 0, pretend = 0, frame = 24
 463              		@ frame_needed = 0, uses_anonymous_args = 0
 464 0000 70B5     		push	{r4, r5, r6, lr}
 465              	.LCFI9:
 466              		.cfi_def_cfa_offset 16
ARM GAS  /tmp/ccqtoIOx.s 			page 19


 467              		.cfi_offset 4, -16
 468              		.cfi_offset 5, -12
 469              		.cfi_offset 6, -8
 470              		.cfi_offset 14, -4
 471 0002 86B0     		sub	sp, sp, #24
 472              	.LCFI10:
 473              		.cfi_def_cfa_offset 40
 159:Src/ov7670_driver.c **** 
 474              		.loc 1 159 3 view .LVU74
 162:Src/ov7670_driver.c **** 
 475              		.loc 1 162 3 view .LVU75
 476              	.LBB3:
 162:Src/ov7670_driver.c **** 
 477              		.loc 1 162 3 view .LVU76
 162:Src/ov7670_driver.c **** 
 478              		.loc 1 162 3 view .LVU77
 479 0004 0F4B     		ldr	r3, .L39
 480 0006 1A6B     		ldr	r2, [r3, #48]
 481 0008 42F08002 		orr	r2, r2, #128
 482 000c 1A63     		str	r2, [r3, #48]
 162:Src/ov7670_driver.c **** 
 483              		.loc 1 162 3 view .LVU78
 484 000e 1B6B     		ldr	r3, [r3, #48]
 485 0010 03F08003 		and	r3, r3, #128
 486 0014 0093     		str	r3, [sp]
 162:Src/ov7670_driver.c **** 
 487              		.loc 1 162 3 view .LVU79
 488 0016 009B     		ldr	r3, [sp]
 489              	.LBE3:
 162:Src/ov7670_driver.c **** 
 490              		.loc 1 162 3 view .LVU80
 166:Src/ov7670_driver.c ****   gpio_init_structure.Mode      = GPIO_MODE_OUTPUT_PP;
 491              		.loc 1 166 3 view .LVU81
 166:Src/ov7670_driver.c ****   gpio_init_structure.Mode      = GPIO_MODE_OUTPUT_PP;
 492              		.loc 1 166 33 is_stmt 0 view .LVU82
 493 0018 4FF40055 		mov	r5, #8192
 494 001c 0195     		str	r5, [sp, #4]
 167:Src/ov7670_driver.c ****   gpio_init_structure.Pull      = GPIO_NOPULL;
 495              		.loc 1 167 3 is_stmt 1 view .LVU83
 167:Src/ov7670_driver.c ****   gpio_init_structure.Pull      = GPIO_NOPULL;
 496              		.loc 1 167 33 is_stmt 0 view .LVU84
 497 001e 0126     		movs	r6, #1
 498 0020 0296     		str	r6, [sp, #8]
 168:Src/ov7670_driver.c ****   gpio_init_structure.Speed     = GPIO_SPEED_HIGH;
 499              		.loc 1 168 3 is_stmt 1 view .LVU85
 168:Src/ov7670_driver.c ****   gpio_init_structure.Speed     = GPIO_SPEED_HIGH;
 500              		.loc 1 168 33 is_stmt 0 view .LVU86
 501 0022 0023     		movs	r3, #0
 502 0024 0393     		str	r3, [sp, #12]
 169:Src/ov7670_driver.c ****   HAL_GPIO_Init(GPIOH, &gpio_init_structure);
 503              		.loc 1 169 3 is_stmt 1 view .LVU87
 169:Src/ov7670_driver.c ****   HAL_GPIO_Init(GPIOH, &gpio_init_structure);
 504              		.loc 1 169 33 is_stmt 0 view .LVU88
 505 0026 0323     		movs	r3, #3
 506 0028 0493     		str	r3, [sp, #16]
 170:Src/ov7670_driver.c **** 
 507              		.loc 1 170 3 is_stmt 1 view .LVU89
ARM GAS  /tmp/ccqtoIOx.s 			page 20


 508 002a 074C     		ldr	r4, .L39+4
 509 002c 01A9     		add	r1, sp, #4
 510 002e 2046     		mov	r0, r4
 511 0030 FFF7FEFF 		bl	HAL_GPIO_Init
 512              	.LVL35:
 173:Src/ov7670_driver.c **** }
 513              		.loc 1 173 3 view .LVU90
 514 0034 3246     		mov	r2, r6
 515 0036 2946     		mov	r1, r5
 516 0038 2046     		mov	r0, r4
 517 003a FFF7FEFF 		bl	HAL_GPIO_WritePin
 518              	.LVL36:
 174:Src/ov7670_driver.c **** 
 519              		.loc 1 174 1 is_stmt 0 view .LVU91
 520 003e 06B0     		add	sp, sp, #24
 521              	.LCFI11:
 522              		.cfi_def_cfa_offset 16
 523              		@ sp needed
 524 0040 70BD     		pop	{r4, r5, r6, pc}
 525              	.L40:
 526 0042 00BF     		.align	2
 527              	.L39:
 528 0044 00380240 		.word	1073887232
 529 0048 001C0240 		.word	1073880064
 530              		.cfi_endproc
 531              	.LFE149:
 533              		.section	.text.CAMERA_Stop,"ax",%progbits
 534              		.align	1
 535              		.global	CAMERA_Stop
 536              		.syntax unified
 537              		.thumb
 538              		.thumb_func
 539              		.fpu fpv5-sp-d16
 541              	CAMERA_Stop:
 542              	.LFB147:
 115:Src/ov7670_driver.c ****   uint8_t status = CAMERA_ERROR;
 543              		.loc 1 115 1 is_stmt 1 view -0
 544              		.cfi_startproc
 545              		@ args = 0, pretend = 0, frame = 0
 546              		@ frame_needed = 0, uses_anonymous_args = 0
 547 0000 10B5     		push	{r4, lr}
 548              	.LCFI12:
 549              		.cfi_def_cfa_offset 8
 550              		.cfi_offset 4, -8
 551              		.cfi_offset 14, -4
 116:Src/ov7670_driver.c ****   if(HAL_DCMI_Stop(&hDcmiHandler) == HAL_OK)
 552              		.loc 1 116 3 view .LVU93
 553              	.LVL37:
 117:Src/ov7670_driver.c ****   {
 554              		.loc 1 117 3 view .LVU94
 117:Src/ov7670_driver.c ****   {
 555              		.loc 1 117 6 is_stmt 0 view .LVU95
 556 0002 0548     		ldr	r0, .L44
 557 0004 FFF7FEFF 		bl	HAL_DCMI_Stop
 558              	.LVL38:
 117:Src/ov7670_driver.c ****   {
 559              		.loc 1 117 5 view .LVU96
ARM GAS  /tmp/ccqtoIOx.s 			page 21


 560 0008 0446     		mov	r4, r0
 561 000a 00B1     		cbz	r0, .L42
 116:Src/ov7670_driver.c ****   if(HAL_DCMI_Stop(&hDcmiHandler) == HAL_OK)
 562              		.loc 1 116 11 view .LVU97
 563 000c 0124     		movs	r4, #1
 564              	.L42:
 565              	.LVL39:
 123:Src/ov7670_driver.c **** 
 566              		.loc 1 123 3 is_stmt 1 view .LVU98
 567 000e FFF7FEFF 		bl	CAMERA_PwrDown
 568              	.LVL40:
 125:Src/ov7670_driver.c **** }
 569              		.loc 1 125 3 view .LVU99
 126:Src/ov7670_driver.c **** 
 570              		.loc 1 126 1 is_stmt 0 view .LVU100
 571 0012 2046     		mov	r0, r4
 572 0014 10BD     		pop	{r4, pc}
 573              	.LVL41:
 574              	.L45:
 126:Src/ov7670_driver.c **** 
 575              		.loc 1 126 1 view .LVU101
 576 0016 00BF     		.align	2
 577              	.L44:
 578 0018 00000000 		.word	hDcmiHandler
 579              		.cfi_endproc
 580              	.LFE147:
 582              		.section	.text.CAMERA_MspInit,"ax",%progbits
 583              		.align	1
 584              		.weak	CAMERA_MspInit
 585              		.syntax unified
 586              		.thumb
 587              		.thumb_func
 588              		.fpu fpv5-sp-d16
 590              	CAMERA_MspInit:
 591              	.LVL42:
 592              	.LFB151:
 215:Src/ov7670_driver.c ****   static DMA_HandleTypeDef hdma_handler;
 593              		.loc 1 215 1 is_stmt 1 view -0
 594              		.cfi_startproc
 595              		@ args = 0, pretend = 0, frame = 48
 596              		@ frame_needed = 0, uses_anonymous_args = 0
 215:Src/ov7670_driver.c ****   static DMA_HandleTypeDef hdma_handler;
 597              		.loc 1 215 1 is_stmt 0 view .LVU103
 598 0000 2DE9F041 		push	{r4, r5, r6, r7, r8, lr}
 599              	.LCFI13:
 600              		.cfi_def_cfa_offset 24
 601              		.cfi_offset 4, -24
 602              		.cfi_offset 5, -20
 603              		.cfi_offset 6, -16
 604              		.cfi_offset 7, -12
 605              		.cfi_offset 8, -8
 606              		.cfi_offset 14, -4
 607 0004 8CB0     		sub	sp, sp, #48
 608              	.LCFI14:
 609              		.cfi_def_cfa_offset 72
 610 0006 0646     		mov	r6, r0
 216:Src/ov7670_driver.c ****   GPIO_InitTypeDef gpio_init_structure;
ARM GAS  /tmp/ccqtoIOx.s 			page 22


 611              		.loc 1 216 3 is_stmt 1 view .LVU104
 217:Src/ov7670_driver.c ****   
 612              		.loc 1 217 3 view .LVU105
 221:Src/ov7670_driver.c **** 
 613              		.loc 1 221 3 view .LVU106
 614              	.LBB4:
 221:Src/ov7670_driver.c **** 
 615              		.loc 1 221 3 view .LVU107
 221:Src/ov7670_driver.c **** 
 616              		.loc 1 221 3 view .LVU108
 617 0008 584B     		ldr	r3, .L48
 618 000a 5A6B     		ldr	r2, [r3, #52]
 619 000c 42F00102 		orr	r2, r2, #1
 620 0010 5A63     		str	r2, [r3, #52]
 221:Src/ov7670_driver.c **** 
 621              		.loc 1 221 3 view .LVU109
 622 0012 5A6B     		ldr	r2, [r3, #52]
 623 0014 02F00102 		and	r2, r2, #1
 624 0018 0092     		str	r2, [sp]
 221:Src/ov7670_driver.c **** 
 625              		.loc 1 221 3 view .LVU110
 626 001a 009A     		ldr	r2, [sp]
 627              	.LBE4:
 221:Src/ov7670_driver.c **** 
 628              		.loc 1 221 3 view .LVU111
 224:Src/ov7670_driver.c ****   
 629              		.loc 1 224 3 view .LVU112
 630              	.LBB5:
 224:Src/ov7670_driver.c ****   
 631              		.loc 1 224 3 view .LVU113
 224:Src/ov7670_driver.c ****   
 632              		.loc 1 224 3 view .LVU114
 633 001c 1A6B     		ldr	r2, [r3, #48]
 634 001e 42F48002 		orr	r2, r2, #4194304
 635 0022 1A63     		str	r2, [r3, #48]
 224:Src/ov7670_driver.c ****   
 636              		.loc 1 224 3 view .LVU115
 637 0024 1A6B     		ldr	r2, [r3, #48]
 638 0026 02F48002 		and	r2, r2, #4194304
 639 002a 0192     		str	r2, [sp, #4]
 224:Src/ov7670_driver.c ****   
 640              		.loc 1 224 3 view .LVU116
 641 002c 019A     		ldr	r2, [sp, #4]
 642              	.LBE5:
 224:Src/ov7670_driver.c ****   
 643              		.loc 1 224 3 view .LVU117
 227:Src/ov7670_driver.c ****   __HAL_RCC_GPIOD_CLK_ENABLE();
 644              		.loc 1 227 3 view .LVU118
 645              	.LBB6:
 227:Src/ov7670_driver.c ****   __HAL_RCC_GPIOD_CLK_ENABLE();
 646              		.loc 1 227 3 view .LVU119
 227:Src/ov7670_driver.c ****   __HAL_RCC_GPIOD_CLK_ENABLE();
 647              		.loc 1 227 3 view .LVU120
 648 002e 1A6B     		ldr	r2, [r3, #48]
 649 0030 42F00102 		orr	r2, r2, #1
 650 0034 1A63     		str	r2, [r3, #48]
 227:Src/ov7670_driver.c ****   __HAL_RCC_GPIOD_CLK_ENABLE();
ARM GAS  /tmp/ccqtoIOx.s 			page 23


 651              		.loc 1 227 3 view .LVU121
 652 0036 1A6B     		ldr	r2, [r3, #48]
 653 0038 02F00102 		and	r2, r2, #1
 654 003c 0292     		str	r2, [sp, #8]
 227:Src/ov7670_driver.c ****   __HAL_RCC_GPIOD_CLK_ENABLE();
 655              		.loc 1 227 3 view .LVU122
 656 003e 029A     		ldr	r2, [sp, #8]
 657              	.LBE6:
 227:Src/ov7670_driver.c ****   __HAL_RCC_GPIOD_CLK_ENABLE();
 658              		.loc 1 227 3 view .LVU123
 228:Src/ov7670_driver.c ****   __HAL_RCC_GPIOE_CLK_ENABLE();
 659              		.loc 1 228 3 view .LVU124
 660              	.LBB7:
 228:Src/ov7670_driver.c ****   __HAL_RCC_GPIOE_CLK_ENABLE();
 661              		.loc 1 228 3 view .LVU125
 228:Src/ov7670_driver.c ****   __HAL_RCC_GPIOE_CLK_ENABLE();
 662              		.loc 1 228 3 view .LVU126
 663 0040 1A6B     		ldr	r2, [r3, #48]
 664 0042 42F00802 		orr	r2, r2, #8
 665 0046 1A63     		str	r2, [r3, #48]
 228:Src/ov7670_driver.c ****   __HAL_RCC_GPIOE_CLK_ENABLE();
 666              		.loc 1 228 3 view .LVU127
 667 0048 1A6B     		ldr	r2, [r3, #48]
 668 004a 02F00802 		and	r2, r2, #8
 669 004e 0392     		str	r2, [sp, #12]
 228:Src/ov7670_driver.c ****   __HAL_RCC_GPIOE_CLK_ENABLE();
 670              		.loc 1 228 3 view .LVU128
 671 0050 039A     		ldr	r2, [sp, #12]
 672              	.LBE7:
 228:Src/ov7670_driver.c ****   __HAL_RCC_GPIOE_CLK_ENABLE();
 673              		.loc 1 228 3 view .LVU129
 229:Src/ov7670_driver.c ****   __HAL_RCC_GPIOG_CLK_ENABLE();
 674              		.loc 1 229 3 view .LVU130
 675              	.LBB8:
 229:Src/ov7670_driver.c ****   __HAL_RCC_GPIOG_CLK_ENABLE();
 676              		.loc 1 229 3 view .LVU131
 229:Src/ov7670_driver.c ****   __HAL_RCC_GPIOG_CLK_ENABLE();
 677              		.loc 1 229 3 view .LVU132
 678 0052 1A6B     		ldr	r2, [r3, #48]
 679 0054 42F01002 		orr	r2, r2, #16
 680 0058 1A63     		str	r2, [r3, #48]
 229:Src/ov7670_driver.c ****   __HAL_RCC_GPIOG_CLK_ENABLE();
 681              		.loc 1 229 3 view .LVU133
 682 005a 1A6B     		ldr	r2, [r3, #48]
 683 005c 02F01002 		and	r2, r2, #16
 684 0060 0492     		str	r2, [sp, #16]
 229:Src/ov7670_driver.c ****   __HAL_RCC_GPIOG_CLK_ENABLE();
 685              		.loc 1 229 3 view .LVU134
 686 0062 049A     		ldr	r2, [sp, #16]
 687              	.LBE8:
 229:Src/ov7670_driver.c ****   __HAL_RCC_GPIOG_CLK_ENABLE();
 688              		.loc 1 229 3 view .LVU135
 230:Src/ov7670_driver.c ****   __HAL_RCC_GPIOH_CLK_ENABLE();
 689              		.loc 1 230 3 view .LVU136
 690              	.LBB9:
 230:Src/ov7670_driver.c ****   __HAL_RCC_GPIOH_CLK_ENABLE();
 691              		.loc 1 230 3 view .LVU137
ARM GAS  /tmp/ccqtoIOx.s 			page 24


 230:Src/ov7670_driver.c ****   __HAL_RCC_GPIOH_CLK_ENABLE();
 692              		.loc 1 230 3 view .LVU138
 693 0064 1A6B     		ldr	r2, [r3, #48]
 694 0066 42F04002 		orr	r2, r2, #64
 695 006a 1A63     		str	r2, [r3, #48]
 230:Src/ov7670_driver.c ****   __HAL_RCC_GPIOH_CLK_ENABLE();
 696              		.loc 1 230 3 view .LVU139
 697 006c 1A6B     		ldr	r2, [r3, #48]
 698 006e 02F04002 		and	r2, r2, #64
 699 0072 0592     		str	r2, [sp, #20]
 230:Src/ov7670_driver.c ****   __HAL_RCC_GPIOH_CLK_ENABLE();
 700              		.loc 1 230 3 view .LVU140
 701 0074 059A     		ldr	r2, [sp, #20]
 702              	.LBE9:
 230:Src/ov7670_driver.c ****   __HAL_RCC_GPIOH_CLK_ENABLE();
 703              		.loc 1 230 3 view .LVU141
 231:Src/ov7670_driver.c **** 
 704              		.loc 1 231 3 view .LVU142
 705              	.LBB10:
 231:Src/ov7670_driver.c **** 
 706              		.loc 1 231 3 view .LVU143
 231:Src/ov7670_driver.c **** 
 707              		.loc 1 231 3 view .LVU144
 708 0076 1A6B     		ldr	r2, [r3, #48]
 709 0078 42F08002 		orr	r2, r2, #128
 710 007c 1A63     		str	r2, [r3, #48]
 231:Src/ov7670_driver.c **** 
 711              		.loc 1 231 3 view .LVU145
 712 007e 1B6B     		ldr	r3, [r3, #48]
 713 0080 03F08003 		and	r3, r3, #128
 714 0084 0693     		str	r3, [sp, #24]
 231:Src/ov7670_driver.c **** 
 715              		.loc 1 231 3 view .LVU146
 716 0086 069B     		ldr	r3, [sp, #24]
 717              	.LBE10:
 231:Src/ov7670_driver.c **** 
 718              		.loc 1 231 3 view .LVU147
 235:Src/ov7670_driver.c ****   gpio_init_structure.Mode      = GPIO_MODE_AF_PP;
 719              		.loc 1 235 3 view .LVU148
 235:Src/ov7670_driver.c ****   gpio_init_structure.Mode      = GPIO_MODE_AF_PP;
 720              		.loc 1 235 33 is_stmt 0 view .LVU149
 721 0088 5023     		movs	r3, #80
 722 008a 0793     		str	r3, [sp, #28]
 236:Src/ov7670_driver.c ****   gpio_init_structure.Pull      = GPIO_PULLUP;
 723              		.loc 1 236 3 is_stmt 1 view .LVU150
 236:Src/ov7670_driver.c ****   gpio_init_structure.Pull      = GPIO_PULLUP;
 724              		.loc 1 236 33 is_stmt 0 view .LVU151
 725 008c 4FF00208 		mov	r8, #2
 726 0090 CDF82080 		str	r8, [sp, #32]
 237:Src/ov7670_driver.c ****   gpio_init_structure.Speed     = GPIO_SPEED_HIGH;
 727              		.loc 1 237 3 is_stmt 1 view .LVU152
 237:Src/ov7670_driver.c ****   gpio_init_structure.Speed     = GPIO_SPEED_HIGH;
 728              		.loc 1 237 33 is_stmt 0 view .LVU153
 729 0094 0127     		movs	r7, #1
 730 0096 0997     		str	r7, [sp, #36]
 238:Src/ov7670_driver.c ****   gpio_init_structure.Alternate = GPIO_AF13_DCMI;
 731              		.loc 1 238 3 is_stmt 1 view .LVU154
ARM GAS  /tmp/ccqtoIOx.s 			page 25


 238:Src/ov7670_driver.c ****   gpio_init_structure.Alternate = GPIO_AF13_DCMI;
 732              		.loc 1 238 33 is_stmt 0 view .LVU155
 733 0098 0325     		movs	r5, #3
 734 009a 0A95     		str	r5, [sp, #40]
 239:Src/ov7670_driver.c ****   HAL_GPIO_Init(GPIOA, &gpio_init_structure);
 735              		.loc 1 239 3 is_stmt 1 view .LVU156
 239:Src/ov7670_driver.c ****   HAL_GPIO_Init(GPIOA, &gpio_init_structure);
 736              		.loc 1 239 33 is_stmt 0 view .LVU157
 737 009c 0D24     		movs	r4, #13
 738 009e 0B94     		str	r4, [sp, #44]
 240:Src/ov7670_driver.c **** 
 739              		.loc 1 240 3 is_stmt 1 view .LVU158
 740 00a0 07A9     		add	r1, sp, #28
 741              	.LVL43:
 240:Src/ov7670_driver.c **** 
 742              		.loc 1 240 3 is_stmt 0 view .LVU159
 743 00a2 3348     		ldr	r0, .L48+4
 744              	.LVL44:
 240:Src/ov7670_driver.c **** 
 745              		.loc 1 240 3 view .LVU160
 746 00a4 FFF7FEFF 		bl	HAL_GPIO_Init
 747              	.LVL45:
 242:Src/ov7670_driver.c ****   gpio_init_structure.Mode      = GPIO_MODE_AF_PP;
 748              		.loc 1 242 3 is_stmt 1 view .LVU161
 242:Src/ov7670_driver.c ****   gpio_init_structure.Mode      = GPIO_MODE_AF_PP;
 749              		.loc 1 242 33 is_stmt 0 view .LVU162
 750 00a8 0823     		movs	r3, #8
 751 00aa 0793     		str	r3, [sp, #28]
 243:Src/ov7670_driver.c ****   gpio_init_structure.Pull      = GPIO_PULLUP;
 752              		.loc 1 243 3 is_stmt 1 view .LVU163
 243:Src/ov7670_driver.c ****   gpio_init_structure.Pull      = GPIO_PULLUP;
 753              		.loc 1 243 33 is_stmt 0 view .LVU164
 754 00ac CDF82080 		str	r8, [sp, #32]
 244:Src/ov7670_driver.c ****   gpio_init_structure.Speed     = GPIO_SPEED_HIGH;
 755              		.loc 1 244 3 is_stmt 1 view .LVU165
 244:Src/ov7670_driver.c ****   gpio_init_structure.Speed     = GPIO_SPEED_HIGH;
 756              		.loc 1 244 33 is_stmt 0 view .LVU166
 757 00b0 0997     		str	r7, [sp, #36]
 245:Src/ov7670_driver.c ****   gpio_init_structure.Alternate = GPIO_AF13_DCMI;
 758              		.loc 1 245 3 is_stmt 1 view .LVU167
 245:Src/ov7670_driver.c ****   gpio_init_structure.Alternate = GPIO_AF13_DCMI;
 759              		.loc 1 245 33 is_stmt 0 view .LVU168
 760 00b2 0A95     		str	r5, [sp, #40]
 246:Src/ov7670_driver.c ****   HAL_GPIO_Init(GPIOD, &gpio_init_structure);
 761              		.loc 1 246 3 is_stmt 1 view .LVU169
 246:Src/ov7670_driver.c ****   HAL_GPIO_Init(GPIOD, &gpio_init_structure);
 762              		.loc 1 246 33 is_stmt 0 view .LVU170
 763 00b4 0B94     		str	r4, [sp, #44]
 247:Src/ov7670_driver.c **** 
 764              		.loc 1 247 3 is_stmt 1 view .LVU171
 765 00b6 07A9     		add	r1, sp, #28
 766 00b8 2E48     		ldr	r0, .L48+8
 767 00ba FFF7FEFF 		bl	HAL_GPIO_Init
 768              	.LVL46:
 249:Src/ov7670_driver.c ****   gpio_init_structure.Mode      = GPIO_MODE_AF_PP;
 769              		.loc 1 249 3 view .LVU172
 249:Src/ov7670_driver.c ****   gpio_init_structure.Mode      = GPIO_MODE_AF_PP;
ARM GAS  /tmp/ccqtoIOx.s 			page 26


 770              		.loc 1 249 33 is_stmt 0 view .LVU173
 771 00be 6023     		movs	r3, #96
 772 00c0 0793     		str	r3, [sp, #28]
 250:Src/ov7670_driver.c ****   gpio_init_structure.Pull      = GPIO_PULLUP;
 773              		.loc 1 250 3 is_stmt 1 view .LVU174
 250:Src/ov7670_driver.c ****   gpio_init_structure.Pull      = GPIO_PULLUP;
 774              		.loc 1 250 33 is_stmt 0 view .LVU175
 775 00c2 CDF82080 		str	r8, [sp, #32]
 251:Src/ov7670_driver.c ****   gpio_init_structure.Speed     = GPIO_SPEED_HIGH;
 776              		.loc 1 251 3 is_stmt 1 view .LVU176
 251:Src/ov7670_driver.c ****   gpio_init_structure.Speed     = GPIO_SPEED_HIGH;
 777              		.loc 1 251 33 is_stmt 0 view .LVU177
 778 00c6 0997     		str	r7, [sp, #36]
 252:Src/ov7670_driver.c ****   gpio_init_structure.Alternate = GPIO_AF13_DCMI;
 779              		.loc 1 252 3 is_stmt 1 view .LVU178
 252:Src/ov7670_driver.c ****   gpio_init_structure.Alternate = GPIO_AF13_DCMI;
 780              		.loc 1 252 33 is_stmt 0 view .LVU179
 781 00c8 0A95     		str	r5, [sp, #40]
 253:Src/ov7670_driver.c ****   HAL_GPIO_Init(GPIOE, &gpio_init_structure);
 782              		.loc 1 253 3 is_stmt 1 view .LVU180
 253:Src/ov7670_driver.c ****   HAL_GPIO_Init(GPIOE, &gpio_init_structure);
 783              		.loc 1 253 33 is_stmt 0 view .LVU181
 784 00ca 0B94     		str	r4, [sp, #44]
 254:Src/ov7670_driver.c **** 
 785              		.loc 1 254 3 is_stmt 1 view .LVU182
 786 00cc 07A9     		add	r1, sp, #28
 787 00ce 2A48     		ldr	r0, .L48+12
 788 00d0 FFF7FEFF 		bl	HAL_GPIO_Init
 789              	.LVL47:
 256:Src/ov7670_driver.c ****   gpio_init_structure.Mode      = GPIO_MODE_AF_PP;
 790              		.loc 1 256 3 view .LVU183
 256:Src/ov7670_driver.c ****   gpio_init_structure.Mode      = GPIO_MODE_AF_PP;
 791              		.loc 1 256 33 is_stmt 0 view .LVU184
 792 00d4 4FF40073 		mov	r3, #512
 793 00d8 0793     		str	r3, [sp, #28]
 257:Src/ov7670_driver.c ****   gpio_init_structure.Pull      = GPIO_PULLUP;
 794              		.loc 1 257 3 is_stmt 1 view .LVU185
 257:Src/ov7670_driver.c ****   gpio_init_structure.Pull      = GPIO_PULLUP;
 795              		.loc 1 257 33 is_stmt 0 view .LVU186
 796 00da CDF82080 		str	r8, [sp, #32]
 258:Src/ov7670_driver.c ****   gpio_init_structure.Speed     = GPIO_SPEED_HIGH;
 797              		.loc 1 258 3 is_stmt 1 view .LVU187
 258:Src/ov7670_driver.c ****   gpio_init_structure.Speed     = GPIO_SPEED_HIGH;
 798              		.loc 1 258 33 is_stmt 0 view .LVU188
 799 00de 0997     		str	r7, [sp, #36]
 259:Src/ov7670_driver.c ****   gpio_init_structure.Alternate = GPIO_AF13_DCMI;
 800              		.loc 1 259 3 is_stmt 1 view .LVU189
 259:Src/ov7670_driver.c ****   gpio_init_structure.Alternate = GPIO_AF13_DCMI;
 801              		.loc 1 259 33 is_stmt 0 view .LVU190
 802 00e0 0A95     		str	r5, [sp, #40]
 260:Src/ov7670_driver.c ****   HAL_GPIO_Init(GPIOG, &gpio_init_structure);
 803              		.loc 1 260 3 is_stmt 1 view .LVU191
 260:Src/ov7670_driver.c ****   HAL_GPIO_Init(GPIOG, &gpio_init_structure);
 804              		.loc 1 260 33 is_stmt 0 view .LVU192
 805 00e2 0B94     		str	r4, [sp, #44]
 261:Src/ov7670_driver.c **** 
 806              		.loc 1 261 3 is_stmt 1 view .LVU193
ARM GAS  /tmp/ccqtoIOx.s 			page 27


 807 00e4 07A9     		add	r1, sp, #28
 808 00e6 2548     		ldr	r0, .L48+16
 809 00e8 FFF7FEFF 		bl	HAL_GPIO_Init
 810              	.LVL48:
 263:Src/ov7670_driver.c ****                                   GPIO_PIN_12 | GPIO_PIN_14;
 811              		.loc 1 263 3 view .LVU194
 263:Src/ov7670_driver.c ****                                   GPIO_PIN_12 | GPIO_PIN_14;
 812              		.loc 1 263 33 is_stmt 0 view .LVU195
 813 00ec 4FF4BC43 		mov	r3, #24064
 814 00f0 0793     		str	r3, [sp, #28]
 265:Src/ov7670_driver.c ****   gpio_init_structure.Pull      = GPIO_PULLUP;
 815              		.loc 1 265 3 is_stmt 1 view .LVU196
 265:Src/ov7670_driver.c ****   gpio_init_structure.Pull      = GPIO_PULLUP;
 816              		.loc 1 265 33 is_stmt 0 view .LVU197
 817 00f2 CDF82080 		str	r8, [sp, #32]
 266:Src/ov7670_driver.c ****   gpio_init_structure.Speed     = GPIO_SPEED_HIGH;
 818              		.loc 1 266 3 is_stmt 1 view .LVU198
 266:Src/ov7670_driver.c ****   gpio_init_structure.Speed     = GPIO_SPEED_HIGH;
 819              		.loc 1 266 33 is_stmt 0 view .LVU199
 820 00f6 0997     		str	r7, [sp, #36]
 267:Src/ov7670_driver.c ****   gpio_init_structure.Alternate = GPIO_AF13_DCMI;
 821              		.loc 1 267 3 is_stmt 1 view .LVU200
 267:Src/ov7670_driver.c ****   gpio_init_structure.Alternate = GPIO_AF13_DCMI;
 822              		.loc 1 267 33 is_stmt 0 view .LVU201
 823 00f8 0A95     		str	r5, [sp, #40]
 268:Src/ov7670_driver.c ****   HAL_GPIO_Init(GPIOH, &gpio_init_structure);
 824              		.loc 1 268 3 is_stmt 1 view .LVU202
 268:Src/ov7670_driver.c ****   HAL_GPIO_Init(GPIOH, &gpio_init_structure);
 825              		.loc 1 268 33 is_stmt 0 view .LVU203
 826 00fa 0B94     		str	r4, [sp, #44]
 269:Src/ov7670_driver.c **** 
 827              		.loc 1 269 3 is_stmt 1 view .LVU204
 828 00fc 07A9     		add	r1, sp, #28
 829 00fe 2048     		ldr	r0, .L48+20
 830 0100 FFF7FEFF 		bl	HAL_GPIO_Init
 831              	.LVL49:
 273:Src/ov7670_driver.c ****   hdma_handler.Init.Direction           = DMA_PERIPH_TO_MEMORY;
 832              		.loc 1 273 3 view .LVU205
 273:Src/ov7670_driver.c ****   hdma_handler.Init.Direction           = DMA_PERIPH_TO_MEMORY;
 833              		.loc 1 273 41 is_stmt 0 view .LVU206
 834 0104 1F4B     		ldr	r3, .L48+24
 835 0106 4FF00072 		mov	r2, #33554432
 836 010a 5A60     		str	r2, [r3, #4]
 274:Src/ov7670_driver.c ****   hdma_handler.Init.PeriphInc           = DMA_PINC_DISABLE;
 837              		.loc 1 274 3 is_stmt 1 view .LVU207
 274:Src/ov7670_driver.c ****   hdma_handler.Init.PeriphInc           = DMA_PINC_DISABLE;
 838              		.loc 1 274 41 is_stmt 0 view .LVU208
 839 010c 0024     		movs	r4, #0
 840 010e 9C60     		str	r4, [r3, #8]
 275:Src/ov7670_driver.c ****   hdma_handler.Init.MemInc              = DMA_MINC_ENABLE;
 841              		.loc 1 275 3 is_stmt 1 view .LVU209
 275:Src/ov7670_driver.c ****   hdma_handler.Init.MemInc              = DMA_MINC_ENABLE;
 842              		.loc 1 275 41 is_stmt 0 view .LVU210
 843 0110 DC60     		str	r4, [r3, #12]
 276:Src/ov7670_driver.c ****   hdma_handler.Init.PeriphDataAlignment = DMA_PDATAALIGN_WORD;
 844              		.loc 1 276 3 is_stmt 1 view .LVU211
 276:Src/ov7670_driver.c ****   hdma_handler.Init.PeriphDataAlignment = DMA_PDATAALIGN_WORD;
ARM GAS  /tmp/ccqtoIOx.s 			page 28


 845              		.loc 1 276 41 is_stmt 0 view .LVU212
 846 0112 4FF48062 		mov	r2, #1024
 847 0116 1A61     		str	r2, [r3, #16]
 277:Src/ov7670_driver.c ****   hdma_handler.Init.MemDataAlignment    = DMA_MDATAALIGN_WORD;
 848              		.loc 1 277 3 is_stmt 1 view .LVU213
 277:Src/ov7670_driver.c ****   hdma_handler.Init.MemDataAlignment    = DMA_MDATAALIGN_WORD;
 849              		.loc 1 277 41 is_stmt 0 view .LVU214
 850 0118 4FF48052 		mov	r2, #4096
 851 011c 5A61     		str	r2, [r3, #20]
 278:Src/ov7670_driver.c ****   hdma_handler.Init.Mode                = DMA_CIRCULAR;
 852              		.loc 1 278 3 is_stmt 1 view .LVU215
 278:Src/ov7670_driver.c ****   hdma_handler.Init.Mode                = DMA_CIRCULAR;
 853              		.loc 1 278 41 is_stmt 0 view .LVU216
 854 011e 4FF48042 		mov	r2, #16384
 855 0122 9A61     		str	r2, [r3, #24]
 279:Src/ov7670_driver.c ****   hdma_handler.Init.Priority            = DMA_PRIORITY_HIGH;
 856              		.loc 1 279 3 is_stmt 1 view .LVU217
 279:Src/ov7670_driver.c ****   hdma_handler.Init.Priority            = DMA_PRIORITY_HIGH;
 857              		.loc 1 279 41 is_stmt 0 view .LVU218
 858 0124 4FF48072 		mov	r2, #256
 859 0128 DA61     		str	r2, [r3, #28]
 280:Src/ov7670_driver.c ****   hdma_handler.Init.FIFOMode            = DMA_FIFOMODE_DISABLE;
 860              		.loc 1 280 3 is_stmt 1 view .LVU219
 280:Src/ov7670_driver.c ****   hdma_handler.Init.FIFOMode            = DMA_FIFOMODE_DISABLE;
 861              		.loc 1 280 41 is_stmt 0 view .LVU220
 862 012a 4FF40032 		mov	r2, #131072
 863 012e 1A62     		str	r2, [r3, #32]
 281:Src/ov7670_driver.c ****   hdma_handler.Init.FIFOThreshold       = DMA_FIFO_THRESHOLD_FULL;
 864              		.loc 1 281 3 is_stmt 1 view .LVU221
 281:Src/ov7670_driver.c ****   hdma_handler.Init.FIFOThreshold       = DMA_FIFO_THRESHOLD_FULL;
 865              		.loc 1 281 41 is_stmt 0 view .LVU222
 866 0130 5C62     		str	r4, [r3, #36]
 282:Src/ov7670_driver.c ****   hdma_handler.Init.MemBurst            = DMA_MBURST_SINGLE;
 867              		.loc 1 282 3 is_stmt 1 view .LVU223
 282:Src/ov7670_driver.c ****   hdma_handler.Init.MemBurst            = DMA_MBURST_SINGLE;
 868              		.loc 1 282 41 is_stmt 0 view .LVU224
 869 0132 9D62     		str	r5, [r3, #40]
 283:Src/ov7670_driver.c ****   hdma_handler.Init.PeriphBurst         = DMA_PBURST_SINGLE; 
 870              		.loc 1 283 3 is_stmt 1 view .LVU225
 283:Src/ov7670_driver.c ****   hdma_handler.Init.PeriphBurst         = DMA_PBURST_SINGLE; 
 871              		.loc 1 283 41 is_stmt 0 view .LVU226
 872 0134 DC62     		str	r4, [r3, #44]
 284:Src/ov7670_driver.c **** 
 873              		.loc 1 284 3 is_stmt 1 view .LVU227
 284:Src/ov7670_driver.c **** 
 874              		.loc 1 284 41 is_stmt 0 view .LVU228
 875 0136 1C63     		str	r4, [r3, #48]
 286:Src/ov7670_driver.c **** 
 876              		.loc 1 286 3 is_stmt 1 view .LVU229
 286:Src/ov7670_driver.c **** 
 877              		.loc 1 286 25 is_stmt 0 view .LVU230
 878 0138 134A     		ldr	r2, .L48+28
 879 013a 1A60     		str	r2, [r3]
 289:Src/ov7670_driver.c ****   
 880              		.loc 1 289 3 is_stmt 1 view .LVU231
 289:Src/ov7670_driver.c ****   
 881              		.loc 1 289 3 view .LVU232
ARM GAS  /tmp/ccqtoIOx.s 			page 29


 882 013c B364     		str	r3, [r6, #72]
 289:Src/ov7670_driver.c ****   
 883              		.loc 1 289 3 view .LVU233
 884 013e 9E63     		str	r6, [r3, #56]
 289:Src/ov7670_driver.c ****   
 885              		.loc 1 289 3 view .LVU234
 293:Src/ov7670_driver.c ****   HAL_NVIC_EnableIRQ(DCMI_IRQn);  
 886              		.loc 1 293 3 view .LVU235
 887 0140 2246     		mov	r2, r4
 888 0142 0F21     		movs	r1, #15
 889 0144 4E20     		movs	r0, #78
 890 0146 FFF7FEFF 		bl	HAL_NVIC_SetPriority
 891              	.LVL50:
 294:Src/ov7670_driver.c ****   
 892              		.loc 1 294 3 view .LVU236
 893 014a 4E20     		movs	r0, #78
 894 014c FFF7FEFF 		bl	HAL_NVIC_EnableIRQ
 895              	.LVL51:
 297:Src/ov7670_driver.c ****   HAL_NVIC_EnableIRQ(DMA2_Stream1_IRQn);
 896              		.loc 1 297 3 view .LVU237
 897 0150 2246     		mov	r2, r4
 898 0152 0F21     		movs	r1, #15
 899 0154 3920     		movs	r0, #57
 900 0156 FFF7FEFF 		bl	HAL_NVIC_SetPriority
 901              	.LVL52:
 298:Src/ov7670_driver.c ****   
 902              		.loc 1 298 3 view .LVU238
 903 015a 3920     		movs	r0, #57
 904 015c FFF7FEFF 		bl	HAL_NVIC_EnableIRQ
 905              	.LVL53:
 301:Src/ov7670_driver.c **** }
 906              		.loc 1 301 3 view .LVU239
 907 0160 B06C     		ldr	r0, [r6, #72]
 908 0162 FFF7FEFF 		bl	HAL_DMA_Init
 909              	.LVL54:
 302:Src/ov7670_driver.c **** 
 910              		.loc 1 302 1 is_stmt 0 view .LVU240
 911 0166 0CB0     		add	sp, sp, #48
 912              	.LCFI15:
 913              		.cfi_def_cfa_offset 24
 914              		@ sp needed
 915 0168 BDE8F081 		pop	{r4, r5, r6, r7, r8, pc}
 916              	.LVL55:
 917              	.L49:
 302:Src/ov7670_driver.c **** 
 918              		.loc 1 302 1 view .LVU241
 919              		.align	2
 920              	.L48:
 921 016c 00380240 		.word	1073887232
 922 0170 00000240 		.word	1073872896
 923 0174 000C0240 		.word	1073875968
 924 0178 00100240 		.word	1073876992
 925 017c 00180240 		.word	1073879040
 926 0180 001C0240 		.word	1073880064
 927 0184 00000000 		.word	.LANCHOR2
 928 0188 28640240 		.word	1073898536
 929              		.cfi_endproc
ARM GAS  /tmp/ccqtoIOx.s 			page 30


 930              	.LFE151:
 932              		.section	.text.CAMERA_Init,"ax",%progbits
 933              		.align	1
 934              		.global	CAMERA_Init
 935              		.syntax unified
 936              		.thumb
 937              		.thumb_func
 938              		.fpu fpv5-sp-d16
 940              	CAMERA_Init:
 941              	.LVL56:
 942              	.LFB141:
  22:Src/ov7670_driver.c ****   DCMI_HandleTypeDef *phdcmi;
 943              		.loc 1 22 1 is_stmt 1 view -0
 944              		.cfi_startproc
 945              		@ args = 0, pretend = 0, frame = 0
 946              		@ frame_needed = 0, uses_anonymous_args = 0
  22:Src/ov7670_driver.c ****   DCMI_HandleTypeDef *phdcmi;
 947              		.loc 1 22 1 is_stmt 0 view .LVU243
 948 0000 F8B5     		push	{r3, r4, r5, r6, r7, lr}
 949              	.LCFI16:
 950              		.cfi_def_cfa_offset 24
 951              		.cfi_offset 3, -24
 952              		.cfi_offset 4, -20
 953              		.cfi_offset 5, -16
 954              		.cfi_offset 6, -12
 955              		.cfi_offset 7, -8
 956              		.cfi_offset 14, -4
 957 0002 0646     		mov	r6, r0
  23:Src/ov7670_driver.c ****   uint8_t status = CAMERA_ERROR;
 958              		.loc 1 23 3 is_stmt 1 view .LVU244
  24:Src/ov7670_driver.c **** 
 959              		.loc 1 24 3 view .LVU245
 960              	.LVL57:
  27:Src/ov7670_driver.c **** 
 961              		.loc 1 27 3 view .LVU246
  31:Src/ov7670_driver.c ****   phdcmi->Init.HSPolarity       = DCMI_HSPOLARITY_LOW;
 962              		.loc 1 31 3 view .LVU247
  31:Src/ov7670_driver.c ****   phdcmi->Init.HSPolarity       = DCMI_HSPOLARITY_LOW;
 963              		.loc 1 31 33 is_stmt 0 view .LVU248
 964 0004 124C     		ldr	r4, .L52
 965 0006 0025     		movs	r5, #0
 966 0008 6561     		str	r5, [r4, #20]
  32:Src/ov7670_driver.c ****   phdcmi->Init.SynchroMode      = DCMI_SYNCHRO_HARDWARE;
 967              		.loc 1 32 3 is_stmt 1 view .LVU249
  32:Src/ov7670_driver.c ****   phdcmi->Init.SynchroMode      = DCMI_SYNCHRO_HARDWARE;
 968              		.loc 1 32 33 is_stmt 0 view .LVU250
 969 000a 2561     		str	r5, [r4, #16]
  33:Src/ov7670_driver.c ****   phdcmi->Init.VSPolarity       = DCMI_VSPOLARITY_HIGH;
 970              		.loc 1 33 3 is_stmt 1 view .LVU251
  33:Src/ov7670_driver.c ****   phdcmi->Init.VSPolarity       = DCMI_VSPOLARITY_HIGH;
 971              		.loc 1 33 33 is_stmt 0 view .LVU252
 972 000c 6560     		str	r5, [r4, #4]
  34:Src/ov7670_driver.c ****   phdcmi->Init.ExtendedDataMode = DCMI_EXTEND_DATA_8B;
 973              		.loc 1 34 3 is_stmt 1 view .LVU253
  34:Src/ov7670_driver.c ****   phdcmi->Init.ExtendedDataMode = DCMI_EXTEND_DATA_8B;
 974              		.loc 1 34 33 is_stmt 0 view .LVU254
 975 000e 8023     		movs	r3, #128
ARM GAS  /tmp/ccqtoIOx.s 			page 31


 976 0010 E360     		str	r3, [r4, #12]
  35:Src/ov7670_driver.c ****   phdcmi->Init.PCKPolarity      = DCMI_PCKPOLARITY_RISING;
 977              		.loc 1 35 3 is_stmt 1 view .LVU255
  35:Src/ov7670_driver.c ****   phdcmi->Init.PCKPolarity      = DCMI_PCKPOLARITY_RISING;
 978              		.loc 1 35 33 is_stmt 0 view .LVU256
 979 0012 A561     		str	r5, [r4, #24]
  36:Src/ov7670_driver.c ****   phdcmi->Instance              = DCMI;
 980              		.loc 1 36 3 is_stmt 1 view .LVU257
  36:Src/ov7670_driver.c ****   phdcmi->Instance              = DCMI;
 981              		.loc 1 36 33 is_stmt 0 view .LVU258
 982 0014 2023     		movs	r3, #32
 983 0016 A360     		str	r3, [r4, #8]
  37:Src/ov7670_driver.c **** 
 984              		.loc 1 37 3 is_stmt 1 view .LVU259
  37:Src/ov7670_driver.c **** 
 985              		.loc 1 37 33 is_stmt 0 view .LVU260
 986 0018 0E4B     		ldr	r3, .L52+4
 987 001a 2360     		str	r3, [r4]
  40:Src/ov7670_driver.c **** 
 988              		.loc 1 40 3 is_stmt 1 view .LVU261
 989 001c FFF7FEFF 		bl	CAMERA_PwrUp
 990              	.LVL58:
  43:Src/ov7670_driver.c ****   CameraHwAddress = CAMERA_I2C_ADDRESS;
 991              		.loc 1 43 3 view .LVU262
  43:Src/ov7670_driver.c ****   CameraHwAddress = CAMERA_I2C_ADDRESS;
 992              		.loc 1 43 14 is_stmt 0 view .LVU263
 993 0020 0D4B     		ldr	r3, .L52+8
 994 0022 0E4A     		ldr	r2, .L52+12
 995 0024 1A60     		str	r2, [r3]
  44:Src/ov7670_driver.c **** 
 996              		.loc 1 44 3 is_stmt 1 view .LVU264
  44:Src/ov7670_driver.c **** 
 997              		.loc 1 44 19 is_stmt 0 view .LVU265
 998 0026 0E4F     		ldr	r7, .L52+16
 999 0028 4223     		movs	r3, #66
 1000 002a 3B60     		str	r3, [r7]
  47:Src/ov7670_driver.c ****   HAL_DCMI_Init(phdcmi);
 1001              		.loc 1 47 3 is_stmt 1 view .LVU266
 1002 002c 2946     		mov	r1, r5
 1003 002e 2046     		mov	r0, r4
 1004 0030 FFF7FEFF 		bl	CAMERA_MspInit
 1005              	.LVL59:
  48:Src/ov7670_driver.c ****   ov7670_Init(CameraHwAddress, Resolution);
 1006              		.loc 1 48 3 view .LVU267
 1007 0034 2046     		mov	r0, r4
 1008 0036 FFF7FEFF 		bl	HAL_DCMI_Init
 1009              	.LVL60:
  49:Src/ov7670_driver.c ****   HAL_DCMI_DisableCROP(phdcmi);
 1010              		.loc 1 49 3 view .LVU268
 1011 003a 3146     		mov	r1, r6
 1012 003c 3888     		ldrh	r0, [r7]
 1013 003e FFF7FEFF 		bl	ov7670_Init
 1014              	.LVL61:
  50:Src/ov7670_driver.c ****   CameraCurrentResolution = Resolution;
 1015              		.loc 1 50 3 view .LVU269
 1016 0042 2046     		mov	r0, r4
 1017 0044 FFF7FEFF 		bl	HAL_DCMI_DisableCrop
ARM GAS  /tmp/ccqtoIOx.s 			page 32


 1018              	.LVL62:
  51:Src/ov7670_driver.c **** 
 1019              		.loc 1 51 3 view .LVU270
  51:Src/ov7670_driver.c **** 
 1020              		.loc 1 51 27 is_stmt 0 view .LVU271
 1021 0048 064B     		ldr	r3, .L52+20
 1022 004a 1E60     		str	r6, [r3]
  54:Src/ov7670_driver.c **** 
 1023              		.loc 1 54 3 is_stmt 1 view .LVU272
 1024              	.LVL63:
  56:Src/ov7670_driver.c **** }
 1025              		.loc 1 56 3 view .LVU273
  57:Src/ov7670_driver.c **** 
 1026              		.loc 1 57 1 is_stmt 0 view .LVU274
 1027 004c 2846     		mov	r0, r5
 1028 004e F8BD     		pop	{r3, r4, r5, r6, r7, pc}
 1029              	.LVL64:
 1030              	.L53:
  57:Src/ov7670_driver.c **** 
 1031              		.loc 1 57 1 view .LVU275
 1032              		.align	2
 1033              	.L52:
 1034 0050 00000000 		.word	hDcmiHandler
 1035 0054 00000550 		.word	1342504960
 1036 0058 00000000 		.word	camera_drv
 1037 005c 00000000 		.word	.LANCHOR3
 1038 0060 00000000 		.word	.LANCHOR4
 1039 0064 00000000 		.word	.LANCHOR1
 1040              		.cfi_endproc
 1041              	.LFE141:
 1043              		.section	.text.CAMERA_MspDeInit,"ax",%progbits
 1044              		.align	1
 1045              		.weak	CAMERA_MspDeInit
 1046              		.syntax unified
 1047              		.thumb
 1048              		.thumb_func
 1049              		.fpu fpv5-sp-d16
 1051              	CAMERA_MspDeInit:
 1052              	.LVL65:
 1053              	.LFB152:
 312:Src/ov7670_driver.c ****   /* Disable NVIC  for DCMI transfer complete interrupt */
 1054              		.loc 1 312 1 is_stmt 1 view -0
 1055              		.cfi_startproc
 1056              		@ args = 0, pretend = 0, frame = 0
 1057              		@ frame_needed = 0, uses_anonymous_args = 0
 312:Src/ov7670_driver.c ****   /* Disable NVIC  for DCMI transfer complete interrupt */
 1058              		.loc 1 312 1 is_stmt 0 view .LVU277
 1059 0000 10B5     		push	{r4, lr}
 1060              	.LCFI17:
 1061              		.cfi_def_cfa_offset 8
 1062              		.cfi_offset 4, -8
 1063              		.cfi_offset 14, -4
 1064 0002 0446     		mov	r4, r0
 314:Src/ov7670_driver.c ****   
 1065              		.loc 1 314 3 is_stmt 1 view .LVU278
 1066 0004 4E20     		movs	r0, #78
 1067              	.LVL66:
ARM GAS  /tmp/ccqtoIOx.s 			page 33


 314:Src/ov7670_driver.c ****   
 1068              		.loc 1 314 3 is_stmt 0 view .LVU279
 1069 0006 FFF7FEFF 		bl	HAL_NVIC_DisableIRQ
 1070              	.LVL67:
 317:Src/ov7670_driver.c ****   
 1071              		.loc 1 317 3 is_stmt 1 view .LVU280
 1072 000a 3920     		movs	r0, #57
 1073 000c FFF7FEFF 		bl	HAL_NVIC_DisableIRQ
 1074              	.LVL68:
 320:Src/ov7670_driver.c **** 
 1075              		.loc 1 320 3 view .LVU281
 1076 0010 A06C     		ldr	r0, [r4, #72]
 1077 0012 FFF7FEFF 		bl	HAL_DMA_DeInit
 1078              	.LVL69:
 323:Src/ov7670_driver.c **** 
 1079              		.loc 1 323 3 view .LVU282
 1080 0016 034A     		ldr	r2, .L56
 1081 0018 536B     		ldr	r3, [r2, #52]
 1082 001a 23F00103 		bic	r3, r3, #1
 1083 001e 5363     		str	r3, [r2, #52]
 327:Src/ov7670_driver.c **** 
 1084              		.loc 1 327 1 is_stmt 0 view .LVU283
 1085 0020 10BD     		pop	{r4, pc}
 1086              	.LVL70:
 1087              	.L57:
 327:Src/ov7670_driver.c **** 
 1088              		.loc 1 327 1 view .LVU284
 1089 0022 00BF     		.align	2
 1090              	.L56:
 1091 0024 00380240 		.word	1073887232
 1092              		.cfi_endproc
 1093              	.LFE152:
 1095              		.section	.text.CAMERA_DeInit,"ax",%progbits
 1096              		.align	1
 1097              		.global	CAMERA_DeInit
 1098              		.syntax unified
 1099              		.thumb
 1100              		.thumb_func
 1101              		.fpu fpv5-sp-d16
 1103              	CAMERA_DeInit:
 1104              	.LFB142:
  61:Src/ov7670_driver.c ****   hDcmiHandler.Instance              = DCMI;
 1105              		.loc 1 61 1 is_stmt 1 view -0
 1106              		.cfi_startproc
 1107              		@ args = 0, pretend = 0, frame = 0
 1108              		@ frame_needed = 0, uses_anonymous_args = 0
 1109 0000 10B5     		push	{r4, lr}
 1110              	.LCFI18:
 1111              		.cfi_def_cfa_offset 8
 1112              		.cfi_offset 4, -8
 1113              		.cfi_offset 14, -4
  62:Src/ov7670_driver.c ****   HAL_DCMI_DeInit(&hDcmiHandler);
 1114              		.loc 1 62 3 view .LVU286
  62:Src/ov7670_driver.c ****   HAL_DCMI_DeInit(&hDcmiHandler);
 1115              		.loc 1 62 38 is_stmt 0 view .LVU287
 1116 0002 064C     		ldr	r4, .L60
 1117 0004 064B     		ldr	r3, .L60+4
ARM GAS  /tmp/ccqtoIOx.s 			page 34


 1118 0006 2360     		str	r3, [r4]
  63:Src/ov7670_driver.c ****   CAMERA_MspDeInit(&hDcmiHandler, NULL);
 1119              		.loc 1 63 3 is_stmt 1 view .LVU288
 1120 0008 2046     		mov	r0, r4
 1121 000a FFF7FEFF 		bl	HAL_DCMI_DeInit
 1122              	.LVL71:
  64:Src/ov7670_driver.c ****   return CAMERA_OK;
 1123              		.loc 1 64 3 view .LVU289
 1124 000e 0021     		movs	r1, #0
 1125 0010 2046     		mov	r0, r4
 1126 0012 FFF7FEFF 		bl	CAMERA_MspDeInit
 1127              	.LVL72:
  65:Src/ov7670_driver.c **** }
 1128              		.loc 1 65 3 view .LVU290
  66:Src/ov7670_driver.c **** 
 1129              		.loc 1 66 1 is_stmt 0 view .LVU291
 1130 0016 0020     		movs	r0, #0
 1131 0018 10BD     		pop	{r4, pc}
 1132              	.L61:
 1133 001a 00BF     		.align	2
 1134              	.L60:
 1135 001c 00000000 		.word	hDcmiHandler
 1136 0020 00000550 		.word	1342504960
 1137              		.cfi_endproc
 1138              	.LFE142:
 1140              		.section	.text.CAMERA_LineEventCallback,"ax",%progbits
 1141              		.align	1
 1142              		.weak	CAMERA_LineEventCallback
 1143              		.syntax unified
 1144              		.thumb
 1145              		.thumb_func
 1146              		.fpu fpv5-sp-d16
 1148              	CAMERA_LineEventCallback:
 1149              	.LFB154:
 344:Src/ov7670_driver.c ****   /* NOTE : This function Should not be modified, when the callback is needed,
 1150              		.loc 1 344 1 is_stmt 1 view -0
 1151              		.cfi_startproc
 1152              		@ args = 0, pretend = 0, frame = 0
 1153              		@ frame_needed = 0, uses_anonymous_args = 0
 1154              		@ link register save eliminated.
 348:Src/ov7670_driver.c **** 
 1155              		.loc 1 348 1 view .LVU293
 1156 0000 7047     		bx	lr
 1157              		.cfi_endproc
 1158              	.LFE154:
 1160              		.section	.text.HAL_DCMI_LineEventCallback,"ax",%progbits
 1161              		.align	1
 1162              		.global	HAL_DCMI_LineEventCallback
 1163              		.syntax unified
 1164              		.thumb
 1165              		.thumb_func
 1166              		.fpu fpv5-sp-d16
 1168              	HAL_DCMI_LineEventCallback:
 1169              	.LVL73:
 1170              	.LFB153:
 335:Src/ov7670_driver.c ****   CAMERA_LineEventCallback();
 1171              		.loc 1 335 1 view -0
ARM GAS  /tmp/ccqtoIOx.s 			page 35


 1172              		.cfi_startproc
 1173              		@ args = 0, pretend = 0, frame = 0
 1174              		@ frame_needed = 0, uses_anonymous_args = 0
 335:Src/ov7670_driver.c ****   CAMERA_LineEventCallback();
 1175              		.loc 1 335 1 is_stmt 0 view .LVU295
 1176 0000 08B5     		push	{r3, lr}
 1177              	.LCFI19:
 1178              		.cfi_def_cfa_offset 8
 1179              		.cfi_offset 3, -8
 1180              		.cfi_offset 14, -4
 336:Src/ov7670_driver.c **** }
 1181              		.loc 1 336 3 is_stmt 1 view .LVU296
 1182 0002 FFF7FEFF 		bl	CAMERA_LineEventCallback
 1183              	.LVL74:
 337:Src/ov7670_driver.c **** 
 1184              		.loc 1 337 1 is_stmt 0 view .LVU297
 1185 0006 08BD     		pop	{r3, pc}
 1186              		.cfi_endproc
 1187              	.LFE153:
 1189              		.section	.text.CAMERA_VsyncEventCallback,"ax",%progbits
 1190              		.align	1
 1191              		.weak	CAMERA_VsyncEventCallback
 1192              		.syntax unified
 1193              		.thumb
 1194              		.thumb_func
 1195              		.fpu fpv5-sp-d16
 1197              	CAMERA_VsyncEventCallback:
 1198              	.LFB156:
 365:Src/ov7670_driver.c ****   /* NOTE : This function Should not be modified, when the callback is needed,
 1199              		.loc 1 365 1 is_stmt 1 view -0
 1200              		.cfi_startproc
 1201              		@ args = 0, pretend = 0, frame = 0
 1202              		@ frame_needed = 0, uses_anonymous_args = 0
 1203              		@ link register save eliminated.
 369:Src/ov7670_driver.c **** 
 1204              		.loc 1 369 1 view .LVU299
 1205 0000 7047     		bx	lr
 1206              		.cfi_endproc
 1207              	.LFE156:
 1209              		.section	.text.HAL_DCMI_VsyncEventCallback,"ax",%progbits
 1210              		.align	1
 1211              		.global	HAL_DCMI_VsyncEventCallback
 1212              		.syntax unified
 1213              		.thumb
 1214              		.thumb_func
 1215              		.fpu fpv5-sp-d16
 1217              	HAL_DCMI_VsyncEventCallback:
 1218              	.LVL75:
 1219              	.LFB155:
 356:Src/ov7670_driver.c ****   CAMERA_VsyncEventCallback();
 1220              		.loc 1 356 1 view -0
 1221              		.cfi_startproc
 1222              		@ args = 0, pretend = 0, frame = 0
 1223              		@ frame_needed = 0, uses_anonymous_args = 0
 356:Src/ov7670_driver.c ****   CAMERA_VsyncEventCallback();
 1224              		.loc 1 356 1 is_stmt 0 view .LVU301
 1225 0000 08B5     		push	{r3, lr}
ARM GAS  /tmp/ccqtoIOx.s 			page 36


 1226              	.LCFI20:
 1227              		.cfi_def_cfa_offset 8
 1228              		.cfi_offset 3, -8
 1229              		.cfi_offset 14, -4
 357:Src/ov7670_driver.c **** }
 1230              		.loc 1 357 3 is_stmt 1 view .LVU302
 1231 0002 FFF7FEFF 		bl	CAMERA_VsyncEventCallback
 1232              	.LVL76:
 358:Src/ov7670_driver.c **** 
 1233              		.loc 1 358 1 is_stmt 0 view .LVU303
 1234 0006 08BD     		pop	{r3, pc}
 1235              		.cfi_endproc
 1236              	.LFE155:
 1238              		.section	.text.CAMERA_FrameEventCallback,"ax",%progbits
 1239              		.align	1
 1240              		.weak	CAMERA_FrameEventCallback
 1241              		.syntax unified
 1242              		.thumb
 1243              		.thumb_func
 1244              		.fpu fpv5-sp-d16
 1246              	CAMERA_FrameEventCallback:
 1247              	.LFB158:
 386:Src/ov7670_driver.c ****   /* NOTE : This function Should not be modified, when the callback is needed,
 1248              		.loc 1 386 1 is_stmt 1 view -0
 1249              		.cfi_startproc
 1250              		@ args = 0, pretend = 0, frame = 0
 1251              		@ frame_needed = 0, uses_anonymous_args = 0
 1252              		@ link register save eliminated.
 390:Src/ov7670_driver.c **** 
 1253              		.loc 1 390 1 view .LVU305
 1254 0000 7047     		bx	lr
 1255              		.cfi_endproc
 1256              	.LFE158:
 1258              		.section	.text.HAL_DCMI_FrameEventCallback,"ax",%progbits
 1259              		.align	1
 1260              		.global	HAL_DCMI_FrameEventCallback
 1261              		.syntax unified
 1262              		.thumb
 1263              		.thumb_func
 1264              		.fpu fpv5-sp-d16
 1266              	HAL_DCMI_FrameEventCallback:
 1267              	.LVL77:
 1268              	.LFB157:
 377:Src/ov7670_driver.c ****   CAMERA_FrameEventCallback();
 1269              		.loc 1 377 1 view -0
 1270              		.cfi_startproc
 1271              		@ args = 0, pretend = 0, frame = 0
 1272              		@ frame_needed = 0, uses_anonymous_args = 0
 377:Src/ov7670_driver.c ****   CAMERA_FrameEventCallback();
 1273              		.loc 1 377 1 is_stmt 0 view .LVU307
 1274 0000 08B5     		push	{r3, lr}
 1275              	.LCFI21:
 1276              		.cfi_def_cfa_offset 8
 1277              		.cfi_offset 3, -8
 1278              		.cfi_offset 14, -4
 378:Src/ov7670_driver.c **** }
 1279              		.loc 1 378 3 is_stmt 1 view .LVU308
ARM GAS  /tmp/ccqtoIOx.s 			page 37


 1280 0002 FFF7FEFF 		bl	CAMERA_FrameEventCallback
 1281              	.LVL78:
 379:Src/ov7670_driver.c **** 
 1282              		.loc 1 379 1 is_stmt 0 view .LVU309
 1283 0006 08BD     		pop	{r3, pc}
 1284              		.cfi_endproc
 1285              	.LFE157:
 1287              		.section	.text.CAMERA_ErrorCallback,"ax",%progbits
 1288              		.align	1
 1289              		.weak	CAMERA_ErrorCallback
 1290              		.syntax unified
 1291              		.thumb
 1292              		.thumb_func
 1293              		.fpu fpv5-sp-d16
 1295              	CAMERA_ErrorCallback:
 1296              	.LFB160:
 407:Src/ov7670_driver.c ****   /* NOTE : This function Should not be modified, when the callback is needed,
 1297              		.loc 1 407 1 is_stmt 1 view -0
 1298              		.cfi_startproc
 1299              		@ args = 0, pretend = 0, frame = 0
 1300              		@ frame_needed = 0, uses_anonymous_args = 0
 1301              		@ link register save eliminated.
 411:Src/ov7670_driver.c **** 
 1302              		.loc 1 411 1 view .LVU311
 1303 0000 7047     		bx	lr
 1304              		.cfi_endproc
 1305              	.LFE160:
 1307              		.section	.text.HAL_DCMI_ErrorCallback,"ax",%progbits
 1308              		.align	1
 1309              		.global	HAL_DCMI_ErrorCallback
 1310              		.syntax unified
 1311              		.thumb
 1312              		.thumb_func
 1313              		.fpu fpv5-sp-d16
 1315              	HAL_DCMI_ErrorCallback:
 1316              	.LVL79:
 1317              	.LFB159:
 398:Src/ov7670_driver.c ****   CAMERA_ErrorCallback();
 1318              		.loc 1 398 1 view -0
 1319              		.cfi_startproc
 1320              		@ args = 0, pretend = 0, frame = 0
 1321              		@ frame_needed = 0, uses_anonymous_args = 0
 398:Src/ov7670_driver.c ****   CAMERA_ErrorCallback();
 1322              		.loc 1 398 1 is_stmt 0 view .LVU313
 1323 0000 08B5     		push	{r3, lr}
 1324              	.LCFI22:
 1325              		.cfi_def_cfa_offset 8
 1326              		.cfi_offset 3, -8
 1327              		.cfi_offset 14, -4
 399:Src/ov7670_driver.c **** }
 1328              		.loc 1 399 3 is_stmt 1 view .LVU314
 1329 0002 FFF7FEFF 		bl	CAMERA_ErrorCallback
 1330              	.LVL80:
 400:Src/ov7670_driver.c **** 
 1331              		.loc 1 400 1 is_stmt 0 view .LVU315
 1332 0006 08BD     		pop	{r3, pc}
 1333              		.cfi_endproc
ARM GAS  /tmp/ccqtoIOx.s 			page 38


 1334              	.LFE159:
 1336              		.global	ov7670_QVGA
 1337              		.global	ov7670_drv
 1338              		.comm	camera_drv,4,4
 1339              		.comm	hDcmiHandler,80,4
 1340              		.section	.bss.CameraCurrentResolution,"aw",%nobits
 1341              		.align	2
 1342              		.set	.LANCHOR1,. + 0
 1345              	CameraCurrentResolution:
 1346 0000 00000000 		.space	4
 1347              		.section	.bss.CameraHwAddress,"aw",%nobits
 1348              		.align	2
 1349              		.set	.LANCHOR4,. + 0
 1352              	CameraHwAddress:
 1353 0000 00000000 		.space	4
 1354              		.section	.bss.hdma_handler.10304,"aw",%nobits
 1355              		.align	2
 1356              		.set	.LANCHOR2,. + 0
 1359              	hdma_handler.10304:
 1360 0000 00000000 		.space	96
 1360      00000000 
 1360      00000000 
 1360      00000000 
 1360      00000000 
 1361              		.section	.data.ov7670_drv,"aw"
 1362              		.align	2
 1363              		.set	.LANCHOR3,. + 0
 1366              	ov7670_drv:
 1367 0000 00000000 		.word	ov7670_Init
 1368 0004 00000000 		.word	ov7670_ReadID
 1369 0008 00000000 		.word	ov7670_Config
 1370              		.section	.rodata.ov7670_QVGA,"a"
 1371              		.align	2
 1372              		.set	.LANCHOR0,. + 0
 1375              	ov7670_QVGA:
 1376 0000 1214     		.ascii	"\022\024"
 1377 0002 0C08     		.ascii	"\014\010"
 1378 0004 1140     		.ascii	"\021@"
 1379 0006 B084     		.ascii	"\260\204"
 1380 0008 4010     		.ascii	"@\020"
 1381 000a 3280     		.ascii	"2\200"
 1382 000c 1717     		.ascii	"\027\027"
 1383 000e 1805     		.ascii	"\030\005"
 1384 0010 030A     		.ascii	"\003\012"
 1385 0012 1902     		.ascii	"\031\002"
 1386 0014 1A7A     		.ascii	"\032z"
 1387 0016 1100     		.ascii	"\021\000"
 1388 0018 6B0A     		.ascii	"k\012"
 1389 001a 2A00     		.ascii	"*\000"
 1390 001c 2B00     		.ascii	"+\000"
 1391 001e 921A     		.ascii	"\222\032"
 1392 0020 9300     		.ascii	"\223\000"
 1393 0022 3B0A     		.ascii	";\012"
 1394              		.text
 1395              	.Letext0:
 1396              		.file 2 "/usr/local/arm-none-eabi/include/machine/_default_types.h"
 1397              		.file 3 "/usr/local/arm-none-eabi/include/sys/_stdint.h"
ARM GAS  /tmp/ccqtoIOx.s 			page 39


 1398              		.file 4 "Drivers/CMSIS/Include/core_cm7.h"
 1399              		.file 5 "Drivers/CMSIS/Device/ST/STM32F7xx/Include/system_stm32f7xx.h"
 1400              		.file 6 "Drivers/CMSIS/Device/ST/STM32F7xx/Include/stm32f746xx.h"
 1401              		.file 7 "Drivers/STM32F7xx_HAL_Driver/Inc/stm32f7xx_hal_def.h"
 1402              		.file 8 "Drivers/STM32F7xx_HAL_Driver/Inc/stm32f7xx_hal_gpio.h"
 1403              		.file 9 "Drivers/STM32F7xx_HAL_Driver/Inc/stm32f7xx_hal_dma.h"
 1404              		.file 10 "Drivers/STM32F7xx_HAL_Driver/Inc/stm32f7xx_hal_dcmi.h"
 1405              		.file 11 "Drivers/STM32F7xx_HAL_Driver/Inc/stm32f7xx_hal.h"
 1406              		.file 12 "BSP/Components/Common/../Common/camera.h"
 1407              		.file 13 "Inc/ov7670_driver.h"
 1408              		.file 14 "Drivers/STM32F7xx_HAL_Driver/Inc/stm32f7xx_hal_cortex.h"
ARM GAS  /tmp/ccqtoIOx.s 			page 40


DEFINED SYMBOLS
                            *ABS*:0000000000000000 ov7670_driver.c
     /tmp/ccqtoIOx.s:18     .text.GetSize:0000000000000000 $t
     /tmp/ccqtoIOx.s:25     .text.GetSize:0000000000000000 GetSize
     /tmp/ccqtoIOx.s:64     .text.ov7670_Config:0000000000000000 $t
     /tmp/ccqtoIOx.s:71     .text.ov7670_Config:0000000000000000 ov7670_Config
     /tmp/ccqtoIOx.s:86     .text.ov7670_Init:0000000000000000 $t
     /tmp/ccqtoIOx.s:93     .text.ov7670_Init:0000000000000000 ov7670_Init
     /tmp/ccqtoIOx.s:163    .text.ov7670_Init:0000000000000044 $d
     /tmp/ccqtoIOx.s:168    .text.ov7670_ReadID:0000000000000000 $t
     /tmp/ccqtoIOx.s:175    .text.ov7670_ReadID:0000000000000000 ov7670_ReadID
     /tmp/ccqtoIOx.s:205    .text.CAMERA_ContinuousStart:0000000000000000 $t
     /tmp/ccqtoIOx.s:212    .text.CAMERA_ContinuousStart:0000000000000000 CAMERA_ContinuousStart
     /tmp/ccqtoIOx.s:246    .text.CAMERA_ContinuousStart:000000000000001c $d
                            *COM*:0000000000000050 hDcmiHandler
     /tmp/ccqtoIOx.s:252    .text.CAMERA_SnapshotStart:0000000000000000 $t
     /tmp/ccqtoIOx.s:259    .text.CAMERA_SnapshotStart:0000000000000000 CAMERA_SnapshotStart
     /tmp/ccqtoIOx.s:293    .text.CAMERA_SnapshotStart:000000000000001c $d
     /tmp/ccqtoIOx.s:299    .text.CAMERA_Suspend:0000000000000000 $t
     /tmp/ccqtoIOx.s:306    .text.CAMERA_Suspend:0000000000000000 CAMERA_Suspend
     /tmp/ccqtoIOx.s:326    .text.CAMERA_Suspend:000000000000000c $d
     /tmp/ccqtoIOx.s:331    .text.CAMERA_Resume:0000000000000000 $t
     /tmp/ccqtoIOx.s:338    .text.CAMERA_Resume:0000000000000000 CAMERA_Resume
     /tmp/ccqtoIOx.s:358    .text.CAMERA_Resume:000000000000000c $d
     /tmp/ccqtoIOx.s:363    .text.CAMERA_PwrUp:0000000000000000 $t
     /tmp/ccqtoIOx.s:370    .text.CAMERA_PwrUp:0000000000000000 CAMERA_PwrUp
     /tmp/ccqtoIOx.s:445    .text.CAMERA_PwrUp:0000000000000048 $d
     /tmp/ccqtoIOx.s:451    .text.CAMERA_PwrDown:0000000000000000 $t
     /tmp/ccqtoIOx.s:458    .text.CAMERA_PwrDown:0000000000000000 CAMERA_PwrDown
     /tmp/ccqtoIOx.s:528    .text.CAMERA_PwrDown:0000000000000044 $d
     /tmp/ccqtoIOx.s:534    .text.CAMERA_Stop:0000000000000000 $t
     /tmp/ccqtoIOx.s:541    .text.CAMERA_Stop:0000000000000000 CAMERA_Stop
     /tmp/ccqtoIOx.s:578    .text.CAMERA_Stop:0000000000000018 $d
     /tmp/ccqtoIOx.s:583    .text.CAMERA_MspInit:0000000000000000 $t
     /tmp/ccqtoIOx.s:590    .text.CAMERA_MspInit:0000000000000000 CAMERA_MspInit
     /tmp/ccqtoIOx.s:921    .text.CAMERA_MspInit:000000000000016c $d
     /tmp/ccqtoIOx.s:933    .text.CAMERA_Init:0000000000000000 $t
     /tmp/ccqtoIOx.s:940    .text.CAMERA_Init:0000000000000000 CAMERA_Init
     /tmp/ccqtoIOx.s:1034   .text.CAMERA_Init:0000000000000050 $d
                            *COM*:0000000000000004 camera_drv
     /tmp/ccqtoIOx.s:1044   .text.CAMERA_MspDeInit:0000000000000000 $t
     /tmp/ccqtoIOx.s:1051   .text.CAMERA_MspDeInit:0000000000000000 CAMERA_MspDeInit
     /tmp/ccqtoIOx.s:1091   .text.CAMERA_MspDeInit:0000000000000024 $d
     /tmp/ccqtoIOx.s:1096   .text.CAMERA_DeInit:0000000000000000 $t
     /tmp/ccqtoIOx.s:1103   .text.CAMERA_DeInit:0000000000000000 CAMERA_DeInit
     /tmp/ccqtoIOx.s:1135   .text.CAMERA_DeInit:000000000000001c $d
     /tmp/ccqtoIOx.s:1141   .text.CAMERA_LineEventCallback:0000000000000000 $t
     /tmp/ccqtoIOx.s:1148   .text.CAMERA_LineEventCallback:0000000000000000 CAMERA_LineEventCallback
     /tmp/ccqtoIOx.s:1161   .text.HAL_DCMI_LineEventCallback:0000000000000000 $t
     /tmp/ccqtoIOx.s:1168   .text.HAL_DCMI_LineEventCallback:0000000000000000 HAL_DCMI_LineEventCallback
     /tmp/ccqtoIOx.s:1190   .text.CAMERA_VsyncEventCallback:0000000000000000 $t
     /tmp/ccqtoIOx.s:1197   .text.CAMERA_VsyncEventCallback:0000000000000000 CAMERA_VsyncEventCallback
     /tmp/ccqtoIOx.s:1210   .text.HAL_DCMI_VsyncEventCallback:0000000000000000 $t
     /tmp/ccqtoIOx.s:1217   .text.HAL_DCMI_VsyncEventCallback:0000000000000000 HAL_DCMI_VsyncEventCallback
     /tmp/ccqtoIOx.s:1239   .text.CAMERA_FrameEventCallback:0000000000000000 $t
     /tmp/ccqtoIOx.s:1246   .text.CAMERA_FrameEventCallback:0000000000000000 CAMERA_FrameEventCallback
     /tmp/ccqtoIOx.s:1259   .text.HAL_DCMI_FrameEventCallback:0000000000000000 $t
ARM GAS  /tmp/ccqtoIOx.s 			page 41


     /tmp/ccqtoIOx.s:1266   .text.HAL_DCMI_FrameEventCallback:0000000000000000 HAL_DCMI_FrameEventCallback
     /tmp/ccqtoIOx.s:1288   .text.CAMERA_ErrorCallback:0000000000000000 $t
     /tmp/ccqtoIOx.s:1295   .text.CAMERA_ErrorCallback:0000000000000000 CAMERA_ErrorCallback
     /tmp/ccqtoIOx.s:1308   .text.HAL_DCMI_ErrorCallback:0000000000000000 $t
     /tmp/ccqtoIOx.s:1315   .text.HAL_DCMI_ErrorCallback:0000000000000000 HAL_DCMI_ErrorCallback
     /tmp/ccqtoIOx.s:1375   .rodata.ov7670_QVGA:0000000000000000 ov7670_QVGA
     /tmp/ccqtoIOx.s:1366   .data.ov7670_drv:0000000000000000 ov7670_drv
     /tmp/ccqtoIOx.s:1341   .bss.CameraCurrentResolution:0000000000000000 $d
     /tmp/ccqtoIOx.s:1345   .bss.CameraCurrentResolution:0000000000000000 CameraCurrentResolution
     /tmp/ccqtoIOx.s:1348   .bss.CameraHwAddress:0000000000000000 $d
     /tmp/ccqtoIOx.s:1352   .bss.CameraHwAddress:0000000000000000 CameraHwAddress
     /tmp/ccqtoIOx.s:1355   .bss.hdma_handler.10304:0000000000000000 $d
     /tmp/ccqtoIOx.s:1359   .bss.hdma_handler.10304:0000000000000000 hdma_handler.10304
     /tmp/ccqtoIOx.s:1362   .data.ov7670_drv:0000000000000000 $d
     /tmp/ccqtoIOx.s:1371   .rodata.ov7670_QVGA:0000000000000000 $d

UNDEFINED SYMBOLS
CAMERA_IO_Init
CAMERA_IO_Write
CAMERA_Delay
CAMERA_IO_Read
HAL_DCMI_Start_DMA
HAL_DCMI_Suspend
HAL_DCMI_Resume
HAL_GPIO_Init
HAL_GPIO_WritePin
HAL_Delay
HAL_DCMI_Stop
HAL_NVIC_SetPriority
HAL_NVIC_EnableIRQ
HAL_DMA_Init
HAL_DCMI_Init
HAL_DCMI_DisableCrop
HAL_NVIC_DisableIRQ
HAL_DMA_DeInit
HAL_DCMI_DeInit
