ARM GAS  /tmp/cc0Le4W4.s 			page 1


   1              		.cpu cortex-m7
   2              		.eabi_attribute 27, 1
   3              		.eabi_attribute 28, 1
   4              		.eabi_attribute 20, 1
   5              		.eabi_attribute 21, 1
   6              		.eabi_attribute 23, 3
   7              		.eabi_attribute 24, 1
   8              		.eabi_attribute 25, 1
   9              		.eabi_attribute 26, 1
  10              		.eabi_attribute 30, 1
  11              		.eabi_attribute 34, 1
  12              		.eabi_attribute 18, 4
  13              		.file	"sd_bmp.c"
  14              		.text
  15              	.Ltext0:
  16              		.cfi_sections	.debug_frame
  17              		.section	.text.get_pic_count,"ax",%progbits
  18              		.align	1
  19              		.arch armv7e-m
  20              		.syntax unified
  21              		.thumb
  22              		.thumb_func
  23              		.fpu fpv5-sp-d16
  25              	get_pic_count:
  26              	.LFB146:
  27              		.file 1 "Src/sd_bmp.c"
   1:Src/sd_bmp.c  **** #include "sd_bmp.h"
   2:Src/sd_bmp.c  **** 
   3:Src/sd_bmp.c  **** /* Private macro -------------------------------------------------------------*/
   4:Src/sd_bmp.c  **** #define BMP_16BIT
   5:Src/sd_bmp.c  **** //#define BMP_24BIT
   6:Src/sd_bmp.c  **** /* Private variables ---------------------------------------------------------*/
   7:Src/sd_bmp.c  **** 
   8:Src/sd_bmp.c  **** FATFS filesys;        /* volume label */
   9:Src/sd_bmp.c  **** char SDPath[4];
  10:Src/sd_bmp.c  **** 
  11:Src/sd_bmp.c  **** static void LCD_LL_ConvertFrameToRGB565(void *pSrc, void *pDst, uint16_t width, uint16_t height);
  12:Src/sd_bmp.c  **** DMA2D_HandleTypeDef hdma2d_disco;
  13:Src/sd_bmp.c  **** SD_HandleTypeDef hsd;
  14:Src/sd_bmp.c  **** 
  15:Src/sd_bmp.c  **** uint8_t image_buf[240][640] = {0};
  16:Src/sd_bmp.c  **** /* save the picture count  */
  17:Src/sd_bmp.c  **** uint32_t pic_counter = 0;
  18:Src/sd_bmp.c  **** 
  19:Src/sd_bmp.c  **** 
  20:Src/sd_bmp.c  **** 
  21:Src/sd_bmp.c  **** /*
  22:Src/sd_bmp.c  **** bmp header 
  23:Src/sd_bmp.c  **** image size :320*240
  24:Src/sd_bmp.c  **** biBitCount :16
  25:Src/sd_bmp.c  **** biCompression : BI_BITFIELDS = 3
  26:Src/sd_bmp.c  **** */
  27:Src/sd_bmp.c  **** uint8_t bmp_header[70] = {
  28:Src/sd_bmp.c  ****   0x42, 0x4D, 0x46, 0x58, 0x02, 0x00, 0x00, 0x00, 0x00, 0x00, 0x46, 0x00, 0x00, 0x00, 0x28, 0x00, 
  29:Src/sd_bmp.c  ****   0x00, 0x00, 0x40, 0x01, 0x00, 0x00, 0xF0, 0x00, 0x00, 0x00, 0x01, 0x00, 0x10, 0x00, 0x03, 0x00, 
  30:Src/sd_bmp.c  ****   0x00, 0x00, 0x00, 0x58, 0x02, 0x00, 0x00, 0x00, 0x00, 0x00, 0x00, 0x00, 0x00, 0x00, 0x00, 0x00, 
  31:Src/sd_bmp.c  ****   0x00, 0x00, 0x00, 0x00, 0x00, 0x00, 0x00, 0xF8, 0x00, 0x00, 0xE0, 0x07, 0x00, 0x00, 0x1F, 0x00, 
ARM GAS  /tmp/cc0Le4W4.s 			page 2


  32:Src/sd_bmp.c  ****   0x00, 0x00, 0x00, 0x00, 0x00, 0x00
  33:Src/sd_bmp.c  **** };
  34:Src/sd_bmp.c  **** 
  35:Src/sd_bmp.c  **** 
  36:Src/sd_bmp.c  **** 
  37:Src/sd_bmp.c  **** 
  38:Src/sd_bmp.c  **** 
  39:Src/sd_bmp.c  **** 
  40:Src/sd_bmp.c  **** /* Private function prototypes -----------------------------------------------*/
  41:Src/sd_bmp.c  **** static int32_t set_pic_count(void);
  42:Src/sd_bmp.c  **** static int32_t get_pic_count(void);
  43:Src/sd_bmp.c  **** 
  44:Src/sd_bmp.c  **** /**
  45:Src/sd_bmp.c  ****   * @brief  Capture_Image_TO_Bmp
  46:Src/sd_bmp.c  ****   * @param  None
  47:Src/sd_bmp.c  ****   * @retval None
  48:Src/sd_bmp.c  ****   */
  49:Src/sd_bmp.c  **** int32_t Capture_Image_Bmp()
  50:Src/sd_bmp.c  **** {
  51:Src/sd_bmp.c  ****   int32_t  ret = -1;
  52:Src/sd_bmp.c  ****   int32_t  i = 0;
  53:Src/sd_bmp.c  ****   int32_t  j = 0;
  54:Src/sd_bmp.c  ****   int16_t  data_temp = 0;
  55:Src/sd_bmp.c  ****   uint32_t bw = 0;
  56:Src/sd_bmp.c  ****   BSP_LCD_SelectLayer(0);
  57:Src/sd_bmp.c  ****   char  file_str[30] = {0};
  58:Src/sd_bmp.c  ****   FIL file;        /* File object */
  59:Src/sd_bmp.c  **** 
  60:Src/sd_bmp.c  ****   
  61:Src/sd_bmp.c  **** 
  62:Src/sd_bmp.c  ****   //LCD_LL_ConvertFrameToRGB565((uint32_t *)CAMERA_FRAME_BUFFER, (uint32_t *)SD_OUT_BUFFER, 320, 24
  63:Src/sd_bmp.c  ****   FATFS_LinkDriver(&SD_Driver, SDPath);
  64:Src/sd_bmp.c  ****   /* mount the filesys */
  65:Src/sd_bmp.c  ****   if (f_mount(&filesys, (TCHAR const*)SDPath, 0) != FR_OK) ;//return -1;
  66:Src/sd_bmp.c  ****   HAL_Delay(10);
  67:Src/sd_bmp.c  **** 
  68:Src/sd_bmp.c  ****   //if ((HAL_SD_GetCardState(&hsd) != HAL_SD_CARD_READY) || (HAL_SD_GetCardState(&hsd) != HAL_SD_CA
  69:Src/sd_bmp.c  **** 
  70:Src/sd_bmp.c  ****   sprintf(file_str, "pic%d.bmp",pic_counter);
  71:Src/sd_bmp.c  ****   ret = f_open(&file, file_str, FA_WRITE | FA_CREATE_ALWAYS);
  72:Src/sd_bmp.c  ****   if (ret) ;//return -1;
  73:Src/sd_bmp.c  **** 
  74:Src/sd_bmp.c  ****   /* write the bmp header */
  75:Src/sd_bmp.c  ****   ret = f_write(&file, bmp_header, 70, &bw);
  76:Src/sd_bmp.c  ****   HAL_Delay(5);
  77:Src/sd_bmp.c  ****   BSP_LCD_SelectLayer(0);
  78:Src/sd_bmp.c  ****   for (j = 0; j < 240; j++) {
  79:Src/sd_bmp.c  ****     for(i=0;i<320;i++) { 
  80:Src/sd_bmp.c  ****       data_temp=BSP_LCD_ReadPixel(i,240-j-1);
  81:Src/sd_bmp.c  ****       image_buf[j][i*2+1] = (data_temp&0xff00) >> 8;
  82:Src/sd_bmp.c  ****       image_buf[j][i*2+0] = data_temp & 0x00ff;
  83:Src/sd_bmp.c  ****       }
  84:Src/sd_bmp.c  ****   }
  85:Src/sd_bmp.c  ****   ret = f_write(&file, image_buf, 640*240, &bw);
  86:Src/sd_bmp.c  ****   if (ret) ;//return -1;
  87:Src/sd_bmp.c  **** 
  88:Src/sd_bmp.c  ****   ret = f_close(&file);
ARM GAS  /tmp/cc0Le4W4.s 			page 3


  89:Src/sd_bmp.c  ****   if (ret) ;//return -1;
  90:Src/sd_bmp.c  **** 
  91:Src/sd_bmp.c  ****   FATFS_UnLinkDriver(SDPath);
  92:Src/sd_bmp.c  **** 
  93:Src/sd_bmp.c  ****   /* statistics the take pictures count */
  94:Src/sd_bmp.c  ****   pic_counter++;
  95:Src/sd_bmp.c  ****   //set_pic_count();
  96:Src/sd_bmp.c  **** 
  97:Src/sd_bmp.c  ****   return ret;
  98:Src/sd_bmp.c  **** }
  99:Src/sd_bmp.c  **** 
 100:Src/sd_bmp.c  **** /**
 101:Src/sd_bmp.c  ****   * @brief  init_picture_count
 102:Src/sd_bmp.c  ****   * @param  None
 103:Src/sd_bmp.c  ****   * @retval int32_t : picture count
 104:Src/sd_bmp.c  ****   */
 105:Src/sd_bmp.c  **** void init_picture_count(void)
 106:Src/sd_bmp.c  **** {
 107:Src/sd_bmp.c  ****   pic_counter = get_pic_count();
 108:Src/sd_bmp.c  **** }
 109:Src/sd_bmp.c  **** 
 110:Src/sd_bmp.c  **** 
 111:Src/sd_bmp.c  **** /**
 112:Src/sd_bmp.c  ****   * @brief  get the bmp picture count	          
 113:Src/sd_bmp.c  ****   * @param  None
 114:Src/sd_bmp.c  ****   * @retval int32_t : picture count
 115:Src/sd_bmp.c  ****   */
 116:Src/sd_bmp.c  **** static int32_t get_pic_count(void)
 117:Src/sd_bmp.c  **** {
  28              		.loc 1 117 1 view -0
  29              		.cfi_startproc
  30              		@ args = 0, pretend = 0, frame = 0
  31              		@ frame_needed = 0, uses_anonymous_args = 0
  32              		@ link register save eliminated.
 118:Src/sd_bmp.c  **** //  int32_t ret = -1;
 119:Src/sd_bmp.c  **** //  uint32_t bw = 0;
 120:Src/sd_bmp.c  **** //  FIL file;		
 121:Src/sd_bmp.c  **** //
 122:Src/sd_bmp.c  **** //  /* mount the filesys */
 123:Src/sd_bmp.c  **** //  if (f_mount(0, &filesys) != FR_OK) {
 124:Src/sd_bmp.c  **** //    return -1;
 125:Src/sd_bmp.c  **** //  }
 126:Src/sd_bmp.c  **** //  Delay(10);
 127:Src/sd_bmp.c  **** //
 128:Src/sd_bmp.c  **** //  ret = f_open(&file, "counter.dat", FA_OPEN_EXISTING | FA_READ);
 129:Src/sd_bmp.c  **** //  if (ret != FR_OK) {
 130:Src/sd_bmp.c  **** //    f_close(&file);
 131:Src/sd_bmp.c  **** //    ret = f_open(&file,"counter.dat", FA_CREATE_ALWAYS | FA_WRITE);
 132:Src/sd_bmp.c  **** //    if (ret == FR_OK) {
 133:Src/sd_bmp.c  **** //      pic_counter = 0;
 134:Src/sd_bmp.c  **** //      ret = f_write(&file, &pic_counter, sizeof(uint32_t), &bw);
 135:Src/sd_bmp.c  **** //      f_close(&file);
 136:Src/sd_bmp.c  **** //      f_mount(0, NULL);
 137:Src/sd_bmp.c  **** //      return pic_counter;
 138:Src/sd_bmp.c  **** //    } else {
 139:Src/sd_bmp.c  **** //      f_close(&file);
 140:Src/sd_bmp.c  **** //      f_mount(0, NULL);
ARM GAS  /tmp/cc0Le4W4.s 			page 4


 141:Src/sd_bmp.c  **** //      return -1;
 142:Src/sd_bmp.c  **** //    }
 143:Src/sd_bmp.c  **** //  } else {
 144:Src/sd_bmp.c  **** //    ret = f_read(&file, &pic_counter, sizeof(uint32_t), &bw);
 145:Src/sd_bmp.c  **** //    f_close(&file);
 146:Src/sd_bmp.c  **** //    f_mount(0, NULL);
 147:Src/sd_bmp.c  **** //    return pic_counter;
 148:Src/sd_bmp.c  **** //  }
 149:Src/sd_bmp.c  ****   return 0;
  33              		.loc 1 149 3 view .LVU1
 150:Src/sd_bmp.c  **** }
  34              		.loc 1 150 1 is_stmt 0 view .LVU2
  35 0000 0020     		movs	r0, #0
  36 0002 7047     		bx	lr
  37              		.cfi_endproc
  38              	.LFE146:
  40              		.section	.rodata.Capture_Image_Bmp.str1.4,"aMS",%progbits,1
  41              		.align	2
  42              	.LC0:
  43 0000 70696325 		.ascii	"pic%d.bmp\000"
  43      642E626D 
  43      7000
  44              		.section	.text.Capture_Image_Bmp,"ax",%progbits
  45              		.align	1
  46              		.global	Capture_Image_Bmp
  47              		.syntax unified
  48              		.thumb
  49              		.thumb_func
  50              		.fpu fpv5-sp-d16
  52              	Capture_Image_Bmp:
  53              	.LFB144:
  50:Src/sd_bmp.c  ****   int32_t  ret = -1;
  54              		.loc 1 50 1 is_stmt 1 view -0
  55              		.cfi_startproc
  56              		@ args = 0, pretend = 0, frame = 600
  57              		@ frame_needed = 0, uses_anonymous_args = 0
  58 0000 70B5     		push	{r4, r5, r6, lr}
  59              	.LCFI0:
  60              		.cfi_def_cfa_offset 16
  61              		.cfi_offset 4, -16
  62              		.cfi_offset 5, -12
  63              		.cfi_offset 6, -8
  64              		.cfi_offset 14, -4
  65 0002 ADF5167D 		sub	sp, sp, #600
  66              	.LCFI1:
  67              		.cfi_def_cfa_offset 616
  51:Src/sd_bmp.c  ****   int32_t  i = 0;
  68              		.loc 1 51 3 view .LVU4
  69              	.LVL0:
  52:Src/sd_bmp.c  ****   int32_t  j = 0;
  70              		.loc 1 52 3 view .LVU5
  53:Src/sd_bmp.c  ****   int16_t  data_temp = 0;
  71              		.loc 1 53 3 view .LVU6
  54:Src/sd_bmp.c  ****   uint32_t bw = 0;
  72              		.loc 1 54 3 view .LVU7
  55:Src/sd_bmp.c  ****   BSP_LCD_SelectLayer(0);
  73              		.loc 1 55 3 view .LVU8
ARM GAS  /tmp/cc0Le4W4.s 			page 5


  55:Src/sd_bmp.c  ****   BSP_LCD_SelectLayer(0);
  74              		.loc 1 55 12 is_stmt 0 view .LVU9
  75 0006 0025     		movs	r5, #0
  76 0008 9595     		str	r5, [sp, #596]
  56:Src/sd_bmp.c  ****   char  file_str[30] = {0};
  77              		.loc 1 56 3 is_stmt 1 view .LVU10
  78 000a 2846     		mov	r0, r5
  79 000c FFF7FEFF 		bl	BSP_LCD_SelectLayer
  80              	.LVL1:
  57:Src/sd_bmp.c  ****   FIL file;        /* File object */
  81              		.loc 1 57 3 view .LVU11
  57:Src/sd_bmp.c  ****   FIL file;        /* File object */
  82              		.loc 1 57 9 is_stmt 0 view .LVU12
  83 0010 8D95     		str	r5, [sp, #564]
  84 0012 8E95     		str	r5, [sp, #568]
  85 0014 8F95     		str	r5, [sp, #572]
  86 0016 9095     		str	r5, [sp, #576]
  87 0018 9195     		str	r5, [sp, #580]
  88 001a 9295     		str	r5, [sp, #584]
  89 001c 9395     		str	r5, [sp, #588]
  90 001e ADF85052 		strh	r5, [sp, #592]	@ movhi
  58:Src/sd_bmp.c  **** 
  91              		.loc 1 58 3 is_stmt 1 view .LVU13
  63:Src/sd_bmp.c  ****   /* mount the filesys */
  92              		.loc 1 63 3 view .LVU14
  93 0022 2B4C     		ldr	r4, .L10
  94 0024 2146     		mov	r1, r4
  95 0026 2B48     		ldr	r0, .L10+4
  96 0028 FFF7FEFF 		bl	FATFS_LinkDriver
  97              	.LVL2:
  65:Src/sd_bmp.c  ****   HAL_Delay(10);
  98              		.loc 1 65 3 view .LVU15
  65:Src/sd_bmp.c  ****   HAL_Delay(10);
  99              		.loc 1 65 7 is_stmt 0 view .LVU16
 100 002c 2A46     		mov	r2, r5
 101 002e 2146     		mov	r1, r4
 102 0030 2948     		ldr	r0, .L10+8
 103 0032 FFF7FEFF 		bl	f_mount
 104              	.LVL3:
  66:Src/sd_bmp.c  **** 
 105              		.loc 1 66 3 is_stmt 1 view .LVU17
 106 0036 0A20     		movs	r0, #10
 107 0038 FFF7FEFF 		bl	HAL_Delay
 108              	.LVL4:
  70:Src/sd_bmp.c  ****   ret = f_open(&file, file_str, FA_WRITE | FA_CREATE_ALWAYS);
 109              		.loc 1 70 3 view .LVU18
 110 003c 274B     		ldr	r3, .L10+12
 111 003e 1A68     		ldr	r2, [r3]
 112 0040 2749     		ldr	r1, .L10+16
 113 0042 8DA8     		add	r0, sp, #564
 114 0044 FFF7FEFF 		bl	sprintf
 115              	.LVL5:
  71:Src/sd_bmp.c  ****   if (ret) ;//return -1;
 116              		.loc 1 71 3 view .LVU19
  71:Src/sd_bmp.c  ****   if (ret) ;//return -1;
 117              		.loc 1 71 9 is_stmt 0 view .LVU20
 118 0048 0A22     		movs	r2, #10
ARM GAS  /tmp/cc0Le4W4.s 			page 6


 119 004a 8DA9     		add	r1, sp, #564
 120 004c 01A8     		add	r0, sp, #4
 121 004e FFF7FEFF 		bl	f_open
 122              	.LVL6:
  72:Src/sd_bmp.c  **** 
 123              		.loc 1 72 3 is_stmt 1 view .LVU21
  75:Src/sd_bmp.c  ****   HAL_Delay(5);
 124              		.loc 1 75 3 view .LVU22
  75:Src/sd_bmp.c  ****   HAL_Delay(5);
 125              		.loc 1 75 9 is_stmt 0 view .LVU23
 126 0052 95AB     		add	r3, sp, #596
 127 0054 4622     		movs	r2, #70
 128 0056 2349     		ldr	r1, .L10+20
 129 0058 01A8     		add	r0, sp, #4
 130 005a FFF7FEFF 		bl	f_write
 131              	.LVL7:
  76:Src/sd_bmp.c  ****   BSP_LCD_SelectLayer(0);
 132              		.loc 1 76 3 is_stmt 1 view .LVU24
 133 005e 0520     		movs	r0, #5
 134 0060 FFF7FEFF 		bl	HAL_Delay
 135              	.LVL8:
  77:Src/sd_bmp.c  ****   for (j = 0; j < 240; j++) {
 136              		.loc 1 77 3 view .LVU25
 137 0064 2846     		mov	r0, r5
 138 0066 FFF7FEFF 		bl	BSP_LCD_SelectLayer
 139              	.LVL9:
  78:Src/sd_bmp.c  ****     for(i=0;i<320;i++) { 
 140              		.loc 1 78 3 view .LVU26
  78:Src/sd_bmp.c  ****     for(i=0;i<320;i++) { 
 141              		.loc 1 78 3 is_stmt 0 view .LVU27
 142 006a 00E0     		b	.L3
 143              	.LVL10:
 144              	.L9:
  78:Src/sd_bmp.c  ****     for(i=0;i<320;i++) { 
 145              		.loc 1 78 24 is_stmt 1 discriminator 2 view .LVU28
  78:Src/sd_bmp.c  ****     for(i=0;i<320;i++) { 
 146              		.loc 1 78 25 is_stmt 0 discriminator 2 view .LVU29
 147 006c 0135     		adds	r5, r5, #1
 148              	.LVL11:
 149              	.L3:
  78:Src/sd_bmp.c  ****     for(i=0;i<320;i++) { 
 150              		.loc 1 78 15 is_stmt 1 discriminator 1 view .LVU30
  78:Src/sd_bmp.c  ****     for(i=0;i<320;i++) { 
 151              		.loc 1 78 3 is_stmt 0 discriminator 1 view .LVU31
 152 006e EF2D     		cmp	r5, #239
 153 0070 17DC     		bgt	.L8
  79:Src/sd_bmp.c  ****       data_temp=BSP_LCD_ReadPixel(i,240-j-1);
 154              		.loc 1 79 10 view .LVU32
 155 0072 0024     		movs	r4, #0
 156              	.L5:
 157              	.LVL12:
  79:Src/sd_bmp.c  ****       data_temp=BSP_LCD_ReadPixel(i,240-j-1);
 158              		.loc 1 79 13 is_stmt 1 discriminator 1 view .LVU33
  79:Src/sd_bmp.c  ****       data_temp=BSP_LCD_ReadPixel(i,240-j-1);
 159              		.loc 1 79 5 is_stmt 0 discriminator 1 view .LVU34
 160 0074 B4F5A07F 		cmp	r4, #320
 161 0078 F8DA     		bge	.L9
ARM GAS  /tmp/cc0Le4W4.s 			page 7


  80:Src/sd_bmp.c  ****       image_buf[j][i*2+1] = (data_temp&0xff00) >> 8;
 162              		.loc 1 80 7 is_stmt 1 discriminator 3 view .LVU35
  80:Src/sd_bmp.c  ****       image_buf[j][i*2+1] = (data_temp&0xff00) >> 8;
 163              		.loc 1 80 17 is_stmt 0 discriminator 3 view .LVU36
 164 007a C5F1EF01 		rsb	r1, r5, #239
 165 007e 89B2     		uxth	r1, r1
 166 0080 A0B2     		uxth	r0, r4
 167 0082 FFF7FEFF 		bl	BSP_LCD_ReadPixel
 168              	.LVL13:
  81:Src/sd_bmp.c  ****       image_buf[j][i*2+0] = data_temp & 0x00ff;
 169              		.loc 1 81 7 is_stmt 1 discriminator 3 view .LVU37
  81:Src/sd_bmp.c  ****       image_buf[j][i*2+0] = data_temp & 0x00ff;
 170              		.loc 1 81 48 is_stmt 0 discriminator 3 view .LVU38
 171 0086 40F30726 		sbfx	r6, r0, #8, #8
  81:Src/sd_bmp.c  ****       image_buf[j][i*2+0] = data_temp & 0x00ff;
 172              		.loc 1 81 21 discriminator 3 view .LVU39
 173 008a 6100     		lsls	r1, r4, #1
  81:Src/sd_bmp.c  ****       image_buf[j][i*2+0] = data_temp & 0x00ff;
 174              		.loc 1 81 23 discriminator 3 view .LVU40
 175 008c 0131     		adds	r1, r1, #1
  81:Src/sd_bmp.c  ****       image_buf[j][i*2+0] = data_temp & 0x00ff;
 176              		.loc 1 81 27 discriminator 3 view .LVU41
 177 008e 05EB8503 		add	r3, r5, r5, lsl #2
 178 0092 154A     		ldr	r2, .L10+24
 179 0094 02EBC313 		add	r3, r2, r3, lsl #7
 180 0098 5E54     		strb	r6, [r3, r1]
  82:Src/sd_bmp.c  ****       }
 181              		.loc 1 82 7 is_stmt 1 discriminator 3 view .LVU42
  82:Src/sd_bmp.c  ****       }
 182              		.loc 1 82 27 is_stmt 0 discriminator 3 view .LVU43
 183 009a 03F81400 		strb	r0, [r3, r4, lsl #1]
  79:Src/sd_bmp.c  ****       data_temp=BSP_LCD_ReadPixel(i,240-j-1);
 184              		.loc 1 79 19 is_stmt 1 discriminator 3 view .LVU44
  79:Src/sd_bmp.c  ****       data_temp=BSP_LCD_ReadPixel(i,240-j-1);
 185              		.loc 1 79 20 is_stmt 0 discriminator 3 view .LVU45
 186 009e 0134     		adds	r4, r4, #1
 187              	.LVL14:
  79:Src/sd_bmp.c  ****       data_temp=BSP_LCD_ReadPixel(i,240-j-1);
 188              		.loc 1 79 20 discriminator 3 view .LVU46
 189 00a0 E8E7     		b	.L5
 190              	.LVL15:
 191              	.L8:
  85:Src/sd_bmp.c  ****   if (ret) ;//return -1;
 192              		.loc 1 85 3 is_stmt 1 view .LVU47
  85:Src/sd_bmp.c  ****   if (ret) ;//return -1;
 193              		.loc 1 85 9 is_stmt 0 view .LVU48
 194 00a2 95AB     		add	r3, sp, #596
 195 00a4 4FF41632 		mov	r2, #153600
 196 00a8 0F49     		ldr	r1, .L10+24
 197 00aa 01A8     		add	r0, sp, #4
 198 00ac FFF7FEFF 		bl	f_write
 199              	.LVL16:
  86:Src/sd_bmp.c  **** 
 200              		.loc 1 86 3 is_stmt 1 view .LVU49
  88:Src/sd_bmp.c  ****   if (ret) ;//return -1;
 201              		.loc 1 88 3 view .LVU50
  88:Src/sd_bmp.c  ****   if (ret) ;//return -1;
ARM GAS  /tmp/cc0Le4W4.s 			page 8


 202              		.loc 1 88 9 is_stmt 0 view .LVU51
 203 00b0 01A8     		add	r0, sp, #4
 204 00b2 FFF7FEFF 		bl	f_close
 205              	.LVL17:
 206 00b6 0446     		mov	r4, r0
 207              	.LVL18:
  89:Src/sd_bmp.c  **** 
 208              		.loc 1 89 3 is_stmt 1 view .LVU52
  91:Src/sd_bmp.c  **** 
 209              		.loc 1 91 3 view .LVU53
 210 00b8 0548     		ldr	r0, .L10
 211              	.LVL19:
  91:Src/sd_bmp.c  **** 
 212              		.loc 1 91 3 is_stmt 0 view .LVU54
 213 00ba FFF7FEFF 		bl	FATFS_UnLinkDriver
 214              	.LVL20:
  94:Src/sd_bmp.c  ****   //set_pic_count();
 215              		.loc 1 94 3 is_stmt 1 view .LVU55
  94:Src/sd_bmp.c  ****   //set_pic_count();
 216              		.loc 1 94 14 is_stmt 0 view .LVU56
 217 00be 074A     		ldr	r2, .L10+12
 218 00c0 1368     		ldr	r3, [r2]
 219 00c2 0133     		adds	r3, r3, #1
 220 00c4 1360     		str	r3, [r2]
  97:Src/sd_bmp.c  **** }
 221              		.loc 1 97 3 is_stmt 1 view .LVU57
  98:Src/sd_bmp.c  **** 
 222              		.loc 1 98 1 is_stmt 0 view .LVU58
 223 00c6 2046     		mov	r0, r4
 224 00c8 0DF5167D 		add	sp, sp, #600
 225              	.LCFI2:
 226              		.cfi_def_cfa_offset 16
 227              		@ sp needed
 228 00cc 70BD     		pop	{r4, r5, r6, pc}
 229              	.LVL21:
 230              	.L11:
  98:Src/sd_bmp.c  **** 
 231              		.loc 1 98 1 view .LVU59
 232 00ce 00BF     		.align	2
 233              	.L10:
 234 00d0 00000000 		.word	SDPath
 235 00d4 00000000 		.word	SD_Driver
 236 00d8 00000000 		.word	filesys
 237 00dc 00000000 		.word	.LANCHOR0
 238 00e0 00000000 		.word	.LC0
 239 00e4 00000000 		.word	.LANCHOR1
 240 00e8 00000000 		.word	image_buf
 241              		.cfi_endproc
 242              	.LFE144:
 244              		.section	.text.init_picture_count,"ax",%progbits
 245              		.align	1
 246              		.global	init_picture_count
 247              		.syntax unified
 248              		.thumb
 249              		.thumb_func
 250              		.fpu fpv5-sp-d16
 252              	init_picture_count:
ARM GAS  /tmp/cc0Le4W4.s 			page 9


 253              	.LFB145:
 106:Src/sd_bmp.c  ****   pic_counter = get_pic_count();
 254              		.loc 1 106 1 is_stmt 1 view -0
 255              		.cfi_startproc
 256              		@ args = 0, pretend = 0, frame = 0
 257              		@ frame_needed = 0, uses_anonymous_args = 0
 258 0000 08B5     		push	{r3, lr}
 259              	.LCFI3:
 260              		.cfi_def_cfa_offset 8
 261              		.cfi_offset 3, -8
 262              		.cfi_offset 14, -4
 107:Src/sd_bmp.c  **** }
 263              		.loc 1 107 3 view .LVU61
 107:Src/sd_bmp.c  **** }
 264              		.loc 1 107 17 is_stmt 0 view .LVU62
 265 0002 FFF7FEFF 		bl	get_pic_count
 266              	.LVL22:
 107:Src/sd_bmp.c  **** }
 267              		.loc 1 107 15 view .LVU63
 268 0006 014B     		ldr	r3, .L14
 269 0008 1860     		str	r0, [r3]
 108:Src/sd_bmp.c  **** 
 270              		.loc 1 108 1 view .LVU64
 271 000a 08BD     		pop	{r3, pc}
 272              	.L15:
 273              		.align	2
 274              	.L14:
 275 000c 00000000 		.word	.LANCHOR0
 276              		.cfi_endproc
 277              	.LFE145:
 279              		.global	bmp_header
 280              		.global	pic_counter
 281              		.global	image_buf
 282              		.comm	hsd,132,4
 283              		.comm	hdma2d_disco,64,4
 284              		.comm	SDPath,4,4
 285              		.comm	filesys,560,4
 286              		.section	.bss.image_buf,"aw",%nobits
 287              		.align	2
 290              	image_buf:
 291 0000 00000000 		.space	153600
 291      00000000 
 291      00000000 
 291      00000000 
 291      00000000 
 292              		.section	.bss.pic_counter,"aw",%nobits
 293              		.align	2
 294              		.set	.LANCHOR0,. + 0
 297              	pic_counter:
 298 0000 00000000 		.space	4
 299              		.section	.data.bmp_header,"aw"
 300              		.align	2
 301              		.set	.LANCHOR1,. + 0
 304              	bmp_header:
 305 0000 424D4658 		.ascii	"BMFX\002\000\000\000\000\000F\000\000\000(\000\000\000"
 305      02000000 
 305      00004600 
ARM GAS  /tmp/cc0Le4W4.s 			page 10


 305      00002800 
 305      0000
 306 0012 40010000 		.ascii	"@\001\000\000\360\000\000\000\001\000\020\000\003\000"
 306      F0000000 
 306      01001000 
 306      0300
 307 0020 00000058 		.ascii	"\000\000\000X\002\000\000\000\000\000\000\000\000\000"
 307      02000000 
 307      00000000 
 307      0000
 308 002e 00000000 		.ascii	"\000\000\000\000\000\000\000\000\000\370\000\000\340"
 308      00000000 
 308      00F80000 
 308      E0
 309 003b 0700001F 		.ascii	"\007\000\000\037\000\000\000\000\000\000\000"
 309      00000000 
 309      000000
 310              		.text
 311              	.Letext0:
 312              		.file 2 "/usr/local/arm-none-eabi/include/machine/_default_types.h"
 313              		.file 3 "/usr/local/arm-none-eabi/include/sys/lock.h"
 314              		.file 4 "/usr/local/arm-none-eabi/include/sys/_types.h"
 315              		.file 5 "/usr/local/lib/gcc/arm-none-eabi/9.2.1/include/stddef.h"
 316              		.file 6 "/usr/local/arm-none-eabi/include/sys/reent.h"
 317              		.file 7 "/usr/local/arm-none-eabi/include/sys/_stdint.h"
 318              		.file 8 "Middlewares/Third_Party/FatFs/src/integer.h"
 319              		.file 9 "Drivers/CMSIS/Include/core_cm7.h"
 320              		.file 10 "Drivers/CMSIS/Device/ST/STM32F7xx/Include/system_stm32f7xx.h"
 321              		.file 11 "Drivers/CMSIS/Device/ST/STM32F7xx/Include/stm32f746xx.h"
 322              		.file 12 "Drivers/STM32F7xx_HAL_Driver/Inc/stm32f7xx_hal_def.h"
 323              		.file 13 "Drivers/STM32F7xx_HAL_Driver/Inc/stm32f7xx_hal_dma.h"
 324              		.file 14 "Drivers/STM32F7xx_HAL_Driver/Inc/stm32f7xx_hal_dma2d.h"
 325              		.file 15 "Drivers/STM32F7xx_HAL_Driver/Inc/stm32f7xx_ll_sdmmc.h"
 326              		.file 16 "Drivers/STM32F7xx_HAL_Driver/Inc/stm32f7xx_hal_sd.h"
 327              		.file 17 "Drivers/STM32F7xx_HAL_Driver/Inc/stm32f7xx_hal.h"
 328              		.file 18 "BSP/STM32746G-Discovery/../../Utilities/Fonts/fonts.h"
 329              		.file 19 "BSP/Components/Common/../Common/camera.h"
 330              		.file 20 "Inc/ov7670_driver.h"
 331              		.file 21 "/usr/local/arm-none-eabi/include/math.h"
 332              		.file 22 "Middlewares/ST/AI/Inc/ai_platform.h"
 333              		.file 23 "/usr/local/arm-none-eabi/include/stdlib.h"
 334              		.file 24 "Middlewares/Third_Party/FatFs/src/ff.h"
 335              		.file 25 "Middlewares/Third_Party/FatFs/src/diskio.h"
 336              		.file 26 "Middlewares/Third_Party/FatFs/src/ff_gen_drv.h"
 337              		.file 27 "Inc/sd_diskio.h"
 338              		.file 28 "BSP/STM32746G-Discovery/stm32746g_discovery_lcd.h"
 339              		.file 29 "/usr/local/arm-none-eabi/include/stdio.h"
ARM GAS  /tmp/cc0Le4W4.s 			page 11


DEFINED SYMBOLS
                            *ABS*:0000000000000000 sd_bmp.c
     /tmp/cc0Le4W4.s:18     .text.get_pic_count:0000000000000000 $t
     /tmp/cc0Le4W4.s:25     .text.get_pic_count:0000000000000000 get_pic_count
     /tmp/cc0Le4W4.s:41     .rodata.Capture_Image_Bmp.str1.4:0000000000000000 $d
     /tmp/cc0Le4W4.s:45     .text.Capture_Image_Bmp:0000000000000000 $t
     /tmp/cc0Le4W4.s:52     .text.Capture_Image_Bmp:0000000000000000 Capture_Image_Bmp
     /tmp/cc0Le4W4.s:234    .text.Capture_Image_Bmp:00000000000000d0 $d
                            *COM*:0000000000000004 SDPath
                            *COM*:0000000000000230 filesys
     /tmp/cc0Le4W4.s:290    .bss.image_buf:0000000000000000 image_buf
     /tmp/cc0Le4W4.s:245    .text.init_picture_count:0000000000000000 $t
     /tmp/cc0Le4W4.s:252    .text.init_picture_count:0000000000000000 init_picture_count
     /tmp/cc0Le4W4.s:275    .text.init_picture_count:000000000000000c $d
     /tmp/cc0Le4W4.s:304    .data.bmp_header:0000000000000000 bmp_header
     /tmp/cc0Le4W4.s:297    .bss.pic_counter:0000000000000000 pic_counter
                            *COM*:0000000000000084 hsd
                            *COM*:0000000000000040 hdma2d_disco
     /tmp/cc0Le4W4.s:287    .bss.image_buf:0000000000000000 $d
     /tmp/cc0Le4W4.s:293    .bss.pic_counter:0000000000000000 $d
     /tmp/cc0Le4W4.s:300    .data.bmp_header:0000000000000000 $d

UNDEFINED SYMBOLS
BSP_LCD_SelectLayer
FATFS_LinkDriver
f_mount
HAL_Delay
sprintf
f_open
f_write
BSP_LCD_ReadPixel
f_close
FATFS_UnLinkDriver
SD_Driver
