ARM GAS  /tmp/ccdAZlHn.s 			page 1


   1              		.cpu cortex-m7
   2              		.eabi_attribute 27, 1
   3              		.eabi_attribute 28, 1
   4              		.eabi_attribute 20, 1
   5              		.eabi_attribute 21, 1
   6              		.eabi_attribute 23, 3
   7              		.eabi_attribute 24, 1
   8              		.eabi_attribute 25, 1
   9              		.eabi_attribute 26, 1
  10              		.eabi_attribute 30, 1
  11              		.eabi_attribute 34, 1
  12              		.eabi_attribute 18, 4
  13              		.file	"stm32f7xx_hal_dma.c"
  14              		.text
  15              	.Ltext0:
  16              		.cfi_sections	.debug_frame
  17              		.section	.text.DMA_SetConfig,"ax",%progbits
  18              		.align	1
  19              		.arch armv7e-m
  20              		.syntax unified
  21              		.thumb
  22              		.thumb_func
  23              		.fpu fpv5-sp-d16
  25              	DMA_SetConfig:
  26              	.LVL0:
  27              	.LFB153:
  28              		.file 1 "Drivers/STM32F7xx_HAL_Driver/Src/stm32f7xx_hal_dma.c"
   1:Drivers/STM32F7xx_HAL_Driver/Src/stm32f7xx_hal_dma.c **** /**
   2:Drivers/STM32F7xx_HAL_Driver/Src/stm32f7xx_hal_dma.c ****   ******************************************************************************
   3:Drivers/STM32F7xx_HAL_Driver/Src/stm32f7xx_hal_dma.c ****   * @file    stm32f7xx_hal_dma.c
   4:Drivers/STM32F7xx_HAL_Driver/Src/stm32f7xx_hal_dma.c ****   * @author  MCD Application Team
   5:Drivers/STM32F7xx_HAL_Driver/Src/stm32f7xx_hal_dma.c ****   * @brief   DMA HAL module driver.
   6:Drivers/STM32F7xx_HAL_Driver/Src/stm32f7xx_hal_dma.c ****   *    
   7:Drivers/STM32F7xx_HAL_Driver/Src/stm32f7xx_hal_dma.c ****   *          This file provides firmware functions to manage the following 
   8:Drivers/STM32F7xx_HAL_Driver/Src/stm32f7xx_hal_dma.c ****   *          functionalities of the Direct Memory Access (DMA) peripheral:
   9:Drivers/STM32F7xx_HAL_Driver/Src/stm32f7xx_hal_dma.c ****   *           + Initialization and de-initialization functions
  10:Drivers/STM32F7xx_HAL_Driver/Src/stm32f7xx_hal_dma.c ****   *           + IO operation functions
  11:Drivers/STM32F7xx_HAL_Driver/Src/stm32f7xx_hal_dma.c ****   *           + Peripheral State and errors functions
  12:Drivers/STM32F7xx_HAL_Driver/Src/stm32f7xx_hal_dma.c ****   @verbatim     
  13:Drivers/STM32F7xx_HAL_Driver/Src/stm32f7xx_hal_dma.c ****   ==============================================================================
  14:Drivers/STM32F7xx_HAL_Driver/Src/stm32f7xx_hal_dma.c ****                         ##### How to use this driver #####
  15:Drivers/STM32F7xx_HAL_Driver/Src/stm32f7xx_hal_dma.c ****   ==============================================================================
  16:Drivers/STM32F7xx_HAL_Driver/Src/stm32f7xx_hal_dma.c ****   [..]
  17:Drivers/STM32F7xx_HAL_Driver/Src/stm32f7xx_hal_dma.c ****    (#) Enable and configure the peripheral to be connected to the DMA Stream
  18:Drivers/STM32F7xx_HAL_Driver/Src/stm32f7xx_hal_dma.c ****        (except for internal SRAM/FLASH memories: no initialization is 
  19:Drivers/STM32F7xx_HAL_Driver/Src/stm32f7xx_hal_dma.c ****        necessary) please refer to Reference manual for connection between peripherals
  20:Drivers/STM32F7xx_HAL_Driver/Src/stm32f7xx_hal_dma.c ****        and DMA requests.
  21:Drivers/STM32F7xx_HAL_Driver/Src/stm32f7xx_hal_dma.c **** 
  22:Drivers/STM32F7xx_HAL_Driver/Src/stm32f7xx_hal_dma.c ****    (#) For a given Stream, program the required configuration through the following parameters:
  23:Drivers/STM32F7xx_HAL_Driver/Src/stm32f7xx_hal_dma.c ****        Transfer Direction, Source and Destination data formats, 
  24:Drivers/STM32F7xx_HAL_Driver/Src/stm32f7xx_hal_dma.c ****        Circular, Normal or peripheral flow control mode, Stream Priority level, 
  25:Drivers/STM32F7xx_HAL_Driver/Src/stm32f7xx_hal_dma.c ****        Source and Destination Increment mode, FIFO mode and its Threshold (if needed), 
  26:Drivers/STM32F7xx_HAL_Driver/Src/stm32f7xx_hal_dma.c ****        Burst mode for Source and/or Destination (if needed) using HAL_DMA_Init() function.
  27:Drivers/STM32F7xx_HAL_Driver/Src/stm32f7xx_hal_dma.c **** 
  28:Drivers/STM32F7xx_HAL_Driver/Src/stm32f7xx_hal_dma.c ****    -@-   Prior to HAL_DMA_Init() the clock must be enabled for DMA through the following macros:
  29:Drivers/STM32F7xx_HAL_Driver/Src/stm32f7xx_hal_dma.c ****          __HAL_RCC_DMA1_CLK_ENABLE() or __HAL_RCC_DMA2_CLK_ENABLE().
  30:Drivers/STM32F7xx_HAL_Driver/Src/stm32f7xx_hal_dma.c **** 
ARM GAS  /tmp/ccdAZlHn.s 			page 2


  31:Drivers/STM32F7xx_HAL_Driver/Src/stm32f7xx_hal_dma.c ****      *** Polling mode IO operation ***
  32:Drivers/STM32F7xx_HAL_Driver/Src/stm32f7xx_hal_dma.c ****      =================================
  33:Drivers/STM32F7xx_HAL_Driver/Src/stm32f7xx_hal_dma.c ****     [..]
  34:Drivers/STM32F7xx_HAL_Driver/Src/stm32f7xx_hal_dma.c ****           (+) Use HAL_DMA_Start() to start DMA transfer after the configuration of Source 
  35:Drivers/STM32F7xx_HAL_Driver/Src/stm32f7xx_hal_dma.c ****               address and destination address and the Length of data to be transferred.
  36:Drivers/STM32F7xx_HAL_Driver/Src/stm32f7xx_hal_dma.c ****           (+) Use HAL_DMA_PollForTransfer() to poll for the end of current transfer, in this  
  37:Drivers/STM32F7xx_HAL_Driver/Src/stm32f7xx_hal_dma.c ****               case a fixed Timeout can be configured by User depending from his application.
  38:Drivers/STM32F7xx_HAL_Driver/Src/stm32f7xx_hal_dma.c ****           (+) Use HAL_DMA_Abort() function to abort the current transfer.
  39:Drivers/STM32F7xx_HAL_Driver/Src/stm32f7xx_hal_dma.c **** 
  40:Drivers/STM32F7xx_HAL_Driver/Src/stm32f7xx_hal_dma.c ****      *** Interrupt mode IO operation ***
  41:Drivers/STM32F7xx_HAL_Driver/Src/stm32f7xx_hal_dma.c ****      ===================================
  42:Drivers/STM32F7xx_HAL_Driver/Src/stm32f7xx_hal_dma.c ****     [..]
  43:Drivers/STM32F7xx_HAL_Driver/Src/stm32f7xx_hal_dma.c ****           (+) Configure the DMA interrupt priority using HAL_NVIC_SetPriority()
  44:Drivers/STM32F7xx_HAL_Driver/Src/stm32f7xx_hal_dma.c ****           (+) Enable the DMA IRQ handler using HAL_NVIC_EnableIRQ()
  45:Drivers/STM32F7xx_HAL_Driver/Src/stm32f7xx_hal_dma.c ****           (+) Select Callbacks functions using HAL_DMA_RegisterCallback()
  46:Drivers/STM32F7xx_HAL_Driver/Src/stm32f7xx_hal_dma.c ****           (+) Use HAL_DMA_Start_IT() to start DMA transfer after the configuration of  
  47:Drivers/STM32F7xx_HAL_Driver/Src/stm32f7xx_hal_dma.c ****               Source address and destination address and the Length of data to be transferred. In t
  48:Drivers/STM32F7xx_HAL_Driver/Src/stm32f7xx_hal_dma.c ****               case the DMA interrupt is configured 
  49:Drivers/STM32F7xx_HAL_Driver/Src/stm32f7xx_hal_dma.c ****           (+) Use HAL_DMA_IRQHandler() called under DMA_IRQHandler() Interrupt subroutine
  50:Drivers/STM32F7xx_HAL_Driver/Src/stm32f7xx_hal_dma.c ****           (+) At the end of data transfer HAL_DMA_IRQHandler() function is executed and user can 
  51:Drivers/STM32F7xx_HAL_Driver/Src/stm32f7xx_hal_dma.c ****               add his own function by customization of function pointer XferCpltCallback and 
  52:Drivers/STM32F7xx_HAL_Driver/Src/stm32f7xx_hal_dma.c ****               XferErrorCallback (i.e a member of DMA handle structure).
  53:Drivers/STM32F7xx_HAL_Driver/Src/stm32f7xx_hal_dma.c ****     [..]
  54:Drivers/STM32F7xx_HAL_Driver/Src/stm32f7xx_hal_dma.c ****      (#) Use HAL_DMA_GetState() function to return the DMA state and HAL_DMA_GetError() in case of 
  55:Drivers/STM32F7xx_HAL_Driver/Src/stm32f7xx_hal_dma.c ****          detection.
  56:Drivers/STM32F7xx_HAL_Driver/Src/stm32f7xx_hal_dma.c **** 
  57:Drivers/STM32F7xx_HAL_Driver/Src/stm32f7xx_hal_dma.c ****      (#) Use HAL_DMA_Abort_IT() function to abort the current transfer
  58:Drivers/STM32F7xx_HAL_Driver/Src/stm32f7xx_hal_dma.c **** 
  59:Drivers/STM32F7xx_HAL_Driver/Src/stm32f7xx_hal_dma.c ****      -@-   In Memory-to-Memory transfer mode, Circular mode is not allowed.
  60:Drivers/STM32F7xx_HAL_Driver/Src/stm32f7xx_hal_dma.c **** 
  61:Drivers/STM32F7xx_HAL_Driver/Src/stm32f7xx_hal_dma.c ****      -@-   The FIFO is used mainly to reduce bus usage and to allow data packing/unpacking: it is
  62:Drivers/STM32F7xx_HAL_Driver/Src/stm32f7xx_hal_dma.c ****            possible to set different Data Sizes for the Peripheral and the Memory (ie. you can set
  63:Drivers/STM32F7xx_HAL_Driver/Src/stm32f7xx_hal_dma.c ****            Half-Word data size for the peripheral to access its data register and set Word data siz
  64:Drivers/STM32F7xx_HAL_Driver/Src/stm32f7xx_hal_dma.c ****            for the Memory to gain in access time. Each two half words will be packed and written in
  65:Drivers/STM32F7xx_HAL_Driver/Src/stm32f7xx_hal_dma.c ****            a single access to a Word in the Memory).
  66:Drivers/STM32F7xx_HAL_Driver/Src/stm32f7xx_hal_dma.c **** 
  67:Drivers/STM32F7xx_HAL_Driver/Src/stm32f7xx_hal_dma.c ****      -@-   When FIFO is disabled, it is not allowed to configure different Data Sizes for Source
  68:Drivers/STM32F7xx_HAL_Driver/Src/stm32f7xx_hal_dma.c ****            and Destination. In this case the Peripheral Data Size will be applied to both Source
  69:Drivers/STM32F7xx_HAL_Driver/Src/stm32f7xx_hal_dma.c ****            and Destination.
  70:Drivers/STM32F7xx_HAL_Driver/Src/stm32f7xx_hal_dma.c **** 
  71:Drivers/STM32F7xx_HAL_Driver/Src/stm32f7xx_hal_dma.c ****      *** DMA HAL driver macros list ***
  72:Drivers/STM32F7xx_HAL_Driver/Src/stm32f7xx_hal_dma.c ****      =============================================
  73:Drivers/STM32F7xx_HAL_Driver/Src/stm32f7xx_hal_dma.c ****      [..]
  74:Drivers/STM32F7xx_HAL_Driver/Src/stm32f7xx_hal_dma.c ****        Below the list of most used macros in DMA HAL driver.
  75:Drivers/STM32F7xx_HAL_Driver/Src/stm32f7xx_hal_dma.c ****        
  76:Drivers/STM32F7xx_HAL_Driver/Src/stm32f7xx_hal_dma.c ****       (+) __HAL_DMA_ENABLE: Enable the specified DMA Stream.
  77:Drivers/STM32F7xx_HAL_Driver/Src/stm32f7xx_hal_dma.c ****       (+) __HAL_DMA_DISABLE: Disable the specified DMA Stream.
  78:Drivers/STM32F7xx_HAL_Driver/Src/stm32f7xx_hal_dma.c ****       (+) __HAL_DMA_GET_IT_SOURCE: Check whether the specified DMA Stream interrupt has occurred or
  79:Drivers/STM32F7xx_HAL_Driver/Src/stm32f7xx_hal_dma.c **** 
  80:Drivers/STM32F7xx_HAL_Driver/Src/stm32f7xx_hal_dma.c ****      [..]
  81:Drivers/STM32F7xx_HAL_Driver/Src/stm32f7xx_hal_dma.c ****       (@) You can refer to the DMA HAL driver header file for more useful macros
  82:Drivers/STM32F7xx_HAL_Driver/Src/stm32f7xx_hal_dma.c **** 
  83:Drivers/STM32F7xx_HAL_Driver/Src/stm32f7xx_hal_dma.c ****   @endverbatim
  84:Drivers/STM32F7xx_HAL_Driver/Src/stm32f7xx_hal_dma.c ****   ******************************************************************************
  85:Drivers/STM32F7xx_HAL_Driver/Src/stm32f7xx_hal_dma.c ****   * @attention
  86:Drivers/STM32F7xx_HAL_Driver/Src/stm32f7xx_hal_dma.c ****   *
  87:Drivers/STM32F7xx_HAL_Driver/Src/stm32f7xx_hal_dma.c ****   * <h2><center>&copy; Copyright (c) 2017 STMicroelectronics.
ARM GAS  /tmp/ccdAZlHn.s 			page 3


  88:Drivers/STM32F7xx_HAL_Driver/Src/stm32f7xx_hal_dma.c ****   * All rights reserved.</center></h2>
  89:Drivers/STM32F7xx_HAL_Driver/Src/stm32f7xx_hal_dma.c ****   *
  90:Drivers/STM32F7xx_HAL_Driver/Src/stm32f7xx_hal_dma.c ****   * This software component is licensed by ST under BSD 3-Clause license,
  91:Drivers/STM32F7xx_HAL_Driver/Src/stm32f7xx_hal_dma.c ****   * the "License"; You may not use this file except in compliance with the
  92:Drivers/STM32F7xx_HAL_Driver/Src/stm32f7xx_hal_dma.c ****   * License. You may obtain a copy of the License at:
  93:Drivers/STM32F7xx_HAL_Driver/Src/stm32f7xx_hal_dma.c ****   *                        opensource.org/licenses/BSD-3-Clause
  94:Drivers/STM32F7xx_HAL_Driver/Src/stm32f7xx_hal_dma.c ****   *
  95:Drivers/STM32F7xx_HAL_Driver/Src/stm32f7xx_hal_dma.c ****   ******************************************************************************
  96:Drivers/STM32F7xx_HAL_Driver/Src/stm32f7xx_hal_dma.c ****   */ 
  97:Drivers/STM32F7xx_HAL_Driver/Src/stm32f7xx_hal_dma.c **** 
  98:Drivers/STM32F7xx_HAL_Driver/Src/stm32f7xx_hal_dma.c **** /* Includes ------------------------------------------------------------------*/
  99:Drivers/STM32F7xx_HAL_Driver/Src/stm32f7xx_hal_dma.c **** #include "stm32f7xx_hal.h"
 100:Drivers/STM32F7xx_HAL_Driver/Src/stm32f7xx_hal_dma.c **** 
 101:Drivers/STM32F7xx_HAL_Driver/Src/stm32f7xx_hal_dma.c **** /** @addtogroup STM32F7xx_HAL_Driver
 102:Drivers/STM32F7xx_HAL_Driver/Src/stm32f7xx_hal_dma.c ****   * @{
 103:Drivers/STM32F7xx_HAL_Driver/Src/stm32f7xx_hal_dma.c ****   */
 104:Drivers/STM32F7xx_HAL_Driver/Src/stm32f7xx_hal_dma.c **** 
 105:Drivers/STM32F7xx_HAL_Driver/Src/stm32f7xx_hal_dma.c **** /** @defgroup DMA DMA
 106:Drivers/STM32F7xx_HAL_Driver/Src/stm32f7xx_hal_dma.c ****   * @brief DMA HAL module driver
 107:Drivers/STM32F7xx_HAL_Driver/Src/stm32f7xx_hal_dma.c ****   * @{
 108:Drivers/STM32F7xx_HAL_Driver/Src/stm32f7xx_hal_dma.c ****   */
 109:Drivers/STM32F7xx_HAL_Driver/Src/stm32f7xx_hal_dma.c **** 
 110:Drivers/STM32F7xx_HAL_Driver/Src/stm32f7xx_hal_dma.c **** #ifdef HAL_DMA_MODULE_ENABLED
 111:Drivers/STM32F7xx_HAL_Driver/Src/stm32f7xx_hal_dma.c **** 
 112:Drivers/STM32F7xx_HAL_Driver/Src/stm32f7xx_hal_dma.c **** /* Private types -------------------------------------------------------------*/
 113:Drivers/STM32F7xx_HAL_Driver/Src/stm32f7xx_hal_dma.c **** typedef struct
 114:Drivers/STM32F7xx_HAL_Driver/Src/stm32f7xx_hal_dma.c **** {
 115:Drivers/STM32F7xx_HAL_Driver/Src/stm32f7xx_hal_dma.c ****   __IO uint32_t ISR;   /*!< DMA interrupt status register */
 116:Drivers/STM32F7xx_HAL_Driver/Src/stm32f7xx_hal_dma.c ****   __IO uint32_t Reserved0;
 117:Drivers/STM32F7xx_HAL_Driver/Src/stm32f7xx_hal_dma.c ****   __IO uint32_t IFCR;  /*!< DMA interrupt flag clear register */
 118:Drivers/STM32F7xx_HAL_Driver/Src/stm32f7xx_hal_dma.c **** } DMA_Base_Registers;
 119:Drivers/STM32F7xx_HAL_Driver/Src/stm32f7xx_hal_dma.c **** 
 120:Drivers/STM32F7xx_HAL_Driver/Src/stm32f7xx_hal_dma.c **** /* Private variables ---------------------------------------------------------*/
 121:Drivers/STM32F7xx_HAL_Driver/Src/stm32f7xx_hal_dma.c **** /* Private constants ---------------------------------------------------------*/
 122:Drivers/STM32F7xx_HAL_Driver/Src/stm32f7xx_hal_dma.c **** /** @addtogroup DMA_Private_Constants
 123:Drivers/STM32F7xx_HAL_Driver/Src/stm32f7xx_hal_dma.c ****  * @{
 124:Drivers/STM32F7xx_HAL_Driver/Src/stm32f7xx_hal_dma.c ****  */
 125:Drivers/STM32F7xx_HAL_Driver/Src/stm32f7xx_hal_dma.c ****  #define HAL_TIMEOUT_DMA_ABORT    ((uint32_t)5)  /* 5 ms */
 126:Drivers/STM32F7xx_HAL_Driver/Src/stm32f7xx_hal_dma.c **** /**
 127:Drivers/STM32F7xx_HAL_Driver/Src/stm32f7xx_hal_dma.c ****   * @}
 128:Drivers/STM32F7xx_HAL_Driver/Src/stm32f7xx_hal_dma.c ****   */
 129:Drivers/STM32F7xx_HAL_Driver/Src/stm32f7xx_hal_dma.c **** /* Private macros ------------------------------------------------------------*/
 130:Drivers/STM32F7xx_HAL_Driver/Src/stm32f7xx_hal_dma.c **** /* Private functions ---------------------------------------------------------*/
 131:Drivers/STM32F7xx_HAL_Driver/Src/stm32f7xx_hal_dma.c **** /** @addtogroup DMA_Private_Functions
 132:Drivers/STM32F7xx_HAL_Driver/Src/stm32f7xx_hal_dma.c ****   * @{
 133:Drivers/STM32F7xx_HAL_Driver/Src/stm32f7xx_hal_dma.c ****   */
 134:Drivers/STM32F7xx_HAL_Driver/Src/stm32f7xx_hal_dma.c **** static void DMA_SetConfig(DMA_HandleTypeDef *hdma, uint32_t SrcAddress, uint32_t DstAddress, uint32
 135:Drivers/STM32F7xx_HAL_Driver/Src/stm32f7xx_hal_dma.c **** static uint32_t DMA_CalcBaseAndBitshift(DMA_HandleTypeDef *hdma);
 136:Drivers/STM32F7xx_HAL_Driver/Src/stm32f7xx_hal_dma.c **** static HAL_StatusTypeDef DMA_CheckFifoParam(DMA_HandleTypeDef *hdma);
 137:Drivers/STM32F7xx_HAL_Driver/Src/stm32f7xx_hal_dma.c **** 
 138:Drivers/STM32F7xx_HAL_Driver/Src/stm32f7xx_hal_dma.c **** /**
 139:Drivers/STM32F7xx_HAL_Driver/Src/stm32f7xx_hal_dma.c ****   * @}
 140:Drivers/STM32F7xx_HAL_Driver/Src/stm32f7xx_hal_dma.c ****   */  
 141:Drivers/STM32F7xx_HAL_Driver/Src/stm32f7xx_hal_dma.c **** 
 142:Drivers/STM32F7xx_HAL_Driver/Src/stm32f7xx_hal_dma.c **** /* Exported functions ---------------------------------------------------------*/
 143:Drivers/STM32F7xx_HAL_Driver/Src/stm32f7xx_hal_dma.c **** /** @addtogroup DMA_Exported_Functions
 144:Drivers/STM32F7xx_HAL_Driver/Src/stm32f7xx_hal_dma.c ****   * @{
ARM GAS  /tmp/ccdAZlHn.s 			page 4


 145:Drivers/STM32F7xx_HAL_Driver/Src/stm32f7xx_hal_dma.c ****   */
 146:Drivers/STM32F7xx_HAL_Driver/Src/stm32f7xx_hal_dma.c **** 
 147:Drivers/STM32F7xx_HAL_Driver/Src/stm32f7xx_hal_dma.c **** /** @addtogroup DMA_Exported_Functions_Group1
 148:Drivers/STM32F7xx_HAL_Driver/Src/stm32f7xx_hal_dma.c ****   *
 149:Drivers/STM32F7xx_HAL_Driver/Src/stm32f7xx_hal_dma.c **** @verbatim
 150:Drivers/STM32F7xx_HAL_Driver/Src/stm32f7xx_hal_dma.c ****  ===============================================================================
 151:Drivers/STM32F7xx_HAL_Driver/Src/stm32f7xx_hal_dma.c ****              ##### Initialization and de-initialization functions  #####
 152:Drivers/STM32F7xx_HAL_Driver/Src/stm32f7xx_hal_dma.c ****  ===============================================================================
 153:Drivers/STM32F7xx_HAL_Driver/Src/stm32f7xx_hal_dma.c ****     [..]
 154:Drivers/STM32F7xx_HAL_Driver/Src/stm32f7xx_hal_dma.c ****     This section provides functions allowing to initialize the DMA Stream source
 155:Drivers/STM32F7xx_HAL_Driver/Src/stm32f7xx_hal_dma.c ****     and destination addresses, incrementation and data sizes, transfer direction, 
 156:Drivers/STM32F7xx_HAL_Driver/Src/stm32f7xx_hal_dma.c ****     circular/normal mode selection, memory-to-memory mode selection and Stream priority value.
 157:Drivers/STM32F7xx_HAL_Driver/Src/stm32f7xx_hal_dma.c ****     [..]
 158:Drivers/STM32F7xx_HAL_Driver/Src/stm32f7xx_hal_dma.c ****     The HAL_DMA_Init() function follows the DMA configuration procedures as described in
 159:Drivers/STM32F7xx_HAL_Driver/Src/stm32f7xx_hal_dma.c ****     reference manual.
 160:Drivers/STM32F7xx_HAL_Driver/Src/stm32f7xx_hal_dma.c **** 
 161:Drivers/STM32F7xx_HAL_Driver/Src/stm32f7xx_hal_dma.c **** @endverbatim
 162:Drivers/STM32F7xx_HAL_Driver/Src/stm32f7xx_hal_dma.c ****   * @{
 163:Drivers/STM32F7xx_HAL_Driver/Src/stm32f7xx_hal_dma.c ****   */
 164:Drivers/STM32F7xx_HAL_Driver/Src/stm32f7xx_hal_dma.c ****   
 165:Drivers/STM32F7xx_HAL_Driver/Src/stm32f7xx_hal_dma.c **** /**
 166:Drivers/STM32F7xx_HAL_Driver/Src/stm32f7xx_hal_dma.c ****   * @brief  Initialize the DMA according to the specified
 167:Drivers/STM32F7xx_HAL_Driver/Src/stm32f7xx_hal_dma.c ****   *         parameters in the DMA_InitTypeDef and create the associated handle.
 168:Drivers/STM32F7xx_HAL_Driver/Src/stm32f7xx_hal_dma.c ****   * @param  hdma Pointer to a DMA_HandleTypeDef structure that contains
 169:Drivers/STM32F7xx_HAL_Driver/Src/stm32f7xx_hal_dma.c ****   *               the configuration information for the specified DMA Stream.  
 170:Drivers/STM32F7xx_HAL_Driver/Src/stm32f7xx_hal_dma.c ****   * @retval HAL status
 171:Drivers/STM32F7xx_HAL_Driver/Src/stm32f7xx_hal_dma.c ****   */
 172:Drivers/STM32F7xx_HAL_Driver/Src/stm32f7xx_hal_dma.c **** HAL_StatusTypeDef HAL_DMA_Init(DMA_HandleTypeDef *hdma)
 173:Drivers/STM32F7xx_HAL_Driver/Src/stm32f7xx_hal_dma.c **** {
 174:Drivers/STM32F7xx_HAL_Driver/Src/stm32f7xx_hal_dma.c ****   uint32_t tmp = 0U;
 175:Drivers/STM32F7xx_HAL_Driver/Src/stm32f7xx_hal_dma.c ****   uint32_t tickstart = HAL_GetTick();
 176:Drivers/STM32F7xx_HAL_Driver/Src/stm32f7xx_hal_dma.c ****   DMA_Base_Registers *regs;
 177:Drivers/STM32F7xx_HAL_Driver/Src/stm32f7xx_hal_dma.c **** 
 178:Drivers/STM32F7xx_HAL_Driver/Src/stm32f7xx_hal_dma.c ****   /* Check the DMA peripheral state */
 179:Drivers/STM32F7xx_HAL_Driver/Src/stm32f7xx_hal_dma.c ****   if(hdma == NULL)
 180:Drivers/STM32F7xx_HAL_Driver/Src/stm32f7xx_hal_dma.c ****   {
 181:Drivers/STM32F7xx_HAL_Driver/Src/stm32f7xx_hal_dma.c ****     return HAL_ERROR;
 182:Drivers/STM32F7xx_HAL_Driver/Src/stm32f7xx_hal_dma.c ****   }
 183:Drivers/STM32F7xx_HAL_Driver/Src/stm32f7xx_hal_dma.c **** 
 184:Drivers/STM32F7xx_HAL_Driver/Src/stm32f7xx_hal_dma.c ****   /* Check the parameters */
 185:Drivers/STM32F7xx_HAL_Driver/Src/stm32f7xx_hal_dma.c ****   assert_param(IS_DMA_STREAM_ALL_INSTANCE(hdma->Instance));
 186:Drivers/STM32F7xx_HAL_Driver/Src/stm32f7xx_hal_dma.c ****   assert_param(IS_DMA_CHANNEL(hdma->Init.Channel));
 187:Drivers/STM32F7xx_HAL_Driver/Src/stm32f7xx_hal_dma.c ****   assert_param(IS_DMA_DIRECTION(hdma->Init.Direction));
 188:Drivers/STM32F7xx_HAL_Driver/Src/stm32f7xx_hal_dma.c ****   assert_param(IS_DMA_PERIPHERAL_INC_STATE(hdma->Init.PeriphInc));
 189:Drivers/STM32F7xx_HAL_Driver/Src/stm32f7xx_hal_dma.c ****   assert_param(IS_DMA_MEMORY_INC_STATE(hdma->Init.MemInc));
 190:Drivers/STM32F7xx_HAL_Driver/Src/stm32f7xx_hal_dma.c ****   assert_param(IS_DMA_PERIPHERAL_DATA_SIZE(hdma->Init.PeriphDataAlignment));
 191:Drivers/STM32F7xx_HAL_Driver/Src/stm32f7xx_hal_dma.c ****   assert_param(IS_DMA_MEMORY_DATA_SIZE(hdma->Init.MemDataAlignment));
 192:Drivers/STM32F7xx_HAL_Driver/Src/stm32f7xx_hal_dma.c ****   assert_param(IS_DMA_MODE(hdma->Init.Mode));
 193:Drivers/STM32F7xx_HAL_Driver/Src/stm32f7xx_hal_dma.c ****   assert_param(IS_DMA_PRIORITY(hdma->Init.Priority));
 194:Drivers/STM32F7xx_HAL_Driver/Src/stm32f7xx_hal_dma.c ****   assert_param(IS_DMA_FIFO_MODE_STATE(hdma->Init.FIFOMode));
 195:Drivers/STM32F7xx_HAL_Driver/Src/stm32f7xx_hal_dma.c ****   /* Check the memory burst, peripheral burst and FIFO threshold parameters only
 196:Drivers/STM32F7xx_HAL_Driver/Src/stm32f7xx_hal_dma.c ****      when FIFO mode is enabled */
 197:Drivers/STM32F7xx_HAL_Driver/Src/stm32f7xx_hal_dma.c ****   if(hdma->Init.FIFOMode != DMA_FIFOMODE_DISABLE)
 198:Drivers/STM32F7xx_HAL_Driver/Src/stm32f7xx_hal_dma.c ****   {
 199:Drivers/STM32F7xx_HAL_Driver/Src/stm32f7xx_hal_dma.c ****     assert_param(IS_DMA_FIFO_THRESHOLD(hdma->Init.FIFOThreshold));
 200:Drivers/STM32F7xx_HAL_Driver/Src/stm32f7xx_hal_dma.c ****     assert_param(IS_DMA_MEMORY_BURST(hdma->Init.MemBurst));
 201:Drivers/STM32F7xx_HAL_Driver/Src/stm32f7xx_hal_dma.c ****     assert_param(IS_DMA_PERIPHERAL_BURST(hdma->Init.PeriphBurst));
ARM GAS  /tmp/ccdAZlHn.s 			page 5


 202:Drivers/STM32F7xx_HAL_Driver/Src/stm32f7xx_hal_dma.c ****   }
 203:Drivers/STM32F7xx_HAL_Driver/Src/stm32f7xx_hal_dma.c ****   
 204:Drivers/STM32F7xx_HAL_Driver/Src/stm32f7xx_hal_dma.c ****   /* Allocate lock resource */
 205:Drivers/STM32F7xx_HAL_Driver/Src/stm32f7xx_hal_dma.c ****   __HAL_UNLOCK(hdma);
 206:Drivers/STM32F7xx_HAL_Driver/Src/stm32f7xx_hal_dma.c **** 
 207:Drivers/STM32F7xx_HAL_Driver/Src/stm32f7xx_hal_dma.c ****   /* Change DMA peripheral state */
 208:Drivers/STM32F7xx_HAL_Driver/Src/stm32f7xx_hal_dma.c ****   hdma->State = HAL_DMA_STATE_BUSY;
 209:Drivers/STM32F7xx_HAL_Driver/Src/stm32f7xx_hal_dma.c ****   
 210:Drivers/STM32F7xx_HAL_Driver/Src/stm32f7xx_hal_dma.c ****   /* Disable the peripheral */
 211:Drivers/STM32F7xx_HAL_Driver/Src/stm32f7xx_hal_dma.c ****   __HAL_DMA_DISABLE(hdma);
 212:Drivers/STM32F7xx_HAL_Driver/Src/stm32f7xx_hal_dma.c ****   
 213:Drivers/STM32F7xx_HAL_Driver/Src/stm32f7xx_hal_dma.c ****   /* Check if the DMA Stream is effectively disabled */
 214:Drivers/STM32F7xx_HAL_Driver/Src/stm32f7xx_hal_dma.c ****   while((hdma->Instance->CR & DMA_SxCR_EN) != RESET)
 215:Drivers/STM32F7xx_HAL_Driver/Src/stm32f7xx_hal_dma.c ****   {
 216:Drivers/STM32F7xx_HAL_Driver/Src/stm32f7xx_hal_dma.c ****     /* Check for the Timeout */
 217:Drivers/STM32F7xx_HAL_Driver/Src/stm32f7xx_hal_dma.c ****     if((HAL_GetTick() - tickstart ) > HAL_TIMEOUT_DMA_ABORT)
 218:Drivers/STM32F7xx_HAL_Driver/Src/stm32f7xx_hal_dma.c ****     {
 219:Drivers/STM32F7xx_HAL_Driver/Src/stm32f7xx_hal_dma.c ****       /* Update error code */
 220:Drivers/STM32F7xx_HAL_Driver/Src/stm32f7xx_hal_dma.c ****       hdma->ErrorCode = HAL_DMA_ERROR_TIMEOUT;
 221:Drivers/STM32F7xx_HAL_Driver/Src/stm32f7xx_hal_dma.c ****       
 222:Drivers/STM32F7xx_HAL_Driver/Src/stm32f7xx_hal_dma.c ****       /* Change the DMA state */
 223:Drivers/STM32F7xx_HAL_Driver/Src/stm32f7xx_hal_dma.c ****       hdma->State = HAL_DMA_STATE_TIMEOUT;
 224:Drivers/STM32F7xx_HAL_Driver/Src/stm32f7xx_hal_dma.c ****       
 225:Drivers/STM32F7xx_HAL_Driver/Src/stm32f7xx_hal_dma.c ****       return HAL_TIMEOUT;
 226:Drivers/STM32F7xx_HAL_Driver/Src/stm32f7xx_hal_dma.c ****     }
 227:Drivers/STM32F7xx_HAL_Driver/Src/stm32f7xx_hal_dma.c ****   }
 228:Drivers/STM32F7xx_HAL_Driver/Src/stm32f7xx_hal_dma.c ****   
 229:Drivers/STM32F7xx_HAL_Driver/Src/stm32f7xx_hal_dma.c ****   /* Get the CR register value */
 230:Drivers/STM32F7xx_HAL_Driver/Src/stm32f7xx_hal_dma.c ****   tmp = hdma->Instance->CR;
 231:Drivers/STM32F7xx_HAL_Driver/Src/stm32f7xx_hal_dma.c **** 
 232:Drivers/STM32F7xx_HAL_Driver/Src/stm32f7xx_hal_dma.c ****   /* Clear CHSEL, MBURST, PBURST, PL, MSIZE, PSIZE, MINC, PINC, CIRC, DIR, CT and DBM bits */
 233:Drivers/STM32F7xx_HAL_Driver/Src/stm32f7xx_hal_dma.c ****   tmp &= ((uint32_t)~(DMA_SxCR_CHSEL | DMA_SxCR_MBURST | DMA_SxCR_PBURST | \
 234:Drivers/STM32F7xx_HAL_Driver/Src/stm32f7xx_hal_dma.c ****                       DMA_SxCR_PL    | DMA_SxCR_MSIZE  | DMA_SxCR_PSIZE  | \
 235:Drivers/STM32F7xx_HAL_Driver/Src/stm32f7xx_hal_dma.c ****                       DMA_SxCR_MINC  | DMA_SxCR_PINC   | DMA_SxCR_CIRC   | \
 236:Drivers/STM32F7xx_HAL_Driver/Src/stm32f7xx_hal_dma.c ****                       DMA_SxCR_DIR   | DMA_SxCR_CT     | DMA_SxCR_DBM));
 237:Drivers/STM32F7xx_HAL_Driver/Src/stm32f7xx_hal_dma.c **** 
 238:Drivers/STM32F7xx_HAL_Driver/Src/stm32f7xx_hal_dma.c ****   /* Prepare the DMA Stream configuration */
 239:Drivers/STM32F7xx_HAL_Driver/Src/stm32f7xx_hal_dma.c ****   tmp |=  hdma->Init.Channel             | hdma->Init.Direction        |
 240:Drivers/STM32F7xx_HAL_Driver/Src/stm32f7xx_hal_dma.c ****           hdma->Init.PeriphInc           | hdma->Init.MemInc           |
 241:Drivers/STM32F7xx_HAL_Driver/Src/stm32f7xx_hal_dma.c ****           hdma->Init.PeriphDataAlignment | hdma->Init.MemDataAlignment |
 242:Drivers/STM32F7xx_HAL_Driver/Src/stm32f7xx_hal_dma.c ****           hdma->Init.Mode                | hdma->Init.Priority;
 243:Drivers/STM32F7xx_HAL_Driver/Src/stm32f7xx_hal_dma.c **** 
 244:Drivers/STM32F7xx_HAL_Driver/Src/stm32f7xx_hal_dma.c ****   /* the Memory burst and peripheral burst are not used when the FIFO is disabled */
 245:Drivers/STM32F7xx_HAL_Driver/Src/stm32f7xx_hal_dma.c ****   if(hdma->Init.FIFOMode == DMA_FIFOMODE_ENABLE)
 246:Drivers/STM32F7xx_HAL_Driver/Src/stm32f7xx_hal_dma.c ****   {
 247:Drivers/STM32F7xx_HAL_Driver/Src/stm32f7xx_hal_dma.c ****     /* Get memory burst and peripheral burst */
 248:Drivers/STM32F7xx_HAL_Driver/Src/stm32f7xx_hal_dma.c ****     tmp |=  hdma->Init.MemBurst | hdma->Init.PeriphBurst;
 249:Drivers/STM32F7xx_HAL_Driver/Src/stm32f7xx_hal_dma.c ****   }
 250:Drivers/STM32F7xx_HAL_Driver/Src/stm32f7xx_hal_dma.c ****   
 251:Drivers/STM32F7xx_HAL_Driver/Src/stm32f7xx_hal_dma.c ****   /* Write to DMA Stream CR register */
 252:Drivers/STM32F7xx_HAL_Driver/Src/stm32f7xx_hal_dma.c ****   hdma->Instance->CR = tmp;  
 253:Drivers/STM32F7xx_HAL_Driver/Src/stm32f7xx_hal_dma.c **** 
 254:Drivers/STM32F7xx_HAL_Driver/Src/stm32f7xx_hal_dma.c ****   /* Get the FCR register value */
 255:Drivers/STM32F7xx_HAL_Driver/Src/stm32f7xx_hal_dma.c ****   tmp = hdma->Instance->FCR;
 256:Drivers/STM32F7xx_HAL_Driver/Src/stm32f7xx_hal_dma.c **** 
 257:Drivers/STM32F7xx_HAL_Driver/Src/stm32f7xx_hal_dma.c ****   /* Clear Direct mode and FIFO threshold bits */
 258:Drivers/STM32F7xx_HAL_Driver/Src/stm32f7xx_hal_dma.c ****   tmp &= (uint32_t)~(DMA_SxFCR_DMDIS | DMA_SxFCR_FTH);
ARM GAS  /tmp/ccdAZlHn.s 			page 6


 259:Drivers/STM32F7xx_HAL_Driver/Src/stm32f7xx_hal_dma.c **** 
 260:Drivers/STM32F7xx_HAL_Driver/Src/stm32f7xx_hal_dma.c ****   /* Prepare the DMA Stream FIFO configuration */
 261:Drivers/STM32F7xx_HAL_Driver/Src/stm32f7xx_hal_dma.c ****   tmp |= hdma->Init.FIFOMode;
 262:Drivers/STM32F7xx_HAL_Driver/Src/stm32f7xx_hal_dma.c **** 
 263:Drivers/STM32F7xx_HAL_Driver/Src/stm32f7xx_hal_dma.c ****   /* The FIFO threshold is not used when the FIFO mode is disabled */
 264:Drivers/STM32F7xx_HAL_Driver/Src/stm32f7xx_hal_dma.c ****   if(hdma->Init.FIFOMode == DMA_FIFOMODE_ENABLE)
 265:Drivers/STM32F7xx_HAL_Driver/Src/stm32f7xx_hal_dma.c ****   {
 266:Drivers/STM32F7xx_HAL_Driver/Src/stm32f7xx_hal_dma.c ****     /* Get the FIFO threshold */
 267:Drivers/STM32F7xx_HAL_Driver/Src/stm32f7xx_hal_dma.c ****     tmp |= hdma->Init.FIFOThreshold;
 268:Drivers/STM32F7xx_HAL_Driver/Src/stm32f7xx_hal_dma.c ****     
 269:Drivers/STM32F7xx_HAL_Driver/Src/stm32f7xx_hal_dma.c ****     /* Check compatibility between FIFO threshold level and size of the memory burst */
 270:Drivers/STM32F7xx_HAL_Driver/Src/stm32f7xx_hal_dma.c ****     /* for INCR4, INCR8, INCR16 bursts */
 271:Drivers/STM32F7xx_HAL_Driver/Src/stm32f7xx_hal_dma.c ****     if (hdma->Init.MemBurst != DMA_MBURST_SINGLE)
 272:Drivers/STM32F7xx_HAL_Driver/Src/stm32f7xx_hal_dma.c ****     {
 273:Drivers/STM32F7xx_HAL_Driver/Src/stm32f7xx_hal_dma.c ****       if (DMA_CheckFifoParam(hdma) != HAL_OK)
 274:Drivers/STM32F7xx_HAL_Driver/Src/stm32f7xx_hal_dma.c ****       {
 275:Drivers/STM32F7xx_HAL_Driver/Src/stm32f7xx_hal_dma.c ****         /* Update error code */
 276:Drivers/STM32F7xx_HAL_Driver/Src/stm32f7xx_hal_dma.c ****         hdma->ErrorCode = HAL_DMA_ERROR_PARAM;
 277:Drivers/STM32F7xx_HAL_Driver/Src/stm32f7xx_hal_dma.c ****         
 278:Drivers/STM32F7xx_HAL_Driver/Src/stm32f7xx_hal_dma.c ****         /* Change the DMA state */
 279:Drivers/STM32F7xx_HAL_Driver/Src/stm32f7xx_hal_dma.c ****         hdma->State = HAL_DMA_STATE_READY;
 280:Drivers/STM32F7xx_HAL_Driver/Src/stm32f7xx_hal_dma.c ****         
 281:Drivers/STM32F7xx_HAL_Driver/Src/stm32f7xx_hal_dma.c ****         return HAL_ERROR; 
 282:Drivers/STM32F7xx_HAL_Driver/Src/stm32f7xx_hal_dma.c ****       }
 283:Drivers/STM32F7xx_HAL_Driver/Src/stm32f7xx_hal_dma.c ****     }
 284:Drivers/STM32F7xx_HAL_Driver/Src/stm32f7xx_hal_dma.c ****   }
 285:Drivers/STM32F7xx_HAL_Driver/Src/stm32f7xx_hal_dma.c ****   
 286:Drivers/STM32F7xx_HAL_Driver/Src/stm32f7xx_hal_dma.c ****   /* Write to DMA Stream FCR */
 287:Drivers/STM32F7xx_HAL_Driver/Src/stm32f7xx_hal_dma.c ****   hdma->Instance->FCR = tmp;
 288:Drivers/STM32F7xx_HAL_Driver/Src/stm32f7xx_hal_dma.c **** 
 289:Drivers/STM32F7xx_HAL_Driver/Src/stm32f7xx_hal_dma.c ****   /* Initialize StreamBaseAddress and StreamIndex parameters to be used to calculate
 290:Drivers/STM32F7xx_HAL_Driver/Src/stm32f7xx_hal_dma.c ****      DMA steam Base Address needed by HAL_DMA_IRQHandler() and HAL_DMA_PollForTransfer() */
 291:Drivers/STM32F7xx_HAL_Driver/Src/stm32f7xx_hal_dma.c ****   regs = (DMA_Base_Registers *)DMA_CalcBaseAndBitshift(hdma);
 292:Drivers/STM32F7xx_HAL_Driver/Src/stm32f7xx_hal_dma.c ****   
 293:Drivers/STM32F7xx_HAL_Driver/Src/stm32f7xx_hal_dma.c ****   /* Clear all interrupt flags */
 294:Drivers/STM32F7xx_HAL_Driver/Src/stm32f7xx_hal_dma.c ****   regs->IFCR = 0x3FU << hdma->StreamIndex;
 295:Drivers/STM32F7xx_HAL_Driver/Src/stm32f7xx_hal_dma.c **** 
 296:Drivers/STM32F7xx_HAL_Driver/Src/stm32f7xx_hal_dma.c ****   /* Initialize the error code */
 297:Drivers/STM32F7xx_HAL_Driver/Src/stm32f7xx_hal_dma.c ****   hdma->ErrorCode = HAL_DMA_ERROR_NONE;
 298:Drivers/STM32F7xx_HAL_Driver/Src/stm32f7xx_hal_dma.c ****                                                                                      
 299:Drivers/STM32F7xx_HAL_Driver/Src/stm32f7xx_hal_dma.c ****   /* Initialize the DMA state */
 300:Drivers/STM32F7xx_HAL_Driver/Src/stm32f7xx_hal_dma.c ****   hdma->State = HAL_DMA_STATE_READY;
 301:Drivers/STM32F7xx_HAL_Driver/Src/stm32f7xx_hal_dma.c **** 
 302:Drivers/STM32F7xx_HAL_Driver/Src/stm32f7xx_hal_dma.c ****   return HAL_OK;
 303:Drivers/STM32F7xx_HAL_Driver/Src/stm32f7xx_hal_dma.c **** }
 304:Drivers/STM32F7xx_HAL_Driver/Src/stm32f7xx_hal_dma.c **** 
 305:Drivers/STM32F7xx_HAL_Driver/Src/stm32f7xx_hal_dma.c **** /**
 306:Drivers/STM32F7xx_HAL_Driver/Src/stm32f7xx_hal_dma.c ****   * @brief  DeInitializes the DMA peripheral 
 307:Drivers/STM32F7xx_HAL_Driver/Src/stm32f7xx_hal_dma.c ****   * @param  hdma pointer to a DMA_HandleTypeDef structure that contains
 308:Drivers/STM32F7xx_HAL_Driver/Src/stm32f7xx_hal_dma.c ****   *               the configuration information for the specified DMA Stream.  
 309:Drivers/STM32F7xx_HAL_Driver/Src/stm32f7xx_hal_dma.c ****   * @retval HAL status
 310:Drivers/STM32F7xx_HAL_Driver/Src/stm32f7xx_hal_dma.c ****   */
 311:Drivers/STM32F7xx_HAL_Driver/Src/stm32f7xx_hal_dma.c **** HAL_StatusTypeDef HAL_DMA_DeInit(DMA_HandleTypeDef *hdma)
 312:Drivers/STM32F7xx_HAL_Driver/Src/stm32f7xx_hal_dma.c **** {
 313:Drivers/STM32F7xx_HAL_Driver/Src/stm32f7xx_hal_dma.c ****   DMA_Base_Registers *regs;
 314:Drivers/STM32F7xx_HAL_Driver/Src/stm32f7xx_hal_dma.c **** 
 315:Drivers/STM32F7xx_HAL_Driver/Src/stm32f7xx_hal_dma.c ****   /* Check the DMA peripheral state */
ARM GAS  /tmp/ccdAZlHn.s 			page 7


 316:Drivers/STM32F7xx_HAL_Driver/Src/stm32f7xx_hal_dma.c ****   if(hdma == NULL)
 317:Drivers/STM32F7xx_HAL_Driver/Src/stm32f7xx_hal_dma.c ****   {
 318:Drivers/STM32F7xx_HAL_Driver/Src/stm32f7xx_hal_dma.c ****     return HAL_ERROR;
 319:Drivers/STM32F7xx_HAL_Driver/Src/stm32f7xx_hal_dma.c ****   }
 320:Drivers/STM32F7xx_HAL_Driver/Src/stm32f7xx_hal_dma.c ****   
 321:Drivers/STM32F7xx_HAL_Driver/Src/stm32f7xx_hal_dma.c ****   /* Check the DMA peripheral state */
 322:Drivers/STM32F7xx_HAL_Driver/Src/stm32f7xx_hal_dma.c ****   if(hdma->State == HAL_DMA_STATE_BUSY)
 323:Drivers/STM32F7xx_HAL_Driver/Src/stm32f7xx_hal_dma.c ****   {
 324:Drivers/STM32F7xx_HAL_Driver/Src/stm32f7xx_hal_dma.c ****     /* Return error status */
 325:Drivers/STM32F7xx_HAL_Driver/Src/stm32f7xx_hal_dma.c ****     return HAL_BUSY;
 326:Drivers/STM32F7xx_HAL_Driver/Src/stm32f7xx_hal_dma.c ****   }
 327:Drivers/STM32F7xx_HAL_Driver/Src/stm32f7xx_hal_dma.c **** 
 328:Drivers/STM32F7xx_HAL_Driver/Src/stm32f7xx_hal_dma.c ****   /* Check the parameters */
 329:Drivers/STM32F7xx_HAL_Driver/Src/stm32f7xx_hal_dma.c ****   assert_param(IS_DMA_STREAM_ALL_INSTANCE(hdma->Instance));
 330:Drivers/STM32F7xx_HAL_Driver/Src/stm32f7xx_hal_dma.c **** 
 331:Drivers/STM32F7xx_HAL_Driver/Src/stm32f7xx_hal_dma.c ****   /* Disable the selected DMA Streamx */
 332:Drivers/STM32F7xx_HAL_Driver/Src/stm32f7xx_hal_dma.c ****   __HAL_DMA_DISABLE(hdma);
 333:Drivers/STM32F7xx_HAL_Driver/Src/stm32f7xx_hal_dma.c **** 
 334:Drivers/STM32F7xx_HAL_Driver/Src/stm32f7xx_hal_dma.c ****   /* Reset DMA Streamx control register */
 335:Drivers/STM32F7xx_HAL_Driver/Src/stm32f7xx_hal_dma.c ****   hdma->Instance->CR   = 0U;
 336:Drivers/STM32F7xx_HAL_Driver/Src/stm32f7xx_hal_dma.c **** 
 337:Drivers/STM32F7xx_HAL_Driver/Src/stm32f7xx_hal_dma.c ****   /* Reset DMA Streamx number of data to transfer register */
 338:Drivers/STM32F7xx_HAL_Driver/Src/stm32f7xx_hal_dma.c ****   hdma->Instance->NDTR = 0U;
 339:Drivers/STM32F7xx_HAL_Driver/Src/stm32f7xx_hal_dma.c **** 
 340:Drivers/STM32F7xx_HAL_Driver/Src/stm32f7xx_hal_dma.c ****   /* Reset DMA Streamx peripheral address register */
 341:Drivers/STM32F7xx_HAL_Driver/Src/stm32f7xx_hal_dma.c ****   hdma->Instance->PAR  = 0U;
 342:Drivers/STM32F7xx_HAL_Driver/Src/stm32f7xx_hal_dma.c **** 
 343:Drivers/STM32F7xx_HAL_Driver/Src/stm32f7xx_hal_dma.c ****   /* Reset DMA Streamx memory 0 address register */
 344:Drivers/STM32F7xx_HAL_Driver/Src/stm32f7xx_hal_dma.c ****   hdma->Instance->M0AR = 0U;
 345:Drivers/STM32F7xx_HAL_Driver/Src/stm32f7xx_hal_dma.c ****   
 346:Drivers/STM32F7xx_HAL_Driver/Src/stm32f7xx_hal_dma.c ****   /* Reset DMA Streamx memory 1 address register */
 347:Drivers/STM32F7xx_HAL_Driver/Src/stm32f7xx_hal_dma.c ****   hdma->Instance->M1AR = 0U;
 348:Drivers/STM32F7xx_HAL_Driver/Src/stm32f7xx_hal_dma.c ****   
 349:Drivers/STM32F7xx_HAL_Driver/Src/stm32f7xx_hal_dma.c ****   /* Reset DMA Streamx FIFO control register */
 350:Drivers/STM32F7xx_HAL_Driver/Src/stm32f7xx_hal_dma.c ****   hdma->Instance->FCR  = (uint32_t)0x00000021U;
 351:Drivers/STM32F7xx_HAL_Driver/Src/stm32f7xx_hal_dma.c ****   
 352:Drivers/STM32F7xx_HAL_Driver/Src/stm32f7xx_hal_dma.c ****   /* Get DMA steam Base Address */  
 353:Drivers/STM32F7xx_HAL_Driver/Src/stm32f7xx_hal_dma.c ****   regs = (DMA_Base_Registers *)DMA_CalcBaseAndBitshift(hdma);
 354:Drivers/STM32F7xx_HAL_Driver/Src/stm32f7xx_hal_dma.c ****   
 355:Drivers/STM32F7xx_HAL_Driver/Src/stm32f7xx_hal_dma.c ****   /* Clear all interrupt flags at correct offset within the register */
 356:Drivers/STM32F7xx_HAL_Driver/Src/stm32f7xx_hal_dma.c ****   regs->IFCR = 0x3FU << hdma->StreamIndex;
 357:Drivers/STM32F7xx_HAL_Driver/Src/stm32f7xx_hal_dma.c ****   
 358:Drivers/STM32F7xx_HAL_Driver/Src/stm32f7xx_hal_dma.c ****   /* Clean all callbacks */
 359:Drivers/STM32F7xx_HAL_Driver/Src/stm32f7xx_hal_dma.c ****   hdma->XferCpltCallback = NULL;
 360:Drivers/STM32F7xx_HAL_Driver/Src/stm32f7xx_hal_dma.c ****   hdma->XferHalfCpltCallback = NULL;
 361:Drivers/STM32F7xx_HAL_Driver/Src/stm32f7xx_hal_dma.c ****   hdma->XferM1CpltCallback = NULL;
 362:Drivers/STM32F7xx_HAL_Driver/Src/stm32f7xx_hal_dma.c ****   hdma->XferM1HalfCpltCallback = NULL;
 363:Drivers/STM32F7xx_HAL_Driver/Src/stm32f7xx_hal_dma.c ****   hdma->XferErrorCallback = NULL;
 364:Drivers/STM32F7xx_HAL_Driver/Src/stm32f7xx_hal_dma.c ****   hdma->XferAbortCallback = NULL;  
 365:Drivers/STM32F7xx_HAL_Driver/Src/stm32f7xx_hal_dma.c **** 
 366:Drivers/STM32F7xx_HAL_Driver/Src/stm32f7xx_hal_dma.c ****   /* Reset the error code */
 367:Drivers/STM32F7xx_HAL_Driver/Src/stm32f7xx_hal_dma.c ****   hdma->ErrorCode = HAL_DMA_ERROR_NONE;
 368:Drivers/STM32F7xx_HAL_Driver/Src/stm32f7xx_hal_dma.c **** 
 369:Drivers/STM32F7xx_HAL_Driver/Src/stm32f7xx_hal_dma.c ****   /* Reset the DMA state */
 370:Drivers/STM32F7xx_HAL_Driver/Src/stm32f7xx_hal_dma.c ****   hdma->State = HAL_DMA_STATE_RESET;
 371:Drivers/STM32F7xx_HAL_Driver/Src/stm32f7xx_hal_dma.c **** 
 372:Drivers/STM32F7xx_HAL_Driver/Src/stm32f7xx_hal_dma.c ****   /* Release Lock */
ARM GAS  /tmp/ccdAZlHn.s 			page 8


 373:Drivers/STM32F7xx_HAL_Driver/Src/stm32f7xx_hal_dma.c ****   __HAL_UNLOCK(hdma);
 374:Drivers/STM32F7xx_HAL_Driver/Src/stm32f7xx_hal_dma.c **** 
 375:Drivers/STM32F7xx_HAL_Driver/Src/stm32f7xx_hal_dma.c ****   return HAL_OK;
 376:Drivers/STM32F7xx_HAL_Driver/Src/stm32f7xx_hal_dma.c **** }
 377:Drivers/STM32F7xx_HAL_Driver/Src/stm32f7xx_hal_dma.c **** 
 378:Drivers/STM32F7xx_HAL_Driver/Src/stm32f7xx_hal_dma.c **** /**
 379:Drivers/STM32F7xx_HAL_Driver/Src/stm32f7xx_hal_dma.c ****   * @}
 380:Drivers/STM32F7xx_HAL_Driver/Src/stm32f7xx_hal_dma.c ****   */
 381:Drivers/STM32F7xx_HAL_Driver/Src/stm32f7xx_hal_dma.c **** 
 382:Drivers/STM32F7xx_HAL_Driver/Src/stm32f7xx_hal_dma.c **** /** @addtogroup DMA_Exported_Functions_Group2
 383:Drivers/STM32F7xx_HAL_Driver/Src/stm32f7xx_hal_dma.c ****   *
 384:Drivers/STM32F7xx_HAL_Driver/Src/stm32f7xx_hal_dma.c **** @verbatim   
 385:Drivers/STM32F7xx_HAL_Driver/Src/stm32f7xx_hal_dma.c ****  ===============================================================================
 386:Drivers/STM32F7xx_HAL_Driver/Src/stm32f7xx_hal_dma.c ****                       #####  IO operation functions  #####
 387:Drivers/STM32F7xx_HAL_Driver/Src/stm32f7xx_hal_dma.c ****  ===============================================================================
 388:Drivers/STM32F7xx_HAL_Driver/Src/stm32f7xx_hal_dma.c ****     [..]  This section provides functions allowing to:
 389:Drivers/STM32F7xx_HAL_Driver/Src/stm32f7xx_hal_dma.c ****       (+) Configure the source, destination address and data length and Start DMA transfer
 390:Drivers/STM32F7xx_HAL_Driver/Src/stm32f7xx_hal_dma.c ****       (+) Configure the source, destination address and data length and 
 391:Drivers/STM32F7xx_HAL_Driver/Src/stm32f7xx_hal_dma.c ****           Start DMA transfer with interrupt
 392:Drivers/STM32F7xx_HAL_Driver/Src/stm32f7xx_hal_dma.c ****       (+) Abort DMA transfer
 393:Drivers/STM32F7xx_HAL_Driver/Src/stm32f7xx_hal_dma.c ****       (+) Poll for transfer complete
 394:Drivers/STM32F7xx_HAL_Driver/Src/stm32f7xx_hal_dma.c ****       (+) Handle DMA interrupt request  
 395:Drivers/STM32F7xx_HAL_Driver/Src/stm32f7xx_hal_dma.c **** 
 396:Drivers/STM32F7xx_HAL_Driver/Src/stm32f7xx_hal_dma.c **** @endverbatim
 397:Drivers/STM32F7xx_HAL_Driver/Src/stm32f7xx_hal_dma.c ****   * @{
 398:Drivers/STM32F7xx_HAL_Driver/Src/stm32f7xx_hal_dma.c ****   */
 399:Drivers/STM32F7xx_HAL_Driver/Src/stm32f7xx_hal_dma.c **** 
 400:Drivers/STM32F7xx_HAL_Driver/Src/stm32f7xx_hal_dma.c **** /**
 401:Drivers/STM32F7xx_HAL_Driver/Src/stm32f7xx_hal_dma.c ****   * @brief  Starts the DMA Transfer.
 402:Drivers/STM32F7xx_HAL_Driver/Src/stm32f7xx_hal_dma.c ****   * @param  hdma       pointer to a DMA_HandleTypeDef structure that contains
 403:Drivers/STM32F7xx_HAL_Driver/Src/stm32f7xx_hal_dma.c ****   *                     the configuration information for the specified DMA Stream.
 404:Drivers/STM32F7xx_HAL_Driver/Src/stm32f7xx_hal_dma.c ****   * @param  SrcAddress The source memory Buffer address
 405:Drivers/STM32F7xx_HAL_Driver/Src/stm32f7xx_hal_dma.c ****   * @param  DstAddress The destination memory Buffer address
 406:Drivers/STM32F7xx_HAL_Driver/Src/stm32f7xx_hal_dma.c ****   * @param  DataLength The length of data to be transferred from source to destination
 407:Drivers/STM32F7xx_HAL_Driver/Src/stm32f7xx_hal_dma.c ****   * @retval HAL status
 408:Drivers/STM32F7xx_HAL_Driver/Src/stm32f7xx_hal_dma.c ****   */
 409:Drivers/STM32F7xx_HAL_Driver/Src/stm32f7xx_hal_dma.c **** HAL_StatusTypeDef HAL_DMA_Start(DMA_HandleTypeDef *hdma, uint32_t SrcAddress, uint32_t DstAddress, 
 410:Drivers/STM32F7xx_HAL_Driver/Src/stm32f7xx_hal_dma.c **** {
 411:Drivers/STM32F7xx_HAL_Driver/Src/stm32f7xx_hal_dma.c ****   HAL_StatusTypeDef status = HAL_OK;
 412:Drivers/STM32F7xx_HAL_Driver/Src/stm32f7xx_hal_dma.c ****   
 413:Drivers/STM32F7xx_HAL_Driver/Src/stm32f7xx_hal_dma.c ****   /* Check the parameters */
 414:Drivers/STM32F7xx_HAL_Driver/Src/stm32f7xx_hal_dma.c ****   assert_param(IS_DMA_BUFFER_SIZE(DataLength));
 415:Drivers/STM32F7xx_HAL_Driver/Src/stm32f7xx_hal_dma.c **** 
 416:Drivers/STM32F7xx_HAL_Driver/Src/stm32f7xx_hal_dma.c ****   /* Process locked */
 417:Drivers/STM32F7xx_HAL_Driver/Src/stm32f7xx_hal_dma.c ****   __HAL_LOCK(hdma);
 418:Drivers/STM32F7xx_HAL_Driver/Src/stm32f7xx_hal_dma.c **** 
 419:Drivers/STM32F7xx_HAL_Driver/Src/stm32f7xx_hal_dma.c ****   if(HAL_DMA_STATE_READY == hdma->State)
 420:Drivers/STM32F7xx_HAL_Driver/Src/stm32f7xx_hal_dma.c ****   {
 421:Drivers/STM32F7xx_HAL_Driver/Src/stm32f7xx_hal_dma.c ****     /* Change DMA peripheral state */
 422:Drivers/STM32F7xx_HAL_Driver/Src/stm32f7xx_hal_dma.c ****     hdma->State = HAL_DMA_STATE_BUSY;
 423:Drivers/STM32F7xx_HAL_Driver/Src/stm32f7xx_hal_dma.c ****     
 424:Drivers/STM32F7xx_HAL_Driver/Src/stm32f7xx_hal_dma.c ****     /* Initialize the error code */
 425:Drivers/STM32F7xx_HAL_Driver/Src/stm32f7xx_hal_dma.c ****     hdma->ErrorCode = HAL_DMA_ERROR_NONE;
 426:Drivers/STM32F7xx_HAL_Driver/Src/stm32f7xx_hal_dma.c ****     
 427:Drivers/STM32F7xx_HAL_Driver/Src/stm32f7xx_hal_dma.c ****     /* Configure the source, destination address and the data length */
 428:Drivers/STM32F7xx_HAL_Driver/Src/stm32f7xx_hal_dma.c ****     DMA_SetConfig(hdma, SrcAddress, DstAddress, DataLength);
 429:Drivers/STM32F7xx_HAL_Driver/Src/stm32f7xx_hal_dma.c **** 
ARM GAS  /tmp/ccdAZlHn.s 			page 9


 430:Drivers/STM32F7xx_HAL_Driver/Src/stm32f7xx_hal_dma.c ****     /* Enable the Peripheral */
 431:Drivers/STM32F7xx_HAL_Driver/Src/stm32f7xx_hal_dma.c ****     __HAL_DMA_ENABLE(hdma);
 432:Drivers/STM32F7xx_HAL_Driver/Src/stm32f7xx_hal_dma.c ****   }
 433:Drivers/STM32F7xx_HAL_Driver/Src/stm32f7xx_hal_dma.c ****   else
 434:Drivers/STM32F7xx_HAL_Driver/Src/stm32f7xx_hal_dma.c ****   {
 435:Drivers/STM32F7xx_HAL_Driver/Src/stm32f7xx_hal_dma.c ****     /* Process unlocked */
 436:Drivers/STM32F7xx_HAL_Driver/Src/stm32f7xx_hal_dma.c ****     __HAL_UNLOCK(hdma);
 437:Drivers/STM32F7xx_HAL_Driver/Src/stm32f7xx_hal_dma.c ****     
 438:Drivers/STM32F7xx_HAL_Driver/Src/stm32f7xx_hal_dma.c ****     /* Return error status */
 439:Drivers/STM32F7xx_HAL_Driver/Src/stm32f7xx_hal_dma.c ****     status = HAL_BUSY;
 440:Drivers/STM32F7xx_HAL_Driver/Src/stm32f7xx_hal_dma.c ****   } 
 441:Drivers/STM32F7xx_HAL_Driver/Src/stm32f7xx_hal_dma.c ****   return status; 
 442:Drivers/STM32F7xx_HAL_Driver/Src/stm32f7xx_hal_dma.c **** }
 443:Drivers/STM32F7xx_HAL_Driver/Src/stm32f7xx_hal_dma.c **** 
 444:Drivers/STM32F7xx_HAL_Driver/Src/stm32f7xx_hal_dma.c **** /**
 445:Drivers/STM32F7xx_HAL_Driver/Src/stm32f7xx_hal_dma.c ****   * @brief  Start the DMA Transfer with interrupt enabled.
 446:Drivers/STM32F7xx_HAL_Driver/Src/stm32f7xx_hal_dma.c ****   * @param  hdma       pointer to a DMA_HandleTypeDef structure that contains
 447:Drivers/STM32F7xx_HAL_Driver/Src/stm32f7xx_hal_dma.c ****   *                     the configuration information for the specified DMA Stream.  
 448:Drivers/STM32F7xx_HAL_Driver/Src/stm32f7xx_hal_dma.c ****   * @param  SrcAddress The source memory Buffer address
 449:Drivers/STM32F7xx_HAL_Driver/Src/stm32f7xx_hal_dma.c ****   * @param  DstAddress The destination memory Buffer address
 450:Drivers/STM32F7xx_HAL_Driver/Src/stm32f7xx_hal_dma.c ****   * @param  DataLength The length of data to be transferred from source to destination
 451:Drivers/STM32F7xx_HAL_Driver/Src/stm32f7xx_hal_dma.c ****   * @retval HAL status
 452:Drivers/STM32F7xx_HAL_Driver/Src/stm32f7xx_hal_dma.c ****   */
 453:Drivers/STM32F7xx_HAL_Driver/Src/stm32f7xx_hal_dma.c **** HAL_StatusTypeDef HAL_DMA_Start_IT(DMA_HandleTypeDef *hdma, uint32_t SrcAddress, uint32_t DstAddres
 454:Drivers/STM32F7xx_HAL_Driver/Src/stm32f7xx_hal_dma.c **** {
 455:Drivers/STM32F7xx_HAL_Driver/Src/stm32f7xx_hal_dma.c ****   HAL_StatusTypeDef status = HAL_OK;
 456:Drivers/STM32F7xx_HAL_Driver/Src/stm32f7xx_hal_dma.c **** 
 457:Drivers/STM32F7xx_HAL_Driver/Src/stm32f7xx_hal_dma.c ****   /* calculate DMA base and stream number */
 458:Drivers/STM32F7xx_HAL_Driver/Src/stm32f7xx_hal_dma.c ****   DMA_Base_Registers *regs = (DMA_Base_Registers *)hdma->StreamBaseAddress;
 459:Drivers/STM32F7xx_HAL_Driver/Src/stm32f7xx_hal_dma.c ****   
 460:Drivers/STM32F7xx_HAL_Driver/Src/stm32f7xx_hal_dma.c ****   /* Check the parameters */
 461:Drivers/STM32F7xx_HAL_Driver/Src/stm32f7xx_hal_dma.c ****   assert_param(IS_DMA_BUFFER_SIZE(DataLength));
 462:Drivers/STM32F7xx_HAL_Driver/Src/stm32f7xx_hal_dma.c ****  
 463:Drivers/STM32F7xx_HAL_Driver/Src/stm32f7xx_hal_dma.c ****   /* Process locked */
 464:Drivers/STM32F7xx_HAL_Driver/Src/stm32f7xx_hal_dma.c ****   __HAL_LOCK(hdma);
 465:Drivers/STM32F7xx_HAL_Driver/Src/stm32f7xx_hal_dma.c ****   
 466:Drivers/STM32F7xx_HAL_Driver/Src/stm32f7xx_hal_dma.c ****   if(HAL_DMA_STATE_READY == hdma->State)
 467:Drivers/STM32F7xx_HAL_Driver/Src/stm32f7xx_hal_dma.c ****   {
 468:Drivers/STM32F7xx_HAL_Driver/Src/stm32f7xx_hal_dma.c ****     /* Change DMA peripheral state */
 469:Drivers/STM32F7xx_HAL_Driver/Src/stm32f7xx_hal_dma.c ****     hdma->State = HAL_DMA_STATE_BUSY;
 470:Drivers/STM32F7xx_HAL_Driver/Src/stm32f7xx_hal_dma.c ****     
 471:Drivers/STM32F7xx_HAL_Driver/Src/stm32f7xx_hal_dma.c ****     /* Initialize the error code */
 472:Drivers/STM32F7xx_HAL_Driver/Src/stm32f7xx_hal_dma.c ****     hdma->ErrorCode = HAL_DMA_ERROR_NONE;
 473:Drivers/STM32F7xx_HAL_Driver/Src/stm32f7xx_hal_dma.c ****     
 474:Drivers/STM32F7xx_HAL_Driver/Src/stm32f7xx_hal_dma.c ****     /* Configure the source, destination address and the data length */
 475:Drivers/STM32F7xx_HAL_Driver/Src/stm32f7xx_hal_dma.c ****     DMA_SetConfig(hdma, SrcAddress, DstAddress, DataLength);
 476:Drivers/STM32F7xx_HAL_Driver/Src/stm32f7xx_hal_dma.c ****     
 477:Drivers/STM32F7xx_HAL_Driver/Src/stm32f7xx_hal_dma.c ****     /* Clear all interrupt flags at correct offset within the register */
 478:Drivers/STM32F7xx_HAL_Driver/Src/stm32f7xx_hal_dma.c ****     regs->IFCR = 0x3FU << hdma->StreamIndex;
 479:Drivers/STM32F7xx_HAL_Driver/Src/stm32f7xx_hal_dma.c ****     
 480:Drivers/STM32F7xx_HAL_Driver/Src/stm32f7xx_hal_dma.c ****     /* Enable Common interrupts*/
 481:Drivers/STM32F7xx_HAL_Driver/Src/stm32f7xx_hal_dma.c ****     hdma->Instance->CR  |= DMA_IT_TC | DMA_IT_TE | DMA_IT_DME;
 482:Drivers/STM32F7xx_HAL_Driver/Src/stm32f7xx_hal_dma.c ****     hdma->Instance->FCR |= DMA_IT_FE;
 483:Drivers/STM32F7xx_HAL_Driver/Src/stm32f7xx_hal_dma.c ****     
 484:Drivers/STM32F7xx_HAL_Driver/Src/stm32f7xx_hal_dma.c ****     if(hdma->XferHalfCpltCallback != NULL)
 485:Drivers/STM32F7xx_HAL_Driver/Src/stm32f7xx_hal_dma.c ****     {
 486:Drivers/STM32F7xx_HAL_Driver/Src/stm32f7xx_hal_dma.c ****       hdma->Instance->CR  |= DMA_IT_HT;
ARM GAS  /tmp/ccdAZlHn.s 			page 10


 487:Drivers/STM32F7xx_HAL_Driver/Src/stm32f7xx_hal_dma.c ****     }
 488:Drivers/STM32F7xx_HAL_Driver/Src/stm32f7xx_hal_dma.c ****     
 489:Drivers/STM32F7xx_HAL_Driver/Src/stm32f7xx_hal_dma.c ****     /* Enable the Peripheral */
 490:Drivers/STM32F7xx_HAL_Driver/Src/stm32f7xx_hal_dma.c ****     __HAL_DMA_ENABLE(hdma);
 491:Drivers/STM32F7xx_HAL_Driver/Src/stm32f7xx_hal_dma.c ****   }
 492:Drivers/STM32F7xx_HAL_Driver/Src/stm32f7xx_hal_dma.c ****   else
 493:Drivers/STM32F7xx_HAL_Driver/Src/stm32f7xx_hal_dma.c ****   {
 494:Drivers/STM32F7xx_HAL_Driver/Src/stm32f7xx_hal_dma.c ****     /* Process unlocked */
 495:Drivers/STM32F7xx_HAL_Driver/Src/stm32f7xx_hal_dma.c ****     __HAL_UNLOCK(hdma);	  
 496:Drivers/STM32F7xx_HAL_Driver/Src/stm32f7xx_hal_dma.c ****     
 497:Drivers/STM32F7xx_HAL_Driver/Src/stm32f7xx_hal_dma.c ****     /* Return error status */
 498:Drivers/STM32F7xx_HAL_Driver/Src/stm32f7xx_hal_dma.c ****     status = HAL_BUSY;
 499:Drivers/STM32F7xx_HAL_Driver/Src/stm32f7xx_hal_dma.c ****   }
 500:Drivers/STM32F7xx_HAL_Driver/Src/stm32f7xx_hal_dma.c ****   
 501:Drivers/STM32F7xx_HAL_Driver/Src/stm32f7xx_hal_dma.c ****   return status;
 502:Drivers/STM32F7xx_HAL_Driver/Src/stm32f7xx_hal_dma.c **** }
 503:Drivers/STM32F7xx_HAL_Driver/Src/stm32f7xx_hal_dma.c **** 
 504:Drivers/STM32F7xx_HAL_Driver/Src/stm32f7xx_hal_dma.c **** /**
 505:Drivers/STM32F7xx_HAL_Driver/Src/stm32f7xx_hal_dma.c ****   * @brief  Aborts the DMA Transfer.
 506:Drivers/STM32F7xx_HAL_Driver/Src/stm32f7xx_hal_dma.c ****   * @param  hdma   pointer to a DMA_HandleTypeDef structure that contains
 507:Drivers/STM32F7xx_HAL_Driver/Src/stm32f7xx_hal_dma.c ****   *                 the configuration information for the specified DMA Stream.
 508:Drivers/STM32F7xx_HAL_Driver/Src/stm32f7xx_hal_dma.c ****   *                   
 509:Drivers/STM32F7xx_HAL_Driver/Src/stm32f7xx_hal_dma.c ****   * @note  After disabling a DMA Stream, a check for wait until the DMA Stream is 
 510:Drivers/STM32F7xx_HAL_Driver/Src/stm32f7xx_hal_dma.c ****   *        effectively disabled is added. If a Stream is disabled 
 511:Drivers/STM32F7xx_HAL_Driver/Src/stm32f7xx_hal_dma.c ****   *        while a data transfer is ongoing, the current data will be transferred
 512:Drivers/STM32F7xx_HAL_Driver/Src/stm32f7xx_hal_dma.c ****   *        and the Stream will be effectively disabled only after the transfer of
 513:Drivers/STM32F7xx_HAL_Driver/Src/stm32f7xx_hal_dma.c ****   *        this single data is finished.  
 514:Drivers/STM32F7xx_HAL_Driver/Src/stm32f7xx_hal_dma.c ****   * @retval HAL status
 515:Drivers/STM32F7xx_HAL_Driver/Src/stm32f7xx_hal_dma.c ****   */
 516:Drivers/STM32F7xx_HAL_Driver/Src/stm32f7xx_hal_dma.c **** HAL_StatusTypeDef HAL_DMA_Abort(DMA_HandleTypeDef *hdma)
 517:Drivers/STM32F7xx_HAL_Driver/Src/stm32f7xx_hal_dma.c **** {
 518:Drivers/STM32F7xx_HAL_Driver/Src/stm32f7xx_hal_dma.c ****   /* calculate DMA base and stream number */
 519:Drivers/STM32F7xx_HAL_Driver/Src/stm32f7xx_hal_dma.c ****   DMA_Base_Registers *regs = (DMA_Base_Registers *)hdma->StreamBaseAddress;
 520:Drivers/STM32F7xx_HAL_Driver/Src/stm32f7xx_hal_dma.c ****   
 521:Drivers/STM32F7xx_HAL_Driver/Src/stm32f7xx_hal_dma.c ****   uint32_t tickstart = HAL_GetTick();
 522:Drivers/STM32F7xx_HAL_Driver/Src/stm32f7xx_hal_dma.c ****   
 523:Drivers/STM32F7xx_HAL_Driver/Src/stm32f7xx_hal_dma.c ****   if(hdma->State != HAL_DMA_STATE_BUSY)
 524:Drivers/STM32F7xx_HAL_Driver/Src/stm32f7xx_hal_dma.c ****   {
 525:Drivers/STM32F7xx_HAL_Driver/Src/stm32f7xx_hal_dma.c ****     hdma->ErrorCode = HAL_DMA_ERROR_NO_XFER;
 526:Drivers/STM32F7xx_HAL_Driver/Src/stm32f7xx_hal_dma.c ****     
 527:Drivers/STM32F7xx_HAL_Driver/Src/stm32f7xx_hal_dma.c ****     /* Process Unlocked */
 528:Drivers/STM32F7xx_HAL_Driver/Src/stm32f7xx_hal_dma.c ****     __HAL_UNLOCK(hdma);
 529:Drivers/STM32F7xx_HAL_Driver/Src/stm32f7xx_hal_dma.c ****     
 530:Drivers/STM32F7xx_HAL_Driver/Src/stm32f7xx_hal_dma.c ****     return HAL_ERROR;
 531:Drivers/STM32F7xx_HAL_Driver/Src/stm32f7xx_hal_dma.c ****   }
 532:Drivers/STM32F7xx_HAL_Driver/Src/stm32f7xx_hal_dma.c ****   else
 533:Drivers/STM32F7xx_HAL_Driver/Src/stm32f7xx_hal_dma.c ****   {
 534:Drivers/STM32F7xx_HAL_Driver/Src/stm32f7xx_hal_dma.c ****     /* Disable all the transfer interrupts */
 535:Drivers/STM32F7xx_HAL_Driver/Src/stm32f7xx_hal_dma.c ****     hdma->Instance->CR  &= ~(DMA_IT_TC | DMA_IT_TE | DMA_IT_DME);
 536:Drivers/STM32F7xx_HAL_Driver/Src/stm32f7xx_hal_dma.c ****     hdma->Instance->FCR &= ~(DMA_IT_FE);
 537:Drivers/STM32F7xx_HAL_Driver/Src/stm32f7xx_hal_dma.c ****     
 538:Drivers/STM32F7xx_HAL_Driver/Src/stm32f7xx_hal_dma.c ****     if((hdma->XferHalfCpltCallback != NULL) || (hdma->XferM1HalfCpltCallback != NULL))
 539:Drivers/STM32F7xx_HAL_Driver/Src/stm32f7xx_hal_dma.c ****     {
 540:Drivers/STM32F7xx_HAL_Driver/Src/stm32f7xx_hal_dma.c ****       hdma->Instance->CR  &= ~(DMA_IT_HT);
 541:Drivers/STM32F7xx_HAL_Driver/Src/stm32f7xx_hal_dma.c ****     }
 542:Drivers/STM32F7xx_HAL_Driver/Src/stm32f7xx_hal_dma.c ****     
 543:Drivers/STM32F7xx_HAL_Driver/Src/stm32f7xx_hal_dma.c ****     /* Disable the stream */
ARM GAS  /tmp/ccdAZlHn.s 			page 11


 544:Drivers/STM32F7xx_HAL_Driver/Src/stm32f7xx_hal_dma.c ****     __HAL_DMA_DISABLE(hdma);
 545:Drivers/STM32F7xx_HAL_Driver/Src/stm32f7xx_hal_dma.c ****     
 546:Drivers/STM32F7xx_HAL_Driver/Src/stm32f7xx_hal_dma.c ****     /* Check if the DMA Stream is effectively disabled */
 547:Drivers/STM32F7xx_HAL_Driver/Src/stm32f7xx_hal_dma.c ****     while((hdma->Instance->CR & DMA_SxCR_EN) != RESET)
 548:Drivers/STM32F7xx_HAL_Driver/Src/stm32f7xx_hal_dma.c ****     {
 549:Drivers/STM32F7xx_HAL_Driver/Src/stm32f7xx_hal_dma.c ****       /* Check for the Timeout */
 550:Drivers/STM32F7xx_HAL_Driver/Src/stm32f7xx_hal_dma.c ****       if((HAL_GetTick() - tickstart ) > HAL_TIMEOUT_DMA_ABORT)
 551:Drivers/STM32F7xx_HAL_Driver/Src/stm32f7xx_hal_dma.c ****       {
 552:Drivers/STM32F7xx_HAL_Driver/Src/stm32f7xx_hal_dma.c ****         /* Update error code */
 553:Drivers/STM32F7xx_HAL_Driver/Src/stm32f7xx_hal_dma.c ****         hdma->ErrorCode = HAL_DMA_ERROR_TIMEOUT;
 554:Drivers/STM32F7xx_HAL_Driver/Src/stm32f7xx_hal_dma.c ****         
 555:Drivers/STM32F7xx_HAL_Driver/Src/stm32f7xx_hal_dma.c ****         /* Process Unlocked */
 556:Drivers/STM32F7xx_HAL_Driver/Src/stm32f7xx_hal_dma.c ****         __HAL_UNLOCK(hdma);
 557:Drivers/STM32F7xx_HAL_Driver/Src/stm32f7xx_hal_dma.c ****         
 558:Drivers/STM32F7xx_HAL_Driver/Src/stm32f7xx_hal_dma.c ****         /* Change the DMA state */
 559:Drivers/STM32F7xx_HAL_Driver/Src/stm32f7xx_hal_dma.c ****         hdma->State = HAL_DMA_STATE_TIMEOUT;
 560:Drivers/STM32F7xx_HAL_Driver/Src/stm32f7xx_hal_dma.c ****         
 561:Drivers/STM32F7xx_HAL_Driver/Src/stm32f7xx_hal_dma.c ****         return HAL_TIMEOUT;
 562:Drivers/STM32F7xx_HAL_Driver/Src/stm32f7xx_hal_dma.c ****       }
 563:Drivers/STM32F7xx_HAL_Driver/Src/stm32f7xx_hal_dma.c ****     }
 564:Drivers/STM32F7xx_HAL_Driver/Src/stm32f7xx_hal_dma.c ****     
 565:Drivers/STM32F7xx_HAL_Driver/Src/stm32f7xx_hal_dma.c ****     /* Clear all interrupt flags at correct offset within the register */
 566:Drivers/STM32F7xx_HAL_Driver/Src/stm32f7xx_hal_dma.c ****     regs->IFCR = 0x3FU << hdma->StreamIndex;
 567:Drivers/STM32F7xx_HAL_Driver/Src/stm32f7xx_hal_dma.c ****     
 568:Drivers/STM32F7xx_HAL_Driver/Src/stm32f7xx_hal_dma.c ****     /* Process Unlocked */
 569:Drivers/STM32F7xx_HAL_Driver/Src/stm32f7xx_hal_dma.c ****     __HAL_UNLOCK(hdma);
 570:Drivers/STM32F7xx_HAL_Driver/Src/stm32f7xx_hal_dma.c ****     
 571:Drivers/STM32F7xx_HAL_Driver/Src/stm32f7xx_hal_dma.c ****     /* Change the DMA state*/
 572:Drivers/STM32F7xx_HAL_Driver/Src/stm32f7xx_hal_dma.c ****     hdma->State = HAL_DMA_STATE_READY;
 573:Drivers/STM32F7xx_HAL_Driver/Src/stm32f7xx_hal_dma.c ****   }
 574:Drivers/STM32F7xx_HAL_Driver/Src/stm32f7xx_hal_dma.c ****   return HAL_OK;
 575:Drivers/STM32F7xx_HAL_Driver/Src/stm32f7xx_hal_dma.c **** }
 576:Drivers/STM32F7xx_HAL_Driver/Src/stm32f7xx_hal_dma.c **** 
 577:Drivers/STM32F7xx_HAL_Driver/Src/stm32f7xx_hal_dma.c **** /**
 578:Drivers/STM32F7xx_HAL_Driver/Src/stm32f7xx_hal_dma.c ****   * @brief  Aborts the DMA Transfer in Interrupt mode.
 579:Drivers/STM32F7xx_HAL_Driver/Src/stm32f7xx_hal_dma.c ****   * @param  hdma   pointer to a DMA_HandleTypeDef structure that contains
 580:Drivers/STM32F7xx_HAL_Driver/Src/stm32f7xx_hal_dma.c ****   *                 the configuration information for the specified DMA Stream.
 581:Drivers/STM32F7xx_HAL_Driver/Src/stm32f7xx_hal_dma.c ****   * @retval HAL status
 582:Drivers/STM32F7xx_HAL_Driver/Src/stm32f7xx_hal_dma.c ****   */
 583:Drivers/STM32F7xx_HAL_Driver/Src/stm32f7xx_hal_dma.c **** HAL_StatusTypeDef HAL_DMA_Abort_IT(DMA_HandleTypeDef *hdma)
 584:Drivers/STM32F7xx_HAL_Driver/Src/stm32f7xx_hal_dma.c **** {
 585:Drivers/STM32F7xx_HAL_Driver/Src/stm32f7xx_hal_dma.c ****   if(hdma->State != HAL_DMA_STATE_BUSY)
 586:Drivers/STM32F7xx_HAL_Driver/Src/stm32f7xx_hal_dma.c ****   {
 587:Drivers/STM32F7xx_HAL_Driver/Src/stm32f7xx_hal_dma.c ****     hdma->ErrorCode = HAL_DMA_ERROR_NO_XFER;
 588:Drivers/STM32F7xx_HAL_Driver/Src/stm32f7xx_hal_dma.c ****     return HAL_ERROR;
 589:Drivers/STM32F7xx_HAL_Driver/Src/stm32f7xx_hal_dma.c ****   }
 590:Drivers/STM32F7xx_HAL_Driver/Src/stm32f7xx_hal_dma.c ****   else
 591:Drivers/STM32F7xx_HAL_Driver/Src/stm32f7xx_hal_dma.c ****   {
 592:Drivers/STM32F7xx_HAL_Driver/Src/stm32f7xx_hal_dma.c ****     /* Set Abort State  */
 593:Drivers/STM32F7xx_HAL_Driver/Src/stm32f7xx_hal_dma.c ****     hdma->State = HAL_DMA_STATE_ABORT;
 594:Drivers/STM32F7xx_HAL_Driver/Src/stm32f7xx_hal_dma.c ****     
 595:Drivers/STM32F7xx_HAL_Driver/Src/stm32f7xx_hal_dma.c ****     /* Disable the stream */
 596:Drivers/STM32F7xx_HAL_Driver/Src/stm32f7xx_hal_dma.c ****     __HAL_DMA_DISABLE(hdma);
 597:Drivers/STM32F7xx_HAL_Driver/Src/stm32f7xx_hal_dma.c ****   }
 598:Drivers/STM32F7xx_HAL_Driver/Src/stm32f7xx_hal_dma.c **** 
 599:Drivers/STM32F7xx_HAL_Driver/Src/stm32f7xx_hal_dma.c ****   return HAL_OK;
 600:Drivers/STM32F7xx_HAL_Driver/Src/stm32f7xx_hal_dma.c **** }
ARM GAS  /tmp/ccdAZlHn.s 			page 12


 601:Drivers/STM32F7xx_HAL_Driver/Src/stm32f7xx_hal_dma.c **** 
 602:Drivers/STM32F7xx_HAL_Driver/Src/stm32f7xx_hal_dma.c **** /**
 603:Drivers/STM32F7xx_HAL_Driver/Src/stm32f7xx_hal_dma.c ****   * @brief  Polling for transfer complete.
 604:Drivers/STM32F7xx_HAL_Driver/Src/stm32f7xx_hal_dma.c ****   * @param  hdma          pointer to a DMA_HandleTypeDef structure that contains
 605:Drivers/STM32F7xx_HAL_Driver/Src/stm32f7xx_hal_dma.c ****   *                        the configuration information for the specified DMA Stream.
 606:Drivers/STM32F7xx_HAL_Driver/Src/stm32f7xx_hal_dma.c ****   * @param  CompleteLevel Specifies the DMA level complete.
 607:Drivers/STM32F7xx_HAL_Driver/Src/stm32f7xx_hal_dma.c ****   * @note   The polling mode is kept in this version for legacy. it is recommanded to use the IT mo
 608:Drivers/STM32F7xx_HAL_Driver/Src/stm32f7xx_hal_dma.c ****   *         This model could be used for debug purpose.
 609:Drivers/STM32F7xx_HAL_Driver/Src/stm32f7xx_hal_dma.c ****   * @note   The HAL_DMA_PollForTransfer API cannot be used in circular and double buffering mode (a
 610:Drivers/STM32F7xx_HAL_Driver/Src/stm32f7xx_hal_dma.c ****   * @param  Timeout       Timeout duration.
 611:Drivers/STM32F7xx_HAL_Driver/Src/stm32f7xx_hal_dma.c ****   * @retval HAL status
 612:Drivers/STM32F7xx_HAL_Driver/Src/stm32f7xx_hal_dma.c ****   */
 613:Drivers/STM32F7xx_HAL_Driver/Src/stm32f7xx_hal_dma.c **** HAL_StatusTypeDef HAL_DMA_PollForTransfer(DMA_HandleTypeDef *hdma, HAL_DMA_LevelCompleteTypeDef Com
 614:Drivers/STM32F7xx_HAL_Driver/Src/stm32f7xx_hal_dma.c **** {
 615:Drivers/STM32F7xx_HAL_Driver/Src/stm32f7xx_hal_dma.c ****   HAL_StatusTypeDef status = HAL_OK; 
 616:Drivers/STM32F7xx_HAL_Driver/Src/stm32f7xx_hal_dma.c ****   uint32_t mask_cpltlevel;
 617:Drivers/STM32F7xx_HAL_Driver/Src/stm32f7xx_hal_dma.c ****   uint32_t tickstart = HAL_GetTick(); 
 618:Drivers/STM32F7xx_HAL_Driver/Src/stm32f7xx_hal_dma.c ****   uint32_t tmpisr;
 619:Drivers/STM32F7xx_HAL_Driver/Src/stm32f7xx_hal_dma.c ****   
 620:Drivers/STM32F7xx_HAL_Driver/Src/stm32f7xx_hal_dma.c ****   /* calculate DMA base and stream number */
 621:Drivers/STM32F7xx_HAL_Driver/Src/stm32f7xx_hal_dma.c ****   DMA_Base_Registers *regs;
 622:Drivers/STM32F7xx_HAL_Driver/Src/stm32f7xx_hal_dma.c **** 
 623:Drivers/STM32F7xx_HAL_Driver/Src/stm32f7xx_hal_dma.c ****   if(HAL_DMA_STATE_BUSY != hdma->State)
 624:Drivers/STM32F7xx_HAL_Driver/Src/stm32f7xx_hal_dma.c ****   {
 625:Drivers/STM32F7xx_HAL_Driver/Src/stm32f7xx_hal_dma.c ****     /* No transfer ongoing */
 626:Drivers/STM32F7xx_HAL_Driver/Src/stm32f7xx_hal_dma.c ****     hdma->ErrorCode = HAL_DMA_ERROR_NO_XFER;
 627:Drivers/STM32F7xx_HAL_Driver/Src/stm32f7xx_hal_dma.c ****     __HAL_UNLOCK(hdma);
 628:Drivers/STM32F7xx_HAL_Driver/Src/stm32f7xx_hal_dma.c ****     return HAL_ERROR;
 629:Drivers/STM32F7xx_HAL_Driver/Src/stm32f7xx_hal_dma.c ****   }
 630:Drivers/STM32F7xx_HAL_Driver/Src/stm32f7xx_hal_dma.c **** 
 631:Drivers/STM32F7xx_HAL_Driver/Src/stm32f7xx_hal_dma.c ****   /* Polling mode not supported in circular mode and double buffering mode */
 632:Drivers/STM32F7xx_HAL_Driver/Src/stm32f7xx_hal_dma.c ****   if ((hdma->Instance->CR & DMA_SxCR_CIRC) != RESET)
 633:Drivers/STM32F7xx_HAL_Driver/Src/stm32f7xx_hal_dma.c ****   {
 634:Drivers/STM32F7xx_HAL_Driver/Src/stm32f7xx_hal_dma.c ****     hdma->ErrorCode = HAL_DMA_ERROR_NOT_SUPPORTED;
 635:Drivers/STM32F7xx_HAL_Driver/Src/stm32f7xx_hal_dma.c ****     return HAL_ERROR;
 636:Drivers/STM32F7xx_HAL_Driver/Src/stm32f7xx_hal_dma.c ****   }
 637:Drivers/STM32F7xx_HAL_Driver/Src/stm32f7xx_hal_dma.c ****   
 638:Drivers/STM32F7xx_HAL_Driver/Src/stm32f7xx_hal_dma.c ****   /* Get the level transfer complete flag */
 639:Drivers/STM32F7xx_HAL_Driver/Src/stm32f7xx_hal_dma.c ****   if(CompleteLevel == HAL_DMA_FULL_TRANSFER)
 640:Drivers/STM32F7xx_HAL_Driver/Src/stm32f7xx_hal_dma.c ****   {
 641:Drivers/STM32F7xx_HAL_Driver/Src/stm32f7xx_hal_dma.c ****     /* Transfer Complete flag */
 642:Drivers/STM32F7xx_HAL_Driver/Src/stm32f7xx_hal_dma.c ****     mask_cpltlevel = DMA_FLAG_TCIF0_4 << hdma->StreamIndex;
 643:Drivers/STM32F7xx_HAL_Driver/Src/stm32f7xx_hal_dma.c ****   }
 644:Drivers/STM32F7xx_HAL_Driver/Src/stm32f7xx_hal_dma.c ****   else
 645:Drivers/STM32F7xx_HAL_Driver/Src/stm32f7xx_hal_dma.c ****   {
 646:Drivers/STM32F7xx_HAL_Driver/Src/stm32f7xx_hal_dma.c ****     /* Half Transfer Complete flag */
 647:Drivers/STM32F7xx_HAL_Driver/Src/stm32f7xx_hal_dma.c ****     mask_cpltlevel = DMA_FLAG_HTIF0_4 << hdma->StreamIndex;
 648:Drivers/STM32F7xx_HAL_Driver/Src/stm32f7xx_hal_dma.c ****   }
 649:Drivers/STM32F7xx_HAL_Driver/Src/stm32f7xx_hal_dma.c ****   
 650:Drivers/STM32F7xx_HAL_Driver/Src/stm32f7xx_hal_dma.c ****   regs = (DMA_Base_Registers *)hdma->StreamBaseAddress;
 651:Drivers/STM32F7xx_HAL_Driver/Src/stm32f7xx_hal_dma.c ****   tmpisr = regs->ISR;
 652:Drivers/STM32F7xx_HAL_Driver/Src/stm32f7xx_hal_dma.c ****   
 653:Drivers/STM32F7xx_HAL_Driver/Src/stm32f7xx_hal_dma.c ****   while(((tmpisr & mask_cpltlevel) == RESET) && ((hdma->ErrorCode & HAL_DMA_ERROR_TE) == RESET))
 654:Drivers/STM32F7xx_HAL_Driver/Src/stm32f7xx_hal_dma.c ****   {
 655:Drivers/STM32F7xx_HAL_Driver/Src/stm32f7xx_hal_dma.c ****     /* Check for the Timeout (Not applicable in circular mode)*/
 656:Drivers/STM32F7xx_HAL_Driver/Src/stm32f7xx_hal_dma.c ****     if(Timeout != HAL_MAX_DELAY)
 657:Drivers/STM32F7xx_HAL_Driver/Src/stm32f7xx_hal_dma.c ****     {
ARM GAS  /tmp/ccdAZlHn.s 			page 13


 658:Drivers/STM32F7xx_HAL_Driver/Src/stm32f7xx_hal_dma.c ****       if((Timeout == 0)||((HAL_GetTick() - tickstart ) > Timeout))
 659:Drivers/STM32F7xx_HAL_Driver/Src/stm32f7xx_hal_dma.c ****       {
 660:Drivers/STM32F7xx_HAL_Driver/Src/stm32f7xx_hal_dma.c ****         /* Update error code */
 661:Drivers/STM32F7xx_HAL_Driver/Src/stm32f7xx_hal_dma.c ****         hdma->ErrorCode = HAL_DMA_ERROR_TIMEOUT;
 662:Drivers/STM32F7xx_HAL_Driver/Src/stm32f7xx_hal_dma.c **** 
 663:Drivers/STM32F7xx_HAL_Driver/Src/stm32f7xx_hal_dma.c ****         /* Process Unlocked */
 664:Drivers/STM32F7xx_HAL_Driver/Src/stm32f7xx_hal_dma.c ****         __HAL_UNLOCK(hdma);
 665:Drivers/STM32F7xx_HAL_Driver/Src/stm32f7xx_hal_dma.c ****         
 666:Drivers/STM32F7xx_HAL_Driver/Src/stm32f7xx_hal_dma.c ****         /* Change the DMA state */
 667:Drivers/STM32F7xx_HAL_Driver/Src/stm32f7xx_hal_dma.c ****         hdma->State = HAL_DMA_STATE_READY;
 668:Drivers/STM32F7xx_HAL_Driver/Src/stm32f7xx_hal_dma.c ****         
 669:Drivers/STM32F7xx_HAL_Driver/Src/stm32f7xx_hal_dma.c ****         return HAL_TIMEOUT;
 670:Drivers/STM32F7xx_HAL_Driver/Src/stm32f7xx_hal_dma.c ****       }
 671:Drivers/STM32F7xx_HAL_Driver/Src/stm32f7xx_hal_dma.c ****     }
 672:Drivers/STM32F7xx_HAL_Driver/Src/stm32f7xx_hal_dma.c **** 
 673:Drivers/STM32F7xx_HAL_Driver/Src/stm32f7xx_hal_dma.c ****     /* Get the ISR register value */
 674:Drivers/STM32F7xx_HAL_Driver/Src/stm32f7xx_hal_dma.c ****     tmpisr = regs->ISR;
 675:Drivers/STM32F7xx_HAL_Driver/Src/stm32f7xx_hal_dma.c **** 
 676:Drivers/STM32F7xx_HAL_Driver/Src/stm32f7xx_hal_dma.c ****     if((tmpisr & (DMA_FLAG_TEIF0_4 << hdma->StreamIndex)) != RESET)
 677:Drivers/STM32F7xx_HAL_Driver/Src/stm32f7xx_hal_dma.c ****     {
 678:Drivers/STM32F7xx_HAL_Driver/Src/stm32f7xx_hal_dma.c ****       /* Update error code */
 679:Drivers/STM32F7xx_HAL_Driver/Src/stm32f7xx_hal_dma.c ****       hdma->ErrorCode |= HAL_DMA_ERROR_TE;
 680:Drivers/STM32F7xx_HAL_Driver/Src/stm32f7xx_hal_dma.c ****       
 681:Drivers/STM32F7xx_HAL_Driver/Src/stm32f7xx_hal_dma.c ****       /* Clear the transfer error flag */
 682:Drivers/STM32F7xx_HAL_Driver/Src/stm32f7xx_hal_dma.c ****       regs->IFCR = DMA_FLAG_TEIF0_4 << hdma->StreamIndex;
 683:Drivers/STM32F7xx_HAL_Driver/Src/stm32f7xx_hal_dma.c ****     }
 684:Drivers/STM32F7xx_HAL_Driver/Src/stm32f7xx_hal_dma.c ****     
 685:Drivers/STM32F7xx_HAL_Driver/Src/stm32f7xx_hal_dma.c ****     if((tmpisr & (DMA_FLAG_FEIF0_4 << hdma->StreamIndex)) != RESET)
 686:Drivers/STM32F7xx_HAL_Driver/Src/stm32f7xx_hal_dma.c ****     {
 687:Drivers/STM32F7xx_HAL_Driver/Src/stm32f7xx_hal_dma.c ****       /* Update error code */
 688:Drivers/STM32F7xx_HAL_Driver/Src/stm32f7xx_hal_dma.c ****       hdma->ErrorCode |= HAL_DMA_ERROR_FE;
 689:Drivers/STM32F7xx_HAL_Driver/Src/stm32f7xx_hal_dma.c ****       
 690:Drivers/STM32F7xx_HAL_Driver/Src/stm32f7xx_hal_dma.c ****       /* Clear the FIFO error flag */
 691:Drivers/STM32F7xx_HAL_Driver/Src/stm32f7xx_hal_dma.c ****       regs->IFCR = DMA_FLAG_FEIF0_4 << hdma->StreamIndex;
 692:Drivers/STM32F7xx_HAL_Driver/Src/stm32f7xx_hal_dma.c ****     }
 693:Drivers/STM32F7xx_HAL_Driver/Src/stm32f7xx_hal_dma.c ****     
 694:Drivers/STM32F7xx_HAL_Driver/Src/stm32f7xx_hal_dma.c ****     if((tmpisr & (DMA_FLAG_DMEIF0_4 << hdma->StreamIndex)) != RESET)
 695:Drivers/STM32F7xx_HAL_Driver/Src/stm32f7xx_hal_dma.c ****     {
 696:Drivers/STM32F7xx_HAL_Driver/Src/stm32f7xx_hal_dma.c ****       /* Update error code */
 697:Drivers/STM32F7xx_HAL_Driver/Src/stm32f7xx_hal_dma.c ****       hdma->ErrorCode |= HAL_DMA_ERROR_DME;
 698:Drivers/STM32F7xx_HAL_Driver/Src/stm32f7xx_hal_dma.c ****       
 699:Drivers/STM32F7xx_HAL_Driver/Src/stm32f7xx_hal_dma.c ****       /* Clear the Direct Mode error flag */
 700:Drivers/STM32F7xx_HAL_Driver/Src/stm32f7xx_hal_dma.c ****       regs->IFCR = DMA_FLAG_DMEIF0_4 << hdma->StreamIndex;
 701:Drivers/STM32F7xx_HAL_Driver/Src/stm32f7xx_hal_dma.c ****     }
 702:Drivers/STM32F7xx_HAL_Driver/Src/stm32f7xx_hal_dma.c ****   }
 703:Drivers/STM32F7xx_HAL_Driver/Src/stm32f7xx_hal_dma.c ****   
 704:Drivers/STM32F7xx_HAL_Driver/Src/stm32f7xx_hal_dma.c ****   if(hdma->ErrorCode != HAL_DMA_ERROR_NONE)
 705:Drivers/STM32F7xx_HAL_Driver/Src/stm32f7xx_hal_dma.c ****   {
 706:Drivers/STM32F7xx_HAL_Driver/Src/stm32f7xx_hal_dma.c ****     if((hdma->ErrorCode & HAL_DMA_ERROR_TE) != RESET)
 707:Drivers/STM32F7xx_HAL_Driver/Src/stm32f7xx_hal_dma.c ****     {
 708:Drivers/STM32F7xx_HAL_Driver/Src/stm32f7xx_hal_dma.c ****       HAL_DMA_Abort(hdma);
 709:Drivers/STM32F7xx_HAL_Driver/Src/stm32f7xx_hal_dma.c ****     
 710:Drivers/STM32F7xx_HAL_Driver/Src/stm32f7xx_hal_dma.c ****       /* Clear the half transfer and transfer complete flags */
 711:Drivers/STM32F7xx_HAL_Driver/Src/stm32f7xx_hal_dma.c ****       regs->IFCR = (DMA_FLAG_HTIF0_4 | DMA_FLAG_TCIF0_4) << hdma->StreamIndex;
 712:Drivers/STM32F7xx_HAL_Driver/Src/stm32f7xx_hal_dma.c ****     
 713:Drivers/STM32F7xx_HAL_Driver/Src/stm32f7xx_hal_dma.c ****       /* Process Unlocked */
 714:Drivers/STM32F7xx_HAL_Driver/Src/stm32f7xx_hal_dma.c ****       __HAL_UNLOCK(hdma);
ARM GAS  /tmp/ccdAZlHn.s 			page 14


 715:Drivers/STM32F7xx_HAL_Driver/Src/stm32f7xx_hal_dma.c **** 
 716:Drivers/STM32F7xx_HAL_Driver/Src/stm32f7xx_hal_dma.c ****       /* Change the DMA state */
 717:Drivers/STM32F7xx_HAL_Driver/Src/stm32f7xx_hal_dma.c ****       hdma->State= HAL_DMA_STATE_READY;
 718:Drivers/STM32F7xx_HAL_Driver/Src/stm32f7xx_hal_dma.c **** 
 719:Drivers/STM32F7xx_HAL_Driver/Src/stm32f7xx_hal_dma.c ****       return HAL_ERROR;
 720:Drivers/STM32F7xx_HAL_Driver/Src/stm32f7xx_hal_dma.c ****    }
 721:Drivers/STM32F7xx_HAL_Driver/Src/stm32f7xx_hal_dma.c ****   }
 722:Drivers/STM32F7xx_HAL_Driver/Src/stm32f7xx_hal_dma.c ****   
 723:Drivers/STM32F7xx_HAL_Driver/Src/stm32f7xx_hal_dma.c ****   /* Get the level transfer complete flag */
 724:Drivers/STM32F7xx_HAL_Driver/Src/stm32f7xx_hal_dma.c ****   if(CompleteLevel == HAL_DMA_FULL_TRANSFER)
 725:Drivers/STM32F7xx_HAL_Driver/Src/stm32f7xx_hal_dma.c ****   {
 726:Drivers/STM32F7xx_HAL_Driver/Src/stm32f7xx_hal_dma.c ****     /* Clear the half transfer and transfer complete flags */
 727:Drivers/STM32F7xx_HAL_Driver/Src/stm32f7xx_hal_dma.c ****     regs->IFCR = (DMA_FLAG_HTIF0_4 | DMA_FLAG_TCIF0_4) << hdma->StreamIndex;
 728:Drivers/STM32F7xx_HAL_Driver/Src/stm32f7xx_hal_dma.c ****     
 729:Drivers/STM32F7xx_HAL_Driver/Src/stm32f7xx_hal_dma.c ****     /* Process Unlocked */
 730:Drivers/STM32F7xx_HAL_Driver/Src/stm32f7xx_hal_dma.c ****     __HAL_UNLOCK(hdma);
 731:Drivers/STM32F7xx_HAL_Driver/Src/stm32f7xx_hal_dma.c **** 
 732:Drivers/STM32F7xx_HAL_Driver/Src/stm32f7xx_hal_dma.c ****     hdma->State = HAL_DMA_STATE_READY;
 733:Drivers/STM32F7xx_HAL_Driver/Src/stm32f7xx_hal_dma.c ****   }
 734:Drivers/STM32F7xx_HAL_Driver/Src/stm32f7xx_hal_dma.c ****   else
 735:Drivers/STM32F7xx_HAL_Driver/Src/stm32f7xx_hal_dma.c ****   {
 736:Drivers/STM32F7xx_HAL_Driver/Src/stm32f7xx_hal_dma.c ****     /* Clear the half transfer flag */
 737:Drivers/STM32F7xx_HAL_Driver/Src/stm32f7xx_hal_dma.c ****     regs->IFCR = (DMA_FLAG_HTIF0_4) << hdma->StreamIndex;
 738:Drivers/STM32F7xx_HAL_Driver/Src/stm32f7xx_hal_dma.c ****   }
 739:Drivers/STM32F7xx_HAL_Driver/Src/stm32f7xx_hal_dma.c ****   
 740:Drivers/STM32F7xx_HAL_Driver/Src/stm32f7xx_hal_dma.c ****   return status;
 741:Drivers/STM32F7xx_HAL_Driver/Src/stm32f7xx_hal_dma.c **** }
 742:Drivers/STM32F7xx_HAL_Driver/Src/stm32f7xx_hal_dma.c **** 
 743:Drivers/STM32F7xx_HAL_Driver/Src/stm32f7xx_hal_dma.c **** /**
 744:Drivers/STM32F7xx_HAL_Driver/Src/stm32f7xx_hal_dma.c ****   * @brief  Handles DMA interrupt request.
 745:Drivers/STM32F7xx_HAL_Driver/Src/stm32f7xx_hal_dma.c ****   * @param  hdma pointer to a DMA_HandleTypeDef structure that contains
 746:Drivers/STM32F7xx_HAL_Driver/Src/stm32f7xx_hal_dma.c ****   *               the configuration information for the specified DMA Stream.  
 747:Drivers/STM32F7xx_HAL_Driver/Src/stm32f7xx_hal_dma.c ****   * @retval None
 748:Drivers/STM32F7xx_HAL_Driver/Src/stm32f7xx_hal_dma.c ****   */
 749:Drivers/STM32F7xx_HAL_Driver/Src/stm32f7xx_hal_dma.c **** void HAL_DMA_IRQHandler(DMA_HandleTypeDef *hdma)
 750:Drivers/STM32F7xx_HAL_Driver/Src/stm32f7xx_hal_dma.c **** {
 751:Drivers/STM32F7xx_HAL_Driver/Src/stm32f7xx_hal_dma.c ****   uint32_t tmpisr;
 752:Drivers/STM32F7xx_HAL_Driver/Src/stm32f7xx_hal_dma.c ****   __IO uint32_t count = 0;
 753:Drivers/STM32F7xx_HAL_Driver/Src/stm32f7xx_hal_dma.c ****   uint32_t timeout = SystemCoreClock / 9600;
 754:Drivers/STM32F7xx_HAL_Driver/Src/stm32f7xx_hal_dma.c **** 
 755:Drivers/STM32F7xx_HAL_Driver/Src/stm32f7xx_hal_dma.c ****   /* calculate DMA base and stream number */
 756:Drivers/STM32F7xx_HAL_Driver/Src/stm32f7xx_hal_dma.c ****   DMA_Base_Registers *regs = (DMA_Base_Registers *)hdma->StreamBaseAddress;
 757:Drivers/STM32F7xx_HAL_Driver/Src/stm32f7xx_hal_dma.c **** 
 758:Drivers/STM32F7xx_HAL_Driver/Src/stm32f7xx_hal_dma.c ****   tmpisr = regs->ISR;
 759:Drivers/STM32F7xx_HAL_Driver/Src/stm32f7xx_hal_dma.c **** 
 760:Drivers/STM32F7xx_HAL_Driver/Src/stm32f7xx_hal_dma.c ****   /* Transfer Error Interrupt management ***************************************/
 761:Drivers/STM32F7xx_HAL_Driver/Src/stm32f7xx_hal_dma.c ****   if ((tmpisr & (DMA_FLAG_TEIF0_4 << hdma->StreamIndex)) != RESET)
 762:Drivers/STM32F7xx_HAL_Driver/Src/stm32f7xx_hal_dma.c ****   {
 763:Drivers/STM32F7xx_HAL_Driver/Src/stm32f7xx_hal_dma.c ****     if(__HAL_DMA_GET_IT_SOURCE(hdma, DMA_IT_TE) != RESET)
 764:Drivers/STM32F7xx_HAL_Driver/Src/stm32f7xx_hal_dma.c ****     {
 765:Drivers/STM32F7xx_HAL_Driver/Src/stm32f7xx_hal_dma.c ****       /* Disable the transfer error interrupt */
 766:Drivers/STM32F7xx_HAL_Driver/Src/stm32f7xx_hal_dma.c ****       hdma->Instance->CR  &= ~(DMA_IT_TE);
 767:Drivers/STM32F7xx_HAL_Driver/Src/stm32f7xx_hal_dma.c ****       
 768:Drivers/STM32F7xx_HAL_Driver/Src/stm32f7xx_hal_dma.c ****       /* Clear the transfer error flag */
 769:Drivers/STM32F7xx_HAL_Driver/Src/stm32f7xx_hal_dma.c ****       regs->IFCR = DMA_FLAG_TEIF0_4 << hdma->StreamIndex;
 770:Drivers/STM32F7xx_HAL_Driver/Src/stm32f7xx_hal_dma.c ****       
 771:Drivers/STM32F7xx_HAL_Driver/Src/stm32f7xx_hal_dma.c ****       /* Update error code */
ARM GAS  /tmp/ccdAZlHn.s 			page 15


 772:Drivers/STM32F7xx_HAL_Driver/Src/stm32f7xx_hal_dma.c ****       hdma->ErrorCode |= HAL_DMA_ERROR_TE;
 773:Drivers/STM32F7xx_HAL_Driver/Src/stm32f7xx_hal_dma.c ****     }
 774:Drivers/STM32F7xx_HAL_Driver/Src/stm32f7xx_hal_dma.c ****   }
 775:Drivers/STM32F7xx_HAL_Driver/Src/stm32f7xx_hal_dma.c ****   /* FIFO Error Interrupt management ******************************************/
 776:Drivers/STM32F7xx_HAL_Driver/Src/stm32f7xx_hal_dma.c ****   if ((tmpisr & (DMA_FLAG_FEIF0_4 << hdma->StreamIndex)) != RESET)
 777:Drivers/STM32F7xx_HAL_Driver/Src/stm32f7xx_hal_dma.c ****   {
 778:Drivers/STM32F7xx_HAL_Driver/Src/stm32f7xx_hal_dma.c ****     if(__HAL_DMA_GET_IT_SOURCE(hdma, DMA_IT_FE) != RESET)
 779:Drivers/STM32F7xx_HAL_Driver/Src/stm32f7xx_hal_dma.c ****     {
 780:Drivers/STM32F7xx_HAL_Driver/Src/stm32f7xx_hal_dma.c ****       /* Clear the FIFO error flag */
 781:Drivers/STM32F7xx_HAL_Driver/Src/stm32f7xx_hal_dma.c ****       regs->IFCR = DMA_FLAG_FEIF0_4 << hdma->StreamIndex;
 782:Drivers/STM32F7xx_HAL_Driver/Src/stm32f7xx_hal_dma.c **** 
 783:Drivers/STM32F7xx_HAL_Driver/Src/stm32f7xx_hal_dma.c ****       /* Update error code */
 784:Drivers/STM32F7xx_HAL_Driver/Src/stm32f7xx_hal_dma.c ****       hdma->ErrorCode |= HAL_DMA_ERROR_FE;
 785:Drivers/STM32F7xx_HAL_Driver/Src/stm32f7xx_hal_dma.c ****     }
 786:Drivers/STM32F7xx_HAL_Driver/Src/stm32f7xx_hal_dma.c ****   }
 787:Drivers/STM32F7xx_HAL_Driver/Src/stm32f7xx_hal_dma.c ****   /* Direct Mode Error Interrupt management ***********************************/
 788:Drivers/STM32F7xx_HAL_Driver/Src/stm32f7xx_hal_dma.c ****   if ((tmpisr & (DMA_FLAG_DMEIF0_4 << hdma->StreamIndex)) != RESET)
 789:Drivers/STM32F7xx_HAL_Driver/Src/stm32f7xx_hal_dma.c ****   {
 790:Drivers/STM32F7xx_HAL_Driver/Src/stm32f7xx_hal_dma.c ****     if(__HAL_DMA_GET_IT_SOURCE(hdma, DMA_IT_DME) != RESET)
 791:Drivers/STM32F7xx_HAL_Driver/Src/stm32f7xx_hal_dma.c ****     {
 792:Drivers/STM32F7xx_HAL_Driver/Src/stm32f7xx_hal_dma.c ****       /* Clear the direct mode error flag */
 793:Drivers/STM32F7xx_HAL_Driver/Src/stm32f7xx_hal_dma.c ****       regs->IFCR = DMA_FLAG_DMEIF0_4 << hdma->StreamIndex;
 794:Drivers/STM32F7xx_HAL_Driver/Src/stm32f7xx_hal_dma.c **** 
 795:Drivers/STM32F7xx_HAL_Driver/Src/stm32f7xx_hal_dma.c ****       /* Update error code */
 796:Drivers/STM32F7xx_HAL_Driver/Src/stm32f7xx_hal_dma.c ****       hdma->ErrorCode |= HAL_DMA_ERROR_DME;
 797:Drivers/STM32F7xx_HAL_Driver/Src/stm32f7xx_hal_dma.c ****     }
 798:Drivers/STM32F7xx_HAL_Driver/Src/stm32f7xx_hal_dma.c ****   }
 799:Drivers/STM32F7xx_HAL_Driver/Src/stm32f7xx_hal_dma.c ****   /* Half Transfer Complete Interrupt management ******************************/
 800:Drivers/STM32F7xx_HAL_Driver/Src/stm32f7xx_hal_dma.c ****   if ((tmpisr & (DMA_FLAG_HTIF0_4 << hdma->StreamIndex)) != RESET)
 801:Drivers/STM32F7xx_HAL_Driver/Src/stm32f7xx_hal_dma.c ****   {
 802:Drivers/STM32F7xx_HAL_Driver/Src/stm32f7xx_hal_dma.c ****     if(__HAL_DMA_GET_IT_SOURCE(hdma, DMA_IT_HT) != RESET)
 803:Drivers/STM32F7xx_HAL_Driver/Src/stm32f7xx_hal_dma.c ****     {
 804:Drivers/STM32F7xx_HAL_Driver/Src/stm32f7xx_hal_dma.c ****       /* Clear the half transfer complete flag */
 805:Drivers/STM32F7xx_HAL_Driver/Src/stm32f7xx_hal_dma.c ****       regs->IFCR = DMA_FLAG_HTIF0_4 << hdma->StreamIndex;
 806:Drivers/STM32F7xx_HAL_Driver/Src/stm32f7xx_hal_dma.c ****       
 807:Drivers/STM32F7xx_HAL_Driver/Src/stm32f7xx_hal_dma.c ****       /* Multi_Buffering mode enabled */
 808:Drivers/STM32F7xx_HAL_Driver/Src/stm32f7xx_hal_dma.c ****       if(((hdma->Instance->CR) & (uint32_t)(DMA_SxCR_DBM)) != RESET)
 809:Drivers/STM32F7xx_HAL_Driver/Src/stm32f7xx_hal_dma.c ****       {
 810:Drivers/STM32F7xx_HAL_Driver/Src/stm32f7xx_hal_dma.c ****         /* Current memory buffer used is Memory 0 */
 811:Drivers/STM32F7xx_HAL_Driver/Src/stm32f7xx_hal_dma.c ****         if((hdma->Instance->CR & DMA_SxCR_CT) == RESET)
 812:Drivers/STM32F7xx_HAL_Driver/Src/stm32f7xx_hal_dma.c ****         {
 813:Drivers/STM32F7xx_HAL_Driver/Src/stm32f7xx_hal_dma.c ****           if(hdma->XferHalfCpltCallback != NULL)
 814:Drivers/STM32F7xx_HAL_Driver/Src/stm32f7xx_hal_dma.c ****           {
 815:Drivers/STM32F7xx_HAL_Driver/Src/stm32f7xx_hal_dma.c ****             /* Half transfer callback */
 816:Drivers/STM32F7xx_HAL_Driver/Src/stm32f7xx_hal_dma.c ****             hdma->XferHalfCpltCallback(hdma);
 817:Drivers/STM32F7xx_HAL_Driver/Src/stm32f7xx_hal_dma.c ****           }
 818:Drivers/STM32F7xx_HAL_Driver/Src/stm32f7xx_hal_dma.c ****         }
 819:Drivers/STM32F7xx_HAL_Driver/Src/stm32f7xx_hal_dma.c ****         /* Current memory buffer used is Memory 1 */
 820:Drivers/STM32F7xx_HAL_Driver/Src/stm32f7xx_hal_dma.c ****         else
 821:Drivers/STM32F7xx_HAL_Driver/Src/stm32f7xx_hal_dma.c ****         {
 822:Drivers/STM32F7xx_HAL_Driver/Src/stm32f7xx_hal_dma.c ****           if(hdma->XferM1HalfCpltCallback != NULL)
 823:Drivers/STM32F7xx_HAL_Driver/Src/stm32f7xx_hal_dma.c ****           {
 824:Drivers/STM32F7xx_HAL_Driver/Src/stm32f7xx_hal_dma.c ****             /* Half transfer callback */
 825:Drivers/STM32F7xx_HAL_Driver/Src/stm32f7xx_hal_dma.c ****             hdma->XferM1HalfCpltCallback(hdma);
 826:Drivers/STM32F7xx_HAL_Driver/Src/stm32f7xx_hal_dma.c ****           }
 827:Drivers/STM32F7xx_HAL_Driver/Src/stm32f7xx_hal_dma.c ****         }
 828:Drivers/STM32F7xx_HAL_Driver/Src/stm32f7xx_hal_dma.c ****       }
ARM GAS  /tmp/ccdAZlHn.s 			page 16


 829:Drivers/STM32F7xx_HAL_Driver/Src/stm32f7xx_hal_dma.c ****       else
 830:Drivers/STM32F7xx_HAL_Driver/Src/stm32f7xx_hal_dma.c ****       {
 831:Drivers/STM32F7xx_HAL_Driver/Src/stm32f7xx_hal_dma.c ****         /* Disable the half transfer interrupt if the DMA mode is not CIRCULAR */
 832:Drivers/STM32F7xx_HAL_Driver/Src/stm32f7xx_hal_dma.c ****         if((hdma->Instance->CR & DMA_SxCR_CIRC) == RESET)
 833:Drivers/STM32F7xx_HAL_Driver/Src/stm32f7xx_hal_dma.c ****         {
 834:Drivers/STM32F7xx_HAL_Driver/Src/stm32f7xx_hal_dma.c ****           /* Disable the half transfer interrupt */
 835:Drivers/STM32F7xx_HAL_Driver/Src/stm32f7xx_hal_dma.c ****           hdma->Instance->CR  &= ~(DMA_IT_HT);
 836:Drivers/STM32F7xx_HAL_Driver/Src/stm32f7xx_hal_dma.c ****         }
 837:Drivers/STM32F7xx_HAL_Driver/Src/stm32f7xx_hal_dma.c ****         
 838:Drivers/STM32F7xx_HAL_Driver/Src/stm32f7xx_hal_dma.c ****         if(hdma->XferHalfCpltCallback != NULL)
 839:Drivers/STM32F7xx_HAL_Driver/Src/stm32f7xx_hal_dma.c ****         {
 840:Drivers/STM32F7xx_HAL_Driver/Src/stm32f7xx_hal_dma.c ****           /* Half transfer callback */
 841:Drivers/STM32F7xx_HAL_Driver/Src/stm32f7xx_hal_dma.c ****           hdma->XferHalfCpltCallback(hdma);
 842:Drivers/STM32F7xx_HAL_Driver/Src/stm32f7xx_hal_dma.c ****         }
 843:Drivers/STM32F7xx_HAL_Driver/Src/stm32f7xx_hal_dma.c ****       }
 844:Drivers/STM32F7xx_HAL_Driver/Src/stm32f7xx_hal_dma.c ****     }
 845:Drivers/STM32F7xx_HAL_Driver/Src/stm32f7xx_hal_dma.c ****   }
 846:Drivers/STM32F7xx_HAL_Driver/Src/stm32f7xx_hal_dma.c ****   /* Transfer Complete Interrupt management ***********************************/
 847:Drivers/STM32F7xx_HAL_Driver/Src/stm32f7xx_hal_dma.c ****   if ((tmpisr & (DMA_FLAG_TCIF0_4 << hdma->StreamIndex)) != RESET)
 848:Drivers/STM32F7xx_HAL_Driver/Src/stm32f7xx_hal_dma.c ****   {
 849:Drivers/STM32F7xx_HAL_Driver/Src/stm32f7xx_hal_dma.c ****     if(__HAL_DMA_GET_IT_SOURCE(hdma, DMA_IT_TC) != RESET)
 850:Drivers/STM32F7xx_HAL_Driver/Src/stm32f7xx_hal_dma.c ****     {
 851:Drivers/STM32F7xx_HAL_Driver/Src/stm32f7xx_hal_dma.c ****       /* Clear the transfer complete flag */
 852:Drivers/STM32F7xx_HAL_Driver/Src/stm32f7xx_hal_dma.c ****       regs->IFCR = DMA_FLAG_TCIF0_4 << hdma->StreamIndex;
 853:Drivers/STM32F7xx_HAL_Driver/Src/stm32f7xx_hal_dma.c ****       
 854:Drivers/STM32F7xx_HAL_Driver/Src/stm32f7xx_hal_dma.c ****       if(HAL_DMA_STATE_ABORT == hdma->State)
 855:Drivers/STM32F7xx_HAL_Driver/Src/stm32f7xx_hal_dma.c ****       {
 856:Drivers/STM32F7xx_HAL_Driver/Src/stm32f7xx_hal_dma.c ****         /* Disable all the transfer interrupts */
 857:Drivers/STM32F7xx_HAL_Driver/Src/stm32f7xx_hal_dma.c ****         hdma->Instance->CR  &= ~(DMA_IT_TC | DMA_IT_TE | DMA_IT_DME);
 858:Drivers/STM32F7xx_HAL_Driver/Src/stm32f7xx_hal_dma.c ****         hdma->Instance->FCR &= ~(DMA_IT_FE);
 859:Drivers/STM32F7xx_HAL_Driver/Src/stm32f7xx_hal_dma.c ****         
 860:Drivers/STM32F7xx_HAL_Driver/Src/stm32f7xx_hal_dma.c ****         if((hdma->XferHalfCpltCallback != NULL) || (hdma->XferM1HalfCpltCallback != NULL))
 861:Drivers/STM32F7xx_HAL_Driver/Src/stm32f7xx_hal_dma.c ****         {
 862:Drivers/STM32F7xx_HAL_Driver/Src/stm32f7xx_hal_dma.c ****           hdma->Instance->CR  &= ~(DMA_IT_HT);
 863:Drivers/STM32F7xx_HAL_Driver/Src/stm32f7xx_hal_dma.c ****         }
 864:Drivers/STM32F7xx_HAL_Driver/Src/stm32f7xx_hal_dma.c **** 
 865:Drivers/STM32F7xx_HAL_Driver/Src/stm32f7xx_hal_dma.c ****         /* Clear all interrupt flags at correct offset within the register */
 866:Drivers/STM32F7xx_HAL_Driver/Src/stm32f7xx_hal_dma.c ****         regs->IFCR = 0x3FU << hdma->StreamIndex;
 867:Drivers/STM32F7xx_HAL_Driver/Src/stm32f7xx_hal_dma.c **** 
 868:Drivers/STM32F7xx_HAL_Driver/Src/stm32f7xx_hal_dma.c ****         /* Process Unlocked */
 869:Drivers/STM32F7xx_HAL_Driver/Src/stm32f7xx_hal_dma.c ****         __HAL_UNLOCK(hdma);
 870:Drivers/STM32F7xx_HAL_Driver/Src/stm32f7xx_hal_dma.c **** 
 871:Drivers/STM32F7xx_HAL_Driver/Src/stm32f7xx_hal_dma.c ****         /* Change the DMA state */
 872:Drivers/STM32F7xx_HAL_Driver/Src/stm32f7xx_hal_dma.c ****         hdma->State = HAL_DMA_STATE_READY;
 873:Drivers/STM32F7xx_HAL_Driver/Src/stm32f7xx_hal_dma.c **** 
 874:Drivers/STM32F7xx_HAL_Driver/Src/stm32f7xx_hal_dma.c ****         if(hdma->XferAbortCallback != NULL)
 875:Drivers/STM32F7xx_HAL_Driver/Src/stm32f7xx_hal_dma.c ****         {
 876:Drivers/STM32F7xx_HAL_Driver/Src/stm32f7xx_hal_dma.c ****           hdma->XferAbortCallback(hdma);
 877:Drivers/STM32F7xx_HAL_Driver/Src/stm32f7xx_hal_dma.c ****         }
 878:Drivers/STM32F7xx_HAL_Driver/Src/stm32f7xx_hal_dma.c ****         return;
 879:Drivers/STM32F7xx_HAL_Driver/Src/stm32f7xx_hal_dma.c ****       }
 880:Drivers/STM32F7xx_HAL_Driver/Src/stm32f7xx_hal_dma.c **** 
 881:Drivers/STM32F7xx_HAL_Driver/Src/stm32f7xx_hal_dma.c ****       if(((hdma->Instance->CR) & (uint32_t)(DMA_SxCR_DBM)) != RESET)
 882:Drivers/STM32F7xx_HAL_Driver/Src/stm32f7xx_hal_dma.c ****       {
 883:Drivers/STM32F7xx_HAL_Driver/Src/stm32f7xx_hal_dma.c ****         /* Current memory buffer used is Memory 0 */
 884:Drivers/STM32F7xx_HAL_Driver/Src/stm32f7xx_hal_dma.c ****         if((hdma->Instance->CR & DMA_SxCR_CT) == RESET)
 885:Drivers/STM32F7xx_HAL_Driver/Src/stm32f7xx_hal_dma.c ****         {
ARM GAS  /tmp/ccdAZlHn.s 			page 17


 886:Drivers/STM32F7xx_HAL_Driver/Src/stm32f7xx_hal_dma.c ****           if(hdma->XferM1CpltCallback != NULL)
 887:Drivers/STM32F7xx_HAL_Driver/Src/stm32f7xx_hal_dma.c ****           {
 888:Drivers/STM32F7xx_HAL_Driver/Src/stm32f7xx_hal_dma.c ****             /* Transfer complete Callback for memory1 */
 889:Drivers/STM32F7xx_HAL_Driver/Src/stm32f7xx_hal_dma.c ****             hdma->XferM1CpltCallback(hdma);
 890:Drivers/STM32F7xx_HAL_Driver/Src/stm32f7xx_hal_dma.c ****           }
 891:Drivers/STM32F7xx_HAL_Driver/Src/stm32f7xx_hal_dma.c ****         }
 892:Drivers/STM32F7xx_HAL_Driver/Src/stm32f7xx_hal_dma.c ****         /* Current memory buffer used is Memory 1 */
 893:Drivers/STM32F7xx_HAL_Driver/Src/stm32f7xx_hal_dma.c ****         else
 894:Drivers/STM32F7xx_HAL_Driver/Src/stm32f7xx_hal_dma.c ****         {
 895:Drivers/STM32F7xx_HAL_Driver/Src/stm32f7xx_hal_dma.c ****           if(hdma->XferCpltCallback != NULL)
 896:Drivers/STM32F7xx_HAL_Driver/Src/stm32f7xx_hal_dma.c ****           {
 897:Drivers/STM32F7xx_HAL_Driver/Src/stm32f7xx_hal_dma.c ****             /* Transfer complete Callback for memory0 */
 898:Drivers/STM32F7xx_HAL_Driver/Src/stm32f7xx_hal_dma.c ****             hdma->XferCpltCallback(hdma);
 899:Drivers/STM32F7xx_HAL_Driver/Src/stm32f7xx_hal_dma.c ****           }
 900:Drivers/STM32F7xx_HAL_Driver/Src/stm32f7xx_hal_dma.c ****         }
 901:Drivers/STM32F7xx_HAL_Driver/Src/stm32f7xx_hal_dma.c ****       }
 902:Drivers/STM32F7xx_HAL_Driver/Src/stm32f7xx_hal_dma.c ****       /* Disable the transfer complete interrupt if the DMA mode is not CIRCULAR */
 903:Drivers/STM32F7xx_HAL_Driver/Src/stm32f7xx_hal_dma.c ****       else
 904:Drivers/STM32F7xx_HAL_Driver/Src/stm32f7xx_hal_dma.c ****       {
 905:Drivers/STM32F7xx_HAL_Driver/Src/stm32f7xx_hal_dma.c ****         if((hdma->Instance->CR & DMA_SxCR_CIRC) == RESET)
 906:Drivers/STM32F7xx_HAL_Driver/Src/stm32f7xx_hal_dma.c ****         {
 907:Drivers/STM32F7xx_HAL_Driver/Src/stm32f7xx_hal_dma.c ****           /* Disable the transfer complete interrupt */
 908:Drivers/STM32F7xx_HAL_Driver/Src/stm32f7xx_hal_dma.c ****           hdma->Instance->CR  &= ~(DMA_IT_TC);
 909:Drivers/STM32F7xx_HAL_Driver/Src/stm32f7xx_hal_dma.c **** 
 910:Drivers/STM32F7xx_HAL_Driver/Src/stm32f7xx_hal_dma.c ****           /* Process Unlocked */
 911:Drivers/STM32F7xx_HAL_Driver/Src/stm32f7xx_hal_dma.c ****           __HAL_UNLOCK(hdma);
 912:Drivers/STM32F7xx_HAL_Driver/Src/stm32f7xx_hal_dma.c **** 
 913:Drivers/STM32F7xx_HAL_Driver/Src/stm32f7xx_hal_dma.c ****           /* Change the DMA state */
 914:Drivers/STM32F7xx_HAL_Driver/Src/stm32f7xx_hal_dma.c ****           hdma->State = HAL_DMA_STATE_READY;
 915:Drivers/STM32F7xx_HAL_Driver/Src/stm32f7xx_hal_dma.c ****         }
 916:Drivers/STM32F7xx_HAL_Driver/Src/stm32f7xx_hal_dma.c **** 
 917:Drivers/STM32F7xx_HAL_Driver/Src/stm32f7xx_hal_dma.c ****         if(hdma->XferCpltCallback != NULL)
 918:Drivers/STM32F7xx_HAL_Driver/Src/stm32f7xx_hal_dma.c ****         {
 919:Drivers/STM32F7xx_HAL_Driver/Src/stm32f7xx_hal_dma.c ****           /* Transfer complete callback */
 920:Drivers/STM32F7xx_HAL_Driver/Src/stm32f7xx_hal_dma.c ****           hdma->XferCpltCallback(hdma);
 921:Drivers/STM32F7xx_HAL_Driver/Src/stm32f7xx_hal_dma.c ****         }
 922:Drivers/STM32F7xx_HAL_Driver/Src/stm32f7xx_hal_dma.c ****       }
 923:Drivers/STM32F7xx_HAL_Driver/Src/stm32f7xx_hal_dma.c ****     }
 924:Drivers/STM32F7xx_HAL_Driver/Src/stm32f7xx_hal_dma.c ****   }
 925:Drivers/STM32F7xx_HAL_Driver/Src/stm32f7xx_hal_dma.c ****   
 926:Drivers/STM32F7xx_HAL_Driver/Src/stm32f7xx_hal_dma.c ****   /* manage error case */
 927:Drivers/STM32F7xx_HAL_Driver/Src/stm32f7xx_hal_dma.c ****   if(hdma->ErrorCode != HAL_DMA_ERROR_NONE)
 928:Drivers/STM32F7xx_HAL_Driver/Src/stm32f7xx_hal_dma.c ****   {
 929:Drivers/STM32F7xx_HAL_Driver/Src/stm32f7xx_hal_dma.c ****     if((hdma->ErrorCode & HAL_DMA_ERROR_TE) != RESET)
 930:Drivers/STM32F7xx_HAL_Driver/Src/stm32f7xx_hal_dma.c ****     {
 931:Drivers/STM32F7xx_HAL_Driver/Src/stm32f7xx_hal_dma.c ****       hdma->State = HAL_DMA_STATE_ABORT;
 932:Drivers/STM32F7xx_HAL_Driver/Src/stm32f7xx_hal_dma.c **** 
 933:Drivers/STM32F7xx_HAL_Driver/Src/stm32f7xx_hal_dma.c ****       /* Disable the stream */
 934:Drivers/STM32F7xx_HAL_Driver/Src/stm32f7xx_hal_dma.c ****       __HAL_DMA_DISABLE(hdma);
 935:Drivers/STM32F7xx_HAL_Driver/Src/stm32f7xx_hal_dma.c **** 
 936:Drivers/STM32F7xx_HAL_Driver/Src/stm32f7xx_hal_dma.c ****       do
 937:Drivers/STM32F7xx_HAL_Driver/Src/stm32f7xx_hal_dma.c ****       {
 938:Drivers/STM32F7xx_HAL_Driver/Src/stm32f7xx_hal_dma.c ****         if (++count > timeout)
 939:Drivers/STM32F7xx_HAL_Driver/Src/stm32f7xx_hal_dma.c ****         {
 940:Drivers/STM32F7xx_HAL_Driver/Src/stm32f7xx_hal_dma.c ****           break;
 941:Drivers/STM32F7xx_HAL_Driver/Src/stm32f7xx_hal_dma.c ****         }
 942:Drivers/STM32F7xx_HAL_Driver/Src/stm32f7xx_hal_dma.c ****       }
ARM GAS  /tmp/ccdAZlHn.s 			page 18


 943:Drivers/STM32F7xx_HAL_Driver/Src/stm32f7xx_hal_dma.c ****       while((hdma->Instance->CR & DMA_SxCR_EN) != RESET);
 944:Drivers/STM32F7xx_HAL_Driver/Src/stm32f7xx_hal_dma.c **** 
 945:Drivers/STM32F7xx_HAL_Driver/Src/stm32f7xx_hal_dma.c ****       /* Process Unlocked */
 946:Drivers/STM32F7xx_HAL_Driver/Src/stm32f7xx_hal_dma.c ****       __HAL_UNLOCK(hdma);
 947:Drivers/STM32F7xx_HAL_Driver/Src/stm32f7xx_hal_dma.c **** 
 948:Drivers/STM32F7xx_HAL_Driver/Src/stm32f7xx_hal_dma.c ****       /* Change the DMA state */
 949:Drivers/STM32F7xx_HAL_Driver/Src/stm32f7xx_hal_dma.c ****       hdma->State = HAL_DMA_STATE_READY;
 950:Drivers/STM32F7xx_HAL_Driver/Src/stm32f7xx_hal_dma.c ****     }
 951:Drivers/STM32F7xx_HAL_Driver/Src/stm32f7xx_hal_dma.c **** 
 952:Drivers/STM32F7xx_HAL_Driver/Src/stm32f7xx_hal_dma.c ****     if(hdma->XferErrorCallback != NULL)
 953:Drivers/STM32F7xx_HAL_Driver/Src/stm32f7xx_hal_dma.c ****     {
 954:Drivers/STM32F7xx_HAL_Driver/Src/stm32f7xx_hal_dma.c ****       /* Transfer error callback */
 955:Drivers/STM32F7xx_HAL_Driver/Src/stm32f7xx_hal_dma.c ****       hdma->XferErrorCallback(hdma);
 956:Drivers/STM32F7xx_HAL_Driver/Src/stm32f7xx_hal_dma.c ****     }
 957:Drivers/STM32F7xx_HAL_Driver/Src/stm32f7xx_hal_dma.c ****   }
 958:Drivers/STM32F7xx_HAL_Driver/Src/stm32f7xx_hal_dma.c **** }
 959:Drivers/STM32F7xx_HAL_Driver/Src/stm32f7xx_hal_dma.c **** 
 960:Drivers/STM32F7xx_HAL_Driver/Src/stm32f7xx_hal_dma.c **** /**
 961:Drivers/STM32F7xx_HAL_Driver/Src/stm32f7xx_hal_dma.c ****   * @brief  Register callbacks
 962:Drivers/STM32F7xx_HAL_Driver/Src/stm32f7xx_hal_dma.c ****   * @param  hdma                 pointer to a DMA_HandleTypeDef structure that contains
 963:Drivers/STM32F7xx_HAL_Driver/Src/stm32f7xx_hal_dma.c ****   *                               the configuration information for the specified DMA Stream.
 964:Drivers/STM32F7xx_HAL_Driver/Src/stm32f7xx_hal_dma.c ****   * @param  CallbackID           User Callback identifer
 965:Drivers/STM32F7xx_HAL_Driver/Src/stm32f7xx_hal_dma.c ****   *                               a DMA_HandleTypeDef structure as parameter.
 966:Drivers/STM32F7xx_HAL_Driver/Src/stm32f7xx_hal_dma.c ****   * @param  pCallback            pointer to private callbacsk function which has pointer to 
 967:Drivers/STM32F7xx_HAL_Driver/Src/stm32f7xx_hal_dma.c ****   *                               a DMA_HandleTypeDef structure as parameter.
 968:Drivers/STM32F7xx_HAL_Driver/Src/stm32f7xx_hal_dma.c ****   * @retval HAL status
 969:Drivers/STM32F7xx_HAL_Driver/Src/stm32f7xx_hal_dma.c ****   */                      
 970:Drivers/STM32F7xx_HAL_Driver/Src/stm32f7xx_hal_dma.c **** HAL_StatusTypeDef HAL_DMA_RegisterCallback(DMA_HandleTypeDef *hdma, HAL_DMA_CallbackIDTypeDef Callb
 971:Drivers/STM32F7xx_HAL_Driver/Src/stm32f7xx_hal_dma.c **** {
 972:Drivers/STM32F7xx_HAL_Driver/Src/stm32f7xx_hal_dma.c **** 
 973:Drivers/STM32F7xx_HAL_Driver/Src/stm32f7xx_hal_dma.c ****   HAL_StatusTypeDef status = HAL_OK;
 974:Drivers/STM32F7xx_HAL_Driver/Src/stm32f7xx_hal_dma.c **** 
 975:Drivers/STM32F7xx_HAL_Driver/Src/stm32f7xx_hal_dma.c ****   /* Process locked */
 976:Drivers/STM32F7xx_HAL_Driver/Src/stm32f7xx_hal_dma.c ****   __HAL_LOCK(hdma);
 977:Drivers/STM32F7xx_HAL_Driver/Src/stm32f7xx_hal_dma.c **** 
 978:Drivers/STM32F7xx_HAL_Driver/Src/stm32f7xx_hal_dma.c ****   if(HAL_DMA_STATE_READY == hdma->State)
 979:Drivers/STM32F7xx_HAL_Driver/Src/stm32f7xx_hal_dma.c ****   {
 980:Drivers/STM32F7xx_HAL_Driver/Src/stm32f7xx_hal_dma.c ****     switch (CallbackID)
 981:Drivers/STM32F7xx_HAL_Driver/Src/stm32f7xx_hal_dma.c ****     {
 982:Drivers/STM32F7xx_HAL_Driver/Src/stm32f7xx_hal_dma.c ****     case  HAL_DMA_XFER_CPLT_CB_ID:
 983:Drivers/STM32F7xx_HAL_Driver/Src/stm32f7xx_hal_dma.c ****       hdma->XferCpltCallback = pCallback;
 984:Drivers/STM32F7xx_HAL_Driver/Src/stm32f7xx_hal_dma.c ****       break;
 985:Drivers/STM32F7xx_HAL_Driver/Src/stm32f7xx_hal_dma.c **** 
 986:Drivers/STM32F7xx_HAL_Driver/Src/stm32f7xx_hal_dma.c ****     case  HAL_DMA_XFER_HALFCPLT_CB_ID:
 987:Drivers/STM32F7xx_HAL_Driver/Src/stm32f7xx_hal_dma.c ****       hdma->XferHalfCpltCallback = pCallback;
 988:Drivers/STM32F7xx_HAL_Driver/Src/stm32f7xx_hal_dma.c ****       break;
 989:Drivers/STM32F7xx_HAL_Driver/Src/stm32f7xx_hal_dma.c **** 
 990:Drivers/STM32F7xx_HAL_Driver/Src/stm32f7xx_hal_dma.c ****     case  HAL_DMA_XFER_M1CPLT_CB_ID:
 991:Drivers/STM32F7xx_HAL_Driver/Src/stm32f7xx_hal_dma.c ****       hdma->XferM1CpltCallback = pCallback;
 992:Drivers/STM32F7xx_HAL_Driver/Src/stm32f7xx_hal_dma.c ****       break;
 993:Drivers/STM32F7xx_HAL_Driver/Src/stm32f7xx_hal_dma.c **** 
 994:Drivers/STM32F7xx_HAL_Driver/Src/stm32f7xx_hal_dma.c ****     case  HAL_DMA_XFER_M1HALFCPLT_CB_ID:
 995:Drivers/STM32F7xx_HAL_Driver/Src/stm32f7xx_hal_dma.c ****       hdma->XferM1HalfCpltCallback = pCallback;
 996:Drivers/STM32F7xx_HAL_Driver/Src/stm32f7xx_hal_dma.c ****       break;
 997:Drivers/STM32F7xx_HAL_Driver/Src/stm32f7xx_hal_dma.c **** 
 998:Drivers/STM32F7xx_HAL_Driver/Src/stm32f7xx_hal_dma.c ****     case  HAL_DMA_XFER_ERROR_CB_ID:
 999:Drivers/STM32F7xx_HAL_Driver/Src/stm32f7xx_hal_dma.c ****       hdma->XferErrorCallback = pCallback;
ARM GAS  /tmp/ccdAZlHn.s 			page 19


1000:Drivers/STM32F7xx_HAL_Driver/Src/stm32f7xx_hal_dma.c ****       break;
1001:Drivers/STM32F7xx_HAL_Driver/Src/stm32f7xx_hal_dma.c **** 
1002:Drivers/STM32F7xx_HAL_Driver/Src/stm32f7xx_hal_dma.c ****     case  HAL_DMA_XFER_ABORT_CB_ID:
1003:Drivers/STM32F7xx_HAL_Driver/Src/stm32f7xx_hal_dma.c ****       hdma->XferAbortCallback = pCallback;
1004:Drivers/STM32F7xx_HAL_Driver/Src/stm32f7xx_hal_dma.c ****       break;
1005:Drivers/STM32F7xx_HAL_Driver/Src/stm32f7xx_hal_dma.c **** 
1006:Drivers/STM32F7xx_HAL_Driver/Src/stm32f7xx_hal_dma.c ****     default:
1007:Drivers/STM32F7xx_HAL_Driver/Src/stm32f7xx_hal_dma.c ****       break;
1008:Drivers/STM32F7xx_HAL_Driver/Src/stm32f7xx_hal_dma.c ****     }
1009:Drivers/STM32F7xx_HAL_Driver/Src/stm32f7xx_hal_dma.c ****   }
1010:Drivers/STM32F7xx_HAL_Driver/Src/stm32f7xx_hal_dma.c ****   else
1011:Drivers/STM32F7xx_HAL_Driver/Src/stm32f7xx_hal_dma.c ****   {
1012:Drivers/STM32F7xx_HAL_Driver/Src/stm32f7xx_hal_dma.c ****     /* Return error status */
1013:Drivers/STM32F7xx_HAL_Driver/Src/stm32f7xx_hal_dma.c ****     status =  HAL_ERROR;
1014:Drivers/STM32F7xx_HAL_Driver/Src/stm32f7xx_hal_dma.c ****   }
1015:Drivers/STM32F7xx_HAL_Driver/Src/stm32f7xx_hal_dma.c **** 
1016:Drivers/STM32F7xx_HAL_Driver/Src/stm32f7xx_hal_dma.c ****   /* Release Lock */
1017:Drivers/STM32F7xx_HAL_Driver/Src/stm32f7xx_hal_dma.c ****   __HAL_UNLOCK(hdma);
1018:Drivers/STM32F7xx_HAL_Driver/Src/stm32f7xx_hal_dma.c ****   
1019:Drivers/STM32F7xx_HAL_Driver/Src/stm32f7xx_hal_dma.c ****   return status;
1020:Drivers/STM32F7xx_HAL_Driver/Src/stm32f7xx_hal_dma.c **** }
1021:Drivers/STM32F7xx_HAL_Driver/Src/stm32f7xx_hal_dma.c **** 
1022:Drivers/STM32F7xx_HAL_Driver/Src/stm32f7xx_hal_dma.c **** /**
1023:Drivers/STM32F7xx_HAL_Driver/Src/stm32f7xx_hal_dma.c ****   * @brief  UnRegister callbacks
1024:Drivers/STM32F7xx_HAL_Driver/Src/stm32f7xx_hal_dma.c ****   * @param  hdma                 pointer to a DMA_HandleTypeDef structure that contains
1025:Drivers/STM32F7xx_HAL_Driver/Src/stm32f7xx_hal_dma.c ****   *                               the configuration information for the specified DMA Stream.
1026:Drivers/STM32F7xx_HAL_Driver/Src/stm32f7xx_hal_dma.c ****   * @param  CallbackID           User Callback identifer
1027:Drivers/STM32F7xx_HAL_Driver/Src/stm32f7xx_hal_dma.c ****   *                               a HAL_DMA_CallbackIDTypeDef ENUM as parameter.
1028:Drivers/STM32F7xx_HAL_Driver/Src/stm32f7xx_hal_dma.c ****   * @retval HAL status
1029:Drivers/STM32F7xx_HAL_Driver/Src/stm32f7xx_hal_dma.c ****   */              
1030:Drivers/STM32F7xx_HAL_Driver/Src/stm32f7xx_hal_dma.c **** HAL_StatusTypeDef HAL_DMA_UnRegisterCallback(DMA_HandleTypeDef *hdma, HAL_DMA_CallbackIDTypeDef Cal
1031:Drivers/STM32F7xx_HAL_Driver/Src/stm32f7xx_hal_dma.c **** {
1032:Drivers/STM32F7xx_HAL_Driver/Src/stm32f7xx_hal_dma.c ****   HAL_StatusTypeDef status = HAL_OK;
1033:Drivers/STM32F7xx_HAL_Driver/Src/stm32f7xx_hal_dma.c ****   
1034:Drivers/STM32F7xx_HAL_Driver/Src/stm32f7xx_hal_dma.c ****   /* Process locked */
1035:Drivers/STM32F7xx_HAL_Driver/Src/stm32f7xx_hal_dma.c ****   __HAL_LOCK(hdma);
1036:Drivers/STM32F7xx_HAL_Driver/Src/stm32f7xx_hal_dma.c ****   
1037:Drivers/STM32F7xx_HAL_Driver/Src/stm32f7xx_hal_dma.c ****   if(HAL_DMA_STATE_READY == hdma->State)
1038:Drivers/STM32F7xx_HAL_Driver/Src/stm32f7xx_hal_dma.c ****   {
1039:Drivers/STM32F7xx_HAL_Driver/Src/stm32f7xx_hal_dma.c ****     switch (CallbackID)
1040:Drivers/STM32F7xx_HAL_Driver/Src/stm32f7xx_hal_dma.c ****     {
1041:Drivers/STM32F7xx_HAL_Driver/Src/stm32f7xx_hal_dma.c ****     case  HAL_DMA_XFER_CPLT_CB_ID:
1042:Drivers/STM32F7xx_HAL_Driver/Src/stm32f7xx_hal_dma.c ****       hdma->XferCpltCallback = NULL;
1043:Drivers/STM32F7xx_HAL_Driver/Src/stm32f7xx_hal_dma.c ****       break;
1044:Drivers/STM32F7xx_HAL_Driver/Src/stm32f7xx_hal_dma.c ****       
1045:Drivers/STM32F7xx_HAL_Driver/Src/stm32f7xx_hal_dma.c ****     case  HAL_DMA_XFER_HALFCPLT_CB_ID:
1046:Drivers/STM32F7xx_HAL_Driver/Src/stm32f7xx_hal_dma.c ****       hdma->XferHalfCpltCallback = NULL;
1047:Drivers/STM32F7xx_HAL_Driver/Src/stm32f7xx_hal_dma.c ****       break;
1048:Drivers/STM32F7xx_HAL_Driver/Src/stm32f7xx_hal_dma.c ****       
1049:Drivers/STM32F7xx_HAL_Driver/Src/stm32f7xx_hal_dma.c ****     case  HAL_DMA_XFER_M1CPLT_CB_ID:
1050:Drivers/STM32F7xx_HAL_Driver/Src/stm32f7xx_hal_dma.c ****       hdma->XferM1CpltCallback = NULL;
1051:Drivers/STM32F7xx_HAL_Driver/Src/stm32f7xx_hal_dma.c ****       break;
1052:Drivers/STM32F7xx_HAL_Driver/Src/stm32f7xx_hal_dma.c ****       
1053:Drivers/STM32F7xx_HAL_Driver/Src/stm32f7xx_hal_dma.c ****     case  HAL_DMA_XFER_M1HALFCPLT_CB_ID:
1054:Drivers/STM32F7xx_HAL_Driver/Src/stm32f7xx_hal_dma.c ****       hdma->XferM1HalfCpltCallback = NULL;
1055:Drivers/STM32F7xx_HAL_Driver/Src/stm32f7xx_hal_dma.c ****       break;
1056:Drivers/STM32F7xx_HAL_Driver/Src/stm32f7xx_hal_dma.c ****       
ARM GAS  /tmp/ccdAZlHn.s 			page 20


1057:Drivers/STM32F7xx_HAL_Driver/Src/stm32f7xx_hal_dma.c ****     case  HAL_DMA_XFER_ERROR_CB_ID:
1058:Drivers/STM32F7xx_HAL_Driver/Src/stm32f7xx_hal_dma.c ****       hdma->XferErrorCallback = NULL;
1059:Drivers/STM32F7xx_HAL_Driver/Src/stm32f7xx_hal_dma.c ****       break;
1060:Drivers/STM32F7xx_HAL_Driver/Src/stm32f7xx_hal_dma.c ****       
1061:Drivers/STM32F7xx_HAL_Driver/Src/stm32f7xx_hal_dma.c ****     case  HAL_DMA_XFER_ABORT_CB_ID:
1062:Drivers/STM32F7xx_HAL_Driver/Src/stm32f7xx_hal_dma.c ****       hdma->XferAbortCallback = NULL;
1063:Drivers/STM32F7xx_HAL_Driver/Src/stm32f7xx_hal_dma.c ****       break; 
1064:Drivers/STM32F7xx_HAL_Driver/Src/stm32f7xx_hal_dma.c ****       
1065:Drivers/STM32F7xx_HAL_Driver/Src/stm32f7xx_hal_dma.c ****     case   HAL_DMA_XFER_ALL_CB_ID:
1066:Drivers/STM32F7xx_HAL_Driver/Src/stm32f7xx_hal_dma.c ****       hdma->XferCpltCallback = NULL;
1067:Drivers/STM32F7xx_HAL_Driver/Src/stm32f7xx_hal_dma.c ****       hdma->XferHalfCpltCallback = NULL;
1068:Drivers/STM32F7xx_HAL_Driver/Src/stm32f7xx_hal_dma.c ****       hdma->XferM1CpltCallback = NULL;
1069:Drivers/STM32F7xx_HAL_Driver/Src/stm32f7xx_hal_dma.c ****       hdma->XferM1HalfCpltCallback = NULL;
1070:Drivers/STM32F7xx_HAL_Driver/Src/stm32f7xx_hal_dma.c ****       hdma->XferErrorCallback = NULL;
1071:Drivers/STM32F7xx_HAL_Driver/Src/stm32f7xx_hal_dma.c ****       hdma->XferAbortCallback = NULL;
1072:Drivers/STM32F7xx_HAL_Driver/Src/stm32f7xx_hal_dma.c ****       break; 
1073:Drivers/STM32F7xx_HAL_Driver/Src/stm32f7xx_hal_dma.c ****       
1074:Drivers/STM32F7xx_HAL_Driver/Src/stm32f7xx_hal_dma.c ****     default:
1075:Drivers/STM32F7xx_HAL_Driver/Src/stm32f7xx_hal_dma.c ****       status = HAL_ERROR;
1076:Drivers/STM32F7xx_HAL_Driver/Src/stm32f7xx_hal_dma.c ****       break;
1077:Drivers/STM32F7xx_HAL_Driver/Src/stm32f7xx_hal_dma.c ****     }
1078:Drivers/STM32F7xx_HAL_Driver/Src/stm32f7xx_hal_dma.c ****   }
1079:Drivers/STM32F7xx_HAL_Driver/Src/stm32f7xx_hal_dma.c ****   else
1080:Drivers/STM32F7xx_HAL_Driver/Src/stm32f7xx_hal_dma.c ****   {
1081:Drivers/STM32F7xx_HAL_Driver/Src/stm32f7xx_hal_dma.c ****     status = HAL_ERROR;
1082:Drivers/STM32F7xx_HAL_Driver/Src/stm32f7xx_hal_dma.c ****   }
1083:Drivers/STM32F7xx_HAL_Driver/Src/stm32f7xx_hal_dma.c ****   
1084:Drivers/STM32F7xx_HAL_Driver/Src/stm32f7xx_hal_dma.c ****   /* Release Lock */
1085:Drivers/STM32F7xx_HAL_Driver/Src/stm32f7xx_hal_dma.c ****   __HAL_UNLOCK(hdma);
1086:Drivers/STM32F7xx_HAL_Driver/Src/stm32f7xx_hal_dma.c ****   
1087:Drivers/STM32F7xx_HAL_Driver/Src/stm32f7xx_hal_dma.c ****   return status;
1088:Drivers/STM32F7xx_HAL_Driver/Src/stm32f7xx_hal_dma.c **** }
1089:Drivers/STM32F7xx_HAL_Driver/Src/stm32f7xx_hal_dma.c **** 
1090:Drivers/STM32F7xx_HAL_Driver/Src/stm32f7xx_hal_dma.c **** /**
1091:Drivers/STM32F7xx_HAL_Driver/Src/stm32f7xx_hal_dma.c ****   * @}
1092:Drivers/STM32F7xx_HAL_Driver/Src/stm32f7xx_hal_dma.c ****   */
1093:Drivers/STM32F7xx_HAL_Driver/Src/stm32f7xx_hal_dma.c **** 
1094:Drivers/STM32F7xx_HAL_Driver/Src/stm32f7xx_hal_dma.c **** /** @addtogroup DMA_Exported_Functions_Group3
1095:Drivers/STM32F7xx_HAL_Driver/Src/stm32f7xx_hal_dma.c ****   *
1096:Drivers/STM32F7xx_HAL_Driver/Src/stm32f7xx_hal_dma.c **** @verbatim
1097:Drivers/STM32F7xx_HAL_Driver/Src/stm32f7xx_hal_dma.c ****  ===============================================================================
1098:Drivers/STM32F7xx_HAL_Driver/Src/stm32f7xx_hal_dma.c ****                     ##### State and Errors functions #####
1099:Drivers/STM32F7xx_HAL_Driver/Src/stm32f7xx_hal_dma.c ****  ===============================================================================
1100:Drivers/STM32F7xx_HAL_Driver/Src/stm32f7xx_hal_dma.c ****     [..]
1101:Drivers/STM32F7xx_HAL_Driver/Src/stm32f7xx_hal_dma.c ****     This subsection provides functions allowing to
1102:Drivers/STM32F7xx_HAL_Driver/Src/stm32f7xx_hal_dma.c ****       (+) Check the DMA state
1103:Drivers/STM32F7xx_HAL_Driver/Src/stm32f7xx_hal_dma.c ****       (+) Get error code
1104:Drivers/STM32F7xx_HAL_Driver/Src/stm32f7xx_hal_dma.c **** 
1105:Drivers/STM32F7xx_HAL_Driver/Src/stm32f7xx_hal_dma.c **** @endverbatim
1106:Drivers/STM32F7xx_HAL_Driver/Src/stm32f7xx_hal_dma.c ****   * @{
1107:Drivers/STM32F7xx_HAL_Driver/Src/stm32f7xx_hal_dma.c ****   */
1108:Drivers/STM32F7xx_HAL_Driver/Src/stm32f7xx_hal_dma.c **** 
1109:Drivers/STM32F7xx_HAL_Driver/Src/stm32f7xx_hal_dma.c **** /**
1110:Drivers/STM32F7xx_HAL_Driver/Src/stm32f7xx_hal_dma.c ****   * @brief  Returns the DMA state.
1111:Drivers/STM32F7xx_HAL_Driver/Src/stm32f7xx_hal_dma.c ****   * @param  hdma pointer to a DMA_HandleTypeDef structure that contains
1112:Drivers/STM32F7xx_HAL_Driver/Src/stm32f7xx_hal_dma.c ****   *               the configuration information for the specified DMA Stream.
1113:Drivers/STM32F7xx_HAL_Driver/Src/stm32f7xx_hal_dma.c ****   * @retval HAL state
ARM GAS  /tmp/ccdAZlHn.s 			page 21


1114:Drivers/STM32F7xx_HAL_Driver/Src/stm32f7xx_hal_dma.c ****   */
1115:Drivers/STM32F7xx_HAL_Driver/Src/stm32f7xx_hal_dma.c **** HAL_DMA_StateTypeDef HAL_DMA_GetState(DMA_HandleTypeDef *hdma)
1116:Drivers/STM32F7xx_HAL_Driver/Src/stm32f7xx_hal_dma.c **** {
1117:Drivers/STM32F7xx_HAL_Driver/Src/stm32f7xx_hal_dma.c ****   return hdma->State;
1118:Drivers/STM32F7xx_HAL_Driver/Src/stm32f7xx_hal_dma.c **** }
1119:Drivers/STM32F7xx_HAL_Driver/Src/stm32f7xx_hal_dma.c **** 
1120:Drivers/STM32F7xx_HAL_Driver/Src/stm32f7xx_hal_dma.c **** /**
1121:Drivers/STM32F7xx_HAL_Driver/Src/stm32f7xx_hal_dma.c ****   * @brief  Return the DMA error code
1122:Drivers/STM32F7xx_HAL_Driver/Src/stm32f7xx_hal_dma.c ****   * @param  hdma  pointer to a DMA_HandleTypeDef structure that contains
1123:Drivers/STM32F7xx_HAL_Driver/Src/stm32f7xx_hal_dma.c ****   *              the configuration information for the specified DMA Stream.
1124:Drivers/STM32F7xx_HAL_Driver/Src/stm32f7xx_hal_dma.c ****   * @retval DMA Error Code
1125:Drivers/STM32F7xx_HAL_Driver/Src/stm32f7xx_hal_dma.c ****   */
1126:Drivers/STM32F7xx_HAL_Driver/Src/stm32f7xx_hal_dma.c **** uint32_t HAL_DMA_GetError(DMA_HandleTypeDef *hdma)
1127:Drivers/STM32F7xx_HAL_Driver/Src/stm32f7xx_hal_dma.c **** {
1128:Drivers/STM32F7xx_HAL_Driver/Src/stm32f7xx_hal_dma.c ****   return hdma->ErrorCode;
1129:Drivers/STM32F7xx_HAL_Driver/Src/stm32f7xx_hal_dma.c **** }
1130:Drivers/STM32F7xx_HAL_Driver/Src/stm32f7xx_hal_dma.c **** 
1131:Drivers/STM32F7xx_HAL_Driver/Src/stm32f7xx_hal_dma.c **** /**
1132:Drivers/STM32F7xx_HAL_Driver/Src/stm32f7xx_hal_dma.c ****   * @}
1133:Drivers/STM32F7xx_HAL_Driver/Src/stm32f7xx_hal_dma.c ****   */
1134:Drivers/STM32F7xx_HAL_Driver/Src/stm32f7xx_hal_dma.c **** 
1135:Drivers/STM32F7xx_HAL_Driver/Src/stm32f7xx_hal_dma.c **** /**
1136:Drivers/STM32F7xx_HAL_Driver/Src/stm32f7xx_hal_dma.c ****   * @}
1137:Drivers/STM32F7xx_HAL_Driver/Src/stm32f7xx_hal_dma.c ****   */
1138:Drivers/STM32F7xx_HAL_Driver/Src/stm32f7xx_hal_dma.c **** 
1139:Drivers/STM32F7xx_HAL_Driver/Src/stm32f7xx_hal_dma.c **** /** @addtogroup DMA_Private_Functions
1140:Drivers/STM32F7xx_HAL_Driver/Src/stm32f7xx_hal_dma.c ****   * @{
1141:Drivers/STM32F7xx_HAL_Driver/Src/stm32f7xx_hal_dma.c ****   */
1142:Drivers/STM32F7xx_HAL_Driver/Src/stm32f7xx_hal_dma.c **** 
1143:Drivers/STM32F7xx_HAL_Driver/Src/stm32f7xx_hal_dma.c **** /**
1144:Drivers/STM32F7xx_HAL_Driver/Src/stm32f7xx_hal_dma.c ****   * @brief  Sets the DMA Transfer parameter.
1145:Drivers/STM32F7xx_HAL_Driver/Src/stm32f7xx_hal_dma.c ****   * @param  hdma       pointer to a DMA_HandleTypeDef structure that contains
1146:Drivers/STM32F7xx_HAL_Driver/Src/stm32f7xx_hal_dma.c ****   *                     the configuration information for the specified DMA Stream.
1147:Drivers/STM32F7xx_HAL_Driver/Src/stm32f7xx_hal_dma.c ****   * @param  SrcAddress The source memory Buffer address
1148:Drivers/STM32F7xx_HAL_Driver/Src/stm32f7xx_hal_dma.c ****   * @param  DstAddress The destination memory Buffer address
1149:Drivers/STM32F7xx_HAL_Driver/Src/stm32f7xx_hal_dma.c ****   * @param  DataLength The length of data to be transferred from source to destination
1150:Drivers/STM32F7xx_HAL_Driver/Src/stm32f7xx_hal_dma.c ****   * @retval HAL status
1151:Drivers/STM32F7xx_HAL_Driver/Src/stm32f7xx_hal_dma.c ****   */
1152:Drivers/STM32F7xx_HAL_Driver/Src/stm32f7xx_hal_dma.c **** static void DMA_SetConfig(DMA_HandleTypeDef *hdma, uint32_t SrcAddress, uint32_t DstAddress, uint32
1153:Drivers/STM32F7xx_HAL_Driver/Src/stm32f7xx_hal_dma.c **** {
  29              		.loc 1 1153 1 view -0
  30              		.cfi_startproc
  31              		@ args = 0, pretend = 0, frame = 0
  32              		@ frame_needed = 0, uses_anonymous_args = 0
  33              		@ link register save eliminated.
  34              		.loc 1 1153 1 is_stmt 0 view .LVU1
  35 0000 30B4     		push	{r4, r5}
  36              	.LCFI0:
  37              		.cfi_def_cfa_offset 8
  38              		.cfi_offset 4, -8
  39              		.cfi_offset 5, -4
1154:Drivers/STM32F7xx_HAL_Driver/Src/stm32f7xx_hal_dma.c ****   /* Clear DBM bit */
1155:Drivers/STM32F7xx_HAL_Driver/Src/stm32f7xx_hal_dma.c ****   hdma->Instance->CR &= (uint32_t)(~DMA_SxCR_DBM);
  40              		.loc 1 1155 3 is_stmt 1 view .LVU2
  41              		.loc 1 1155 7 is_stmt 0 view .LVU3
  42 0002 0568     		ldr	r5, [r0]
  43              		.loc 1 1155 22 view .LVU4
ARM GAS  /tmp/ccdAZlHn.s 			page 22


  44 0004 2C68     		ldr	r4, [r5]
  45 0006 24F48024 		bic	r4, r4, #262144
  46 000a 2C60     		str	r4, [r5]
1156:Drivers/STM32F7xx_HAL_Driver/Src/stm32f7xx_hal_dma.c **** 
1157:Drivers/STM32F7xx_HAL_Driver/Src/stm32f7xx_hal_dma.c ****   /* Configure DMA Stream data length */
1158:Drivers/STM32F7xx_HAL_Driver/Src/stm32f7xx_hal_dma.c ****   hdma->Instance->NDTR = DataLength;
  47              		.loc 1 1158 3 is_stmt 1 view .LVU5
  48              		.loc 1 1158 7 is_stmt 0 view .LVU6
  49 000c 0468     		ldr	r4, [r0]
  50              		.loc 1 1158 24 view .LVU7
  51 000e 6360     		str	r3, [r4, #4]
1159:Drivers/STM32F7xx_HAL_Driver/Src/stm32f7xx_hal_dma.c **** 
1160:Drivers/STM32F7xx_HAL_Driver/Src/stm32f7xx_hal_dma.c ****   /* Memory to Peripheral */
1161:Drivers/STM32F7xx_HAL_Driver/Src/stm32f7xx_hal_dma.c ****   if((hdma->Init.Direction) == DMA_MEMORY_TO_PERIPH)
  52              		.loc 1 1161 3 is_stmt 1 view .LVU8
  53              		.loc 1 1161 17 is_stmt 0 view .LVU9
  54 0010 8368     		ldr	r3, [r0, #8]
  55              	.LVL1:
  56              		.loc 1 1161 5 view .LVU10
  57 0012 402B     		cmp	r3, #64
  58 0014 05D0     		beq	.L5
1162:Drivers/STM32F7xx_HAL_Driver/Src/stm32f7xx_hal_dma.c ****   {
1163:Drivers/STM32F7xx_HAL_Driver/Src/stm32f7xx_hal_dma.c ****     /* Configure DMA Stream destination address */
1164:Drivers/STM32F7xx_HAL_Driver/Src/stm32f7xx_hal_dma.c ****     hdma->Instance->PAR = DstAddress;
1165:Drivers/STM32F7xx_HAL_Driver/Src/stm32f7xx_hal_dma.c **** 
1166:Drivers/STM32F7xx_HAL_Driver/Src/stm32f7xx_hal_dma.c ****     /* Configure DMA Stream source address */
1167:Drivers/STM32F7xx_HAL_Driver/Src/stm32f7xx_hal_dma.c ****     hdma->Instance->M0AR = SrcAddress;
1168:Drivers/STM32F7xx_HAL_Driver/Src/stm32f7xx_hal_dma.c ****   }
1169:Drivers/STM32F7xx_HAL_Driver/Src/stm32f7xx_hal_dma.c ****   /* Peripheral to Memory */
1170:Drivers/STM32F7xx_HAL_Driver/Src/stm32f7xx_hal_dma.c ****   else
1171:Drivers/STM32F7xx_HAL_Driver/Src/stm32f7xx_hal_dma.c ****   {
1172:Drivers/STM32F7xx_HAL_Driver/Src/stm32f7xx_hal_dma.c ****     /* Configure DMA Stream source address */
1173:Drivers/STM32F7xx_HAL_Driver/Src/stm32f7xx_hal_dma.c ****     hdma->Instance->PAR = SrcAddress;
  59              		.loc 1 1173 5 is_stmt 1 view .LVU11
  60              		.loc 1 1173 9 is_stmt 0 view .LVU12
  61 0016 0368     		ldr	r3, [r0]
  62              		.loc 1 1173 25 view .LVU13
  63 0018 9960     		str	r1, [r3, #8]
  64              	.LVL2:
1174:Drivers/STM32F7xx_HAL_Driver/Src/stm32f7xx_hal_dma.c **** 
1175:Drivers/STM32F7xx_HAL_Driver/Src/stm32f7xx_hal_dma.c ****     /* Configure DMA Stream destination address */
1176:Drivers/STM32F7xx_HAL_Driver/Src/stm32f7xx_hal_dma.c ****     hdma->Instance->M0AR = DstAddress;
  65              		.loc 1 1176 5 is_stmt 1 view .LVU14
  66              		.loc 1 1176 9 is_stmt 0 view .LVU15
  67 001a 0368     		ldr	r3, [r0]
  68              		.loc 1 1176 26 view .LVU16
  69 001c DA60     		str	r2, [r3, #12]
  70              	.L1:
1177:Drivers/STM32F7xx_HAL_Driver/Src/stm32f7xx_hal_dma.c ****   }
1178:Drivers/STM32F7xx_HAL_Driver/Src/stm32f7xx_hal_dma.c **** }
  71              		.loc 1 1178 1 view .LVU17
  72 001e 30BC     		pop	{r4, r5}
  73              	.LCFI1:
  74              		.cfi_remember_state
  75              		.cfi_restore 5
  76              		.cfi_restore 4
  77              		.cfi_def_cfa_offset 0
ARM GAS  /tmp/ccdAZlHn.s 			page 23


  78 0020 7047     		bx	lr
  79              	.LVL3:
  80              	.L5:
  81              	.LCFI2:
  82              		.cfi_restore_state
1164:Drivers/STM32F7xx_HAL_Driver/Src/stm32f7xx_hal_dma.c **** 
  83              		.loc 1 1164 5 is_stmt 1 view .LVU18
1164:Drivers/STM32F7xx_HAL_Driver/Src/stm32f7xx_hal_dma.c **** 
  84              		.loc 1 1164 9 is_stmt 0 view .LVU19
  85 0022 0368     		ldr	r3, [r0]
1164:Drivers/STM32F7xx_HAL_Driver/Src/stm32f7xx_hal_dma.c **** 
  86              		.loc 1 1164 25 view .LVU20
  87 0024 9A60     		str	r2, [r3, #8]
  88              	.LVL4:
1167:Drivers/STM32F7xx_HAL_Driver/Src/stm32f7xx_hal_dma.c ****   }
  89              		.loc 1 1167 5 is_stmt 1 view .LVU21
1167:Drivers/STM32F7xx_HAL_Driver/Src/stm32f7xx_hal_dma.c ****   }
  90              		.loc 1 1167 9 is_stmt 0 view .LVU22
  91 0026 0368     		ldr	r3, [r0]
1167:Drivers/STM32F7xx_HAL_Driver/Src/stm32f7xx_hal_dma.c ****   }
  92              		.loc 1 1167 26 view .LVU23
  93 0028 D960     		str	r1, [r3, #12]
  94 002a F8E7     		b	.L1
  95              		.cfi_endproc
  96              	.LFE153:
  98              		.section	.text.DMA_CalcBaseAndBitshift,"ax",%progbits
  99              		.align	1
 100              		.syntax unified
 101              		.thumb
 102              		.thumb_func
 103              		.fpu fpv5-sp-d16
 105              	DMA_CalcBaseAndBitshift:
 106              	.LVL5:
 107              	.LFB154:
1179:Drivers/STM32F7xx_HAL_Driver/Src/stm32f7xx_hal_dma.c **** 
1180:Drivers/STM32F7xx_HAL_Driver/Src/stm32f7xx_hal_dma.c **** /**
1181:Drivers/STM32F7xx_HAL_Driver/Src/stm32f7xx_hal_dma.c ****   * @brief  Returns the DMA Stream base address depending on stream number
1182:Drivers/STM32F7xx_HAL_Driver/Src/stm32f7xx_hal_dma.c ****   * @param  hdma       pointer to a DMA_HandleTypeDef structure that contains
1183:Drivers/STM32F7xx_HAL_Driver/Src/stm32f7xx_hal_dma.c ****   *                     the configuration information for the specified DMA Stream. 
1184:Drivers/STM32F7xx_HAL_Driver/Src/stm32f7xx_hal_dma.c ****   * @retval Stream base address
1185:Drivers/STM32F7xx_HAL_Driver/Src/stm32f7xx_hal_dma.c ****   */
1186:Drivers/STM32F7xx_HAL_Driver/Src/stm32f7xx_hal_dma.c **** static uint32_t DMA_CalcBaseAndBitshift(DMA_HandleTypeDef *hdma)
1187:Drivers/STM32F7xx_HAL_Driver/Src/stm32f7xx_hal_dma.c **** {
 108              		.loc 1 1187 1 is_stmt 1 view -0
 109              		.cfi_startproc
 110              		@ args = 0, pretend = 0, frame = 0
 111              		@ frame_needed = 0, uses_anonymous_args = 0
 112              		@ link register save eliminated.
 113              		.loc 1 1187 1 is_stmt 0 view .LVU25
 114 0000 10B4     		push	{r4}
 115              	.LCFI3:
 116              		.cfi_def_cfa_offset 4
 117              		.cfi_offset 4, -4
1188:Drivers/STM32F7xx_HAL_Driver/Src/stm32f7xx_hal_dma.c ****   uint32_t stream_number = (((uint32_t)hdma->Instance & 0xFFU) - 16U) / 24U;
 118              		.loc 1 1188 3 is_stmt 1 view .LVU26
 119              		.loc 1 1188 44 is_stmt 0 view .LVU27
 120 0002 0168     		ldr	r1, [r0]
ARM GAS  /tmp/ccdAZlHn.s 			page 24


 121              		.loc 1 1188 55 view .LVU28
 122 0004 CAB2     		uxtb	r2, r1
 123              		.loc 1 1188 64 view .LVU29
 124 0006 103A     		subs	r2, r2, #16
 125              		.loc 1 1188 12 view .LVU30
 126 0008 0A4B     		ldr	r3, .L10
 127 000a A3FB0243 		umull	r4, r3, r3, r2
 128 000e 1B09     		lsrs	r3, r3, #4
 129              	.LVL6:
1189:Drivers/STM32F7xx_HAL_Driver/Src/stm32f7xx_hal_dma.c ****   
1190:Drivers/STM32F7xx_HAL_Driver/Src/stm32f7xx_hal_dma.c ****   /* lookup table for necessary bitshift of flags within status registers */
1191:Drivers/STM32F7xx_HAL_Driver/Src/stm32f7xx_hal_dma.c ****   static const uint8_t flagBitshiftOffset[8U] = {0U, 6U, 16U, 22U, 0U, 6U, 16U, 22U};
 130              		.loc 1 1191 3 is_stmt 1 view .LVU31
1192:Drivers/STM32F7xx_HAL_Driver/Src/stm32f7xx_hal_dma.c ****   hdma->StreamIndex = flagBitshiftOffset[stream_number];
 131              		.loc 1 1192 3 view .LVU32
 132              		.loc 1 1192 41 is_stmt 0 view .LVU33
 133 0010 094C     		ldr	r4, .L10+4
 134 0012 E35C     		ldrb	r3, [r4, r3]	@ zero_extendqisi2
 135              	.LVL7:
 136              		.loc 1 1192 21 view .LVU34
 137 0014 C365     		str	r3, [r0, #92]
1193:Drivers/STM32F7xx_HAL_Driver/Src/stm32f7xx_hal_dma.c ****   
1194:Drivers/STM32F7xx_HAL_Driver/Src/stm32f7xx_hal_dma.c ****   if (stream_number > 3U)
 138              		.loc 1 1194 3 is_stmt 1 view .LVU35
 139              		.loc 1 1194 6 is_stmt 0 view .LVU36
 140 0016 5F2A     		cmp	r2, #95
 141 0018 07D9     		bls	.L7
1195:Drivers/STM32F7xx_HAL_Driver/Src/stm32f7xx_hal_dma.c ****   {
1196:Drivers/STM32F7xx_HAL_Driver/Src/stm32f7xx_hal_dma.c ****     /* return pointer to HISR and HIFCR */
1197:Drivers/STM32F7xx_HAL_Driver/Src/stm32f7xx_hal_dma.c ****     hdma->StreamBaseAddress = (((uint32_t)hdma->Instance & (uint32_t)(~0x3FFU)) + 4U);
 142              		.loc 1 1197 5 is_stmt 1 view .LVU37
 143              		.loc 1 1197 58 is_stmt 0 view .LVU38
 144 001a 084B     		ldr	r3, .L10+8
 145 001c 0B40     		ands	r3, r3, r1
 146              		.loc 1 1197 81 view .LVU39
 147 001e 0433     		adds	r3, r3, #4
 148              		.loc 1 1197 29 view .LVU40
 149 0020 8365     		str	r3, [r0, #88]
 150              	.L8:
1198:Drivers/STM32F7xx_HAL_Driver/Src/stm32f7xx_hal_dma.c ****   }
1199:Drivers/STM32F7xx_HAL_Driver/Src/stm32f7xx_hal_dma.c ****   else
1200:Drivers/STM32F7xx_HAL_Driver/Src/stm32f7xx_hal_dma.c ****   {
1201:Drivers/STM32F7xx_HAL_Driver/Src/stm32f7xx_hal_dma.c ****     /* return pointer to LISR and LIFCR */
1202:Drivers/STM32F7xx_HAL_Driver/Src/stm32f7xx_hal_dma.c ****     hdma->StreamBaseAddress = ((uint32_t)hdma->Instance & (uint32_t)(~0x3FFU));
1203:Drivers/STM32F7xx_HAL_Driver/Src/stm32f7xx_hal_dma.c ****   }
1204:Drivers/STM32F7xx_HAL_Driver/Src/stm32f7xx_hal_dma.c ****   
1205:Drivers/STM32F7xx_HAL_Driver/Src/stm32f7xx_hal_dma.c ****   return hdma->StreamBaseAddress;
 151              		.loc 1 1205 3 is_stmt 1 view .LVU41
1206:Drivers/STM32F7xx_HAL_Driver/Src/stm32f7xx_hal_dma.c **** }
 152              		.loc 1 1206 1 is_stmt 0 view .LVU42
 153 0022 806D     		ldr	r0, [r0, #88]
 154              	.LVL8:
 155              		.loc 1 1206 1 view .LVU43
 156 0024 5DF8044B 		ldr	r4, [sp], #4
 157              	.LCFI4:
 158              		.cfi_remember_state
 159              		.cfi_restore 4
ARM GAS  /tmp/ccdAZlHn.s 			page 25


 160              		.cfi_def_cfa_offset 0
 161 0028 7047     		bx	lr
 162              	.LVL9:
 163              	.L7:
 164              	.LCFI5:
 165              		.cfi_restore_state
1202:Drivers/STM32F7xx_HAL_Driver/Src/stm32f7xx_hal_dma.c ****   }
 166              		.loc 1 1202 5 is_stmt 1 view .LVU44
1202:Drivers/STM32F7xx_HAL_Driver/Src/stm32f7xx_hal_dma.c ****   }
 167              		.loc 1 1202 57 is_stmt 0 view .LVU45
 168 002a 044B     		ldr	r3, .L10+8
 169 002c 0B40     		ands	r3, r3, r1
1202:Drivers/STM32F7xx_HAL_Driver/Src/stm32f7xx_hal_dma.c ****   }
 170              		.loc 1 1202 29 view .LVU46
 171 002e 8365     		str	r3, [r0, #88]
 172 0030 F7E7     		b	.L8
 173              	.L11:
 174 0032 00BF     		.align	2
 175              	.L10:
 176 0034 ABAAAAAA 		.word	-1431655765
 177 0038 00000000 		.word	.LANCHOR0
 178 003c 00FCFFFF 		.word	-1024
 179              		.cfi_endproc
 180              	.LFE154:
 182              		.section	.text.DMA_CheckFifoParam,"ax",%progbits
 183              		.align	1
 184              		.syntax unified
 185              		.thumb
 186              		.thumb_func
 187              		.fpu fpv5-sp-d16
 189              	DMA_CheckFifoParam:
 190              	.LVL10:
 191              	.LFB155:
1207:Drivers/STM32F7xx_HAL_Driver/Src/stm32f7xx_hal_dma.c **** 
1208:Drivers/STM32F7xx_HAL_Driver/Src/stm32f7xx_hal_dma.c **** /**
1209:Drivers/STM32F7xx_HAL_Driver/Src/stm32f7xx_hal_dma.c ****   * @brief  Check compatibility between FIFO threshold level and size of the memory burst
1210:Drivers/STM32F7xx_HAL_Driver/Src/stm32f7xx_hal_dma.c ****   * @param  hdma       pointer to a DMA_HandleTypeDef structure that contains
1211:Drivers/STM32F7xx_HAL_Driver/Src/stm32f7xx_hal_dma.c ****   *                     the configuration information for the specified DMA Stream. 
1212:Drivers/STM32F7xx_HAL_Driver/Src/stm32f7xx_hal_dma.c ****   * @retval HAL status
1213:Drivers/STM32F7xx_HAL_Driver/Src/stm32f7xx_hal_dma.c ****   */
1214:Drivers/STM32F7xx_HAL_Driver/Src/stm32f7xx_hal_dma.c **** static HAL_StatusTypeDef DMA_CheckFifoParam(DMA_HandleTypeDef *hdma)
1215:Drivers/STM32F7xx_HAL_Driver/Src/stm32f7xx_hal_dma.c **** {
 192              		.loc 1 1215 1 is_stmt 1 view -0
 193              		.cfi_startproc
 194              		@ args = 0, pretend = 0, frame = 0
 195              		@ frame_needed = 0, uses_anonymous_args = 0
 196              		@ link register save eliminated.
1216:Drivers/STM32F7xx_HAL_Driver/Src/stm32f7xx_hal_dma.c ****   HAL_StatusTypeDef status = HAL_OK;
 197              		.loc 1 1216 3 view .LVU48
1217:Drivers/STM32F7xx_HAL_Driver/Src/stm32f7xx_hal_dma.c ****   uint32_t tmp = hdma->Init.FIFOThreshold;
 198              		.loc 1 1217 3 view .LVU49
 199              		.loc 1 1217 12 is_stmt 0 view .LVU50
 200 0000 836A     		ldr	r3, [r0, #40]
 201              	.LVL11:
1218:Drivers/STM32F7xx_HAL_Driver/Src/stm32f7xx_hal_dma.c ****   
1219:Drivers/STM32F7xx_HAL_Driver/Src/stm32f7xx_hal_dma.c ****   /* Memory Data size equal to Byte */
1220:Drivers/STM32F7xx_HAL_Driver/Src/stm32f7xx_hal_dma.c ****   if(hdma->Init.MemDataAlignment == DMA_MDATAALIGN_BYTE)
ARM GAS  /tmp/ccdAZlHn.s 			page 26


 202              		.loc 1 1220 3 is_stmt 1 view .LVU51
 203              		.loc 1 1220 16 is_stmt 0 view .LVU52
 204 0002 8269     		ldr	r2, [r0, #24]
 205              		.loc 1 1220 5 view .LVU53
 206 0004 92B9     		cbnz	r2, .L13
1221:Drivers/STM32F7xx_HAL_Driver/Src/stm32f7xx_hal_dma.c ****   {
1222:Drivers/STM32F7xx_HAL_Driver/Src/stm32f7xx_hal_dma.c ****     switch (tmp)
 207              		.loc 1 1222 5 is_stmt 1 view .LVU54
 208 0006 012B     		cmp	r3, #1
 209 0008 0AD0     		beq	.L14
 210 000a 022B     		cmp	r3, #2
 211 000c 02D0     		beq	.L15
 212 000e 0BB1     		cbz	r3, .L15
 213 0010 0020     		movs	r0, #0
 214              	.LVL12:
 215              		.loc 1 1222 5 is_stmt 0 view .LVU55
 216 0012 7047     		bx	lr
 217              	.LVL13:
 218              	.L15:
1223:Drivers/STM32F7xx_HAL_Driver/Src/stm32f7xx_hal_dma.c ****     {
1224:Drivers/STM32F7xx_HAL_Driver/Src/stm32f7xx_hal_dma.c ****     case DMA_FIFO_THRESHOLD_1QUARTERFULL:
1225:Drivers/STM32F7xx_HAL_Driver/Src/stm32f7xx_hal_dma.c ****     case DMA_FIFO_THRESHOLD_3QUARTERSFULL:
1226:Drivers/STM32F7xx_HAL_Driver/Src/stm32f7xx_hal_dma.c ****       if ((hdma->Init.MemBurst & DMA_SxCR_MBURST_1) == DMA_SxCR_MBURST_1)
 219              		.loc 1 1226 7 is_stmt 1 view .LVU56
 220              		.loc 1 1226 22 is_stmt 0 view .LVU57
 221 0014 C36A     		ldr	r3, [r0, #44]
 222              	.LVL14:
 223              		.loc 1 1226 10 view .LVU58
 224 0016 13F0807F 		tst	r3, #16777216
 225 001a 28D1     		bne	.L23
1216:Drivers/STM32F7xx_HAL_Driver/Src/stm32f7xx_hal_dma.c ****   uint32_t tmp = hdma->Init.FIFOThreshold;
 226              		.loc 1 1216 21 view .LVU59
 227 001c 0020     		movs	r0, #0
 228              	.LVL15:
1216:Drivers/STM32F7xx_HAL_Driver/Src/stm32f7xx_hal_dma.c ****   uint32_t tmp = hdma->Init.FIFOThreshold;
 229              		.loc 1 1216 21 view .LVU60
 230 001e 7047     		bx	lr
 231              	.LVL16:
 232              	.L14:
1227:Drivers/STM32F7xx_HAL_Driver/Src/stm32f7xx_hal_dma.c ****       {
1228:Drivers/STM32F7xx_HAL_Driver/Src/stm32f7xx_hal_dma.c ****         status = HAL_ERROR;
1229:Drivers/STM32F7xx_HAL_Driver/Src/stm32f7xx_hal_dma.c ****       }
1230:Drivers/STM32F7xx_HAL_Driver/Src/stm32f7xx_hal_dma.c ****       break;
1231:Drivers/STM32F7xx_HAL_Driver/Src/stm32f7xx_hal_dma.c ****     case DMA_FIFO_THRESHOLD_HALFFULL:
1232:Drivers/STM32F7xx_HAL_Driver/Src/stm32f7xx_hal_dma.c ****       if (hdma->Init.MemBurst == DMA_MBURST_INC16)
 233              		.loc 1 1232 7 is_stmt 1 view .LVU61
 234              		.loc 1 1232 21 is_stmt 0 view .LVU62
 235 0020 C36A     		ldr	r3, [r0, #44]
 236              	.LVL17:
 237              		.loc 1 1232 10 view .LVU63
 238 0022 B3F1C07F 		cmp	r3, #25165824
 239 0026 24D0     		beq	.L24
1216:Drivers/STM32F7xx_HAL_Driver/Src/stm32f7xx_hal_dma.c ****   uint32_t tmp = hdma->Init.FIFOThreshold;
 240              		.loc 1 1216 21 view .LVU64
 241 0028 0020     		movs	r0, #0
 242              	.LVL18:
1216:Drivers/STM32F7xx_HAL_Driver/Src/stm32f7xx_hal_dma.c ****   uint32_t tmp = hdma->Init.FIFOThreshold;
ARM GAS  /tmp/ccdAZlHn.s 			page 27


 243              		.loc 1 1216 21 view .LVU65
 244 002a 7047     		bx	lr
 245              	.LVL19:
 246              	.L13:
1233:Drivers/STM32F7xx_HAL_Driver/Src/stm32f7xx_hal_dma.c ****       {
1234:Drivers/STM32F7xx_HAL_Driver/Src/stm32f7xx_hal_dma.c ****         status = HAL_ERROR;
1235:Drivers/STM32F7xx_HAL_Driver/Src/stm32f7xx_hal_dma.c ****       }
1236:Drivers/STM32F7xx_HAL_Driver/Src/stm32f7xx_hal_dma.c ****       break;
1237:Drivers/STM32F7xx_HAL_Driver/Src/stm32f7xx_hal_dma.c ****     case DMA_FIFO_THRESHOLD_FULL:
1238:Drivers/STM32F7xx_HAL_Driver/Src/stm32f7xx_hal_dma.c ****       break;
1239:Drivers/STM32F7xx_HAL_Driver/Src/stm32f7xx_hal_dma.c ****     default:
1240:Drivers/STM32F7xx_HAL_Driver/Src/stm32f7xx_hal_dma.c ****       break;
1241:Drivers/STM32F7xx_HAL_Driver/Src/stm32f7xx_hal_dma.c ****     }
1242:Drivers/STM32F7xx_HAL_Driver/Src/stm32f7xx_hal_dma.c ****   }
1243:Drivers/STM32F7xx_HAL_Driver/Src/stm32f7xx_hal_dma.c ****   
1244:Drivers/STM32F7xx_HAL_Driver/Src/stm32f7xx_hal_dma.c ****   /* Memory Data size equal to Half-Word */
1245:Drivers/STM32F7xx_HAL_Driver/Src/stm32f7xx_hal_dma.c ****   else if (hdma->Init.MemDataAlignment == DMA_MDATAALIGN_HALFWORD)
 247              		.loc 1 1245 8 is_stmt 1 view .LVU66
 248              		.loc 1 1245 11 is_stmt 0 view .LVU67
 249 002c B2F5005F 		cmp	r2, #8192
 250 0030 09D0     		beq	.L31
1246:Drivers/STM32F7xx_HAL_Driver/Src/stm32f7xx_hal_dma.c ****   {
1247:Drivers/STM32F7xx_HAL_Driver/Src/stm32f7xx_hal_dma.c ****     switch (tmp)
1248:Drivers/STM32F7xx_HAL_Driver/Src/stm32f7xx_hal_dma.c ****     {
1249:Drivers/STM32F7xx_HAL_Driver/Src/stm32f7xx_hal_dma.c ****     case DMA_FIFO_THRESHOLD_1QUARTERFULL:
1250:Drivers/STM32F7xx_HAL_Driver/Src/stm32f7xx_hal_dma.c ****     case DMA_FIFO_THRESHOLD_3QUARTERSFULL:
1251:Drivers/STM32F7xx_HAL_Driver/Src/stm32f7xx_hal_dma.c ****       status = HAL_ERROR;
1252:Drivers/STM32F7xx_HAL_Driver/Src/stm32f7xx_hal_dma.c ****       break;
1253:Drivers/STM32F7xx_HAL_Driver/Src/stm32f7xx_hal_dma.c ****     case DMA_FIFO_THRESHOLD_HALFFULL:
1254:Drivers/STM32F7xx_HAL_Driver/Src/stm32f7xx_hal_dma.c ****       if ((hdma->Init.MemBurst & DMA_SxCR_MBURST_1) == DMA_SxCR_MBURST_1)
1255:Drivers/STM32F7xx_HAL_Driver/Src/stm32f7xx_hal_dma.c ****       {
1256:Drivers/STM32F7xx_HAL_Driver/Src/stm32f7xx_hal_dma.c ****         status = HAL_ERROR;
1257:Drivers/STM32F7xx_HAL_Driver/Src/stm32f7xx_hal_dma.c ****       }
1258:Drivers/STM32F7xx_HAL_Driver/Src/stm32f7xx_hal_dma.c ****       break;
1259:Drivers/STM32F7xx_HAL_Driver/Src/stm32f7xx_hal_dma.c ****     case DMA_FIFO_THRESHOLD_FULL:
1260:Drivers/STM32F7xx_HAL_Driver/Src/stm32f7xx_hal_dma.c ****       if (hdma->Init.MemBurst == DMA_MBURST_INC16)
1261:Drivers/STM32F7xx_HAL_Driver/Src/stm32f7xx_hal_dma.c ****       {
1262:Drivers/STM32F7xx_HAL_Driver/Src/stm32f7xx_hal_dma.c ****         status = HAL_ERROR;
1263:Drivers/STM32F7xx_HAL_Driver/Src/stm32f7xx_hal_dma.c ****       }
1264:Drivers/STM32F7xx_HAL_Driver/Src/stm32f7xx_hal_dma.c ****       break;   
1265:Drivers/STM32F7xx_HAL_Driver/Src/stm32f7xx_hal_dma.c ****     default:
1266:Drivers/STM32F7xx_HAL_Driver/Src/stm32f7xx_hal_dma.c ****       break;
1267:Drivers/STM32F7xx_HAL_Driver/Src/stm32f7xx_hal_dma.c ****     }
1268:Drivers/STM32F7xx_HAL_Driver/Src/stm32f7xx_hal_dma.c ****   }
1269:Drivers/STM32F7xx_HAL_Driver/Src/stm32f7xx_hal_dma.c ****   
1270:Drivers/STM32F7xx_HAL_Driver/Src/stm32f7xx_hal_dma.c ****   /* Memory Data size equal to Word */
1271:Drivers/STM32F7xx_HAL_Driver/Src/stm32f7xx_hal_dma.c ****   else
1272:Drivers/STM32F7xx_HAL_Driver/Src/stm32f7xx_hal_dma.c ****   {
1273:Drivers/STM32F7xx_HAL_Driver/Src/stm32f7xx_hal_dma.c ****     switch (tmp)
 251              		.loc 1 1273 5 is_stmt 1 view .LVU68
 252 0032 022B     		cmp	r3, #2
 253 0034 25D9     		bls	.L28
 254 0036 032B     		cmp	r3, #3
 255 0038 25D1     		bne	.L29
1274:Drivers/STM32F7xx_HAL_Driver/Src/stm32f7xx_hal_dma.c ****     {
1275:Drivers/STM32F7xx_HAL_Driver/Src/stm32f7xx_hal_dma.c ****     case DMA_FIFO_THRESHOLD_1QUARTERFULL:
1276:Drivers/STM32F7xx_HAL_Driver/Src/stm32f7xx_hal_dma.c ****     case DMA_FIFO_THRESHOLD_HALFFULL:
ARM GAS  /tmp/ccdAZlHn.s 			page 28


1277:Drivers/STM32F7xx_HAL_Driver/Src/stm32f7xx_hal_dma.c ****     case DMA_FIFO_THRESHOLD_3QUARTERSFULL:
1278:Drivers/STM32F7xx_HAL_Driver/Src/stm32f7xx_hal_dma.c ****       status = HAL_ERROR;
1279:Drivers/STM32F7xx_HAL_Driver/Src/stm32f7xx_hal_dma.c ****       break;
1280:Drivers/STM32F7xx_HAL_Driver/Src/stm32f7xx_hal_dma.c ****     case DMA_FIFO_THRESHOLD_FULL:
1281:Drivers/STM32F7xx_HAL_Driver/Src/stm32f7xx_hal_dma.c ****       if ((hdma->Init.MemBurst & DMA_SxCR_MBURST_1) == DMA_SxCR_MBURST_1)
 256              		.loc 1 1281 7 view .LVU69
 257              		.loc 1 1281 22 is_stmt 0 view .LVU70
 258 003a C36A     		ldr	r3, [r0, #44]
 259              	.LVL20:
 260              		.loc 1 1281 10 view .LVU71
 261 003c 13F0807F 		tst	r3, #16777216
 262 0040 23D1     		bne	.L30
1216:Drivers/STM32F7xx_HAL_Driver/Src/stm32f7xx_hal_dma.c ****   uint32_t tmp = hdma->Init.FIFOThreshold;
 263              		.loc 1 1216 21 view .LVU72
 264 0042 0020     		movs	r0, #0
 265              	.LVL21:
1216:Drivers/STM32F7xx_HAL_Driver/Src/stm32f7xx_hal_dma.c ****   uint32_t tmp = hdma->Init.FIFOThreshold;
 266              		.loc 1 1216 21 view .LVU73
 267 0044 7047     		bx	lr
 268              	.LVL22:
 269              	.L31:
1247:Drivers/STM32F7xx_HAL_Driver/Src/stm32f7xx_hal_dma.c ****     {
 270              		.loc 1 1247 5 is_stmt 1 view .LVU74
 271 0046 032B     		cmp	r3, #3
 272 0048 03D8     		bhi	.L18
 273 004a DFE803F0 		tbb	[pc, r3]
 274              	.L20:
 275 004e 14       		.byte	(.L25-.L20)/2
 276 004f 04       		.byte	(.L21-.L20)/2
 277 0050 14       		.byte	(.L25-.L20)/2
 278 0051 0A       		.byte	(.L19-.L20)/2
 279              		.p2align 1
 280              	.L18:
1245:Drivers/STM32F7xx_HAL_Driver/Src/stm32f7xx_hal_dma.c ****   {
 281              		.loc 1 1245 11 is_stmt 0 view .LVU75
 282 0052 0020     		movs	r0, #0
 283              	.LVL23:
1245:Drivers/STM32F7xx_HAL_Driver/Src/stm32f7xx_hal_dma.c ****   {
 284              		.loc 1 1245 11 view .LVU76
 285 0054 7047     		bx	lr
 286              	.LVL24:
 287              	.L21:
1254:Drivers/STM32F7xx_HAL_Driver/Src/stm32f7xx_hal_dma.c ****       {
 288              		.loc 1 1254 7 is_stmt 1 view .LVU77
1254:Drivers/STM32F7xx_HAL_Driver/Src/stm32f7xx_hal_dma.c ****       {
 289              		.loc 1 1254 22 is_stmt 0 view .LVU78
 290 0056 C36A     		ldr	r3, [r0, #44]
 291              	.LVL25:
1254:Drivers/STM32F7xx_HAL_Driver/Src/stm32f7xx_hal_dma.c ****       {
 292              		.loc 1 1254 10 view .LVU79
 293 0058 13F0807F 		tst	r3, #16777216
 294 005c 0DD1     		bne	.L26
1216:Drivers/STM32F7xx_HAL_Driver/Src/stm32f7xx_hal_dma.c ****   uint32_t tmp = hdma->Init.FIFOThreshold;
 295              		.loc 1 1216 21 view .LVU80
 296 005e 0020     		movs	r0, #0
 297              	.LVL26:
1216:Drivers/STM32F7xx_HAL_Driver/Src/stm32f7xx_hal_dma.c ****   uint32_t tmp = hdma->Init.FIFOThreshold;
ARM GAS  /tmp/ccdAZlHn.s 			page 29


 298              		.loc 1 1216 21 view .LVU81
 299 0060 7047     		bx	lr
 300              	.LVL27:
 301              	.L19:
1260:Drivers/STM32F7xx_HAL_Driver/Src/stm32f7xx_hal_dma.c ****       {
 302              		.loc 1 1260 7 is_stmt 1 view .LVU82
1260:Drivers/STM32F7xx_HAL_Driver/Src/stm32f7xx_hal_dma.c ****       {
 303              		.loc 1 1260 21 is_stmt 0 view .LVU83
 304 0062 C36A     		ldr	r3, [r0, #44]
 305              	.LVL28:
1260:Drivers/STM32F7xx_HAL_Driver/Src/stm32f7xx_hal_dma.c ****       {
 306              		.loc 1 1260 10 view .LVU84
 307 0064 B3F1C07F 		cmp	r3, #25165824
 308 0068 09D0     		beq	.L27
1216:Drivers/STM32F7xx_HAL_Driver/Src/stm32f7xx_hal_dma.c ****   uint32_t tmp = hdma->Init.FIFOThreshold;
 309              		.loc 1 1216 21 view .LVU85
 310 006a 0020     		movs	r0, #0
 311              	.LVL29:
1216:Drivers/STM32F7xx_HAL_Driver/Src/stm32f7xx_hal_dma.c ****   uint32_t tmp = hdma->Init.FIFOThreshold;
 312              		.loc 1 1216 21 view .LVU86
 313 006c 7047     		bx	lr
 314              	.LVL30:
 315              	.L23:
1228:Drivers/STM32F7xx_HAL_Driver/Src/stm32f7xx_hal_dma.c ****       }
 316              		.loc 1 1228 16 view .LVU87
 317 006e 0120     		movs	r0, #1
 318              	.LVL31:
1228:Drivers/STM32F7xx_HAL_Driver/Src/stm32f7xx_hal_dma.c ****       }
 319              		.loc 1 1228 16 view .LVU88
 320 0070 7047     		bx	lr
 321              	.LVL32:
 322              	.L24:
1234:Drivers/STM32F7xx_HAL_Driver/Src/stm32f7xx_hal_dma.c ****       }
 323              		.loc 1 1234 16 view .LVU89
 324 0072 0120     		movs	r0, #1
 325              	.LVL33:
1234:Drivers/STM32F7xx_HAL_Driver/Src/stm32f7xx_hal_dma.c ****       }
 326              		.loc 1 1234 16 view .LVU90
 327 0074 7047     		bx	lr
 328              	.LVL34:
 329              	.L25:
1251:Drivers/STM32F7xx_HAL_Driver/Src/stm32f7xx_hal_dma.c ****       break;
 330              		.loc 1 1251 14 view .LVU91
 331 0076 0120     		movs	r0, #1
 332              	.LVL35:
1251:Drivers/STM32F7xx_HAL_Driver/Src/stm32f7xx_hal_dma.c ****       break;
 333              		.loc 1 1251 14 view .LVU92
 334 0078 7047     		bx	lr
 335              	.LVL36:
 336              	.L26:
1256:Drivers/STM32F7xx_HAL_Driver/Src/stm32f7xx_hal_dma.c ****       }
 337              		.loc 1 1256 16 view .LVU93
 338 007a 0120     		movs	r0, #1
 339              	.LVL37:
1256:Drivers/STM32F7xx_HAL_Driver/Src/stm32f7xx_hal_dma.c ****       }
 340              		.loc 1 1256 16 view .LVU94
 341 007c 7047     		bx	lr
ARM GAS  /tmp/ccdAZlHn.s 			page 30


 342              	.LVL38:
 343              	.L27:
1262:Drivers/STM32F7xx_HAL_Driver/Src/stm32f7xx_hal_dma.c ****       }
 344              		.loc 1 1262 16 view .LVU95
 345 007e 0120     		movs	r0, #1
 346              	.LVL39:
1262:Drivers/STM32F7xx_HAL_Driver/Src/stm32f7xx_hal_dma.c ****       }
 347              		.loc 1 1262 16 view .LVU96
 348 0080 7047     		bx	lr
 349              	.LVL40:
 350              	.L28:
1278:Drivers/STM32F7xx_HAL_Driver/Src/stm32f7xx_hal_dma.c ****       break;
 351              		.loc 1 1278 14 view .LVU97
 352 0082 0120     		movs	r0, #1
 353              	.LVL41:
1278:Drivers/STM32F7xx_HAL_Driver/Src/stm32f7xx_hal_dma.c ****       break;
 354              		.loc 1 1278 14 view .LVU98
 355 0084 7047     		bx	lr
 356              	.LVL42:
 357              	.L29:
1273:Drivers/STM32F7xx_HAL_Driver/Src/stm32f7xx_hal_dma.c ****     {
 358              		.loc 1 1273 5 view .LVU99
 359 0086 0020     		movs	r0, #0
 360              	.LVL43:
1273:Drivers/STM32F7xx_HAL_Driver/Src/stm32f7xx_hal_dma.c ****     {
 361              		.loc 1 1273 5 view .LVU100
 362 0088 7047     		bx	lr
 363              	.LVL44:
 364              	.L30:
1282:Drivers/STM32F7xx_HAL_Driver/Src/stm32f7xx_hal_dma.c ****       {
1283:Drivers/STM32F7xx_HAL_Driver/Src/stm32f7xx_hal_dma.c ****         status = HAL_ERROR;
 365              		.loc 1 1283 16 view .LVU101
 366 008a 0120     		movs	r0, #1
 367              	.LVL45:
1284:Drivers/STM32F7xx_HAL_Driver/Src/stm32f7xx_hal_dma.c ****       }
1285:Drivers/STM32F7xx_HAL_Driver/Src/stm32f7xx_hal_dma.c ****       break;
1286:Drivers/STM32F7xx_HAL_Driver/Src/stm32f7xx_hal_dma.c ****     default:
1287:Drivers/STM32F7xx_HAL_Driver/Src/stm32f7xx_hal_dma.c ****       break;
1288:Drivers/STM32F7xx_HAL_Driver/Src/stm32f7xx_hal_dma.c ****     }
1289:Drivers/STM32F7xx_HAL_Driver/Src/stm32f7xx_hal_dma.c ****   } 
1290:Drivers/STM32F7xx_HAL_Driver/Src/stm32f7xx_hal_dma.c ****   
1291:Drivers/STM32F7xx_HAL_Driver/Src/stm32f7xx_hal_dma.c ****   return status; 
 368              		.loc 1 1291 3 is_stmt 1 view .LVU102
1292:Drivers/STM32F7xx_HAL_Driver/Src/stm32f7xx_hal_dma.c **** }
 369              		.loc 1 1292 1 is_stmt 0 view .LVU103
 370 008c 7047     		bx	lr
 371              		.cfi_endproc
 372              	.LFE155:
 374              		.section	.text.HAL_DMA_Init,"ax",%progbits
 375              		.align	1
 376              		.global	HAL_DMA_Init
 377              		.syntax unified
 378              		.thumb
 379              		.thumb_func
 380              		.fpu fpv5-sp-d16
 382              	HAL_DMA_Init:
 383              	.LVL46:
ARM GAS  /tmp/ccdAZlHn.s 			page 31


 384              	.LFB141:
 173:Drivers/STM32F7xx_HAL_Driver/Src/stm32f7xx_hal_dma.c ****   uint32_t tmp = 0U;
 385              		.loc 1 173 1 is_stmt 1 view -0
 386              		.cfi_startproc
 387              		@ args = 0, pretend = 0, frame = 0
 388              		@ frame_needed = 0, uses_anonymous_args = 0
 173:Drivers/STM32F7xx_HAL_Driver/Src/stm32f7xx_hal_dma.c ****   uint32_t tmp = 0U;
 389              		.loc 1 173 1 is_stmt 0 view .LVU105
 390 0000 70B5     		push	{r4, r5, r6, lr}
 391              	.LCFI6:
 392              		.cfi_def_cfa_offset 16
 393              		.cfi_offset 4, -16
 394              		.cfi_offset 5, -12
 395              		.cfi_offset 6, -8
 396              		.cfi_offset 14, -4
 397 0002 0446     		mov	r4, r0
 174:Drivers/STM32F7xx_HAL_Driver/Src/stm32f7xx_hal_dma.c ****   uint32_t tickstart = HAL_GetTick();
 398              		.loc 1 174 3 is_stmt 1 view .LVU106
 399              	.LVL47:
 175:Drivers/STM32F7xx_HAL_Driver/Src/stm32f7xx_hal_dma.c ****   DMA_Base_Registers *regs;
 400              		.loc 1 175 3 view .LVU107
 175:Drivers/STM32F7xx_HAL_Driver/Src/stm32f7xx_hal_dma.c ****   DMA_Base_Registers *regs;
 401              		.loc 1 175 24 is_stmt 0 view .LVU108
 402 0004 FFF7FEFF 		bl	HAL_GetTick
 403              	.LVL48:
 176:Drivers/STM32F7xx_HAL_Driver/Src/stm32f7xx_hal_dma.c **** 
 404              		.loc 1 176 3 is_stmt 1 view .LVU109
 179:Drivers/STM32F7xx_HAL_Driver/Src/stm32f7xx_hal_dma.c ****   {
 405              		.loc 1 179 3 view .LVU110
 179:Drivers/STM32F7xx_HAL_Driver/Src/stm32f7xx_hal_dma.c ****   {
 406              		.loc 1 179 5 is_stmt 0 view .LVU111
 407 0008 002C     		cmp	r4, #0
 408 000a 5BD0     		beq	.L38
 409 000c 0546     		mov	r5, r0
 185:Drivers/STM32F7xx_HAL_Driver/Src/stm32f7xx_hal_dma.c ****   assert_param(IS_DMA_CHANNEL(hdma->Init.Channel));
 410              		.loc 1 185 3 is_stmt 1 view .LVU112
 186:Drivers/STM32F7xx_HAL_Driver/Src/stm32f7xx_hal_dma.c ****   assert_param(IS_DMA_DIRECTION(hdma->Init.Direction));
 411              		.loc 1 186 3 view .LVU113
 187:Drivers/STM32F7xx_HAL_Driver/Src/stm32f7xx_hal_dma.c ****   assert_param(IS_DMA_PERIPHERAL_INC_STATE(hdma->Init.PeriphInc));
 412              		.loc 1 187 3 view .LVU114
 188:Drivers/STM32F7xx_HAL_Driver/Src/stm32f7xx_hal_dma.c ****   assert_param(IS_DMA_MEMORY_INC_STATE(hdma->Init.MemInc));
 413              		.loc 1 188 3 view .LVU115
 189:Drivers/STM32F7xx_HAL_Driver/Src/stm32f7xx_hal_dma.c ****   assert_param(IS_DMA_PERIPHERAL_DATA_SIZE(hdma->Init.PeriphDataAlignment));
 414              		.loc 1 189 3 view .LVU116
 190:Drivers/STM32F7xx_HAL_Driver/Src/stm32f7xx_hal_dma.c ****   assert_param(IS_DMA_MEMORY_DATA_SIZE(hdma->Init.MemDataAlignment));
 415              		.loc 1 190 3 view .LVU117
 191:Drivers/STM32F7xx_HAL_Driver/Src/stm32f7xx_hal_dma.c ****   assert_param(IS_DMA_MODE(hdma->Init.Mode));
 416              		.loc 1 191 3 view .LVU118
 192:Drivers/STM32F7xx_HAL_Driver/Src/stm32f7xx_hal_dma.c ****   assert_param(IS_DMA_PRIORITY(hdma->Init.Priority));
 417              		.loc 1 192 3 view .LVU119
 193:Drivers/STM32F7xx_HAL_Driver/Src/stm32f7xx_hal_dma.c ****   assert_param(IS_DMA_FIFO_MODE_STATE(hdma->Init.FIFOMode));
 418              		.loc 1 193 3 view .LVU120
 194:Drivers/STM32F7xx_HAL_Driver/Src/stm32f7xx_hal_dma.c ****   /* Check the memory burst, peripheral burst and FIFO threshold parameters only
 419              		.loc 1 194 3 view .LVU121
 197:Drivers/STM32F7xx_HAL_Driver/Src/stm32f7xx_hal_dma.c ****   {
 420              		.loc 1 197 3 view .LVU122
 199:Drivers/STM32F7xx_HAL_Driver/Src/stm32f7xx_hal_dma.c ****     assert_param(IS_DMA_MEMORY_BURST(hdma->Init.MemBurst));
ARM GAS  /tmp/ccdAZlHn.s 			page 32


 421              		.loc 1 199 5 view .LVU123
 200:Drivers/STM32F7xx_HAL_Driver/Src/stm32f7xx_hal_dma.c ****     assert_param(IS_DMA_PERIPHERAL_BURST(hdma->Init.PeriphBurst));
 422              		.loc 1 200 5 view .LVU124
 201:Drivers/STM32F7xx_HAL_Driver/Src/stm32f7xx_hal_dma.c ****   }
 423              		.loc 1 201 5 view .LVU125
 205:Drivers/STM32F7xx_HAL_Driver/Src/stm32f7xx_hal_dma.c **** 
 424              		.loc 1 205 3 view .LVU126
 205:Drivers/STM32F7xx_HAL_Driver/Src/stm32f7xx_hal_dma.c **** 
 425              		.loc 1 205 3 view .LVU127
 426 000e 0023     		movs	r3, #0
 427 0010 84F83430 		strb	r3, [r4, #52]
 205:Drivers/STM32F7xx_HAL_Driver/Src/stm32f7xx_hal_dma.c **** 
 428              		.loc 1 205 3 view .LVU128
 208:Drivers/STM32F7xx_HAL_Driver/Src/stm32f7xx_hal_dma.c ****   
 429              		.loc 1 208 3 view .LVU129
 208:Drivers/STM32F7xx_HAL_Driver/Src/stm32f7xx_hal_dma.c ****   
 430              		.loc 1 208 15 is_stmt 0 view .LVU130
 431 0014 0223     		movs	r3, #2
 432 0016 84F83530 		strb	r3, [r4, #53]
 211:Drivers/STM32F7xx_HAL_Driver/Src/stm32f7xx_hal_dma.c ****   
 433              		.loc 1 211 3 is_stmt 1 view .LVU131
 434 001a 2268     		ldr	r2, [r4]
 435 001c 1368     		ldr	r3, [r2]
 436 001e 23F00103 		bic	r3, r3, #1
 437 0022 1360     		str	r3, [r2]
 214:Drivers/STM32F7xx_HAL_Driver/Src/stm32f7xx_hal_dma.c ****   {
 438              		.loc 1 214 3 view .LVU132
 439              	.LVL49:
 440              	.L34:
 214:Drivers/STM32F7xx_HAL_Driver/Src/stm32f7xx_hal_dma.c ****   {
 441              		.loc 1 214 8 view .LVU133
 214:Drivers/STM32F7xx_HAL_Driver/Src/stm32f7xx_hal_dma.c ****   {
 442              		.loc 1 214 14 is_stmt 0 view .LVU134
 443 0024 2368     		ldr	r3, [r4]
 214:Drivers/STM32F7xx_HAL_Driver/Src/stm32f7xx_hal_dma.c ****   {
 444              		.loc 1 214 24 view .LVU135
 445 0026 1A68     		ldr	r2, [r3]
 214:Drivers/STM32F7xx_HAL_Driver/Src/stm32f7xx_hal_dma.c ****   {
 446              		.loc 1 214 8 view .LVU136
 447 0028 12F0010F 		tst	r2, #1
 448 002c 0AD0     		beq	.L40
 217:Drivers/STM32F7xx_HAL_Driver/Src/stm32f7xx_hal_dma.c ****     {
 449              		.loc 1 217 5 is_stmt 1 view .LVU137
 217:Drivers/STM32F7xx_HAL_Driver/Src/stm32f7xx_hal_dma.c ****     {
 450              		.loc 1 217 9 is_stmt 0 view .LVU138
 451 002e FFF7FEFF 		bl	HAL_GetTick
 452              	.LVL50:
 217:Drivers/STM32F7xx_HAL_Driver/Src/stm32f7xx_hal_dma.c ****     {
 453              		.loc 1 217 23 view .LVU139
 454 0032 431B     		subs	r3, r0, r5
 217:Drivers/STM32F7xx_HAL_Driver/Src/stm32f7xx_hal_dma.c ****     {
 455              		.loc 1 217 7 view .LVU140
 456 0034 052B     		cmp	r3, #5
 457 0036 F5D9     		bls	.L34
 220:Drivers/STM32F7xx_HAL_Driver/Src/stm32f7xx_hal_dma.c ****       
 458              		.loc 1 220 7 is_stmt 1 view .LVU141
 220:Drivers/STM32F7xx_HAL_Driver/Src/stm32f7xx_hal_dma.c ****       
ARM GAS  /tmp/ccdAZlHn.s 			page 33


 459              		.loc 1 220 23 is_stmt 0 view .LVU142
 460 0038 2023     		movs	r3, #32
 461 003a 6365     		str	r3, [r4, #84]
 223:Drivers/STM32F7xx_HAL_Driver/Src/stm32f7xx_hal_dma.c ****       
 462              		.loc 1 223 7 is_stmt 1 view .LVU143
 223:Drivers/STM32F7xx_HAL_Driver/Src/stm32f7xx_hal_dma.c ****       
 463              		.loc 1 223 19 is_stmt 0 view .LVU144
 464 003c 0320     		movs	r0, #3
 465 003e 84F83500 		strb	r0, [r4, #53]
 225:Drivers/STM32F7xx_HAL_Driver/Src/stm32f7xx_hal_dma.c ****     }
 466              		.loc 1 225 7 is_stmt 1 view .LVU145
 467              	.LVL51:
 468              	.L33:
 303:Drivers/STM32F7xx_HAL_Driver/Src/stm32f7xx_hal_dma.c **** 
 469              		.loc 1 303 1 is_stmt 0 view .LVU146
 470 0042 70BD     		pop	{r4, r5, r6, pc}
 471              	.LVL52:
 472              	.L40:
 230:Drivers/STM32F7xx_HAL_Driver/Src/stm32f7xx_hal_dma.c **** 
 473              		.loc 1 230 3 is_stmt 1 view .LVU147
 230:Drivers/STM32F7xx_HAL_Driver/Src/stm32f7xx_hal_dma.c **** 
 474              		.loc 1 230 7 is_stmt 0 view .LVU148
 475 0044 1A68     		ldr	r2, [r3]
 476              	.LVL53:
 233:Drivers/STM32F7xx_HAL_Driver/Src/stm32f7xx_hal_dma.c ****                       DMA_SxCR_PL    | DMA_SxCR_MSIZE  | DMA_SxCR_PSIZE  | \
 477              		.loc 1 233 3 is_stmt 1 view .LVU149
 233:Drivers/STM32F7xx_HAL_Driver/Src/stm32f7xx_hal_dma.c ****                       DMA_SxCR_PL    | DMA_SxCR_MSIZE  | DMA_SxCR_PSIZE  | \
 478              		.loc 1 233 7 is_stmt 0 view .LVU150
 479 0046 2048     		ldr	r0, .L43
 480 0048 1040     		ands	r0, r0, r2
 481              	.LVL54:
 239:Drivers/STM32F7xx_HAL_Driver/Src/stm32f7xx_hal_dma.c ****           hdma->Init.PeriphInc           | hdma->Init.MemInc           |
 482              		.loc 1 239 3 is_stmt 1 view .LVU151
 239:Drivers/STM32F7xx_HAL_Driver/Src/stm32f7xx_hal_dma.c ****           hdma->Init.PeriphInc           | hdma->Init.MemInc           |
 483              		.loc 1 239 21 is_stmt 0 view .LVU152
 484 004a 6168     		ldr	r1, [r4, #4]
 239:Drivers/STM32F7xx_HAL_Driver/Src/stm32f7xx_hal_dma.c ****           hdma->Init.PeriphInc           | hdma->Init.MemInc           |
 485              		.loc 1 239 54 view .LVU153
 486 004c A268     		ldr	r2, [r4, #8]
 239:Drivers/STM32F7xx_HAL_Driver/Src/stm32f7xx_hal_dma.c ****           hdma->Init.PeriphInc           | hdma->Init.MemInc           |
 487              		.loc 1 239 42 view .LVU154
 488 004e 0A43     		orrs	r2, r2, r1
 240:Drivers/STM32F7xx_HAL_Driver/Src/stm32f7xx_hal_dma.c ****           hdma->Init.PeriphDataAlignment | hdma->Init.MemDataAlignment |
 489              		.loc 1 240 21 view .LVU155
 490 0050 E168     		ldr	r1, [r4, #12]
 239:Drivers/STM32F7xx_HAL_Driver/Src/stm32f7xx_hal_dma.c ****           hdma->Init.PeriphInc           | hdma->Init.MemInc           |
 491              		.loc 1 239 72 view .LVU156
 492 0052 0A43     		orrs	r2, r2, r1
 240:Drivers/STM32F7xx_HAL_Driver/Src/stm32f7xx_hal_dma.c ****           hdma->Init.PeriphDataAlignment | hdma->Init.MemDataAlignment |
 493              		.loc 1 240 54 view .LVU157
 494 0054 2169     		ldr	r1, [r4, #16]
 240:Drivers/STM32F7xx_HAL_Driver/Src/stm32f7xx_hal_dma.c ****           hdma->Init.PeriphDataAlignment | hdma->Init.MemDataAlignment |
 495              		.loc 1 240 42 view .LVU158
 496 0056 0A43     		orrs	r2, r2, r1
 241:Drivers/STM32F7xx_HAL_Driver/Src/stm32f7xx_hal_dma.c ****           hdma->Init.Mode                | hdma->Init.Priority;
 497              		.loc 1 241 21 view .LVU159
 498 0058 6169     		ldr	r1, [r4, #20]
ARM GAS  /tmp/ccdAZlHn.s 			page 34


 240:Drivers/STM32F7xx_HAL_Driver/Src/stm32f7xx_hal_dma.c ****           hdma->Init.PeriphDataAlignment | hdma->Init.MemDataAlignment |
 499              		.loc 1 240 72 view .LVU160
 500 005a 0A43     		orrs	r2, r2, r1
 241:Drivers/STM32F7xx_HAL_Driver/Src/stm32f7xx_hal_dma.c ****           hdma->Init.Mode                | hdma->Init.Priority;
 501              		.loc 1 241 54 view .LVU161
 502 005c A169     		ldr	r1, [r4, #24]
 241:Drivers/STM32F7xx_HAL_Driver/Src/stm32f7xx_hal_dma.c ****           hdma->Init.Mode                | hdma->Init.Priority;
 503              		.loc 1 241 42 view .LVU162
 504 005e 0A43     		orrs	r2, r2, r1
 242:Drivers/STM32F7xx_HAL_Driver/Src/stm32f7xx_hal_dma.c **** 
 505              		.loc 1 242 21 view .LVU163
 506 0060 E169     		ldr	r1, [r4, #28]
 241:Drivers/STM32F7xx_HAL_Driver/Src/stm32f7xx_hal_dma.c ****           hdma->Init.Mode                | hdma->Init.Priority;
 507              		.loc 1 241 72 view .LVU164
 508 0062 0A43     		orrs	r2, r2, r1
 242:Drivers/STM32F7xx_HAL_Driver/Src/stm32f7xx_hal_dma.c **** 
 509              		.loc 1 242 54 view .LVU165
 510 0064 216A     		ldr	r1, [r4, #32]
 242:Drivers/STM32F7xx_HAL_Driver/Src/stm32f7xx_hal_dma.c **** 
 511              		.loc 1 242 42 view .LVU166
 512 0066 0A43     		orrs	r2, r2, r1
 239:Drivers/STM32F7xx_HAL_Driver/Src/stm32f7xx_hal_dma.c ****           hdma->Init.PeriphInc           | hdma->Init.MemInc           |
 513              		.loc 1 239 7 view .LVU167
 514 0068 0243     		orrs	r2, r2, r0
 515              	.LVL55:
 245:Drivers/STM32F7xx_HAL_Driver/Src/stm32f7xx_hal_dma.c ****   {
 516              		.loc 1 245 3 is_stmt 1 view .LVU168
 245:Drivers/STM32F7xx_HAL_Driver/Src/stm32f7xx_hal_dma.c ****   {
 517              		.loc 1 245 16 is_stmt 0 view .LVU169
 518 006a 616A     		ldr	r1, [r4, #36]
 245:Drivers/STM32F7xx_HAL_Driver/Src/stm32f7xx_hal_dma.c ****   {
 519              		.loc 1 245 5 view .LVU170
 520 006c 0429     		cmp	r1, #4
 521 006e 1ED0     		beq	.L41
 522              	.L36:
 252:Drivers/STM32F7xx_HAL_Driver/Src/stm32f7xx_hal_dma.c **** 
 523              		.loc 1 252 3 is_stmt 1 view .LVU171
 252:Drivers/STM32F7xx_HAL_Driver/Src/stm32f7xx_hal_dma.c **** 
 524              		.loc 1 252 22 is_stmt 0 view .LVU172
 525 0070 1A60     		str	r2, [r3]
 255:Drivers/STM32F7xx_HAL_Driver/Src/stm32f7xx_hal_dma.c **** 
 526              		.loc 1 255 3 is_stmt 1 view .LVU173
 255:Drivers/STM32F7xx_HAL_Driver/Src/stm32f7xx_hal_dma.c **** 
 527              		.loc 1 255 13 is_stmt 0 view .LVU174
 528 0072 2668     		ldr	r6, [r4]
 255:Drivers/STM32F7xx_HAL_Driver/Src/stm32f7xx_hal_dma.c **** 
 529              		.loc 1 255 7 view .LVU175
 530 0074 7569     		ldr	r5, [r6, #20]
 531              	.LVL56:
 258:Drivers/STM32F7xx_HAL_Driver/Src/stm32f7xx_hal_dma.c **** 
 532              		.loc 1 258 3 is_stmt 1 view .LVU176
 258:Drivers/STM32F7xx_HAL_Driver/Src/stm32f7xx_hal_dma.c **** 
 533              		.loc 1 258 7 is_stmt 0 view .LVU177
 534 0076 25F00705 		bic	r5, r5, #7
 535              	.LVL57:
 261:Drivers/STM32F7xx_HAL_Driver/Src/stm32f7xx_hal_dma.c **** 
 536              		.loc 1 261 3 is_stmt 1 view .LVU178
ARM GAS  /tmp/ccdAZlHn.s 			page 35


 261:Drivers/STM32F7xx_HAL_Driver/Src/stm32f7xx_hal_dma.c **** 
 537              		.loc 1 261 20 is_stmt 0 view .LVU179
 538 007a 636A     		ldr	r3, [r4, #36]
 261:Drivers/STM32F7xx_HAL_Driver/Src/stm32f7xx_hal_dma.c **** 
 539              		.loc 1 261 7 view .LVU180
 540 007c 1D43     		orrs	r5, r5, r3
 541              	.LVL58:
 264:Drivers/STM32F7xx_HAL_Driver/Src/stm32f7xx_hal_dma.c ****   {
 542              		.loc 1 264 3 is_stmt 1 view .LVU181
 264:Drivers/STM32F7xx_HAL_Driver/Src/stm32f7xx_hal_dma.c ****   {
 543              		.loc 1 264 5 is_stmt 0 view .LVU182
 544 007e 042B     		cmp	r3, #4
 545 0080 07D1     		bne	.L37
 267:Drivers/STM32F7xx_HAL_Driver/Src/stm32f7xx_hal_dma.c ****     
 546              		.loc 1 267 5 is_stmt 1 view .LVU183
 267:Drivers/STM32F7xx_HAL_Driver/Src/stm32f7xx_hal_dma.c ****     
 547              		.loc 1 267 22 is_stmt 0 view .LVU184
 548 0082 A36A     		ldr	r3, [r4, #40]
 267:Drivers/STM32F7xx_HAL_Driver/Src/stm32f7xx_hal_dma.c ****     
 549              		.loc 1 267 9 view .LVU185
 550 0084 1D43     		orrs	r5, r5, r3
 551              	.LVL59:
 271:Drivers/STM32F7xx_HAL_Driver/Src/stm32f7xx_hal_dma.c ****     {
 552              		.loc 1 271 5 is_stmt 1 view .LVU186
 271:Drivers/STM32F7xx_HAL_Driver/Src/stm32f7xx_hal_dma.c ****     {
 553              		.loc 1 271 19 is_stmt 0 view .LVU187
 554 0086 E36A     		ldr	r3, [r4, #44]
 271:Drivers/STM32F7xx_HAL_Driver/Src/stm32f7xx_hal_dma.c ****     {
 555              		.loc 1 271 8 view .LVU188
 556 0088 1BB1     		cbz	r3, .L37
 273:Drivers/STM32F7xx_HAL_Driver/Src/stm32f7xx_hal_dma.c ****       {
 557              		.loc 1 273 7 is_stmt 1 view .LVU189
 273:Drivers/STM32F7xx_HAL_Driver/Src/stm32f7xx_hal_dma.c ****       {
 558              		.loc 1 273 11 is_stmt 0 view .LVU190
 559 008a 2046     		mov	r0, r4
 560 008c FFF7FEFF 		bl	DMA_CheckFifoParam
 561              	.LVL60:
 273:Drivers/STM32F7xx_HAL_Driver/Src/stm32f7xx_hal_dma.c ****       {
 562              		.loc 1 273 10 view .LVU191
 563 0090 90B9     		cbnz	r0, .L42
 564              	.L37:
 287:Drivers/STM32F7xx_HAL_Driver/Src/stm32f7xx_hal_dma.c **** 
 565              		.loc 1 287 3 is_stmt 1 view .LVU192
 287:Drivers/STM32F7xx_HAL_Driver/Src/stm32f7xx_hal_dma.c **** 
 566              		.loc 1 287 23 is_stmt 0 view .LVU193
 567 0092 7561     		str	r5, [r6, #20]
 291:Drivers/STM32F7xx_HAL_Driver/Src/stm32f7xx_hal_dma.c ****   
 568              		.loc 1 291 3 is_stmt 1 view .LVU194
 291:Drivers/STM32F7xx_HAL_Driver/Src/stm32f7xx_hal_dma.c ****   
 569              		.loc 1 291 32 is_stmt 0 view .LVU195
 570 0094 2046     		mov	r0, r4
 571 0096 FFF7FEFF 		bl	DMA_CalcBaseAndBitshift
 572              	.LVL61:
 294:Drivers/STM32F7xx_HAL_Driver/Src/stm32f7xx_hal_dma.c **** 
 573              		.loc 1 294 3 is_stmt 1 view .LVU196
 294:Drivers/STM32F7xx_HAL_Driver/Src/stm32f7xx_hal_dma.c **** 
 574              		.loc 1 294 29 is_stmt 0 view .LVU197
ARM GAS  /tmp/ccdAZlHn.s 			page 36


 575 009a E26D     		ldr	r2, [r4, #92]
 294:Drivers/STM32F7xx_HAL_Driver/Src/stm32f7xx_hal_dma.c **** 
 576              		.loc 1 294 22 view .LVU198
 577 009c 3F23     		movs	r3, #63
 578 009e 9340     		lsls	r3, r3, r2
 294:Drivers/STM32F7xx_HAL_Driver/Src/stm32f7xx_hal_dma.c **** 
 579              		.loc 1 294 14 view .LVU199
 580 00a0 8360     		str	r3, [r0, #8]
 297:Drivers/STM32F7xx_HAL_Driver/Src/stm32f7xx_hal_dma.c ****                                                                                      
 581              		.loc 1 297 3 is_stmt 1 view .LVU200
 297:Drivers/STM32F7xx_HAL_Driver/Src/stm32f7xx_hal_dma.c ****                                                                                      
 582              		.loc 1 297 19 is_stmt 0 view .LVU201
 583 00a2 0020     		movs	r0, #0
 584              	.LVL62:
 297:Drivers/STM32F7xx_HAL_Driver/Src/stm32f7xx_hal_dma.c ****                                                                                      
 585              		.loc 1 297 19 view .LVU202
 586 00a4 6065     		str	r0, [r4, #84]
 300:Drivers/STM32F7xx_HAL_Driver/Src/stm32f7xx_hal_dma.c **** 
 587              		.loc 1 300 3 is_stmt 1 view .LVU203
 300:Drivers/STM32F7xx_HAL_Driver/Src/stm32f7xx_hal_dma.c **** 
 588              		.loc 1 300 15 is_stmt 0 view .LVU204
 589 00a6 0123     		movs	r3, #1
 590 00a8 84F83530 		strb	r3, [r4, #53]
 302:Drivers/STM32F7xx_HAL_Driver/Src/stm32f7xx_hal_dma.c **** }
 591              		.loc 1 302 3 is_stmt 1 view .LVU205
 302:Drivers/STM32F7xx_HAL_Driver/Src/stm32f7xx_hal_dma.c **** }
 592              		.loc 1 302 10 is_stmt 0 view .LVU206
 593 00ac C9E7     		b	.L33
 594              	.LVL63:
 595              	.L41:
 248:Drivers/STM32F7xx_HAL_Driver/Src/stm32f7xx_hal_dma.c ****   }
 596              		.loc 1 248 5 is_stmt 1 view .LVU207
 248:Drivers/STM32F7xx_HAL_Driver/Src/stm32f7xx_hal_dma.c ****   }
 597              		.loc 1 248 23 is_stmt 0 view .LVU208
 598 00ae E16A     		ldr	r1, [r4, #44]
 248:Drivers/STM32F7xx_HAL_Driver/Src/stm32f7xx_hal_dma.c ****   }
 599              		.loc 1 248 45 view .LVU209
 600 00b0 206B     		ldr	r0, [r4, #48]
 248:Drivers/STM32F7xx_HAL_Driver/Src/stm32f7xx_hal_dma.c ****   }
 601              		.loc 1 248 33 view .LVU210
 602 00b2 0143     		orrs	r1, r1, r0
 248:Drivers/STM32F7xx_HAL_Driver/Src/stm32f7xx_hal_dma.c ****   }
 603              		.loc 1 248 9 view .LVU211
 604 00b4 0A43     		orrs	r2, r2, r1
 605              	.LVL64:
 248:Drivers/STM32F7xx_HAL_Driver/Src/stm32f7xx_hal_dma.c ****   }
 606              		.loc 1 248 9 view .LVU212
 607 00b6 DBE7     		b	.L36
 608              	.LVL65:
 609              	.L42:
 276:Drivers/STM32F7xx_HAL_Driver/Src/stm32f7xx_hal_dma.c ****         
 610              		.loc 1 276 9 is_stmt 1 view .LVU213
 276:Drivers/STM32F7xx_HAL_Driver/Src/stm32f7xx_hal_dma.c ****         
 611              		.loc 1 276 25 is_stmt 0 view .LVU214
 612 00b8 4023     		movs	r3, #64
 613 00ba 6365     		str	r3, [r4, #84]
 279:Drivers/STM32F7xx_HAL_Driver/Src/stm32f7xx_hal_dma.c ****         
ARM GAS  /tmp/ccdAZlHn.s 			page 37


 614              		.loc 1 279 9 is_stmt 1 view .LVU215
 279:Drivers/STM32F7xx_HAL_Driver/Src/stm32f7xx_hal_dma.c ****         
 615              		.loc 1 279 21 is_stmt 0 view .LVU216
 616 00bc 0120     		movs	r0, #1
 617 00be 84F83500 		strb	r0, [r4, #53]
 281:Drivers/STM32F7xx_HAL_Driver/Src/stm32f7xx_hal_dma.c ****       }
 618              		.loc 1 281 9 is_stmt 1 view .LVU217
 281:Drivers/STM32F7xx_HAL_Driver/Src/stm32f7xx_hal_dma.c ****       }
 619              		.loc 1 281 16 is_stmt 0 view .LVU218
 620 00c2 BEE7     		b	.L33
 621              	.LVL66:
 622              	.L38:
 181:Drivers/STM32F7xx_HAL_Driver/Src/stm32f7xx_hal_dma.c ****   }
 623              		.loc 1 181 12 view .LVU219
 624 00c4 0120     		movs	r0, #1
 625              	.LVL67:
 181:Drivers/STM32F7xx_HAL_Driver/Src/stm32f7xx_hal_dma.c ****   }
 626              		.loc 1 181 12 view .LVU220
 627 00c6 BCE7     		b	.L33
 628              	.L44:
 629              		.align	2
 630              	.L43:
 631 00c8 3F8010F0 		.word	-267354049
 632              		.cfi_endproc
 633              	.LFE141:
 635              		.section	.text.HAL_DMA_DeInit,"ax",%progbits
 636              		.align	1
 637              		.global	HAL_DMA_DeInit
 638              		.syntax unified
 639              		.thumb
 640              		.thumb_func
 641              		.fpu fpv5-sp-d16
 643              	HAL_DMA_DeInit:
 644              	.LVL68:
 645              	.LFB142:
 312:Drivers/STM32F7xx_HAL_Driver/Src/stm32f7xx_hal_dma.c ****   DMA_Base_Registers *regs;
 646              		.loc 1 312 1 is_stmt 1 view -0
 647              		.cfi_startproc
 648              		@ args = 0, pretend = 0, frame = 0
 649              		@ frame_needed = 0, uses_anonymous_args = 0
 313:Drivers/STM32F7xx_HAL_Driver/Src/stm32f7xx_hal_dma.c **** 
 650              		.loc 1 313 3 view .LVU222
 316:Drivers/STM32F7xx_HAL_Driver/Src/stm32f7xx_hal_dma.c ****   {
 651              		.loc 1 316 3 view .LVU223
 316:Drivers/STM32F7xx_HAL_Driver/Src/stm32f7xx_hal_dma.c ****   {
 652              		.loc 1 316 5 is_stmt 0 view .LVU224
 653 0000 0028     		cmp	r0, #0
 654 0002 2DD0     		beq	.L47
 312:Drivers/STM32F7xx_HAL_Driver/Src/stm32f7xx_hal_dma.c ****   DMA_Base_Registers *regs;
 655              		.loc 1 312 1 view .LVU225
 656 0004 38B5     		push	{r3, r4, r5, lr}
 657              	.LCFI7:
 658              		.cfi_def_cfa_offset 16
 659              		.cfi_offset 3, -16
 660              		.cfi_offset 4, -12
 661              		.cfi_offset 5, -8
 662              		.cfi_offset 14, -4
ARM GAS  /tmp/ccdAZlHn.s 			page 38


 663 0006 0546     		mov	r5, r0
 322:Drivers/STM32F7xx_HAL_Driver/Src/stm32f7xx_hal_dma.c ****   {
 664              		.loc 1 322 3 is_stmt 1 view .LVU226
 322:Drivers/STM32F7xx_HAL_Driver/Src/stm32f7xx_hal_dma.c ****   {
 665              		.loc 1 322 10 is_stmt 0 view .LVU227
 666 0008 90F83500 		ldrb	r0, [r0, #53]	@ zero_extendqisi2
 667              	.LVL69:
 322:Drivers/STM32F7xx_HAL_Driver/Src/stm32f7xx_hal_dma.c ****   {
 668              		.loc 1 322 10 view .LVU228
 669 000c C0B2     		uxtb	r0, r0
 322:Drivers/STM32F7xx_HAL_Driver/Src/stm32f7xx_hal_dma.c ****   {
 670              		.loc 1 322 5 view .LVU229
 671 000e 0228     		cmp	r0, #2
 672 0010 25D0     		beq	.L46
 329:Drivers/STM32F7xx_HAL_Driver/Src/stm32f7xx_hal_dma.c **** 
 673              		.loc 1 329 3 is_stmt 1 view .LVU230
 332:Drivers/STM32F7xx_HAL_Driver/Src/stm32f7xx_hal_dma.c **** 
 674              		.loc 1 332 3 view .LVU231
 675 0012 2A68     		ldr	r2, [r5]
 676 0014 1368     		ldr	r3, [r2]
 677 0016 23F00103 		bic	r3, r3, #1
 678 001a 1360     		str	r3, [r2]
 335:Drivers/STM32F7xx_HAL_Driver/Src/stm32f7xx_hal_dma.c **** 
 679              		.loc 1 335 3 view .LVU232
 335:Drivers/STM32F7xx_HAL_Driver/Src/stm32f7xx_hal_dma.c **** 
 680              		.loc 1 335 7 is_stmt 0 view .LVU233
 681 001c 2B68     		ldr	r3, [r5]
 335:Drivers/STM32F7xx_HAL_Driver/Src/stm32f7xx_hal_dma.c **** 
 682              		.loc 1 335 24 view .LVU234
 683 001e 0024     		movs	r4, #0
 684 0020 1C60     		str	r4, [r3]
 338:Drivers/STM32F7xx_HAL_Driver/Src/stm32f7xx_hal_dma.c **** 
 685              		.loc 1 338 3 is_stmt 1 view .LVU235
 338:Drivers/STM32F7xx_HAL_Driver/Src/stm32f7xx_hal_dma.c **** 
 686              		.loc 1 338 7 is_stmt 0 view .LVU236
 687 0022 2B68     		ldr	r3, [r5]
 338:Drivers/STM32F7xx_HAL_Driver/Src/stm32f7xx_hal_dma.c **** 
 688              		.loc 1 338 24 view .LVU237
 689 0024 5C60     		str	r4, [r3, #4]
 341:Drivers/STM32F7xx_HAL_Driver/Src/stm32f7xx_hal_dma.c **** 
 690              		.loc 1 341 3 is_stmt 1 view .LVU238
 341:Drivers/STM32F7xx_HAL_Driver/Src/stm32f7xx_hal_dma.c **** 
 691              		.loc 1 341 7 is_stmt 0 view .LVU239
 692 0026 2B68     		ldr	r3, [r5]
 341:Drivers/STM32F7xx_HAL_Driver/Src/stm32f7xx_hal_dma.c **** 
 693              		.loc 1 341 24 view .LVU240
 694 0028 9C60     		str	r4, [r3, #8]
 344:Drivers/STM32F7xx_HAL_Driver/Src/stm32f7xx_hal_dma.c ****   
 695              		.loc 1 344 3 is_stmt 1 view .LVU241
 344:Drivers/STM32F7xx_HAL_Driver/Src/stm32f7xx_hal_dma.c ****   
 696              		.loc 1 344 7 is_stmt 0 view .LVU242
 697 002a 2B68     		ldr	r3, [r5]
 344:Drivers/STM32F7xx_HAL_Driver/Src/stm32f7xx_hal_dma.c ****   
 698              		.loc 1 344 24 view .LVU243
 699 002c DC60     		str	r4, [r3, #12]
 347:Drivers/STM32F7xx_HAL_Driver/Src/stm32f7xx_hal_dma.c ****   
 700              		.loc 1 347 3 is_stmt 1 view .LVU244
ARM GAS  /tmp/ccdAZlHn.s 			page 39


 347:Drivers/STM32F7xx_HAL_Driver/Src/stm32f7xx_hal_dma.c ****   
 701              		.loc 1 347 7 is_stmt 0 view .LVU245
 702 002e 2B68     		ldr	r3, [r5]
 347:Drivers/STM32F7xx_HAL_Driver/Src/stm32f7xx_hal_dma.c ****   
 703              		.loc 1 347 24 view .LVU246
 704 0030 1C61     		str	r4, [r3, #16]
 350:Drivers/STM32F7xx_HAL_Driver/Src/stm32f7xx_hal_dma.c ****   
 705              		.loc 1 350 3 is_stmt 1 view .LVU247
 350:Drivers/STM32F7xx_HAL_Driver/Src/stm32f7xx_hal_dma.c ****   
 706              		.loc 1 350 7 is_stmt 0 view .LVU248
 707 0032 2B68     		ldr	r3, [r5]
 350:Drivers/STM32F7xx_HAL_Driver/Src/stm32f7xx_hal_dma.c ****   
 708              		.loc 1 350 24 view .LVU249
 709 0034 2122     		movs	r2, #33
 710 0036 5A61     		str	r2, [r3, #20]
 353:Drivers/STM32F7xx_HAL_Driver/Src/stm32f7xx_hal_dma.c ****   
 711              		.loc 1 353 3 is_stmt 1 view .LVU250
 353:Drivers/STM32F7xx_HAL_Driver/Src/stm32f7xx_hal_dma.c ****   
 712              		.loc 1 353 32 is_stmt 0 view .LVU251
 713 0038 2846     		mov	r0, r5
 714 003a FFF7FEFF 		bl	DMA_CalcBaseAndBitshift
 715              	.LVL70:
 356:Drivers/STM32F7xx_HAL_Driver/Src/stm32f7xx_hal_dma.c ****   
 716              		.loc 1 356 3 is_stmt 1 view .LVU252
 356:Drivers/STM32F7xx_HAL_Driver/Src/stm32f7xx_hal_dma.c ****   
 717              		.loc 1 356 29 is_stmt 0 view .LVU253
 718 003e EA6D     		ldr	r2, [r5, #92]
 356:Drivers/STM32F7xx_HAL_Driver/Src/stm32f7xx_hal_dma.c ****   
 719              		.loc 1 356 22 view .LVU254
 720 0040 3F23     		movs	r3, #63
 721 0042 9340     		lsls	r3, r3, r2
 356:Drivers/STM32F7xx_HAL_Driver/Src/stm32f7xx_hal_dma.c ****   
 722              		.loc 1 356 14 view .LVU255
 723 0044 8360     		str	r3, [r0, #8]
 359:Drivers/STM32F7xx_HAL_Driver/Src/stm32f7xx_hal_dma.c ****   hdma->XferHalfCpltCallback = NULL;
 724              		.loc 1 359 3 is_stmt 1 view .LVU256
 359:Drivers/STM32F7xx_HAL_Driver/Src/stm32f7xx_hal_dma.c ****   hdma->XferHalfCpltCallback = NULL;
 725              		.loc 1 359 26 is_stmt 0 view .LVU257
 726 0046 EC63     		str	r4, [r5, #60]
 360:Drivers/STM32F7xx_HAL_Driver/Src/stm32f7xx_hal_dma.c ****   hdma->XferM1CpltCallback = NULL;
 727              		.loc 1 360 3 is_stmt 1 view .LVU258
 360:Drivers/STM32F7xx_HAL_Driver/Src/stm32f7xx_hal_dma.c ****   hdma->XferM1CpltCallback = NULL;
 728              		.loc 1 360 30 is_stmt 0 view .LVU259
 729 0048 2C64     		str	r4, [r5, #64]
 361:Drivers/STM32F7xx_HAL_Driver/Src/stm32f7xx_hal_dma.c ****   hdma->XferM1HalfCpltCallback = NULL;
 730              		.loc 1 361 3 is_stmt 1 view .LVU260
 361:Drivers/STM32F7xx_HAL_Driver/Src/stm32f7xx_hal_dma.c ****   hdma->XferM1HalfCpltCallback = NULL;
 731              		.loc 1 361 28 is_stmt 0 view .LVU261
 732 004a 6C64     		str	r4, [r5, #68]
 362:Drivers/STM32F7xx_HAL_Driver/Src/stm32f7xx_hal_dma.c ****   hdma->XferErrorCallback = NULL;
 733              		.loc 1 362 3 is_stmt 1 view .LVU262
 362:Drivers/STM32F7xx_HAL_Driver/Src/stm32f7xx_hal_dma.c ****   hdma->XferErrorCallback = NULL;
 734              		.loc 1 362 32 is_stmt 0 view .LVU263
 735 004c AC64     		str	r4, [r5, #72]
 363:Drivers/STM32F7xx_HAL_Driver/Src/stm32f7xx_hal_dma.c ****   hdma->XferAbortCallback = NULL;  
 736              		.loc 1 363 3 is_stmt 1 view .LVU264
 363:Drivers/STM32F7xx_HAL_Driver/Src/stm32f7xx_hal_dma.c ****   hdma->XferAbortCallback = NULL;  
ARM GAS  /tmp/ccdAZlHn.s 			page 40


 737              		.loc 1 363 27 is_stmt 0 view .LVU265
 738 004e EC64     		str	r4, [r5, #76]
 364:Drivers/STM32F7xx_HAL_Driver/Src/stm32f7xx_hal_dma.c **** 
 739              		.loc 1 364 3 is_stmt 1 view .LVU266
 364:Drivers/STM32F7xx_HAL_Driver/Src/stm32f7xx_hal_dma.c **** 
 740              		.loc 1 364 27 is_stmt 0 view .LVU267
 741 0050 2C65     		str	r4, [r5, #80]
 367:Drivers/STM32F7xx_HAL_Driver/Src/stm32f7xx_hal_dma.c **** 
 742              		.loc 1 367 3 is_stmt 1 view .LVU268
 367:Drivers/STM32F7xx_HAL_Driver/Src/stm32f7xx_hal_dma.c **** 
 743              		.loc 1 367 19 is_stmt 0 view .LVU269
 744 0052 6C65     		str	r4, [r5, #84]
 370:Drivers/STM32F7xx_HAL_Driver/Src/stm32f7xx_hal_dma.c **** 
 745              		.loc 1 370 3 is_stmt 1 view .LVU270
 370:Drivers/STM32F7xx_HAL_Driver/Src/stm32f7xx_hal_dma.c **** 
 746              		.loc 1 370 15 is_stmt 0 view .LVU271
 747 0054 85F83540 		strb	r4, [r5, #53]
 373:Drivers/STM32F7xx_HAL_Driver/Src/stm32f7xx_hal_dma.c **** 
 748              		.loc 1 373 3 is_stmt 1 view .LVU272
 373:Drivers/STM32F7xx_HAL_Driver/Src/stm32f7xx_hal_dma.c **** 
 749              		.loc 1 373 3 view .LVU273
 750 0058 85F83440 		strb	r4, [r5, #52]
 373:Drivers/STM32F7xx_HAL_Driver/Src/stm32f7xx_hal_dma.c **** 
 751              		.loc 1 373 3 view .LVU274
 375:Drivers/STM32F7xx_HAL_Driver/Src/stm32f7xx_hal_dma.c **** }
 752              		.loc 1 375 3 view .LVU275
 375:Drivers/STM32F7xx_HAL_Driver/Src/stm32f7xx_hal_dma.c **** }
 753              		.loc 1 375 10 is_stmt 0 view .LVU276
 754 005c 2046     		mov	r0, r4
 755              	.LVL71:
 756              	.L46:
 376:Drivers/STM32F7xx_HAL_Driver/Src/stm32f7xx_hal_dma.c **** 
 757              		.loc 1 376 1 view .LVU277
 758 005e 38BD     		pop	{r3, r4, r5, pc}
 759              	.LVL72:
 760              	.L47:
 761              	.LCFI8:
 762              		.cfi_def_cfa_offset 0
 763              		.cfi_restore 3
 764              		.cfi_restore 4
 765              		.cfi_restore 5
 766              		.cfi_restore 14
 318:Drivers/STM32F7xx_HAL_Driver/Src/stm32f7xx_hal_dma.c ****   }
 767              		.loc 1 318 12 view .LVU278
 768 0060 0120     		movs	r0, #1
 769              	.LVL73:
 376:Drivers/STM32F7xx_HAL_Driver/Src/stm32f7xx_hal_dma.c **** 
 770              		.loc 1 376 1 view .LVU279
 771 0062 7047     		bx	lr
 772              		.cfi_endproc
 773              	.LFE142:
 775              		.section	.text.HAL_DMA_Start,"ax",%progbits
 776              		.align	1
 777              		.global	HAL_DMA_Start
 778              		.syntax unified
 779              		.thumb
 780              		.thumb_func
ARM GAS  /tmp/ccdAZlHn.s 			page 41


 781              		.fpu fpv5-sp-d16
 783              	HAL_DMA_Start:
 784              	.LVL74:
 785              	.LFB143:
 410:Drivers/STM32F7xx_HAL_Driver/Src/stm32f7xx_hal_dma.c ****   HAL_StatusTypeDef status = HAL_OK;
 786              		.loc 1 410 1 is_stmt 1 view -0
 787              		.cfi_startproc
 788              		@ args = 0, pretend = 0, frame = 0
 789              		@ frame_needed = 0, uses_anonymous_args = 0
 410:Drivers/STM32F7xx_HAL_Driver/Src/stm32f7xx_hal_dma.c ****   HAL_StatusTypeDef status = HAL_OK;
 790              		.loc 1 410 1 is_stmt 0 view .LVU281
 791 0000 38B5     		push	{r3, r4, r5, lr}
 792              	.LCFI9:
 793              		.cfi_def_cfa_offset 16
 794              		.cfi_offset 3, -16
 795              		.cfi_offset 4, -12
 796              		.cfi_offset 5, -8
 797              		.cfi_offset 14, -4
 798 0002 0446     		mov	r4, r0
 411:Drivers/STM32F7xx_HAL_Driver/Src/stm32f7xx_hal_dma.c ****   
 799              		.loc 1 411 3 is_stmt 1 view .LVU282
 800              	.LVL75:
 414:Drivers/STM32F7xx_HAL_Driver/Src/stm32f7xx_hal_dma.c **** 
 801              		.loc 1 414 3 view .LVU283
 417:Drivers/STM32F7xx_HAL_Driver/Src/stm32f7xx_hal_dma.c **** 
 802              		.loc 1 417 3 view .LVU284
 417:Drivers/STM32F7xx_HAL_Driver/Src/stm32f7xx_hal_dma.c **** 
 803              		.loc 1 417 3 view .LVU285
 804 0004 90F83400 		ldrb	r0, [r0, #52]	@ zero_extendqisi2
 805              	.LVL76:
 417:Drivers/STM32F7xx_HAL_Driver/Src/stm32f7xx_hal_dma.c **** 
 806              		.loc 1 417 3 is_stmt 0 view .LVU286
 807 0008 0128     		cmp	r0, #1
 808 000a 1BD0     		beq	.L55
 417:Drivers/STM32F7xx_HAL_Driver/Src/stm32f7xx_hal_dma.c **** 
 809              		.loc 1 417 3 is_stmt 1 discriminator 2 view .LVU287
 810 000c 0120     		movs	r0, #1
 811 000e 84F83400 		strb	r0, [r4, #52]
 417:Drivers/STM32F7xx_HAL_Driver/Src/stm32f7xx_hal_dma.c **** 
 812              		.loc 1 417 3 discriminator 2 view .LVU288
 419:Drivers/STM32F7xx_HAL_Driver/Src/stm32f7xx_hal_dma.c ****   {
 813              		.loc 1 419 3 discriminator 2 view .LVU289
 419:Drivers/STM32F7xx_HAL_Driver/Src/stm32f7xx_hal_dma.c ****   {
 814              		.loc 1 419 33 is_stmt 0 discriminator 2 view .LVU290
 815 0012 94F83500 		ldrb	r0, [r4, #53]	@ zero_extendqisi2
 816 0016 C0B2     		uxtb	r0, r0
 419:Drivers/STM32F7xx_HAL_Driver/Src/stm32f7xx_hal_dma.c ****   {
 817              		.loc 1 419 5 discriminator 2 view .LVU291
 818 0018 0128     		cmp	r0, #1
 819 001a 04D0     		beq	.L57
 436:Drivers/STM32F7xx_HAL_Driver/Src/stm32f7xx_hal_dma.c ****     
 820              		.loc 1 436 5 is_stmt 1 view .LVU292
 436:Drivers/STM32F7xx_HAL_Driver/Src/stm32f7xx_hal_dma.c ****     
 821              		.loc 1 436 5 view .LVU293
 822 001c 0023     		movs	r3, #0
 823              	.LVL77:
 436:Drivers/STM32F7xx_HAL_Driver/Src/stm32f7xx_hal_dma.c ****     
ARM GAS  /tmp/ccdAZlHn.s 			page 42


 824              		.loc 1 436 5 is_stmt 0 view .LVU294
 825 001e 84F83430 		strb	r3, [r4, #52]
 436:Drivers/STM32F7xx_HAL_Driver/Src/stm32f7xx_hal_dma.c ****     
 826              		.loc 1 436 5 is_stmt 1 view .LVU295
 439:Drivers/STM32F7xx_HAL_Driver/Src/stm32f7xx_hal_dma.c ****   } 
 827              		.loc 1 439 5 view .LVU296
 828              	.LVL78:
 439:Drivers/STM32F7xx_HAL_Driver/Src/stm32f7xx_hal_dma.c ****   } 
 829              		.loc 1 439 12 is_stmt 0 view .LVU297
 830 0022 0220     		movs	r0, #2
 831              	.LVL79:
 832              	.L53:
 442:Drivers/STM32F7xx_HAL_Driver/Src/stm32f7xx_hal_dma.c **** 
 833              		.loc 1 442 1 view .LVU298
 834 0024 38BD     		pop	{r3, r4, r5, pc}
 835              	.LVL80:
 836              	.L57:
 422:Drivers/STM32F7xx_HAL_Driver/Src/stm32f7xx_hal_dma.c ****     
 837              		.loc 1 422 5 is_stmt 1 view .LVU299
 422:Drivers/STM32F7xx_HAL_Driver/Src/stm32f7xx_hal_dma.c ****     
 838              		.loc 1 422 17 is_stmt 0 view .LVU300
 839 0026 0220     		movs	r0, #2
 840 0028 84F83500 		strb	r0, [r4, #53]
 425:Drivers/STM32F7xx_HAL_Driver/Src/stm32f7xx_hal_dma.c ****     
 841              		.loc 1 425 5 is_stmt 1 view .LVU301
 425:Drivers/STM32F7xx_HAL_Driver/Src/stm32f7xx_hal_dma.c ****     
 842              		.loc 1 425 21 is_stmt 0 view .LVU302
 843 002c 0025     		movs	r5, #0
 844 002e 6565     		str	r5, [r4, #84]
 428:Drivers/STM32F7xx_HAL_Driver/Src/stm32f7xx_hal_dma.c **** 
 845              		.loc 1 428 5 is_stmt 1 view .LVU303
 846 0030 2046     		mov	r0, r4
 847 0032 FFF7FEFF 		bl	DMA_SetConfig
 848              	.LVL81:
 431:Drivers/STM32F7xx_HAL_Driver/Src/stm32f7xx_hal_dma.c ****   }
 849              		.loc 1 431 5 view .LVU304
 850 0036 2268     		ldr	r2, [r4]
 851 0038 1368     		ldr	r3, [r2]
 852 003a 43F00103 		orr	r3, r3, #1
 853 003e 1360     		str	r3, [r2]
 411:Drivers/STM32F7xx_HAL_Driver/Src/stm32f7xx_hal_dma.c ****   
 854              		.loc 1 411 21 is_stmt 0 view .LVU305
 855 0040 2846     		mov	r0, r5
 856 0042 EFE7     		b	.L53
 857              	.LVL82:
 858              	.L55:
 417:Drivers/STM32F7xx_HAL_Driver/Src/stm32f7xx_hal_dma.c **** 
 859              		.loc 1 417 3 view .LVU306
 860 0044 0220     		movs	r0, #2
 861 0046 EDE7     		b	.L53
 862              		.cfi_endproc
 863              	.LFE143:
 865              		.section	.text.HAL_DMA_Start_IT,"ax",%progbits
 866              		.align	1
 867              		.global	HAL_DMA_Start_IT
 868              		.syntax unified
 869              		.thumb
ARM GAS  /tmp/ccdAZlHn.s 			page 43


 870              		.thumb_func
 871              		.fpu fpv5-sp-d16
 873              	HAL_DMA_Start_IT:
 874              	.LVL83:
 875              	.LFB144:
 454:Drivers/STM32F7xx_HAL_Driver/Src/stm32f7xx_hal_dma.c ****   HAL_StatusTypeDef status = HAL_OK;
 876              		.loc 1 454 1 is_stmt 1 view -0
 877              		.cfi_startproc
 878              		@ args = 0, pretend = 0, frame = 0
 879              		@ frame_needed = 0, uses_anonymous_args = 0
 454:Drivers/STM32F7xx_HAL_Driver/Src/stm32f7xx_hal_dma.c ****   HAL_StatusTypeDef status = HAL_OK;
 880              		.loc 1 454 1 is_stmt 0 view .LVU308
 881 0000 38B5     		push	{r3, r4, r5, lr}
 882              	.LCFI10:
 883              		.cfi_def_cfa_offset 16
 884              		.cfi_offset 3, -16
 885              		.cfi_offset 4, -12
 886              		.cfi_offset 5, -8
 887              		.cfi_offset 14, -4
 888 0002 0446     		mov	r4, r0
 455:Drivers/STM32F7xx_HAL_Driver/Src/stm32f7xx_hal_dma.c **** 
 889              		.loc 1 455 3 is_stmt 1 view .LVU309
 890              	.LVL84:
 458:Drivers/STM32F7xx_HAL_Driver/Src/stm32f7xx_hal_dma.c ****   
 891              		.loc 1 458 3 view .LVU310
 458:Drivers/STM32F7xx_HAL_Driver/Src/stm32f7xx_hal_dma.c ****   
 892              		.loc 1 458 56 is_stmt 0 view .LVU311
 893 0004 856D     		ldr	r5, [r0, #88]
 894              	.LVL85:
 461:Drivers/STM32F7xx_HAL_Driver/Src/stm32f7xx_hal_dma.c ****  
 895              		.loc 1 461 3 is_stmt 1 view .LVU312
 464:Drivers/STM32F7xx_HAL_Driver/Src/stm32f7xx_hal_dma.c ****   
 896              		.loc 1 464 3 view .LVU313
 464:Drivers/STM32F7xx_HAL_Driver/Src/stm32f7xx_hal_dma.c ****   
 897              		.loc 1 464 3 view .LVU314
 898 0006 90F83400 		ldrb	r0, [r0, #52]	@ zero_extendqisi2
 899              	.LVL86:
 464:Drivers/STM32F7xx_HAL_Driver/Src/stm32f7xx_hal_dma.c ****   
 900              		.loc 1 464 3 is_stmt 0 view .LVU315
 901 000a 0128     		cmp	r0, #1
 902 000c 30D0     		beq	.L62
 464:Drivers/STM32F7xx_HAL_Driver/Src/stm32f7xx_hal_dma.c ****   
 903              		.loc 1 464 3 is_stmt 1 discriminator 2 view .LVU316
 904 000e 0120     		movs	r0, #1
 905 0010 84F83400 		strb	r0, [r4, #52]
 464:Drivers/STM32F7xx_HAL_Driver/Src/stm32f7xx_hal_dma.c ****   
 906              		.loc 1 464 3 discriminator 2 view .LVU317
 466:Drivers/STM32F7xx_HAL_Driver/Src/stm32f7xx_hal_dma.c ****   {
 907              		.loc 1 466 3 discriminator 2 view .LVU318
 466:Drivers/STM32F7xx_HAL_Driver/Src/stm32f7xx_hal_dma.c ****   {
 908              		.loc 1 466 33 is_stmt 0 discriminator 2 view .LVU319
 909 0014 94F83500 		ldrb	r0, [r4, #53]	@ zero_extendqisi2
 910 0018 C0B2     		uxtb	r0, r0
 466:Drivers/STM32F7xx_HAL_Driver/Src/stm32f7xx_hal_dma.c ****   {
 911              		.loc 1 466 5 discriminator 2 view .LVU320
 912 001a 0128     		cmp	r0, #1
 913 001c 04D0     		beq	.L64
ARM GAS  /tmp/ccdAZlHn.s 			page 44


 495:Drivers/STM32F7xx_HAL_Driver/Src/stm32f7xx_hal_dma.c ****     
 914              		.loc 1 495 5 is_stmt 1 view .LVU321
 495:Drivers/STM32F7xx_HAL_Driver/Src/stm32f7xx_hal_dma.c ****     
 915              		.loc 1 495 5 view .LVU322
 916 001e 0023     		movs	r3, #0
 917              	.LVL87:
 495:Drivers/STM32F7xx_HAL_Driver/Src/stm32f7xx_hal_dma.c ****     
 918              		.loc 1 495 5 is_stmt 0 view .LVU323
 919 0020 84F83430 		strb	r3, [r4, #52]
 495:Drivers/STM32F7xx_HAL_Driver/Src/stm32f7xx_hal_dma.c ****     
 920              		.loc 1 495 5 is_stmt 1 view .LVU324
 498:Drivers/STM32F7xx_HAL_Driver/Src/stm32f7xx_hal_dma.c ****   }
 921              		.loc 1 498 5 view .LVU325
 922              	.LVL88:
 498:Drivers/STM32F7xx_HAL_Driver/Src/stm32f7xx_hal_dma.c ****   }
 923              		.loc 1 498 12 is_stmt 0 view .LVU326
 924 0024 0220     		movs	r0, #2
 925              	.LVL89:
 926              	.L59:
 502:Drivers/STM32F7xx_HAL_Driver/Src/stm32f7xx_hal_dma.c **** 
 927              		.loc 1 502 1 view .LVU327
 928 0026 38BD     		pop	{r3, r4, r5, pc}
 929              	.LVL90:
 930              	.L64:
 469:Drivers/STM32F7xx_HAL_Driver/Src/stm32f7xx_hal_dma.c ****     
 931              		.loc 1 469 5 is_stmt 1 view .LVU328
 469:Drivers/STM32F7xx_HAL_Driver/Src/stm32f7xx_hal_dma.c ****     
 932              		.loc 1 469 17 is_stmt 0 view .LVU329
 933 0028 0220     		movs	r0, #2
 934 002a 84F83500 		strb	r0, [r4, #53]
 472:Drivers/STM32F7xx_HAL_Driver/Src/stm32f7xx_hal_dma.c ****     
 935              		.loc 1 472 5 is_stmt 1 view .LVU330
 472:Drivers/STM32F7xx_HAL_Driver/Src/stm32f7xx_hal_dma.c ****     
 936              		.loc 1 472 21 is_stmt 0 view .LVU331
 937 002e 0020     		movs	r0, #0
 938 0030 6065     		str	r0, [r4, #84]
 475:Drivers/STM32F7xx_HAL_Driver/Src/stm32f7xx_hal_dma.c ****     
 939              		.loc 1 475 5 is_stmt 1 view .LVU332
 940 0032 2046     		mov	r0, r4
 941 0034 FFF7FEFF 		bl	DMA_SetConfig
 942              	.LVL91:
 478:Drivers/STM32F7xx_HAL_Driver/Src/stm32f7xx_hal_dma.c ****     
 943              		.loc 1 478 5 view .LVU333
 478:Drivers/STM32F7xx_HAL_Driver/Src/stm32f7xx_hal_dma.c ****     
 944              		.loc 1 478 31 is_stmt 0 view .LVU334
 945 0038 E26D     		ldr	r2, [r4, #92]
 478:Drivers/STM32F7xx_HAL_Driver/Src/stm32f7xx_hal_dma.c ****     
 946              		.loc 1 478 24 view .LVU335
 947 003a 3F23     		movs	r3, #63
 948 003c 9340     		lsls	r3, r3, r2
 478:Drivers/STM32F7xx_HAL_Driver/Src/stm32f7xx_hal_dma.c ****     
 949              		.loc 1 478 16 view .LVU336
 950 003e AB60     		str	r3, [r5, #8]
 481:Drivers/STM32F7xx_HAL_Driver/Src/stm32f7xx_hal_dma.c ****     hdma->Instance->FCR |= DMA_IT_FE;
 951              		.loc 1 481 5 is_stmt 1 view .LVU337
 481:Drivers/STM32F7xx_HAL_Driver/Src/stm32f7xx_hal_dma.c ****     hdma->Instance->FCR |= DMA_IT_FE;
 952              		.loc 1 481 9 is_stmt 0 view .LVU338
ARM GAS  /tmp/ccdAZlHn.s 			page 45


 953 0040 2268     		ldr	r2, [r4]
 481:Drivers/STM32F7xx_HAL_Driver/Src/stm32f7xx_hal_dma.c ****     hdma->Instance->FCR |= DMA_IT_FE;
 954              		.loc 1 481 25 view .LVU339
 955 0042 1368     		ldr	r3, [r2]
 956 0044 43F01603 		orr	r3, r3, #22
 957 0048 1360     		str	r3, [r2]
 482:Drivers/STM32F7xx_HAL_Driver/Src/stm32f7xx_hal_dma.c ****     
 958              		.loc 1 482 5 is_stmt 1 view .LVU340
 482:Drivers/STM32F7xx_HAL_Driver/Src/stm32f7xx_hal_dma.c ****     
 959              		.loc 1 482 9 is_stmt 0 view .LVU341
 960 004a 2268     		ldr	r2, [r4]
 482:Drivers/STM32F7xx_HAL_Driver/Src/stm32f7xx_hal_dma.c ****     
 961              		.loc 1 482 25 view .LVU342
 962 004c 5369     		ldr	r3, [r2, #20]
 963 004e 43F08003 		orr	r3, r3, #128
 964 0052 5361     		str	r3, [r2, #20]
 484:Drivers/STM32F7xx_HAL_Driver/Src/stm32f7xx_hal_dma.c ****     {
 965              		.loc 1 484 5 is_stmt 1 view .LVU343
 484:Drivers/STM32F7xx_HAL_Driver/Src/stm32f7xx_hal_dma.c ****     {
 966              		.loc 1 484 12 is_stmt 0 view .LVU344
 967 0054 236C     		ldr	r3, [r4, #64]
 484:Drivers/STM32F7xx_HAL_Driver/Src/stm32f7xx_hal_dma.c ****     {
 968              		.loc 1 484 7 view .LVU345
 969 0056 23B1     		cbz	r3, .L61
 486:Drivers/STM32F7xx_HAL_Driver/Src/stm32f7xx_hal_dma.c ****     }
 970              		.loc 1 486 7 is_stmt 1 view .LVU346
 486:Drivers/STM32F7xx_HAL_Driver/Src/stm32f7xx_hal_dma.c ****     }
 971              		.loc 1 486 11 is_stmt 0 view .LVU347
 972 0058 2268     		ldr	r2, [r4]
 486:Drivers/STM32F7xx_HAL_Driver/Src/stm32f7xx_hal_dma.c ****     }
 973              		.loc 1 486 27 view .LVU348
 974 005a 1368     		ldr	r3, [r2]
 975 005c 43F00803 		orr	r3, r3, #8
 976 0060 1360     		str	r3, [r2]
 977              	.L61:
 490:Drivers/STM32F7xx_HAL_Driver/Src/stm32f7xx_hal_dma.c ****   }
 978              		.loc 1 490 5 is_stmt 1 view .LVU349
 979 0062 2268     		ldr	r2, [r4]
 980 0064 1368     		ldr	r3, [r2]
 981 0066 43F00103 		orr	r3, r3, #1
 982 006a 1360     		str	r3, [r2]
 455:Drivers/STM32F7xx_HAL_Driver/Src/stm32f7xx_hal_dma.c **** 
 983              		.loc 1 455 21 is_stmt 0 view .LVU350
 984 006c 0020     		movs	r0, #0
 985 006e DAE7     		b	.L59
 986              	.LVL92:
 987              	.L62:
 464:Drivers/STM32F7xx_HAL_Driver/Src/stm32f7xx_hal_dma.c ****   
 988              		.loc 1 464 3 view .LVU351
 989 0070 0220     		movs	r0, #2
 990 0072 D8E7     		b	.L59
 991              		.cfi_endproc
 992              	.LFE144:
 994              		.section	.text.HAL_DMA_Abort,"ax",%progbits
 995              		.align	1
 996              		.global	HAL_DMA_Abort
 997              		.syntax unified
ARM GAS  /tmp/ccdAZlHn.s 			page 46


 998              		.thumb
 999              		.thumb_func
 1000              		.fpu fpv5-sp-d16
 1002              	HAL_DMA_Abort:
 1003              	.LVL93:
 1004              	.LFB145:
 517:Drivers/STM32F7xx_HAL_Driver/Src/stm32f7xx_hal_dma.c ****   /* calculate DMA base and stream number */
 1005              		.loc 1 517 1 is_stmt 1 view -0
 1006              		.cfi_startproc
 1007              		@ args = 0, pretend = 0, frame = 0
 1008              		@ frame_needed = 0, uses_anonymous_args = 0
 517:Drivers/STM32F7xx_HAL_Driver/Src/stm32f7xx_hal_dma.c ****   /* calculate DMA base and stream number */
 1009              		.loc 1 517 1 is_stmt 0 view .LVU353
 1010 0000 70B5     		push	{r4, r5, r6, lr}
 1011              	.LCFI11:
 1012              		.cfi_def_cfa_offset 16
 1013              		.cfi_offset 4, -16
 1014              		.cfi_offset 5, -12
 1015              		.cfi_offset 6, -8
 1016              		.cfi_offset 14, -4
 1017 0002 0446     		mov	r4, r0
 519:Drivers/STM32F7xx_HAL_Driver/Src/stm32f7xx_hal_dma.c ****   
 1018              		.loc 1 519 3 is_stmt 1 view .LVU354
 519:Drivers/STM32F7xx_HAL_Driver/Src/stm32f7xx_hal_dma.c ****   
 1019              		.loc 1 519 56 is_stmt 0 view .LVU355
 1020 0004 866D     		ldr	r6, [r0, #88]
 1021              	.LVL94:
 521:Drivers/STM32F7xx_HAL_Driver/Src/stm32f7xx_hal_dma.c ****   
 1022              		.loc 1 521 3 is_stmt 1 view .LVU356
 521:Drivers/STM32F7xx_HAL_Driver/Src/stm32f7xx_hal_dma.c ****   
 1023              		.loc 1 521 24 is_stmt 0 view .LVU357
 1024 0006 FFF7FEFF 		bl	HAL_GetTick
 1025              	.LVL95:
 523:Drivers/STM32F7xx_HAL_Driver/Src/stm32f7xx_hal_dma.c ****   {
 1026              		.loc 1 523 3 is_stmt 1 view .LVU358
 523:Drivers/STM32F7xx_HAL_Driver/Src/stm32f7xx_hal_dma.c ****   {
 1027              		.loc 1 523 10 is_stmt 0 view .LVU359
 1028 000a 94F83530 		ldrb	r3, [r4, #53]	@ zero_extendqisi2
 1029 000e DBB2     		uxtb	r3, r3
 523:Drivers/STM32F7xx_HAL_Driver/Src/stm32f7xx_hal_dma.c ****   {
 1030              		.loc 1 523 5 view .LVU360
 1031 0010 022B     		cmp	r3, #2
 1032 0012 06D0     		beq	.L66
 525:Drivers/STM32F7xx_HAL_Driver/Src/stm32f7xx_hal_dma.c ****     
 1033              		.loc 1 525 5 is_stmt 1 view .LVU361
 525:Drivers/STM32F7xx_HAL_Driver/Src/stm32f7xx_hal_dma.c ****     
 1034              		.loc 1 525 21 is_stmt 0 view .LVU362
 1035 0014 8023     		movs	r3, #128
 1036 0016 6365     		str	r3, [r4, #84]
 528:Drivers/STM32F7xx_HAL_Driver/Src/stm32f7xx_hal_dma.c ****     
 1037              		.loc 1 528 5 is_stmt 1 view .LVU363
 528:Drivers/STM32F7xx_HAL_Driver/Src/stm32f7xx_hal_dma.c ****     
 1038              		.loc 1 528 5 view .LVU364
 1039 0018 0023     		movs	r3, #0
 1040 001a 84F83430 		strb	r3, [r4, #52]
 528:Drivers/STM32F7xx_HAL_Driver/Src/stm32f7xx_hal_dma.c ****     
 1041              		.loc 1 528 5 view .LVU365
ARM GAS  /tmp/ccdAZlHn.s 			page 47


 530:Drivers/STM32F7xx_HAL_Driver/Src/stm32f7xx_hal_dma.c ****   }
 1042              		.loc 1 530 5 view .LVU366
 530:Drivers/STM32F7xx_HAL_Driver/Src/stm32f7xx_hal_dma.c ****   }
 1043              		.loc 1 530 12 is_stmt 0 view .LVU367
 1044 001e 0120     		movs	r0, #1
 1045              	.LVL96:
 1046              	.L67:
 575:Drivers/STM32F7xx_HAL_Driver/Src/stm32f7xx_hal_dma.c **** 
 1047              		.loc 1 575 1 view .LVU368
 1048 0020 70BD     		pop	{r4, r5, r6, pc}
 1049              	.LVL97:
 1050              	.L66:
 575:Drivers/STM32F7xx_HAL_Driver/Src/stm32f7xx_hal_dma.c **** 
 1051              		.loc 1 575 1 view .LVU369
 1052 0022 0546     		mov	r5, r0
 535:Drivers/STM32F7xx_HAL_Driver/Src/stm32f7xx_hal_dma.c ****     hdma->Instance->FCR &= ~(DMA_IT_FE);
 1053              		.loc 1 535 5 is_stmt 1 view .LVU370
 535:Drivers/STM32F7xx_HAL_Driver/Src/stm32f7xx_hal_dma.c ****     hdma->Instance->FCR &= ~(DMA_IT_FE);
 1054              		.loc 1 535 9 is_stmt 0 view .LVU371
 1055 0024 2268     		ldr	r2, [r4]
 535:Drivers/STM32F7xx_HAL_Driver/Src/stm32f7xx_hal_dma.c ****     hdma->Instance->FCR &= ~(DMA_IT_FE);
 1056              		.loc 1 535 25 view .LVU372
 1057 0026 1368     		ldr	r3, [r2]
 1058 0028 23F01603 		bic	r3, r3, #22
 1059 002c 1360     		str	r3, [r2]
 536:Drivers/STM32F7xx_HAL_Driver/Src/stm32f7xx_hal_dma.c ****     
 1060              		.loc 1 536 5 is_stmt 1 view .LVU373
 536:Drivers/STM32F7xx_HAL_Driver/Src/stm32f7xx_hal_dma.c ****     
 1061              		.loc 1 536 9 is_stmt 0 view .LVU374
 1062 002e 2268     		ldr	r2, [r4]
 536:Drivers/STM32F7xx_HAL_Driver/Src/stm32f7xx_hal_dma.c ****     
 1063              		.loc 1 536 25 view .LVU375
 1064 0030 5369     		ldr	r3, [r2, #20]
 1065 0032 23F08003 		bic	r3, r3, #128
 1066 0036 5361     		str	r3, [r2, #20]
 538:Drivers/STM32F7xx_HAL_Driver/Src/stm32f7xx_hal_dma.c ****     {
 1067              		.loc 1 538 5 is_stmt 1 view .LVU376
 538:Drivers/STM32F7xx_HAL_Driver/Src/stm32f7xx_hal_dma.c ****     {
 1068              		.loc 1 538 13 is_stmt 0 view .LVU377
 1069 0038 236C     		ldr	r3, [r4, #64]
 538:Drivers/STM32F7xx_HAL_Driver/Src/stm32f7xx_hal_dma.c ****     {
 1070              		.loc 1 538 7 view .LVU378
 1071 003a E3B1     		cbz	r3, .L73
 1072              	.L68:
 540:Drivers/STM32F7xx_HAL_Driver/Src/stm32f7xx_hal_dma.c ****     }
 1073              		.loc 1 540 7 is_stmt 1 view .LVU379
 540:Drivers/STM32F7xx_HAL_Driver/Src/stm32f7xx_hal_dma.c ****     }
 1074              		.loc 1 540 11 is_stmt 0 view .LVU380
 1075 003c 2268     		ldr	r2, [r4]
 540:Drivers/STM32F7xx_HAL_Driver/Src/stm32f7xx_hal_dma.c ****     }
 1076              		.loc 1 540 27 view .LVU381
 1077 003e 1368     		ldr	r3, [r2]
 1078 0040 23F00803 		bic	r3, r3, #8
 1079 0044 1360     		str	r3, [r2]
 1080              	.L69:
 544:Drivers/STM32F7xx_HAL_Driver/Src/stm32f7xx_hal_dma.c ****     
 1081              		.loc 1 544 5 is_stmt 1 view .LVU382
ARM GAS  /tmp/ccdAZlHn.s 			page 48


 1082 0046 2268     		ldr	r2, [r4]
 1083 0048 1368     		ldr	r3, [r2]
 1084 004a 23F00103 		bic	r3, r3, #1
 1085 004e 1360     		str	r3, [r2]
 547:Drivers/STM32F7xx_HAL_Driver/Src/stm32f7xx_hal_dma.c ****     {
 1086              		.loc 1 547 5 view .LVU383
 1087              	.LVL98:
 1088              	.L70:
 547:Drivers/STM32F7xx_HAL_Driver/Src/stm32f7xx_hal_dma.c ****     {
 1089              		.loc 1 547 10 view .LVU384
 547:Drivers/STM32F7xx_HAL_Driver/Src/stm32f7xx_hal_dma.c ****     {
 1090              		.loc 1 547 16 is_stmt 0 view .LVU385
 1091 0050 2368     		ldr	r3, [r4]
 547:Drivers/STM32F7xx_HAL_Driver/Src/stm32f7xx_hal_dma.c ****     {
 1092              		.loc 1 547 26 view .LVU386
 1093 0052 1B68     		ldr	r3, [r3]
 547:Drivers/STM32F7xx_HAL_Driver/Src/stm32f7xx_hal_dma.c ****     {
 1094              		.loc 1 547 10 view .LVU387
 1095 0054 13F0010F 		tst	r3, #1
 1096 0058 11D0     		beq	.L74
 550:Drivers/STM32F7xx_HAL_Driver/Src/stm32f7xx_hal_dma.c ****       {
 1097              		.loc 1 550 7 is_stmt 1 view .LVU388
 550:Drivers/STM32F7xx_HAL_Driver/Src/stm32f7xx_hal_dma.c ****       {
 1098              		.loc 1 550 11 is_stmt 0 view .LVU389
 1099 005a FFF7FEFF 		bl	HAL_GetTick
 1100              	.LVL99:
 550:Drivers/STM32F7xx_HAL_Driver/Src/stm32f7xx_hal_dma.c ****       {
 1101              		.loc 1 550 25 view .LVU390
 1102 005e 431B     		subs	r3, r0, r5
 550:Drivers/STM32F7xx_HAL_Driver/Src/stm32f7xx_hal_dma.c ****       {
 1103              		.loc 1 550 9 view .LVU391
 1104 0060 052B     		cmp	r3, #5
 1105 0062 F5D9     		bls	.L70
 553:Drivers/STM32F7xx_HAL_Driver/Src/stm32f7xx_hal_dma.c ****         
 1106              		.loc 1 553 9 is_stmt 1 view .LVU392
 553:Drivers/STM32F7xx_HAL_Driver/Src/stm32f7xx_hal_dma.c ****         
 1107              		.loc 1 553 25 is_stmt 0 view .LVU393
 1108 0064 2023     		movs	r3, #32
 1109 0066 6365     		str	r3, [r4, #84]
 556:Drivers/STM32F7xx_HAL_Driver/Src/stm32f7xx_hal_dma.c ****         
 1110              		.loc 1 556 9 is_stmt 1 view .LVU394
 556:Drivers/STM32F7xx_HAL_Driver/Src/stm32f7xx_hal_dma.c ****         
 1111              		.loc 1 556 9 view .LVU395
 1112 0068 0023     		movs	r3, #0
 1113 006a 84F83430 		strb	r3, [r4, #52]
 556:Drivers/STM32F7xx_HAL_Driver/Src/stm32f7xx_hal_dma.c ****         
 1114              		.loc 1 556 9 view .LVU396
 559:Drivers/STM32F7xx_HAL_Driver/Src/stm32f7xx_hal_dma.c ****         
 1115              		.loc 1 559 9 view .LVU397
 559:Drivers/STM32F7xx_HAL_Driver/Src/stm32f7xx_hal_dma.c ****         
 1116              		.loc 1 559 21 is_stmt 0 view .LVU398
 1117 006e 0320     		movs	r0, #3
 1118 0070 84F83500 		strb	r0, [r4, #53]
 561:Drivers/STM32F7xx_HAL_Driver/Src/stm32f7xx_hal_dma.c ****       }
 1119              		.loc 1 561 9 is_stmt 1 view .LVU399
 561:Drivers/STM32F7xx_HAL_Driver/Src/stm32f7xx_hal_dma.c ****       }
 1120              		.loc 1 561 16 is_stmt 0 view .LVU400
ARM GAS  /tmp/ccdAZlHn.s 			page 49


 1121 0074 D4E7     		b	.L67
 1122              	.LVL100:
 1123              	.L73:
 538:Drivers/STM32F7xx_HAL_Driver/Src/stm32f7xx_hal_dma.c ****     {
 1124              		.loc 1 538 53 discriminator 1 view .LVU401
 1125 0076 A36C     		ldr	r3, [r4, #72]
 538:Drivers/STM32F7xx_HAL_Driver/Src/stm32f7xx_hal_dma.c ****     {
 1126              		.loc 1 538 45 discriminator 1 view .LVU402
 1127 0078 002B     		cmp	r3, #0
 1128 007a DFD1     		bne	.L68
 1129 007c E3E7     		b	.L69
 1130              	.LVL101:
 1131              	.L74:
 566:Drivers/STM32F7xx_HAL_Driver/Src/stm32f7xx_hal_dma.c ****     
 1132              		.loc 1 566 5 is_stmt 1 view .LVU403
 566:Drivers/STM32F7xx_HAL_Driver/Src/stm32f7xx_hal_dma.c ****     
 1133              		.loc 1 566 31 is_stmt 0 view .LVU404
 1134 007e E26D     		ldr	r2, [r4, #92]
 566:Drivers/STM32F7xx_HAL_Driver/Src/stm32f7xx_hal_dma.c ****     
 1135              		.loc 1 566 24 view .LVU405
 1136 0080 3F23     		movs	r3, #63
 1137 0082 9340     		lsls	r3, r3, r2
 566:Drivers/STM32F7xx_HAL_Driver/Src/stm32f7xx_hal_dma.c ****     
 1138              		.loc 1 566 16 view .LVU406
 1139 0084 B360     		str	r3, [r6, #8]
 569:Drivers/STM32F7xx_HAL_Driver/Src/stm32f7xx_hal_dma.c ****     
 1140              		.loc 1 569 5 is_stmt 1 view .LVU407
 569:Drivers/STM32F7xx_HAL_Driver/Src/stm32f7xx_hal_dma.c ****     
 1141              		.loc 1 569 5 view .LVU408
 1142 0086 0020     		movs	r0, #0
 1143 0088 84F83400 		strb	r0, [r4, #52]
 569:Drivers/STM32F7xx_HAL_Driver/Src/stm32f7xx_hal_dma.c ****     
 1144              		.loc 1 569 5 view .LVU409
 572:Drivers/STM32F7xx_HAL_Driver/Src/stm32f7xx_hal_dma.c ****   }
 1145              		.loc 1 572 5 view .LVU410
 572:Drivers/STM32F7xx_HAL_Driver/Src/stm32f7xx_hal_dma.c ****   }
 1146              		.loc 1 572 17 is_stmt 0 view .LVU411
 1147 008c 0123     		movs	r3, #1
 1148 008e 84F83530 		strb	r3, [r4, #53]
 574:Drivers/STM32F7xx_HAL_Driver/Src/stm32f7xx_hal_dma.c **** }
 1149              		.loc 1 574 3 is_stmt 1 view .LVU412
 574:Drivers/STM32F7xx_HAL_Driver/Src/stm32f7xx_hal_dma.c **** }
 1150              		.loc 1 574 10 is_stmt 0 view .LVU413
 1151 0092 C5E7     		b	.L67
 1152              		.cfi_endproc
 1153              	.LFE145:
 1155              		.section	.text.HAL_DMA_Abort_IT,"ax",%progbits
 1156              		.align	1
 1157              		.global	HAL_DMA_Abort_IT
 1158              		.syntax unified
 1159              		.thumb
 1160              		.thumb_func
 1161              		.fpu fpv5-sp-d16
 1163              	HAL_DMA_Abort_IT:
 1164              	.LVL102:
 1165              	.LFB146:
 584:Drivers/STM32F7xx_HAL_Driver/Src/stm32f7xx_hal_dma.c ****   if(hdma->State != HAL_DMA_STATE_BUSY)
ARM GAS  /tmp/ccdAZlHn.s 			page 50


 1166              		.loc 1 584 1 is_stmt 1 view -0
 1167              		.cfi_startproc
 1168              		@ args = 0, pretend = 0, frame = 0
 1169              		@ frame_needed = 0, uses_anonymous_args = 0
 1170              		@ link register save eliminated.
 585:Drivers/STM32F7xx_HAL_Driver/Src/stm32f7xx_hal_dma.c ****   {
 1171              		.loc 1 585 3 view .LVU415
 585:Drivers/STM32F7xx_HAL_Driver/Src/stm32f7xx_hal_dma.c ****   {
 1172              		.loc 1 585 10 is_stmt 0 view .LVU416
 1173 0000 90F83530 		ldrb	r3, [r0, #53]	@ zero_extendqisi2
 1174 0004 DBB2     		uxtb	r3, r3
 585:Drivers/STM32F7xx_HAL_Driver/Src/stm32f7xx_hal_dma.c ****   {
 1175              		.loc 1 585 5 view .LVU417
 1176 0006 022B     		cmp	r3, #2
 1177 0008 03D0     		beq	.L76
 587:Drivers/STM32F7xx_HAL_Driver/Src/stm32f7xx_hal_dma.c ****     return HAL_ERROR;
 1178              		.loc 1 587 5 is_stmt 1 view .LVU418
 587:Drivers/STM32F7xx_HAL_Driver/Src/stm32f7xx_hal_dma.c ****     return HAL_ERROR;
 1179              		.loc 1 587 21 is_stmt 0 view .LVU419
 1180 000a 8023     		movs	r3, #128
 1181 000c 4365     		str	r3, [r0, #84]
 588:Drivers/STM32F7xx_HAL_Driver/Src/stm32f7xx_hal_dma.c ****   }
 1182              		.loc 1 588 5 is_stmt 1 view .LVU420
 588:Drivers/STM32F7xx_HAL_Driver/Src/stm32f7xx_hal_dma.c ****   }
 1183              		.loc 1 588 12 is_stmt 0 view .LVU421
 1184 000e 0120     		movs	r0, #1
 1185              	.LVL103:
 588:Drivers/STM32F7xx_HAL_Driver/Src/stm32f7xx_hal_dma.c ****   }
 1186              		.loc 1 588 12 view .LVU422
 1187 0010 7047     		bx	lr
 1188              	.LVL104:
 1189              	.L76:
 593:Drivers/STM32F7xx_HAL_Driver/Src/stm32f7xx_hal_dma.c ****     
 1190              		.loc 1 593 5 is_stmt 1 view .LVU423
 593:Drivers/STM32F7xx_HAL_Driver/Src/stm32f7xx_hal_dma.c ****     
 1191              		.loc 1 593 17 is_stmt 0 view .LVU424
 1192 0012 0523     		movs	r3, #5
 1193 0014 80F83530 		strb	r3, [r0, #53]
 596:Drivers/STM32F7xx_HAL_Driver/Src/stm32f7xx_hal_dma.c ****   }
 1194              		.loc 1 596 5 is_stmt 1 view .LVU425
 1195 0018 0268     		ldr	r2, [r0]
 1196 001a 1368     		ldr	r3, [r2]
 1197 001c 23F00103 		bic	r3, r3, #1
 1198 0020 1360     		str	r3, [r2]
 599:Drivers/STM32F7xx_HAL_Driver/Src/stm32f7xx_hal_dma.c **** }
 1199              		.loc 1 599 3 view .LVU426
 599:Drivers/STM32F7xx_HAL_Driver/Src/stm32f7xx_hal_dma.c **** }
 1200              		.loc 1 599 10 is_stmt 0 view .LVU427
 1201 0022 0020     		movs	r0, #0
 1202              	.LVL105:
 600:Drivers/STM32F7xx_HAL_Driver/Src/stm32f7xx_hal_dma.c **** 
 1203              		.loc 1 600 1 view .LVU428
 1204 0024 7047     		bx	lr
 1205              		.cfi_endproc
 1206              	.LFE146:
 1208              		.section	.text.HAL_DMA_PollForTransfer,"ax",%progbits
 1209              		.align	1
ARM GAS  /tmp/ccdAZlHn.s 			page 51


 1210              		.global	HAL_DMA_PollForTransfer
 1211              		.syntax unified
 1212              		.thumb
 1213              		.thumb_func
 1214              		.fpu fpv5-sp-d16
 1216              	HAL_DMA_PollForTransfer:
 1217              	.LVL106:
