ARM GAS  /tmp/cc8sELAz.s 			page 1


   1              		.cpu cortex-m7
   2              		.eabi_attribute 27, 1
   3              		.eabi_attribute 28, 1
   4              		.eabi_attribute 20, 1
   5              		.eabi_attribute 21, 1
   6              		.eabi_attribute 23, 3
   7              		.eabi_attribute 24, 1
   8              		.eabi_attribute 25, 1
   9              		.eabi_attribute 26, 1
  10              		.eabi_attribute 30, 1
  11              		.eabi_attribute 34, 1
  12              		.eabi_attribute 18, 4
  13              		.file	"stm32f7xx_hal_pwr_ex.c"
  14              		.text
  15              	.Ltext0:
  16              		.cfi_sections	.debug_frame
  17              		.section	.text.HAL_PWREx_EnableBkUpReg,"ax",%progbits
  18              		.align	1
  19              		.global	HAL_PWREx_EnableBkUpReg
  20              		.arch armv7e-m
  21              		.syntax unified
  22              		.thumb
  23              		.thumb_func
  24              		.fpu fpv5-sp-d16
  26              	HAL_PWREx_EnableBkUpReg:
  27              	.LFB141:
  28              		.file 1 "Drivers/STM32F7xx_HAL_Driver/Src/stm32f7xx_hal_pwr_ex.c"
   1:Drivers/STM32F7xx_HAL_Driver/Src/stm32f7xx_hal_pwr_ex.c **** /**
   2:Drivers/STM32F7xx_HAL_Driver/Src/stm32f7xx_hal_pwr_ex.c ****   ******************************************************************************
   3:Drivers/STM32F7xx_HAL_Driver/Src/stm32f7xx_hal_pwr_ex.c ****   * @file    stm32f7xx_hal_pwr_ex.c
   4:Drivers/STM32F7xx_HAL_Driver/Src/stm32f7xx_hal_pwr_ex.c ****   * @author  MCD Application Team
   5:Drivers/STM32F7xx_HAL_Driver/Src/stm32f7xx_hal_pwr_ex.c ****   * @brief   Extended PWR HAL module driver.
   6:Drivers/STM32F7xx_HAL_Driver/Src/stm32f7xx_hal_pwr_ex.c ****   *          This file provides firmware functions to manage the following 
   7:Drivers/STM32F7xx_HAL_Driver/Src/stm32f7xx_hal_pwr_ex.c ****   *          functionalities of PWR extension peripheral:           
   8:Drivers/STM32F7xx_HAL_Driver/Src/stm32f7xx_hal_pwr_ex.c ****   *           + Peripheral Extended features functions
   9:Drivers/STM32F7xx_HAL_Driver/Src/stm32f7xx_hal_pwr_ex.c ****   *         
  10:Drivers/STM32F7xx_HAL_Driver/Src/stm32f7xx_hal_pwr_ex.c ****   ******************************************************************************
  11:Drivers/STM32F7xx_HAL_Driver/Src/stm32f7xx_hal_pwr_ex.c ****   * @attention
  12:Drivers/STM32F7xx_HAL_Driver/Src/stm32f7xx_hal_pwr_ex.c ****   *
  13:Drivers/STM32F7xx_HAL_Driver/Src/stm32f7xx_hal_pwr_ex.c ****   * <h2><center>&copy; Copyright (c) 2017 STMicroelectronics.
  14:Drivers/STM32F7xx_HAL_Driver/Src/stm32f7xx_hal_pwr_ex.c ****   * All rights reserved.</center></h2>
  15:Drivers/STM32F7xx_HAL_Driver/Src/stm32f7xx_hal_pwr_ex.c ****   *
  16:Drivers/STM32F7xx_HAL_Driver/Src/stm32f7xx_hal_pwr_ex.c ****   * This software component is licensed by ST under BSD 3-Clause license,
  17:Drivers/STM32F7xx_HAL_Driver/Src/stm32f7xx_hal_pwr_ex.c ****   * the "License"; You may not use this file except in compliance with the
  18:Drivers/STM32F7xx_HAL_Driver/Src/stm32f7xx_hal_pwr_ex.c ****   * License. You may obtain a copy of the License at:
  19:Drivers/STM32F7xx_HAL_Driver/Src/stm32f7xx_hal_pwr_ex.c ****   *                        opensource.org/licenses/BSD-3-Clause
  20:Drivers/STM32F7xx_HAL_Driver/Src/stm32f7xx_hal_pwr_ex.c ****   *
  21:Drivers/STM32F7xx_HAL_Driver/Src/stm32f7xx_hal_pwr_ex.c ****   ******************************************************************************
  22:Drivers/STM32F7xx_HAL_Driver/Src/stm32f7xx_hal_pwr_ex.c ****   */ 
  23:Drivers/STM32F7xx_HAL_Driver/Src/stm32f7xx_hal_pwr_ex.c **** 
  24:Drivers/STM32F7xx_HAL_Driver/Src/stm32f7xx_hal_pwr_ex.c **** /* Includes ------------------------------------------------------------------*/
  25:Drivers/STM32F7xx_HAL_Driver/Src/stm32f7xx_hal_pwr_ex.c **** #include "stm32f7xx_hal.h"
  26:Drivers/STM32F7xx_HAL_Driver/Src/stm32f7xx_hal_pwr_ex.c **** 
  27:Drivers/STM32F7xx_HAL_Driver/Src/stm32f7xx_hal_pwr_ex.c **** /** @addtogroup STM32F7xx_HAL_Driver
  28:Drivers/STM32F7xx_HAL_Driver/Src/stm32f7xx_hal_pwr_ex.c ****   * @{
  29:Drivers/STM32F7xx_HAL_Driver/Src/stm32f7xx_hal_pwr_ex.c ****   */
  30:Drivers/STM32F7xx_HAL_Driver/Src/stm32f7xx_hal_pwr_ex.c **** 
ARM GAS  /tmp/cc8sELAz.s 			page 2


  31:Drivers/STM32F7xx_HAL_Driver/Src/stm32f7xx_hal_pwr_ex.c **** /** @defgroup PWREx PWREx
  32:Drivers/STM32F7xx_HAL_Driver/Src/stm32f7xx_hal_pwr_ex.c ****   * @brief PWR HAL module driver
  33:Drivers/STM32F7xx_HAL_Driver/Src/stm32f7xx_hal_pwr_ex.c ****   * @{
  34:Drivers/STM32F7xx_HAL_Driver/Src/stm32f7xx_hal_pwr_ex.c ****   */
  35:Drivers/STM32F7xx_HAL_Driver/Src/stm32f7xx_hal_pwr_ex.c **** 
  36:Drivers/STM32F7xx_HAL_Driver/Src/stm32f7xx_hal_pwr_ex.c **** #ifdef HAL_PWR_MODULE_ENABLED
  37:Drivers/STM32F7xx_HAL_Driver/Src/stm32f7xx_hal_pwr_ex.c **** 
  38:Drivers/STM32F7xx_HAL_Driver/Src/stm32f7xx_hal_pwr_ex.c **** /* Private typedef -----------------------------------------------------------*/
  39:Drivers/STM32F7xx_HAL_Driver/Src/stm32f7xx_hal_pwr_ex.c **** /* Private define ------------------------------------------------------------*/
  40:Drivers/STM32F7xx_HAL_Driver/Src/stm32f7xx_hal_pwr_ex.c **** /** @addtogroup PWREx_Private_Constants
  41:Drivers/STM32F7xx_HAL_Driver/Src/stm32f7xx_hal_pwr_ex.c ****   * @{
  42:Drivers/STM32F7xx_HAL_Driver/Src/stm32f7xx_hal_pwr_ex.c ****   */    
  43:Drivers/STM32F7xx_HAL_Driver/Src/stm32f7xx_hal_pwr_ex.c **** #define PWR_OVERDRIVE_TIMEOUT_VALUE  1000
  44:Drivers/STM32F7xx_HAL_Driver/Src/stm32f7xx_hal_pwr_ex.c **** #define PWR_UDERDRIVE_TIMEOUT_VALUE  1000
  45:Drivers/STM32F7xx_HAL_Driver/Src/stm32f7xx_hal_pwr_ex.c **** #define PWR_BKPREG_TIMEOUT_VALUE     1000
  46:Drivers/STM32F7xx_HAL_Driver/Src/stm32f7xx_hal_pwr_ex.c **** #define PWR_VOSRDY_TIMEOUT_VALUE     1000
  47:Drivers/STM32F7xx_HAL_Driver/Src/stm32f7xx_hal_pwr_ex.c **** /**
  48:Drivers/STM32F7xx_HAL_Driver/Src/stm32f7xx_hal_pwr_ex.c ****   * @}
  49:Drivers/STM32F7xx_HAL_Driver/Src/stm32f7xx_hal_pwr_ex.c ****   */
  50:Drivers/STM32F7xx_HAL_Driver/Src/stm32f7xx_hal_pwr_ex.c ****     
  51:Drivers/STM32F7xx_HAL_Driver/Src/stm32f7xx_hal_pwr_ex.c **** /* Private macro -------------------------------------------------------------*/
  52:Drivers/STM32F7xx_HAL_Driver/Src/stm32f7xx_hal_pwr_ex.c **** /* Private variables ---------------------------------------------------------*/
  53:Drivers/STM32F7xx_HAL_Driver/Src/stm32f7xx_hal_pwr_ex.c **** /* Private function prototypes -----------------------------------------------*/
  54:Drivers/STM32F7xx_HAL_Driver/Src/stm32f7xx_hal_pwr_ex.c **** /* Private functions ---------------------------------------------------------*/
  55:Drivers/STM32F7xx_HAL_Driver/Src/stm32f7xx_hal_pwr_ex.c **** /** @defgroup PWREx_Exported_Functions PWREx Exported Functions
  56:Drivers/STM32F7xx_HAL_Driver/Src/stm32f7xx_hal_pwr_ex.c ****   *  @{
  57:Drivers/STM32F7xx_HAL_Driver/Src/stm32f7xx_hal_pwr_ex.c ****   */
  58:Drivers/STM32F7xx_HAL_Driver/Src/stm32f7xx_hal_pwr_ex.c **** 
  59:Drivers/STM32F7xx_HAL_Driver/Src/stm32f7xx_hal_pwr_ex.c **** /** @defgroup PWREx_Exported_Functions_Group1 Peripheral Extended features functions 
  60:Drivers/STM32F7xx_HAL_Driver/Src/stm32f7xx_hal_pwr_ex.c ****   *  @brief Peripheral Extended features functions 
  61:Drivers/STM32F7xx_HAL_Driver/Src/stm32f7xx_hal_pwr_ex.c ****   *
  62:Drivers/STM32F7xx_HAL_Driver/Src/stm32f7xx_hal_pwr_ex.c **** @verbatim   
  63:Drivers/STM32F7xx_HAL_Driver/Src/stm32f7xx_hal_pwr_ex.c **** 
  64:Drivers/STM32F7xx_HAL_Driver/Src/stm32f7xx_hal_pwr_ex.c ****  ===============================================================================
  65:Drivers/STM32F7xx_HAL_Driver/Src/stm32f7xx_hal_pwr_ex.c ****                  ##### Peripheral extended features functions #####
  66:Drivers/STM32F7xx_HAL_Driver/Src/stm32f7xx_hal_pwr_ex.c ****  ===============================================================================
  67:Drivers/STM32F7xx_HAL_Driver/Src/stm32f7xx_hal_pwr_ex.c **** 
  68:Drivers/STM32F7xx_HAL_Driver/Src/stm32f7xx_hal_pwr_ex.c ****     *** Main and Backup Regulators configuration ***
  69:Drivers/STM32F7xx_HAL_Driver/Src/stm32f7xx_hal_pwr_ex.c ****     ================================================
  70:Drivers/STM32F7xx_HAL_Driver/Src/stm32f7xx_hal_pwr_ex.c ****     [..] 
  71:Drivers/STM32F7xx_HAL_Driver/Src/stm32f7xx_hal_pwr_ex.c ****       (+) The backup domain includes 4 Kbytes of backup SRAM accessible only from 
  72:Drivers/STM32F7xx_HAL_Driver/Src/stm32f7xx_hal_pwr_ex.c ****           the CPU, and address in 32-bit, 16-bit or 8-bit mode. Its content is 
  73:Drivers/STM32F7xx_HAL_Driver/Src/stm32f7xx_hal_pwr_ex.c ****           retained even in Standby or VBAT mode when the low power backup regulator
  74:Drivers/STM32F7xx_HAL_Driver/Src/stm32f7xx_hal_pwr_ex.c ****           is enabled. It can be considered as an internal EEPROM when VBAT is 
  75:Drivers/STM32F7xx_HAL_Driver/Src/stm32f7xx_hal_pwr_ex.c ****           always present. You can use the HAL_PWREx_EnableBkUpReg() function to 
  76:Drivers/STM32F7xx_HAL_Driver/Src/stm32f7xx_hal_pwr_ex.c ****           enable the low power backup regulator. 
  77:Drivers/STM32F7xx_HAL_Driver/Src/stm32f7xx_hal_pwr_ex.c **** 
  78:Drivers/STM32F7xx_HAL_Driver/Src/stm32f7xx_hal_pwr_ex.c ****       (+) When the backup domain is supplied by VDD (analog switch connected to VDD) 
  79:Drivers/STM32F7xx_HAL_Driver/Src/stm32f7xx_hal_pwr_ex.c ****           the backup SRAM is powered from VDD which replaces the VBAT power supply to 
  80:Drivers/STM32F7xx_HAL_Driver/Src/stm32f7xx_hal_pwr_ex.c ****           save battery life.
  81:Drivers/STM32F7xx_HAL_Driver/Src/stm32f7xx_hal_pwr_ex.c **** 
  82:Drivers/STM32F7xx_HAL_Driver/Src/stm32f7xx_hal_pwr_ex.c ****       (+) The backup SRAM is not mass erased by a tamper event. It is read 
  83:Drivers/STM32F7xx_HAL_Driver/Src/stm32f7xx_hal_pwr_ex.c ****           protected to prevent confidential data, such as cryptographic private 
  84:Drivers/STM32F7xx_HAL_Driver/Src/stm32f7xx_hal_pwr_ex.c ****           key, from being accessed. The backup SRAM can be erased only through 
  85:Drivers/STM32F7xx_HAL_Driver/Src/stm32f7xx_hal_pwr_ex.c ****           the Flash interface when a protection level change from level 1 to 
  86:Drivers/STM32F7xx_HAL_Driver/Src/stm32f7xx_hal_pwr_ex.c ****           level 0 is requested. 
  87:Drivers/STM32F7xx_HAL_Driver/Src/stm32f7xx_hal_pwr_ex.c ****       -@- Refer to the description of Read protection (RDP) in the Flash 
ARM GAS  /tmp/cc8sELAz.s 			page 3


  88:Drivers/STM32F7xx_HAL_Driver/Src/stm32f7xx_hal_pwr_ex.c ****           programming manual.
  89:Drivers/STM32F7xx_HAL_Driver/Src/stm32f7xx_hal_pwr_ex.c **** 
  90:Drivers/STM32F7xx_HAL_Driver/Src/stm32f7xx_hal_pwr_ex.c ****       (+) The main internal regulator can be configured to have a tradeoff between 
  91:Drivers/STM32F7xx_HAL_Driver/Src/stm32f7xx_hal_pwr_ex.c ****           performance and power consumption when the device does not operate at 
  92:Drivers/STM32F7xx_HAL_Driver/Src/stm32f7xx_hal_pwr_ex.c ****           the maximum frequency. This is done through __HAL_PWR_MAINREGULATORMODE_CONFIG() 
  93:Drivers/STM32F7xx_HAL_Driver/Src/stm32f7xx_hal_pwr_ex.c ****           macro which configure VOS bit in PWR_CR register
  94:Drivers/STM32F7xx_HAL_Driver/Src/stm32f7xx_hal_pwr_ex.c ****           
  95:Drivers/STM32F7xx_HAL_Driver/Src/stm32f7xx_hal_pwr_ex.c ****         Refer to the product datasheets for more details.
  96:Drivers/STM32F7xx_HAL_Driver/Src/stm32f7xx_hal_pwr_ex.c **** 
  97:Drivers/STM32F7xx_HAL_Driver/Src/stm32f7xx_hal_pwr_ex.c ****     *** FLASH Power Down configuration ****
  98:Drivers/STM32F7xx_HAL_Driver/Src/stm32f7xx_hal_pwr_ex.c ****     =======================================
  99:Drivers/STM32F7xx_HAL_Driver/Src/stm32f7xx_hal_pwr_ex.c ****     [..] 
 100:Drivers/STM32F7xx_HAL_Driver/Src/stm32f7xx_hal_pwr_ex.c ****       (+) By setting the FPDS bit in the PWR_CR register by using the 
 101:Drivers/STM32F7xx_HAL_Driver/Src/stm32f7xx_hal_pwr_ex.c ****           HAL_PWREx_EnableFlashPowerDown() function, the Flash memory also enters power 
 102:Drivers/STM32F7xx_HAL_Driver/Src/stm32f7xx_hal_pwr_ex.c ****           down mode when the device enters Stop mode. When the Flash memory 
 103:Drivers/STM32F7xx_HAL_Driver/Src/stm32f7xx_hal_pwr_ex.c ****           is in power down mode, an additional startup delay is incurred when 
 104:Drivers/STM32F7xx_HAL_Driver/Src/stm32f7xx_hal_pwr_ex.c ****           waking up from Stop mode.
 105:Drivers/STM32F7xx_HAL_Driver/Src/stm32f7xx_hal_pwr_ex.c **** 
 106:Drivers/STM32F7xx_HAL_Driver/Src/stm32f7xx_hal_pwr_ex.c ****     *** Over-Drive and Under-Drive configuration ****
 107:Drivers/STM32F7xx_HAL_Driver/Src/stm32f7xx_hal_pwr_ex.c ****     =================================================
 108:Drivers/STM32F7xx_HAL_Driver/Src/stm32f7xx_hal_pwr_ex.c ****     [..]         
 109:Drivers/STM32F7xx_HAL_Driver/Src/stm32f7xx_hal_pwr_ex.c ****        (+) In Run mode: the main regulator has 2 operating modes available:
 110:Drivers/STM32F7xx_HAL_Driver/Src/stm32f7xx_hal_pwr_ex.c ****         (++) Normal mode: The CPU and core logic operate at maximum frequency at a given 
 111:Drivers/STM32F7xx_HAL_Driver/Src/stm32f7xx_hal_pwr_ex.c ****              voltage scaling (scale 1, scale 2 or scale 3)
 112:Drivers/STM32F7xx_HAL_Driver/Src/stm32f7xx_hal_pwr_ex.c ****         (++) Over-drive mode: This mode allows the CPU and the core logic to operate at a 
 113:Drivers/STM32F7xx_HAL_Driver/Src/stm32f7xx_hal_pwr_ex.c ****             higher frequency than the normal mode for a given voltage scaling (scale 1,  
 114:Drivers/STM32F7xx_HAL_Driver/Src/stm32f7xx_hal_pwr_ex.c ****             scale 2 or scale 3). This mode is enabled through HAL_PWREx_EnableOverDrive() function 
 115:Drivers/STM32F7xx_HAL_Driver/Src/stm32f7xx_hal_pwr_ex.c ****             disabled by HAL_PWREx_DisableOverDrive() function, to enter or exit from Over-drive mod
 116:Drivers/STM32F7xx_HAL_Driver/Src/stm32f7xx_hal_pwr_ex.c ****             the sequence described in Reference manual.
 117:Drivers/STM32F7xx_HAL_Driver/Src/stm32f7xx_hal_pwr_ex.c ****              
 118:Drivers/STM32F7xx_HAL_Driver/Src/stm32f7xx_hal_pwr_ex.c ****        (+) In Stop mode: the main regulator or low power regulator supplies a low power 
 119:Drivers/STM32F7xx_HAL_Driver/Src/stm32f7xx_hal_pwr_ex.c ****            voltage to the 1.2V domain, thus preserving the content of registers 
 120:Drivers/STM32F7xx_HAL_Driver/Src/stm32f7xx_hal_pwr_ex.c ****            and internal SRAM. 2 operating modes are available:
 121:Drivers/STM32F7xx_HAL_Driver/Src/stm32f7xx_hal_pwr_ex.c ****          (++) Normal mode: the 1.2V domain is preserved in nominal leakage mode. This mode is only 
 122:Drivers/STM32F7xx_HAL_Driver/Src/stm32f7xx_hal_pwr_ex.c ****               available when the main regulator or the low power regulator is used in Scale 3 or 
 123:Drivers/STM32F7xx_HAL_Driver/Src/stm32f7xx_hal_pwr_ex.c ****               low voltage mode.
 124:Drivers/STM32F7xx_HAL_Driver/Src/stm32f7xx_hal_pwr_ex.c ****          (++) Under-drive mode: the 1.2V domain is preserved in reduced leakage mode. This mode is 
 125:Drivers/STM32F7xx_HAL_Driver/Src/stm32f7xx_hal_pwr_ex.c ****               available when the main regulator or the low power regulator is in low voltage mode.
 126:Drivers/STM32F7xx_HAL_Driver/Src/stm32f7xx_hal_pwr_ex.c **** 
 127:Drivers/STM32F7xx_HAL_Driver/Src/stm32f7xx_hal_pwr_ex.c **** @endverbatim
 128:Drivers/STM32F7xx_HAL_Driver/Src/stm32f7xx_hal_pwr_ex.c ****   * @{
 129:Drivers/STM32F7xx_HAL_Driver/Src/stm32f7xx_hal_pwr_ex.c ****   */
 130:Drivers/STM32F7xx_HAL_Driver/Src/stm32f7xx_hal_pwr_ex.c **** 
 131:Drivers/STM32F7xx_HAL_Driver/Src/stm32f7xx_hal_pwr_ex.c **** /**
 132:Drivers/STM32F7xx_HAL_Driver/Src/stm32f7xx_hal_pwr_ex.c ****   * @brief Enables the Backup Regulator.
 133:Drivers/STM32F7xx_HAL_Driver/Src/stm32f7xx_hal_pwr_ex.c ****   * @retval HAL status
 134:Drivers/STM32F7xx_HAL_Driver/Src/stm32f7xx_hal_pwr_ex.c ****   */
 135:Drivers/STM32F7xx_HAL_Driver/Src/stm32f7xx_hal_pwr_ex.c **** HAL_StatusTypeDef HAL_PWREx_EnableBkUpReg(void)
 136:Drivers/STM32F7xx_HAL_Driver/Src/stm32f7xx_hal_pwr_ex.c **** {
  29              		.loc 1 136 1 view -0
  30              		.cfi_startproc
  31              		@ args = 0, pretend = 0, frame = 0
  32              		@ frame_needed = 0, uses_anonymous_args = 0
  33 0000 10B5     		push	{r4, lr}
  34              	.LCFI0:
  35              		.cfi_def_cfa_offset 8
  36              		.cfi_offset 4, -8
ARM GAS  /tmp/cc8sELAz.s 			page 4


  37              		.cfi_offset 14, -4
 137:Drivers/STM32F7xx_HAL_Driver/Src/stm32f7xx_hal_pwr_ex.c ****   uint32_t tickstart = 0;
  38              		.loc 1 137 3 view .LVU1
  39              	.LVL0:
 138:Drivers/STM32F7xx_HAL_Driver/Src/stm32f7xx_hal_pwr_ex.c **** 
 139:Drivers/STM32F7xx_HAL_Driver/Src/stm32f7xx_hal_pwr_ex.c ****   /* Enable Backup regulator */
 140:Drivers/STM32F7xx_HAL_Driver/Src/stm32f7xx_hal_pwr_ex.c ****   PWR->CSR1 |= PWR_CSR1_BRE;
  40              		.loc 1 140 3 view .LVU2
  41              		.loc 1 140 13 is_stmt 0 view .LVU3
  42 0002 0D4B     		ldr	r3, .L8
  43 0004 5A68     		ldr	r2, [r3, #4]
  44 0006 42F40072 		orr	r2, r2, #512
  45 000a 5A60     		str	r2, [r3, #4]
 141:Drivers/STM32F7xx_HAL_Driver/Src/stm32f7xx_hal_pwr_ex.c ****     
 142:Drivers/STM32F7xx_HAL_Driver/Src/stm32f7xx_hal_pwr_ex.c ****   /* Workaround for the following hardware bug: */
 143:Drivers/STM32F7xx_HAL_Driver/Src/stm32f7xx_hal_pwr_ex.c ****   /* Id 19: PWR : No STANDBY wake-up when Back-up RAM enabled (ref. Errata Sheet p23) */
 144:Drivers/STM32F7xx_HAL_Driver/Src/stm32f7xx_hal_pwr_ex.c ****   PWR->CSR1 |= PWR_CSR1_EIWUP;
  46              		.loc 1 144 3 is_stmt 1 view .LVU4
  47              		.loc 1 144 13 is_stmt 0 view .LVU5
  48 000c 5A68     		ldr	r2, [r3, #4]
  49 000e 42F48072 		orr	r2, r2, #256
  50 0012 5A60     		str	r2, [r3, #4]
 145:Drivers/STM32F7xx_HAL_Driver/Src/stm32f7xx_hal_pwr_ex.c **** 
 146:Drivers/STM32F7xx_HAL_Driver/Src/stm32f7xx_hal_pwr_ex.c ****   /* Get tick */
 147:Drivers/STM32F7xx_HAL_Driver/Src/stm32f7xx_hal_pwr_ex.c ****   tickstart = HAL_GetTick();
  51              		.loc 1 147 3 is_stmt 1 view .LVU6
  52              		.loc 1 147 15 is_stmt 0 view .LVU7
  53 0014 FFF7FEFF 		bl	HAL_GetTick
  54              	.LVL1:
  55 0018 0446     		mov	r4, r0
  56              	.LVL2:
 148:Drivers/STM32F7xx_HAL_Driver/Src/stm32f7xx_hal_pwr_ex.c **** 
 149:Drivers/STM32F7xx_HAL_Driver/Src/stm32f7xx_hal_pwr_ex.c ****   /* Wait till Backup regulator ready flag is set */  
 150:Drivers/STM32F7xx_HAL_Driver/Src/stm32f7xx_hal_pwr_ex.c ****   while(__HAL_PWR_GET_FLAG(PWR_FLAG_BRR) == RESET)
  57              		.loc 1 150 3 is_stmt 1 view .LVU8
  58              	.L2:
  59              		.loc 1 150 8 view .LVU9
  60              		.loc 1 150 9 is_stmt 0 view .LVU10
  61 001a 074B     		ldr	r3, .L8
  62 001c 5B68     		ldr	r3, [r3, #4]
  63              		.loc 1 150 8 view .LVU11
  64 001e 13F0080F 		tst	r3, #8
  65 0022 07D1     		bne	.L7
 151:Drivers/STM32F7xx_HAL_Driver/Src/stm32f7xx_hal_pwr_ex.c ****   {
 152:Drivers/STM32F7xx_HAL_Driver/Src/stm32f7xx_hal_pwr_ex.c ****     if((HAL_GetTick() - tickstart ) > PWR_BKPREG_TIMEOUT_VALUE)
  66              		.loc 1 152 5 is_stmt 1 view .LVU12
  67              		.loc 1 152 9 is_stmt 0 view .LVU13
  68 0024 FFF7FEFF 		bl	HAL_GetTick
  69              	.LVL3:
  70              		.loc 1 152 23 view .LVU14
  71 0028 001B     		subs	r0, r0, r4
  72              		.loc 1 152 7 view .LVU15
  73 002a B0F57A7F 		cmp	r0, #1000
  74 002e F4D9     		bls	.L2
 153:Drivers/STM32F7xx_HAL_Driver/Src/stm32f7xx_hal_pwr_ex.c ****     {
 154:Drivers/STM32F7xx_HAL_Driver/Src/stm32f7xx_hal_pwr_ex.c ****       return HAL_TIMEOUT;
  75              		.loc 1 154 14 view .LVU16
ARM GAS  /tmp/cc8sELAz.s 			page 5


  76 0030 0320     		movs	r0, #3
  77 0032 00E0     		b	.L3
  78              	.L7:
 155:Drivers/STM32F7xx_HAL_Driver/Src/stm32f7xx_hal_pwr_ex.c ****     } 
 156:Drivers/STM32F7xx_HAL_Driver/Src/stm32f7xx_hal_pwr_ex.c ****   }
 157:Drivers/STM32F7xx_HAL_Driver/Src/stm32f7xx_hal_pwr_ex.c ****   return HAL_OK;
  79              		.loc 1 157 10 view .LVU17
  80 0034 0020     		movs	r0, #0
  81              	.L3:
 158:Drivers/STM32F7xx_HAL_Driver/Src/stm32f7xx_hal_pwr_ex.c **** }
  82              		.loc 1 158 1 view .LVU18
  83 0036 10BD     		pop	{r4, pc}
  84              	.LVL4:
  85              	.L9:
  86              		.loc 1 158 1 view .LVU19
  87              		.align	2
  88              	.L8:
  89 0038 00700040 		.word	1073770496
  90              		.cfi_endproc
  91              	.LFE141:
  93              		.section	.text.HAL_PWREx_DisableBkUpReg,"ax",%progbits
  94              		.align	1
  95              		.global	HAL_PWREx_DisableBkUpReg
  96              		.syntax unified
  97              		.thumb
  98              		.thumb_func
  99              		.fpu fpv5-sp-d16
 101              	HAL_PWREx_DisableBkUpReg:
 102              	.LFB142:
 159:Drivers/STM32F7xx_HAL_Driver/Src/stm32f7xx_hal_pwr_ex.c **** 
 160:Drivers/STM32F7xx_HAL_Driver/Src/stm32f7xx_hal_pwr_ex.c **** /**
 161:Drivers/STM32F7xx_HAL_Driver/Src/stm32f7xx_hal_pwr_ex.c ****   * @brief Disables the Backup Regulator.
 162:Drivers/STM32F7xx_HAL_Driver/Src/stm32f7xx_hal_pwr_ex.c ****   * @retval HAL status
 163:Drivers/STM32F7xx_HAL_Driver/Src/stm32f7xx_hal_pwr_ex.c ****   */
 164:Drivers/STM32F7xx_HAL_Driver/Src/stm32f7xx_hal_pwr_ex.c **** HAL_StatusTypeDef HAL_PWREx_DisableBkUpReg(void)
 165:Drivers/STM32F7xx_HAL_Driver/Src/stm32f7xx_hal_pwr_ex.c **** {
 103              		.loc 1 165 1 is_stmt 1 view -0
 104              		.cfi_startproc
 105              		@ args = 0, pretend = 0, frame = 0
 106              		@ frame_needed = 0, uses_anonymous_args = 0
 107 0000 10B5     		push	{r4, lr}
 108              	.LCFI1:
 109              		.cfi_def_cfa_offset 8
 110              		.cfi_offset 4, -8
 111              		.cfi_offset 14, -4
 166:Drivers/STM32F7xx_HAL_Driver/Src/stm32f7xx_hal_pwr_ex.c ****   uint32_t tickstart = 0;
 112              		.loc 1 166 3 view .LVU21
 113              	.LVL5:
 167:Drivers/STM32F7xx_HAL_Driver/Src/stm32f7xx_hal_pwr_ex.c ****   
 168:Drivers/STM32F7xx_HAL_Driver/Src/stm32f7xx_hal_pwr_ex.c ****   /* Disable Backup regulator */
 169:Drivers/STM32F7xx_HAL_Driver/Src/stm32f7xx_hal_pwr_ex.c ****   PWR->CSR1 &= (uint32_t)~((uint32_t)PWR_CSR1_BRE);
 114              		.loc 1 169 3 view .LVU22
 115              		.loc 1 169 13 is_stmt 0 view .LVU23
 116 0002 0D4B     		ldr	r3, .L17
 117 0004 5A68     		ldr	r2, [r3, #4]
 118 0006 22F40072 		bic	r2, r2, #512
 119 000a 5A60     		str	r2, [r3, #4]
ARM GAS  /tmp/cc8sELAz.s 			page 6


 170:Drivers/STM32F7xx_HAL_Driver/Src/stm32f7xx_hal_pwr_ex.c ****   
 171:Drivers/STM32F7xx_HAL_Driver/Src/stm32f7xx_hal_pwr_ex.c ****   /* Workaround for the following hardware bug: */
 172:Drivers/STM32F7xx_HAL_Driver/Src/stm32f7xx_hal_pwr_ex.c ****   /* Id 19: PWR : No STANDBY wake-up when Back-up RAM enabled (ref. Errata Sheet p23) */
 173:Drivers/STM32F7xx_HAL_Driver/Src/stm32f7xx_hal_pwr_ex.c ****   PWR->CSR1 |= PWR_CSR1_EIWUP;
 120              		.loc 1 173 3 is_stmt 1 view .LVU24
 121              		.loc 1 173 13 is_stmt 0 view .LVU25
 122 000c 5A68     		ldr	r2, [r3, #4]
 123 000e 42F48072 		orr	r2, r2, #256
 124 0012 5A60     		str	r2, [r3, #4]
 174:Drivers/STM32F7xx_HAL_Driver/Src/stm32f7xx_hal_pwr_ex.c **** 
 175:Drivers/STM32F7xx_HAL_Driver/Src/stm32f7xx_hal_pwr_ex.c ****   /* Get tick */
 176:Drivers/STM32F7xx_HAL_Driver/Src/stm32f7xx_hal_pwr_ex.c ****   tickstart = HAL_GetTick();
 125              		.loc 1 176 3 is_stmt 1 view .LVU26
 126              		.loc 1 176 15 is_stmt 0 view .LVU27
 127 0014 FFF7FEFF 		bl	HAL_GetTick
 128              	.LVL6:
 129 0018 0446     		mov	r4, r0
 130              	.LVL7:
 177:Drivers/STM32F7xx_HAL_Driver/Src/stm32f7xx_hal_pwr_ex.c **** 
 178:Drivers/STM32F7xx_HAL_Driver/Src/stm32f7xx_hal_pwr_ex.c ****   /* Wait till Backup regulator ready flag is set */  
 179:Drivers/STM32F7xx_HAL_Driver/Src/stm32f7xx_hal_pwr_ex.c ****   while(__HAL_PWR_GET_FLAG(PWR_FLAG_BRR) != RESET)
 131              		.loc 1 179 3 is_stmt 1 view .LVU28
 132              	.L11:
 133              		.loc 1 179 8 view .LVU29
 134              		.loc 1 179 9 is_stmt 0 view .LVU30
 135 001a 074B     		ldr	r3, .L17
 136 001c 5B68     		ldr	r3, [r3, #4]
 137              		.loc 1 179 8 view .LVU31
 138 001e 13F0080F 		tst	r3, #8
 139 0022 07D0     		beq	.L16
 180:Drivers/STM32F7xx_HAL_Driver/Src/stm32f7xx_hal_pwr_ex.c ****   {
 181:Drivers/STM32F7xx_HAL_Driver/Src/stm32f7xx_hal_pwr_ex.c ****     if((HAL_GetTick() - tickstart ) > PWR_BKPREG_TIMEOUT_VALUE)
 140              		.loc 1 181 5 is_stmt 1 view .LVU32
 141              		.loc 1 181 9 is_stmt 0 view .LVU33
 142 0024 FFF7FEFF 		bl	HAL_GetTick
 143              	.LVL8:
 144              		.loc 1 181 23 view .LVU34
 145 0028 001B     		subs	r0, r0, r4
 146              		.loc 1 181 7 view .LVU35
 147 002a B0F57A7F 		cmp	r0, #1000
 148 002e F4D9     		bls	.L11
 182:Drivers/STM32F7xx_HAL_Driver/Src/stm32f7xx_hal_pwr_ex.c ****     {
 183:Drivers/STM32F7xx_HAL_Driver/Src/stm32f7xx_hal_pwr_ex.c ****       return HAL_TIMEOUT;
 149              		.loc 1 183 14 view .LVU36
 150 0030 0320     		movs	r0, #3
 151 0032 00E0     		b	.L12
 152              	.L16:
 184:Drivers/STM32F7xx_HAL_Driver/Src/stm32f7xx_hal_pwr_ex.c ****     } 
 185:Drivers/STM32F7xx_HAL_Driver/Src/stm32f7xx_hal_pwr_ex.c ****   }
 186:Drivers/STM32F7xx_HAL_Driver/Src/stm32f7xx_hal_pwr_ex.c ****   return HAL_OK;
 153              		.loc 1 186 10 view .LVU37
 154 0034 0020     		movs	r0, #0
 155              	.L12:
 187:Drivers/STM32F7xx_HAL_Driver/Src/stm32f7xx_hal_pwr_ex.c **** }
 156              		.loc 1 187 1 view .LVU38
 157 0036 10BD     		pop	{r4, pc}
 158              	.LVL9:
ARM GAS  /tmp/cc8sELAz.s 			page 7


 159              	.L18:
 160              		.loc 1 187 1 view .LVU39
 161              		.align	2
 162              	.L17:
 163 0038 00700040 		.word	1073770496
 164              		.cfi_endproc
 165              	.LFE142:
 167              		.section	.text.HAL_PWREx_EnableFlashPowerDown,"ax",%progbits
 168              		.align	1
 169              		.global	HAL_PWREx_EnableFlashPowerDown
 170              		.syntax unified
 171              		.thumb
 172              		.thumb_func
 173              		.fpu fpv5-sp-d16
 175              	HAL_PWREx_EnableFlashPowerDown:
 176              	.LFB143:
 188:Drivers/STM32F7xx_HAL_Driver/Src/stm32f7xx_hal_pwr_ex.c **** 
 189:Drivers/STM32F7xx_HAL_Driver/Src/stm32f7xx_hal_pwr_ex.c **** /**
 190:Drivers/STM32F7xx_HAL_Driver/Src/stm32f7xx_hal_pwr_ex.c ****   * @brief Enables the Flash Power Down in Stop mode.
 191:Drivers/STM32F7xx_HAL_Driver/Src/stm32f7xx_hal_pwr_ex.c ****   * @retval None
 192:Drivers/STM32F7xx_HAL_Driver/Src/stm32f7xx_hal_pwr_ex.c ****   */
 193:Drivers/STM32F7xx_HAL_Driver/Src/stm32f7xx_hal_pwr_ex.c **** void HAL_PWREx_EnableFlashPowerDown(void)
 194:Drivers/STM32F7xx_HAL_Driver/Src/stm32f7xx_hal_pwr_ex.c **** {
 177              		.loc 1 194 1 is_stmt 1 view -0
 178              		.cfi_startproc
 179              		@ args = 0, pretend = 0, frame = 0
 180              		@ frame_needed = 0, uses_anonymous_args = 0
 181              		@ link register save eliminated.
 195:Drivers/STM32F7xx_HAL_Driver/Src/stm32f7xx_hal_pwr_ex.c ****   /* Enable the Flash Power Down */
 196:Drivers/STM32F7xx_HAL_Driver/Src/stm32f7xx_hal_pwr_ex.c ****   PWR->CR1 |= PWR_CR1_FPDS;
 182              		.loc 1 196 3 view .LVU41
 183              		.loc 1 196 12 is_stmt 0 view .LVU42
 184 0000 024A     		ldr	r2, .L20
 185 0002 1368     		ldr	r3, [r2]
 186 0004 43F40073 		orr	r3, r3, #512
 187 0008 1360     		str	r3, [r2]
 197:Drivers/STM32F7xx_HAL_Driver/Src/stm32f7xx_hal_pwr_ex.c **** }
 188              		.loc 1 197 1 view .LVU43
 189 000a 7047     		bx	lr
 190              	.L21:
 191              		.align	2
 192              	.L20:
 193 000c 00700040 		.word	1073770496
 194              		.cfi_endproc
 195              	.LFE143:
 197              		.section	.text.HAL_PWREx_DisableFlashPowerDown,"ax",%progbits
 198              		.align	1
 199              		.global	HAL_PWREx_DisableFlashPowerDown
 200              		.syntax unified
 201              		.thumb
 202              		.thumb_func
 203              		.fpu fpv5-sp-d16
 205              	HAL_PWREx_DisableFlashPowerDown:
 206              	.LFB144:
 198:Drivers/STM32F7xx_HAL_Driver/Src/stm32f7xx_hal_pwr_ex.c **** 
 199:Drivers/STM32F7xx_HAL_Driver/Src/stm32f7xx_hal_pwr_ex.c **** /**
 200:Drivers/STM32F7xx_HAL_Driver/Src/stm32f7xx_hal_pwr_ex.c ****   * @brief Disables the Flash Power Down in Stop mode.
ARM GAS  /tmp/cc8sELAz.s 			page 8


 201:Drivers/STM32F7xx_HAL_Driver/Src/stm32f7xx_hal_pwr_ex.c ****   * @retval None
 202:Drivers/STM32F7xx_HAL_Driver/Src/stm32f7xx_hal_pwr_ex.c ****   */
 203:Drivers/STM32F7xx_HAL_Driver/Src/stm32f7xx_hal_pwr_ex.c **** void HAL_PWREx_DisableFlashPowerDown(void)
 204:Drivers/STM32F7xx_HAL_Driver/Src/stm32f7xx_hal_pwr_ex.c **** {
 207              		.loc 1 204 1 is_stmt 1 view -0
 208              		.cfi_startproc
 209              		@ args = 0, pretend = 0, frame = 0
 210              		@ frame_needed = 0, uses_anonymous_args = 0
 211              		@ link register save eliminated.
 205:Drivers/STM32F7xx_HAL_Driver/Src/stm32f7xx_hal_pwr_ex.c ****   /* Disable the Flash Power Down */
 206:Drivers/STM32F7xx_HAL_Driver/Src/stm32f7xx_hal_pwr_ex.c ****   PWR->CR1 &= (uint32_t)~((uint32_t)PWR_CR1_FPDS);
 212              		.loc 1 206 3 view .LVU45
 213              		.loc 1 206 12 is_stmt 0 view .LVU46
 214 0000 024A     		ldr	r2, .L23
 215 0002 1368     		ldr	r3, [r2]
 216 0004 23F40073 		bic	r3, r3, #512
 217 0008 1360     		str	r3, [r2]
 207:Drivers/STM32F7xx_HAL_Driver/Src/stm32f7xx_hal_pwr_ex.c **** }
 218              		.loc 1 207 1 view .LVU47
 219 000a 7047     		bx	lr
 220              	.L24:
 221              		.align	2
 222              	.L23:
 223 000c 00700040 		.word	1073770496
 224              		.cfi_endproc
 225              	.LFE144:
 227              		.section	.text.HAL_PWREx_EnableMainRegulatorLowVoltage,"ax",%progbits
 228              		.align	1
 229              		.global	HAL_PWREx_EnableMainRegulatorLowVoltage
 230              		.syntax unified
 231              		.thumb
 232              		.thumb_func
 233              		.fpu fpv5-sp-d16
 235              	HAL_PWREx_EnableMainRegulatorLowVoltage:
 236              	.LFB145:
 208:Drivers/STM32F7xx_HAL_Driver/Src/stm32f7xx_hal_pwr_ex.c **** 
 209:Drivers/STM32F7xx_HAL_Driver/Src/stm32f7xx_hal_pwr_ex.c **** /**
 210:Drivers/STM32F7xx_HAL_Driver/Src/stm32f7xx_hal_pwr_ex.c ****   * @brief Enables Main Regulator low voltage mode.
 211:Drivers/STM32F7xx_HAL_Driver/Src/stm32f7xx_hal_pwr_ex.c ****   * @retval None
 212:Drivers/STM32F7xx_HAL_Driver/Src/stm32f7xx_hal_pwr_ex.c ****   */
 213:Drivers/STM32F7xx_HAL_Driver/Src/stm32f7xx_hal_pwr_ex.c **** void HAL_PWREx_EnableMainRegulatorLowVoltage(void)
 214:Drivers/STM32F7xx_HAL_Driver/Src/stm32f7xx_hal_pwr_ex.c **** {
 237              		.loc 1 214 1 is_stmt 1 view -0
 238              		.cfi_startproc
 239              		@ args = 0, pretend = 0, frame = 0
 240              		@ frame_needed = 0, uses_anonymous_args = 0
 241              		@ link register save eliminated.
 215:Drivers/STM32F7xx_HAL_Driver/Src/stm32f7xx_hal_pwr_ex.c ****   /* Enable Main regulator low voltage */
 216:Drivers/STM32F7xx_HAL_Driver/Src/stm32f7xx_hal_pwr_ex.c ****   PWR->CR1 |= PWR_CR1_MRUDS;
 242              		.loc 1 216 3 view .LVU49
 243              		.loc 1 216 12 is_stmt 0 view .LVU50
 244 0000 024A     		ldr	r2, .L26
 245 0002 1368     		ldr	r3, [r2]
 246 0004 43F40063 		orr	r3, r3, #2048
 247 0008 1360     		str	r3, [r2]
 217:Drivers/STM32F7xx_HAL_Driver/Src/stm32f7xx_hal_pwr_ex.c **** }
 248              		.loc 1 217 1 view .LVU51
ARM GAS  /tmp/cc8sELAz.s 			page 9


 249 000a 7047     		bx	lr
 250              	.L27:
 251              		.align	2
 252              	.L26:
 253 000c 00700040 		.word	1073770496
 254              		.cfi_endproc
 255              	.LFE145:
 257              		.section	.text.HAL_PWREx_DisableMainRegulatorLowVoltage,"ax",%progbits
 258              		.align	1
 259              		.global	HAL_PWREx_DisableMainRegulatorLowVoltage
 260              		.syntax unified
 261              		.thumb
 262              		.thumb_func
 263              		.fpu fpv5-sp-d16
 265              	HAL_PWREx_DisableMainRegulatorLowVoltage:
 266              	.LFB146:
 218:Drivers/STM32F7xx_HAL_Driver/Src/stm32f7xx_hal_pwr_ex.c **** 
 219:Drivers/STM32F7xx_HAL_Driver/Src/stm32f7xx_hal_pwr_ex.c **** /**
 220:Drivers/STM32F7xx_HAL_Driver/Src/stm32f7xx_hal_pwr_ex.c ****   * @brief Disables Main Regulator low voltage mode.
 221:Drivers/STM32F7xx_HAL_Driver/Src/stm32f7xx_hal_pwr_ex.c ****   * @retval None
 222:Drivers/STM32F7xx_HAL_Driver/Src/stm32f7xx_hal_pwr_ex.c ****   */
 223:Drivers/STM32F7xx_HAL_Driver/Src/stm32f7xx_hal_pwr_ex.c **** void HAL_PWREx_DisableMainRegulatorLowVoltage(void)
 224:Drivers/STM32F7xx_HAL_Driver/Src/stm32f7xx_hal_pwr_ex.c **** {  
 267              		.loc 1 224 1 is_stmt 1 view -0
 268              		.cfi_startproc
 269              		@ args = 0, pretend = 0, frame = 0
 270              		@ frame_needed = 0, uses_anonymous_args = 0
 271              		@ link register save eliminated.
 225:Drivers/STM32F7xx_HAL_Driver/Src/stm32f7xx_hal_pwr_ex.c ****   /* Disable Main regulator low voltage */
 226:Drivers/STM32F7xx_HAL_Driver/Src/stm32f7xx_hal_pwr_ex.c ****   PWR->CR1 &= (uint32_t)~((uint32_t)PWR_CR1_MRUDS);
 272              		.loc 1 226 3 view .LVU53
 273              		.loc 1 226 12 is_stmt 0 view .LVU54
 274 0000 024A     		ldr	r2, .L29
 275 0002 1368     		ldr	r3, [r2]
 276 0004 23F40063 		bic	r3, r3, #2048
 277 0008 1360     		str	r3, [r2]
 227:Drivers/STM32F7xx_HAL_Driver/Src/stm32f7xx_hal_pwr_ex.c **** }
 278              		.loc 1 227 1 view .LVU55
 279 000a 7047     		bx	lr
 280              	.L30:
 281              		.align	2
 282              	.L29:
 283 000c 00700040 		.word	1073770496
 284              		.cfi_endproc
 285              	.LFE146:
 287              		.section	.text.HAL_PWREx_EnableLowRegulatorLowVoltage,"ax",%progbits
 288              		.align	1
 289              		.global	HAL_PWREx_EnableLowRegulatorLowVoltage
 290              		.syntax unified
 291              		.thumb
 292              		.thumb_func
 293              		.fpu fpv5-sp-d16
 295              	HAL_PWREx_EnableLowRegulatorLowVoltage:
 296              	.LFB147:
 228:Drivers/STM32F7xx_HAL_Driver/Src/stm32f7xx_hal_pwr_ex.c **** 
 229:Drivers/STM32F7xx_HAL_Driver/Src/stm32f7xx_hal_pwr_ex.c **** /**
 230:Drivers/STM32F7xx_HAL_Driver/Src/stm32f7xx_hal_pwr_ex.c ****   * @brief Enables Low Power Regulator low voltage mode.
ARM GAS  /tmp/cc8sELAz.s 			page 10


 231:Drivers/STM32F7xx_HAL_Driver/Src/stm32f7xx_hal_pwr_ex.c ****   * @retval None
 232:Drivers/STM32F7xx_HAL_Driver/Src/stm32f7xx_hal_pwr_ex.c ****   */
 233:Drivers/STM32F7xx_HAL_Driver/Src/stm32f7xx_hal_pwr_ex.c **** void HAL_PWREx_EnableLowRegulatorLowVoltage(void)
 234:Drivers/STM32F7xx_HAL_Driver/Src/stm32f7xx_hal_pwr_ex.c **** {
 297              		.loc 1 234 1 is_stmt 1 view -0
 298              		.cfi_startproc
 299              		@ args = 0, pretend = 0, frame = 0
 300              		@ frame_needed = 0, uses_anonymous_args = 0
 301              		@ link register save eliminated.
 235:Drivers/STM32F7xx_HAL_Driver/Src/stm32f7xx_hal_pwr_ex.c ****   /* Enable low power regulator */
 236:Drivers/STM32F7xx_HAL_Driver/Src/stm32f7xx_hal_pwr_ex.c ****   PWR->CR1 |= PWR_CR1_LPUDS;
 302              		.loc 1 236 3 view .LVU57
 303              		.loc 1 236 12 is_stmt 0 view .LVU58
 304 0000 024A     		ldr	r2, .L32
 305 0002 1368     		ldr	r3, [r2]
 306 0004 43F48063 		orr	r3, r3, #1024
 307 0008 1360     		str	r3, [r2]
 237:Drivers/STM32F7xx_HAL_Driver/Src/stm32f7xx_hal_pwr_ex.c **** }
 308              		.loc 1 237 1 view .LVU59
 309 000a 7047     		bx	lr
 310              	.L33:
 311              		.align	2
 312              	.L32:
 313 000c 00700040 		.word	1073770496
 314              		.cfi_endproc
 315              	.LFE147:
 317              		.section	.text.HAL_PWREx_DisableLowRegulatorLowVoltage,"ax",%progbits
 318              		.align	1
 319              		.global	HAL_PWREx_DisableLowRegulatorLowVoltage
 320              		.syntax unified
 321              		.thumb
 322              		.thumb_func
 323              		.fpu fpv5-sp-d16
 325              	HAL_PWREx_DisableLowRegulatorLowVoltage:
 326              	.LFB148:
 238:Drivers/STM32F7xx_HAL_Driver/Src/stm32f7xx_hal_pwr_ex.c **** 
 239:Drivers/STM32F7xx_HAL_Driver/Src/stm32f7xx_hal_pwr_ex.c **** /**
 240:Drivers/STM32F7xx_HAL_Driver/Src/stm32f7xx_hal_pwr_ex.c ****   * @brief Disables Low Power Regulator low voltage mode.
 241:Drivers/STM32F7xx_HAL_Driver/Src/stm32f7xx_hal_pwr_ex.c ****   * @retval None
 242:Drivers/STM32F7xx_HAL_Driver/Src/stm32f7xx_hal_pwr_ex.c ****   */
 243:Drivers/STM32F7xx_HAL_Driver/Src/stm32f7xx_hal_pwr_ex.c **** void HAL_PWREx_DisableLowRegulatorLowVoltage(void)
 244:Drivers/STM32F7xx_HAL_Driver/Src/stm32f7xx_hal_pwr_ex.c **** {
 327              		.loc 1 244 1 is_stmt 1 view -0
 328              		.cfi_startproc
 329              		@ args = 0, pretend = 0, frame = 0
 330              		@ frame_needed = 0, uses_anonymous_args = 0
 331              		@ link register save eliminated.
 245:Drivers/STM32F7xx_HAL_Driver/Src/stm32f7xx_hal_pwr_ex.c ****   /* Disable low power regulator */
 246:Drivers/STM32F7xx_HAL_Driver/Src/stm32f7xx_hal_pwr_ex.c ****   PWR->CR1 &= (uint32_t)~((uint32_t)PWR_CR1_LPUDS);
 332              		.loc 1 246 3 view .LVU61
 333              		.loc 1 246 12 is_stmt 0 view .LVU62
 334 0000 024A     		ldr	r2, .L35
 335 0002 1368     		ldr	r3, [r2]
 336 0004 23F48063 		bic	r3, r3, #1024
 337 0008 1360     		str	r3, [r2]
 247:Drivers/STM32F7xx_HAL_Driver/Src/stm32f7xx_hal_pwr_ex.c **** }
 338              		.loc 1 247 1 view .LVU63
ARM GAS  /tmp/cc8sELAz.s 			page 11


 339 000a 7047     		bx	lr
 340              	.L36:
 341              		.align	2
 342              	.L35:
 343 000c 00700040 		.word	1073770496
 344              		.cfi_endproc
 345              	.LFE148:
 347              		.section	.text.HAL_PWREx_EnableOverDrive,"ax",%progbits
 348              		.align	1
 349              		.global	HAL_PWREx_EnableOverDrive
 350              		.syntax unified
 351              		.thumb
 352              		.thumb_func
 353              		.fpu fpv5-sp-d16
 355              	HAL_PWREx_EnableOverDrive:
 356              	.LFB149:
 248:Drivers/STM32F7xx_HAL_Driver/Src/stm32f7xx_hal_pwr_ex.c **** 
 249:Drivers/STM32F7xx_HAL_Driver/Src/stm32f7xx_hal_pwr_ex.c **** /**
 250:Drivers/STM32F7xx_HAL_Driver/Src/stm32f7xx_hal_pwr_ex.c ****   * @brief  Activates the Over-Drive mode.
 251:Drivers/STM32F7xx_HAL_Driver/Src/stm32f7xx_hal_pwr_ex.c ****   * @note   This mode allows the CPU and the core logic to operate at a higher frequency
 252:Drivers/STM32F7xx_HAL_Driver/Src/stm32f7xx_hal_pwr_ex.c ****   *         than the normal mode for a given voltage scaling (scale 1, scale 2 or scale 3).   
 253:Drivers/STM32F7xx_HAL_Driver/Src/stm32f7xx_hal_pwr_ex.c ****   * @note   It is recommended to enter or exit Over-drive mode when the application is not running 
 254:Drivers/STM32F7xx_HAL_Driver/Src/stm32f7xx_hal_pwr_ex.c ****   *         critical tasks and when the system clock source is either HSI or HSE. 
 255:Drivers/STM32F7xx_HAL_Driver/Src/stm32f7xx_hal_pwr_ex.c ****   *         During the Over-drive switch activation, no peripheral clocks should be enabled.   
 256:Drivers/STM32F7xx_HAL_Driver/Src/stm32f7xx_hal_pwr_ex.c ****   *         The peripheral clocks must be enabled once the Over-drive mode is activated.   
 257:Drivers/STM32F7xx_HAL_Driver/Src/stm32f7xx_hal_pwr_ex.c ****   * @retval HAL status
 258:Drivers/STM32F7xx_HAL_Driver/Src/stm32f7xx_hal_pwr_ex.c ****   */
 259:Drivers/STM32F7xx_HAL_Driver/Src/stm32f7xx_hal_pwr_ex.c **** HAL_StatusTypeDef HAL_PWREx_EnableOverDrive(void)
 260:Drivers/STM32F7xx_HAL_Driver/Src/stm32f7xx_hal_pwr_ex.c **** {
 357              		.loc 1 260 1 is_stmt 1 view -0
 358              		.cfi_startproc
 359              		@ args = 0, pretend = 0, frame = 8
 360              		@ frame_needed = 0, uses_anonymous_args = 0
 361 0000 10B5     		push	{r4, lr}
 362              	.LCFI2:
 363              		.cfi_def_cfa_offset 8
 364              		.cfi_offset 4, -8
 365              		.cfi_offset 14, -4
 366 0002 82B0     		sub	sp, sp, #8
 367              	.LCFI3:
 368              		.cfi_def_cfa_offset 16
 261:Drivers/STM32F7xx_HAL_Driver/Src/stm32f7xx_hal_pwr_ex.c ****   uint32_t tickstart = 0;
 369              		.loc 1 261 3 view .LVU65
 370              	.LVL10:
 262:Drivers/STM32F7xx_HAL_Driver/Src/stm32f7xx_hal_pwr_ex.c **** 
 263:Drivers/STM32F7xx_HAL_Driver/Src/stm32f7xx_hal_pwr_ex.c ****   __HAL_RCC_PWR_CLK_ENABLE();
 371              		.loc 1 263 3 view .LVU66
 372              	.LBB2:
 373              		.loc 1 263 3 view .LVU67
 374              		.loc 1 263 3 view .LVU68
 375 0004 1B4B     		ldr	r3, .L48
 376 0006 1A6C     		ldr	r2, [r3, #64]
 377 0008 42F08052 		orr	r2, r2, #268435456
 378 000c 1A64     		str	r2, [r3, #64]
 379              		.loc 1 263 3 view .LVU69
 380 000e 1B6C     		ldr	r3, [r3, #64]
 381 0010 03F08053 		and	r3, r3, #268435456
ARM GAS  /tmp/cc8sELAz.s 			page 12


 382 0014 0193     		str	r3, [sp, #4]
 383              		.loc 1 263 3 view .LVU70
 384 0016 019B     		ldr	r3, [sp, #4]
 385              	.LBE2:
 386              		.loc 1 263 3 view .LVU71
 264:Drivers/STM32F7xx_HAL_Driver/Src/stm32f7xx_hal_pwr_ex.c ****   
 265:Drivers/STM32F7xx_HAL_Driver/Src/stm32f7xx_hal_pwr_ex.c ****   /* Enable the Over-drive to extend the clock frequency to 216 MHz */
 266:Drivers/STM32F7xx_HAL_Driver/Src/stm32f7xx_hal_pwr_ex.c ****   __HAL_PWR_OVERDRIVE_ENABLE();
 387              		.loc 1 266 3 view .LVU72
 388 0018 174A     		ldr	r2, .L48+4
 389 001a 1368     		ldr	r3, [r2]
 390 001c 43F48033 		orr	r3, r3, #65536
 391 0020 1360     		str	r3, [r2]
 267:Drivers/STM32F7xx_HAL_Driver/Src/stm32f7xx_hal_pwr_ex.c **** 
 268:Drivers/STM32F7xx_HAL_Driver/Src/stm32f7xx_hal_pwr_ex.c ****   /* Get tick */
 269:Drivers/STM32F7xx_HAL_Driver/Src/stm32f7xx_hal_pwr_ex.c ****   tickstart = HAL_GetTick();
 392              		.loc 1 269 3 view .LVU73
 393              		.loc 1 269 15 is_stmt 0 view .LVU74
 394 0022 FFF7FEFF 		bl	HAL_GetTick
 395              	.LVL11:
 396 0026 0446     		mov	r4, r0
 397              	.LVL12:
 270:Drivers/STM32F7xx_HAL_Driver/Src/stm32f7xx_hal_pwr_ex.c **** 
 271:Drivers/STM32F7xx_HAL_Driver/Src/stm32f7xx_hal_pwr_ex.c ****   while(!__HAL_PWR_GET_FLAG(PWR_FLAG_ODRDY))
 398              		.loc 1 271 3 is_stmt 1 view .LVU75
 399              	.L38:
 400              		.loc 1 271 8 view .LVU76
 401              		.loc 1 271 10 is_stmt 0 view .LVU77
 402 0028 134B     		ldr	r3, .L48+4
 403 002a 5B68     		ldr	r3, [r3, #4]
 404              		.loc 1 271 8 view .LVU78
 405 002c 13F4803F 		tst	r3, #65536
 406 0030 08D1     		bne	.L46
 272:Drivers/STM32F7xx_HAL_Driver/Src/stm32f7xx_hal_pwr_ex.c ****   {
 273:Drivers/STM32F7xx_HAL_Driver/Src/stm32f7xx_hal_pwr_ex.c ****     if((HAL_GetTick() - tickstart ) > PWR_OVERDRIVE_TIMEOUT_VALUE)
 407              		.loc 1 273 5 is_stmt 1 view .LVU79
 408              		.loc 1 273 9 is_stmt 0 view .LVU80
 409 0032 FFF7FEFF 		bl	HAL_GetTick
 410              	.LVL13:
 411              		.loc 1 273 23 view .LVU81
 412 0036 001B     		subs	r0, r0, r4
 413              		.loc 1 273 7 view .LVU82
 414 0038 B0F57A7F 		cmp	r0, #1000
 415 003c F4D9     		bls	.L38
 274:Drivers/STM32F7xx_HAL_Driver/Src/stm32f7xx_hal_pwr_ex.c ****     {
 275:Drivers/STM32F7xx_HAL_Driver/Src/stm32f7xx_hal_pwr_ex.c ****       return HAL_TIMEOUT;
 416              		.loc 1 275 14 view .LVU83
 417 003e 0320     		movs	r0, #3
 418              	.L39:
 276:Drivers/STM32F7xx_HAL_Driver/Src/stm32f7xx_hal_pwr_ex.c ****     }
 277:Drivers/STM32F7xx_HAL_Driver/Src/stm32f7xx_hal_pwr_ex.c ****   }
 278:Drivers/STM32F7xx_HAL_Driver/Src/stm32f7xx_hal_pwr_ex.c ****   
 279:Drivers/STM32F7xx_HAL_Driver/Src/stm32f7xx_hal_pwr_ex.c ****   /* Enable the Over-drive switch */
 280:Drivers/STM32F7xx_HAL_Driver/Src/stm32f7xx_hal_pwr_ex.c ****   __HAL_PWR_OVERDRIVESWITCHING_ENABLE();
 281:Drivers/STM32F7xx_HAL_Driver/Src/stm32f7xx_hal_pwr_ex.c **** 
 282:Drivers/STM32F7xx_HAL_Driver/Src/stm32f7xx_hal_pwr_ex.c ****   /* Get tick */
 283:Drivers/STM32F7xx_HAL_Driver/Src/stm32f7xx_hal_pwr_ex.c ****   tickstart = HAL_GetTick();
ARM GAS  /tmp/cc8sELAz.s 			page 13


 284:Drivers/STM32F7xx_HAL_Driver/Src/stm32f7xx_hal_pwr_ex.c **** 
 285:Drivers/STM32F7xx_HAL_Driver/Src/stm32f7xx_hal_pwr_ex.c ****   while(!__HAL_PWR_GET_FLAG(PWR_FLAG_ODSWRDY))
 286:Drivers/STM32F7xx_HAL_Driver/Src/stm32f7xx_hal_pwr_ex.c ****   {
 287:Drivers/STM32F7xx_HAL_Driver/Src/stm32f7xx_hal_pwr_ex.c ****     if((HAL_GetTick() - tickstart ) > PWR_OVERDRIVE_TIMEOUT_VALUE)
 288:Drivers/STM32F7xx_HAL_Driver/Src/stm32f7xx_hal_pwr_ex.c ****     {
 289:Drivers/STM32F7xx_HAL_Driver/Src/stm32f7xx_hal_pwr_ex.c ****       return HAL_TIMEOUT;
 290:Drivers/STM32F7xx_HAL_Driver/Src/stm32f7xx_hal_pwr_ex.c ****     }
 291:Drivers/STM32F7xx_HAL_Driver/Src/stm32f7xx_hal_pwr_ex.c ****   } 
 292:Drivers/STM32F7xx_HAL_Driver/Src/stm32f7xx_hal_pwr_ex.c ****   return HAL_OK;
 293:Drivers/STM32F7xx_HAL_Driver/Src/stm32f7xx_hal_pwr_ex.c **** }
 419              		.loc 1 293 1 view .LVU84
 420 0040 02B0     		add	sp, sp, #8
 421              	.LCFI4:
 422              		.cfi_remember_state
 423              		.cfi_def_cfa_offset 8
 424              		@ sp needed
 425 0042 10BD     		pop	{r4, pc}
 426              	.LVL14:
 427              	.L46:
 428              	.LCFI5:
 429              		.cfi_restore_state
 280:Drivers/STM32F7xx_HAL_Driver/Src/stm32f7xx_hal_pwr_ex.c **** 
 430              		.loc 1 280 3 is_stmt 1 view .LVU85
 431 0044 0C4A     		ldr	r2, .L48+4
 432 0046 1368     		ldr	r3, [r2]
 433 0048 43F40033 		orr	r3, r3, #131072
 434 004c 1360     		str	r3, [r2]
 283:Drivers/STM32F7xx_HAL_Driver/Src/stm32f7xx_hal_pwr_ex.c **** 
 435              		.loc 1 283 3 view .LVU86
 283:Drivers/STM32F7xx_HAL_Driver/Src/stm32f7xx_hal_pwr_ex.c **** 
 436              		.loc 1 283 15 is_stmt 0 view .LVU87
 437 004e FFF7FEFF 		bl	HAL_GetTick
 438              	.LVL15:
 439 0052 0446     		mov	r4, r0
 440              	.LVL16:
 285:Drivers/STM32F7xx_HAL_Driver/Src/stm32f7xx_hal_pwr_ex.c ****   {
 441              		.loc 1 285 3 is_stmt 1 view .LVU88
 442              	.L41:
 285:Drivers/STM32F7xx_HAL_Driver/Src/stm32f7xx_hal_pwr_ex.c ****   {
 443              		.loc 1 285 8 view .LVU89
 285:Drivers/STM32F7xx_HAL_Driver/Src/stm32f7xx_hal_pwr_ex.c ****   {
 444              		.loc 1 285 10 is_stmt 0 view .LVU90
 445 0054 084B     		ldr	r3, .L48+4
 446 0056 5B68     		ldr	r3, [r3, #4]
 285:Drivers/STM32F7xx_HAL_Driver/Src/stm32f7xx_hal_pwr_ex.c ****   {
 447              		.loc 1 285 8 view .LVU91
 448 0058 13F4003F 		tst	r3, #131072
 449 005c 07D1     		bne	.L47
 287:Drivers/STM32F7xx_HAL_Driver/Src/stm32f7xx_hal_pwr_ex.c ****     {
 450              		.loc 1 287 5 is_stmt 1 view .LVU92
 287:Drivers/STM32F7xx_HAL_Driver/Src/stm32f7xx_hal_pwr_ex.c ****     {
 451              		.loc 1 287 9 is_stmt 0 view .LVU93
 452 005e FFF7FEFF 		bl	HAL_GetTick
 453              	.LVL17:
 287:Drivers/STM32F7xx_HAL_Driver/Src/stm32f7xx_hal_pwr_ex.c ****     {
 454              		.loc 1 287 23 view .LVU94
 455 0062 001B     		subs	r0, r0, r4
ARM GAS  /tmp/cc8sELAz.s 			page 14


 287:Drivers/STM32F7xx_HAL_Driver/Src/stm32f7xx_hal_pwr_ex.c ****     {
 456              		.loc 1 287 7 view .LVU95
 457 0064 B0F57A7F 		cmp	r0, #1000
 458 0068 F4D9     		bls	.L41
 289:Drivers/STM32F7xx_HAL_Driver/Src/stm32f7xx_hal_pwr_ex.c ****     }
 459              		.loc 1 289 14 view .LVU96
 460 006a 0320     		movs	r0, #3
 461 006c E8E7     		b	.L39
 462              	.L47:
 292:Drivers/STM32F7xx_HAL_Driver/Src/stm32f7xx_hal_pwr_ex.c **** }
 463              		.loc 1 292 10 view .LVU97
 464 006e 0020     		movs	r0, #0
 465 0070 E6E7     		b	.L39
 466              	.L49:
 467 0072 00BF     		.align	2
 468              	.L48:
 469 0074 00380240 		.word	1073887232
 470 0078 00700040 		.word	1073770496
 471              		.cfi_endproc
 472              	.LFE149:
 474              		.section	.text.HAL_PWREx_DisableOverDrive,"ax",%progbits
 475              		.align	1
 476              		.global	HAL_PWREx_DisableOverDrive
 477              		.syntax unified
 478              		.thumb
 479              		.thumb_func
 480              		.fpu fpv5-sp-d16
 482              	HAL_PWREx_DisableOverDrive:
 483              	.LFB150:
 294:Drivers/STM32F7xx_HAL_Driver/Src/stm32f7xx_hal_pwr_ex.c **** 
 295:Drivers/STM32F7xx_HAL_Driver/Src/stm32f7xx_hal_pwr_ex.c **** /**
 296:Drivers/STM32F7xx_HAL_Driver/Src/stm32f7xx_hal_pwr_ex.c ****   * @brief  Deactivates the Over-Drive mode.
 297:Drivers/STM32F7xx_HAL_Driver/Src/stm32f7xx_hal_pwr_ex.c ****   * @note   This mode allows the CPU and the core logic to operate at a higher frequency
 298:Drivers/STM32F7xx_HAL_Driver/Src/stm32f7xx_hal_pwr_ex.c ****   *         than the normal mode for a given voltage scaling (scale 1, scale 2 or scale 3).    
 299:Drivers/STM32F7xx_HAL_Driver/Src/stm32f7xx_hal_pwr_ex.c ****   * @note   It is recommended to enter or exit Over-drive mode when the application is not running 
 300:Drivers/STM32F7xx_HAL_Driver/Src/stm32f7xx_hal_pwr_ex.c ****   *         critical tasks and when the system clock source is either HSI or HSE. 
 301:Drivers/STM32F7xx_HAL_Driver/Src/stm32f7xx_hal_pwr_ex.c ****   *         During the Over-drive switch activation, no peripheral clocks should be enabled.   
 302:Drivers/STM32F7xx_HAL_Driver/Src/stm32f7xx_hal_pwr_ex.c ****   *         The peripheral clocks must be enabled once the Over-drive mode is activated.
 303:Drivers/STM32F7xx_HAL_Driver/Src/stm32f7xx_hal_pwr_ex.c ****   * @retval HAL status
 304:Drivers/STM32F7xx_HAL_Driver/Src/stm32f7xx_hal_pwr_ex.c ****   */
 305:Drivers/STM32F7xx_HAL_Driver/Src/stm32f7xx_hal_pwr_ex.c **** HAL_StatusTypeDef HAL_PWREx_DisableOverDrive(void)
 306:Drivers/STM32F7xx_HAL_Driver/Src/stm32f7xx_hal_pwr_ex.c **** {
 484              		.loc 1 306 1 is_stmt 1 view -0
 485              		.cfi_startproc
 486              		@ args = 0, pretend = 0, frame = 8
 487              		@ frame_needed = 0, uses_anonymous_args = 0
 488 0000 10B5     		push	{r4, lr}
 489              	.LCFI6:
 490              		.cfi_def_cfa_offset 8
 491              		.cfi_offset 4, -8
 492              		.cfi_offset 14, -4
 493 0002 82B0     		sub	sp, sp, #8
 494              	.LCFI7:
 495              		.cfi_def_cfa_offset 16
 307:Drivers/STM32F7xx_HAL_Driver/Src/stm32f7xx_hal_pwr_ex.c ****   uint32_t tickstart = 0;
 496              		.loc 1 307 3 view .LVU99
 497              	.LVL18:
ARM GAS  /tmp/cc8sELAz.s 			page 15


 308:Drivers/STM32F7xx_HAL_Driver/Src/stm32f7xx_hal_pwr_ex.c ****   
 309:Drivers/STM32F7xx_HAL_Driver/Src/stm32f7xx_hal_pwr_ex.c ****   __HAL_RCC_PWR_CLK_ENABLE();
 498              		.loc 1 309 3 view .LVU100
 499              	.LBB3:
 500              		.loc 1 309 3 view .LVU101
 501              		.loc 1 309 3 view .LVU102
 502 0004 1B4B     		ldr	r3, .L61
 503 0006 1A6C     		ldr	r2, [r3, #64]
 504 0008 42F08052 		orr	r2, r2, #268435456
 505 000c 1A64     		str	r2, [r3, #64]
 506              		.loc 1 309 3 view .LVU103
 507 000e 1B6C     		ldr	r3, [r3, #64]
 508 0010 03F08053 		and	r3, r3, #268435456
 509 0014 0193     		str	r3, [sp, #4]
 510              		.loc 1 309 3 view .LVU104
 511 0016 019B     		ldr	r3, [sp, #4]
 512              	.LBE3:
 513              		.loc 1 309 3 view .LVU105
 310:Drivers/STM32F7xx_HAL_Driver/Src/stm32f7xx_hal_pwr_ex.c ****     
 311:Drivers/STM32F7xx_HAL_Driver/Src/stm32f7xx_hal_pwr_ex.c ****   /* Disable the Over-drive switch */
 312:Drivers/STM32F7xx_HAL_Driver/Src/stm32f7xx_hal_pwr_ex.c ****   __HAL_PWR_OVERDRIVESWITCHING_DISABLE();
 514              		.loc 1 312 3 view .LVU106
 515 0018 174A     		ldr	r2, .L61+4
 516 001a 1368     		ldr	r3, [r2]
 517 001c 23F40033 		bic	r3, r3, #131072
 518 0020 1360     		str	r3, [r2]
 313:Drivers/STM32F7xx_HAL_Driver/Src/stm32f7xx_hal_pwr_ex.c ****   
 314:Drivers/STM32F7xx_HAL_Driver/Src/stm32f7xx_hal_pwr_ex.c ****   /* Get tick */
 315:Drivers/STM32F7xx_HAL_Driver/Src/stm32f7xx_hal_pwr_ex.c ****   tickstart = HAL_GetTick();
 519              		.loc 1 315 3 view .LVU107
 520              		.loc 1 315 15 is_stmt 0 view .LVU108
 521 0022 FFF7FEFF 		bl	HAL_GetTick
 522              	.LVL19:
 523 0026 0446     		mov	r4, r0
 524              	.LVL20:
 316:Drivers/STM32F7xx_HAL_Driver/Src/stm32f7xx_hal_pwr_ex.c ****  
 317:Drivers/STM32F7xx_HAL_Driver/Src/stm32f7xx_hal_pwr_ex.c ****   while(__HAL_PWR_GET_FLAG(PWR_FLAG_ODSWRDY))
 525              		.loc 1 317 3 is_stmt 1 view .LVU109
 526              	.L51:
 527              		.loc 1 317 8 view .LVU110
 528              		.loc 1 317 9 is_stmt 0 view .LVU111
 529 0028 134B     		ldr	r3, .L61+4
 530 002a 5B68     		ldr	r3, [r3, #4]
 531              		.loc 1 317 8 view .LVU112
 532 002c 13F4003F 		tst	r3, #131072
 533 0030 08D0     		beq	.L59
 318:Drivers/STM32F7xx_HAL_Driver/Src/stm32f7xx_hal_pwr_ex.c ****   {
 319:Drivers/STM32F7xx_HAL_Driver/Src/stm32f7xx_hal_pwr_ex.c ****     if((HAL_GetTick() - tickstart ) > PWR_OVERDRIVE_TIMEOUT_VALUE)
 534              		.loc 1 319 5 is_stmt 1 view .LVU113
 535              		.loc 1 319 9 is_stmt 0 view .LVU114
 536 0032 FFF7FEFF 		bl	HAL_GetTick
 537              	.LVL21:
 538              		.loc 1 319 23 view .LVU115
 539 0036 001B     		subs	r0, r0, r4
 540              		.loc 1 319 7 view .LVU116
 541 0038 B0F57A7F 		cmp	r0, #1000
 542 003c F4D9     		bls	.L51
ARM GAS  /tmp/cc8sELAz.s 			page 16


 320:Drivers/STM32F7xx_HAL_Driver/Src/stm32f7xx_hal_pwr_ex.c ****     {
 321:Drivers/STM32F7xx_HAL_Driver/Src/stm32f7xx_hal_pwr_ex.c ****       return HAL_TIMEOUT;
 543              		.loc 1 321 14 view .LVU117
 544 003e 0320     		movs	r0, #3
 545              	.L52:
 322:Drivers/STM32F7xx_HAL_Driver/Src/stm32f7xx_hal_pwr_ex.c ****     }
 323:Drivers/STM32F7xx_HAL_Driver/Src/stm32f7xx_hal_pwr_ex.c ****   } 
 324:Drivers/STM32F7xx_HAL_Driver/Src/stm32f7xx_hal_pwr_ex.c ****   
 325:Drivers/STM32F7xx_HAL_Driver/Src/stm32f7xx_hal_pwr_ex.c ****   /* Disable the Over-drive */
 326:Drivers/STM32F7xx_HAL_Driver/Src/stm32f7xx_hal_pwr_ex.c ****   __HAL_PWR_OVERDRIVE_DISABLE();
 327:Drivers/STM32F7xx_HAL_Driver/Src/stm32f7xx_hal_pwr_ex.c **** 
 328:Drivers/STM32F7xx_HAL_Driver/Src/stm32f7xx_hal_pwr_ex.c ****   /* Get tick */
 329:Drivers/STM32F7xx_HAL_Driver/Src/stm32f7xx_hal_pwr_ex.c ****   tickstart = HAL_GetTick();
 330:Drivers/STM32F7xx_HAL_Driver/Src/stm32f7xx_hal_pwr_ex.c **** 
 331:Drivers/STM32F7xx_HAL_Driver/Src/stm32f7xx_hal_pwr_ex.c ****   while(__HAL_PWR_GET_FLAG(PWR_FLAG_ODRDY))
 332:Drivers/STM32F7xx_HAL_Driver/Src/stm32f7xx_hal_pwr_ex.c ****   {
 333:Drivers/STM32F7xx_HAL_Driver/Src/stm32f7xx_hal_pwr_ex.c ****     if((HAL_GetTick() - tickstart ) > PWR_OVERDRIVE_TIMEOUT_VALUE)
 334:Drivers/STM32F7xx_HAL_Driver/Src/stm32f7xx_hal_pwr_ex.c ****     {
 335:Drivers/STM32F7xx_HAL_Driver/Src/stm32f7xx_hal_pwr_ex.c ****       return HAL_TIMEOUT;
 336:Drivers/STM32F7xx_HAL_Driver/Src/stm32f7xx_hal_pwr_ex.c ****     }
 337:Drivers/STM32F7xx_HAL_Driver/Src/stm32f7xx_hal_pwr_ex.c ****   }
 338:Drivers/STM32F7xx_HAL_Driver/Src/stm32f7xx_hal_pwr_ex.c ****   
 339:Drivers/STM32F7xx_HAL_Driver/Src/stm32f7xx_hal_pwr_ex.c ****   return HAL_OK;
 340:Drivers/STM32F7xx_HAL_Driver/Src/stm32f7xx_hal_pwr_ex.c **** }
 546              		.loc 1 340 1 view .LVU118
 547 0040 02B0     		add	sp, sp, #8
 548              	.LCFI8:
 549              		.cfi_remember_state
 550              		.cfi_def_cfa_offset 8
 551              		@ sp needed
 552 0042 10BD     		pop	{r4, pc}
 553              	.LVL22:
 554              	.L59:
 555              	.LCFI9:
 556              		.cfi_restore_state
 326:Drivers/STM32F7xx_HAL_Driver/Src/stm32f7xx_hal_pwr_ex.c **** 
 557              		.loc 1 326 3 is_stmt 1 view .LVU119
 558 0044 0C4A     		ldr	r2, .L61+4
 559 0046 1368     		ldr	r3, [r2]
 560 0048 23F48033 		bic	r3, r3, #65536
 561 004c 1360     		str	r3, [r2]
 329:Drivers/STM32F7xx_HAL_Driver/Src/stm32f7xx_hal_pwr_ex.c **** 
 562              		.loc 1 329 3 view .LVU120
 329:Drivers/STM32F7xx_HAL_Driver/Src/stm32f7xx_hal_pwr_ex.c **** 
 563              		.loc 1 329 15 is_stmt 0 view .LVU121
 564 004e FFF7FEFF 		bl	HAL_GetTick
 565              	.LVL23:
 566 0052 0446     		mov	r4, r0
 567              	.LVL24:
 331:Drivers/STM32F7xx_HAL_Driver/Src/stm32f7xx_hal_pwr_ex.c ****   {
 568              		.loc 1 331 3 is_stmt 1 view .LVU122
 569              	.L54:
 331:Drivers/STM32F7xx_HAL_Driver/Src/stm32f7xx_hal_pwr_ex.c ****   {
 570              		.loc 1 331 8 view .LVU123
 331:Drivers/STM32F7xx_HAL_Driver/Src/stm32f7xx_hal_pwr_ex.c ****   {
 571              		.loc 1 331 9 is_stmt 0 view .LVU124
 572 0054 084B     		ldr	r3, .L61+4
ARM GAS  /tmp/cc8sELAz.s 			page 17


 573 0056 5B68     		ldr	r3, [r3, #4]
 331:Drivers/STM32F7xx_HAL_Driver/Src/stm32f7xx_hal_pwr_ex.c ****   {
 574              		.loc 1 331 8 view .LVU125
 575 0058 13F4803F 		tst	r3, #65536
 576 005c 07D0     		beq	.L60
 333:Drivers/STM32F7xx_HAL_Driver/Src/stm32f7xx_hal_pwr_ex.c ****     {
 577              		.loc 1 333 5 is_stmt 1 view .LVU126
 333:Drivers/STM32F7xx_HAL_Driver/Src/stm32f7xx_hal_pwr_ex.c ****     {
 578              		.loc 1 333 9 is_stmt 0 view .LVU127
 579 005e FFF7FEFF 		bl	HAL_GetTick
 580              	.LVL25:
 333:Drivers/STM32F7xx_HAL_Driver/Src/stm32f7xx_hal_pwr_ex.c ****     {
 581              		.loc 1 333 23 view .LVU128
 582 0062 001B     		subs	r0, r0, r4
 333:Drivers/STM32F7xx_HAL_Driver/Src/stm32f7xx_hal_pwr_ex.c ****     {
 583              		.loc 1 333 7 view .LVU129
 584 0064 B0F57A7F 		cmp	r0, #1000
 585 0068 F4D9     		bls	.L54
 335:Drivers/STM32F7xx_HAL_Driver/Src/stm32f7xx_hal_pwr_ex.c ****     }
 586              		.loc 1 335 14 view .LVU130
 587 006a 0320     		movs	r0, #3
 588 006c E8E7     		b	.L52
 589              	.L60:
 339:Drivers/STM32F7xx_HAL_Driver/Src/stm32f7xx_hal_pwr_ex.c **** }
 590              		.loc 1 339 10 view .LVU131
 591 006e 0020     		movs	r0, #0
 592 0070 E6E7     		b	.L52
 593              	.L62:
 594 0072 00BF     		.align	2
 595              	.L61:
 596 0074 00380240 		.word	1073887232
 597 0078 00700040 		.word	1073770496
 598              		.cfi_endproc
 599              	.LFE150:
 601              		.section	.text.HAL_PWREx_EnterUnderDriveSTOPMode,"ax",%progbits
 602              		.align	1
 603              		.global	HAL_PWREx_EnterUnderDriveSTOPMode
 604              		.syntax unified
 605              		.thumb
 606              		.thumb_func
 607              		.fpu fpv5-sp-d16
 609              	HAL_PWREx_EnterUnderDriveSTOPMode:
 610              	.LVL26:
 611              	.LFB151:
 341:Drivers/STM32F7xx_HAL_Driver/Src/stm32f7xx_hal_pwr_ex.c **** 
 342:Drivers/STM32F7xx_HAL_Driver/Src/stm32f7xx_hal_pwr_ex.c **** /**
 343:Drivers/STM32F7xx_HAL_Driver/Src/stm32f7xx_hal_pwr_ex.c ****   * @brief  Enters in Under-Drive STOP mode.
 344:Drivers/STM32F7xx_HAL_Driver/Src/stm32f7xx_hal_pwr_ex.c ****   * 
 345:Drivers/STM32F7xx_HAL_Driver/Src/stm32f7xx_hal_pwr_ex.c ****   * @note    This mode can be selected only when the Under-Drive is already active 
 346:Drivers/STM32F7xx_HAL_Driver/Src/stm32f7xx_hal_pwr_ex.c ****   *   
 347:Drivers/STM32F7xx_HAL_Driver/Src/stm32f7xx_hal_pwr_ex.c ****   * @note    This mode is enabled only with STOP low power mode.
 348:Drivers/STM32F7xx_HAL_Driver/Src/stm32f7xx_hal_pwr_ex.c ****   *          In this mode, the 1.2V domain is preserved in reduced leakage mode. This 
 349:Drivers/STM32F7xx_HAL_Driver/Src/stm32f7xx_hal_pwr_ex.c ****   *          mode is only available when the main regulator or the low power regulator 
 350:Drivers/STM32F7xx_HAL_Driver/Src/stm32f7xx_hal_pwr_ex.c ****   *          is in low voltage mode
 351:Drivers/STM32F7xx_HAL_Driver/Src/stm32f7xx_hal_pwr_ex.c ****   *        
 352:Drivers/STM32F7xx_HAL_Driver/Src/stm32f7xx_hal_pwr_ex.c ****   * @note   If the Under-drive mode was enabled, it is automatically disabled after 
 353:Drivers/STM32F7xx_HAL_Driver/Src/stm32f7xx_hal_pwr_ex.c ****   *         exiting Stop mode. 
ARM GAS  /tmp/cc8sELAz.s 			page 18


 354:Drivers/STM32F7xx_HAL_Driver/Src/stm32f7xx_hal_pwr_ex.c ****   *         When the voltage regulator operates in Under-drive mode, an additional  
 355:Drivers/STM32F7xx_HAL_Driver/Src/stm32f7xx_hal_pwr_ex.c ****   *         startup delay is induced when waking up from Stop mode.
 356:Drivers/STM32F7xx_HAL_Driver/Src/stm32f7xx_hal_pwr_ex.c ****   *                    
 357:Drivers/STM32F7xx_HAL_Driver/Src/stm32f7xx_hal_pwr_ex.c ****   * @note   In Stop mode, all I/O pins keep the same state as in Run mode.
 358:Drivers/STM32F7xx_HAL_Driver/Src/stm32f7xx_hal_pwr_ex.c ****   *   
 359:Drivers/STM32F7xx_HAL_Driver/Src/stm32f7xx_hal_pwr_ex.c ****   * @note   When exiting Stop mode by issuing an interrupt or a wakeup event, 
 360:Drivers/STM32F7xx_HAL_Driver/Src/stm32f7xx_hal_pwr_ex.c ****   *         the HSI RC oscillator is selected as system clock.
 361:Drivers/STM32F7xx_HAL_Driver/Src/stm32f7xx_hal_pwr_ex.c ****   *           
 362:Drivers/STM32F7xx_HAL_Driver/Src/stm32f7xx_hal_pwr_ex.c ****   * @note   When the voltage regulator operates in low power mode, an additional 
 363:Drivers/STM32F7xx_HAL_Driver/Src/stm32f7xx_hal_pwr_ex.c ****   *         startup delay is incurred when waking up from Stop mode. 
 364:Drivers/STM32F7xx_HAL_Driver/Src/stm32f7xx_hal_pwr_ex.c ****   *         By keeping the internal regulator ON during Stop mode, the consumption 
 365:Drivers/STM32F7xx_HAL_Driver/Src/stm32f7xx_hal_pwr_ex.c ****   *         is higher although the startup time is reduced.
 366:Drivers/STM32F7xx_HAL_Driver/Src/stm32f7xx_hal_pwr_ex.c ****   *     
 367:Drivers/STM32F7xx_HAL_Driver/Src/stm32f7xx_hal_pwr_ex.c ****   * @param  Regulator specifies the regulator state in STOP mode.
 368:Drivers/STM32F7xx_HAL_Driver/Src/stm32f7xx_hal_pwr_ex.c ****   *          This parameter can be one of the following values:
 369:Drivers/STM32F7xx_HAL_Driver/Src/stm32f7xx_hal_pwr_ex.c ****   *            @arg PWR_MAINREGULATOR_UNDERDRIVE_ON:  Main Regulator in under-drive mode 
 370:Drivers/STM32F7xx_HAL_Driver/Src/stm32f7xx_hal_pwr_ex.c ****   *                 and Flash memory in power-down when the device is in Stop under-drive mode
 371:Drivers/STM32F7xx_HAL_Driver/Src/stm32f7xx_hal_pwr_ex.c ****   *            @arg PWR_LOWPOWERREGULATOR_UNDERDRIVE_ON:  Low Power Regulator in under-drive mode 
 372:Drivers/STM32F7xx_HAL_Driver/Src/stm32f7xx_hal_pwr_ex.c ****   *                and Flash memory in power-down when the device is in Stop under-drive mode
 373:Drivers/STM32F7xx_HAL_Driver/Src/stm32f7xx_hal_pwr_ex.c ****   * @param  STOPEntry specifies if STOP mode in entered with WFI or WFE instruction.
 374:Drivers/STM32F7xx_HAL_Driver/Src/stm32f7xx_hal_pwr_ex.c ****   *          This parameter can be one of the following values:
 375:Drivers/STM32F7xx_HAL_Driver/Src/stm32f7xx_hal_pwr_ex.c ****   *            @arg PWR_SLEEPENTRY_WFI: enter STOP mode with WFI instruction
 376:Drivers/STM32F7xx_HAL_Driver/Src/stm32f7xx_hal_pwr_ex.c ****   *            @arg PWR_SLEEPENTRY_WFE: enter STOP mode with WFE instruction
 377:Drivers/STM32F7xx_HAL_Driver/Src/stm32f7xx_hal_pwr_ex.c ****   * @retval None
 378:Drivers/STM32F7xx_HAL_Driver/Src/stm32f7xx_hal_pwr_ex.c ****   */
 379:Drivers/STM32F7xx_HAL_Driver/Src/stm32f7xx_hal_pwr_ex.c **** HAL_StatusTypeDef HAL_PWREx_EnterUnderDriveSTOPMode(uint32_t Regulator, uint8_t STOPEntry)
 380:Drivers/STM32F7xx_HAL_Driver/Src/stm32f7xx_hal_pwr_ex.c **** {
 612              		.loc 1 380 1 is_stmt 1 view -0
 613              		.cfi_startproc
 614              		@ args = 0, pretend = 0, frame = 8
 615              		@ frame_needed = 0, uses_anonymous_args = 0
 616              		.loc 1 380 1 is_stmt 0 view .LVU133
 617 0000 70B5     		push	{r4, r5, r6, lr}
 618              	.LCFI10:
 619              		.cfi_def_cfa_offset 16
 620              		.cfi_offset 4, -16
 621              		.cfi_offset 5, -12
 622              		.cfi_offset 6, -8
 623              		.cfi_offset 14, -4
 624 0002 82B0     		sub	sp, sp, #8
 625              	.LCFI11:
 626              		.cfi_def_cfa_offset 24
 627 0004 0646     		mov	r6, r0
 628 0006 0D46     		mov	r5, r1
 381:Drivers/STM32F7xx_HAL_Driver/Src/stm32f7xx_hal_pwr_ex.c ****   uint32_t tempreg = 0;
 629              		.loc 1 381 3 is_stmt 1 view .LVU134
 630              	.LVL27:
 382:Drivers/STM32F7xx_HAL_Driver/Src/stm32f7xx_hal_pwr_ex.c ****   uint32_t tickstart = 0;
 631              		.loc 1 382 3 view .LVU135
 383:Drivers/STM32F7xx_HAL_Driver/Src/stm32f7xx_hal_pwr_ex.c ****   
 384:Drivers/STM32F7xx_HAL_Driver/Src/stm32f7xx_hal_pwr_ex.c ****   /* Check the parameters */
 385:Drivers/STM32F7xx_HAL_Driver/Src/stm32f7xx_hal_pwr_ex.c ****   assert_param(IS_PWR_REGULATOR_UNDERDRIVE(Regulator));
 632              		.loc 1 385 3 view .LVU136
 386:Drivers/STM32F7xx_HAL_Driver/Src/stm32f7xx_hal_pwr_ex.c ****   assert_param(IS_PWR_STOP_ENTRY(STOPEntry));
 633              		.loc 1 386 3 view .LVU137
 387:Drivers/STM32F7xx_HAL_Driver/Src/stm32f7xx_hal_pwr_ex.c ****   
 388:Drivers/STM32F7xx_HAL_Driver/Src/stm32f7xx_hal_pwr_ex.c ****   /* Enable Power ctrl clock */
ARM GAS  /tmp/cc8sELAz.s 			page 19


 389:Drivers/STM32F7xx_HAL_Driver/Src/stm32f7xx_hal_pwr_ex.c ****   __HAL_RCC_PWR_CLK_ENABLE();
 634              		.loc 1 389 3 view .LVU138
 635              	.LBB4:
 636              		.loc 1 389 3 view .LVU139
 637              		.loc 1 389 3 view .LVU140
 638 0008 1E4B     		ldr	r3, .L73
 639 000a 1A6C     		ldr	r2, [r3, #64]
 640 000c 42F08052 		orr	r2, r2, #268435456
 641 0010 1A64     		str	r2, [r3, #64]
 642              		.loc 1 389 3 view .LVU141
 643 0012 1B6C     		ldr	r3, [r3, #64]
 644 0014 03F08053 		and	r3, r3, #268435456
 645 0018 0193     		str	r3, [sp, #4]
 646              		.loc 1 389 3 view .LVU142
 647 001a 019B     		ldr	r3, [sp, #4]
 648              	.LBE4:
 649              		.loc 1 389 3 view .LVU143
 390:Drivers/STM32F7xx_HAL_Driver/Src/stm32f7xx_hal_pwr_ex.c ****   /* Enable the Under-drive Mode ---------------------------------------------*/
 391:Drivers/STM32F7xx_HAL_Driver/Src/stm32f7xx_hal_pwr_ex.c ****   /* Clear Under-drive flag */
 392:Drivers/STM32F7xx_HAL_Driver/Src/stm32f7xx_hal_pwr_ex.c ****   __HAL_PWR_CLEAR_ODRUDR_FLAG();
 650              		.loc 1 392 3 view .LVU144
 651 001c 1A4B     		ldr	r3, .L73+4
 652 001e 5A68     		ldr	r2, [r3, #4]
 653 0020 42F44022 		orr	r2, r2, #786432
 654 0024 5A60     		str	r2, [r3, #4]
 393:Drivers/STM32F7xx_HAL_Driver/Src/stm32f7xx_hal_pwr_ex.c ****   
 394:Drivers/STM32F7xx_HAL_Driver/Src/stm32f7xx_hal_pwr_ex.c ****   /* Enable the Under-drive */ 
 395:Drivers/STM32F7xx_HAL_Driver/Src/stm32f7xx_hal_pwr_ex.c ****   __HAL_PWR_UNDERDRIVE_ENABLE();
 655              		.loc 1 395 3 view .LVU145
 656 0026 1A68     		ldr	r2, [r3]
 657 0028 42F44022 		orr	r2, r2, #786432
 658 002c 1A60     		str	r2, [r3]
 396:Drivers/STM32F7xx_HAL_Driver/Src/stm32f7xx_hal_pwr_ex.c **** 
 397:Drivers/STM32F7xx_HAL_Driver/Src/stm32f7xx_hal_pwr_ex.c ****   /* Get tick */
 398:Drivers/STM32F7xx_HAL_Driver/Src/stm32f7xx_hal_pwr_ex.c ****   tickstart = HAL_GetTick();
 659              		.loc 1 398 3 view .LVU146
 660              		.loc 1 398 15 is_stmt 0 view .LVU147
 661 002e FFF7FEFF 		bl	HAL_GetTick
 662              	.LVL28:
 663              		.loc 1 398 15 view .LVU148
 664 0032 0446     		mov	r4, r0
 665              	.LVL29:
 399:Drivers/STM32F7xx_HAL_Driver/Src/stm32f7xx_hal_pwr_ex.c **** 
 400:Drivers/STM32F7xx_HAL_Driver/Src/stm32f7xx_hal_pwr_ex.c ****   /* Wait for UnderDrive mode is ready */
 401:Drivers/STM32F7xx_HAL_Driver/Src/stm32f7xx_hal_pwr_ex.c ****   while(__HAL_PWR_GET_FLAG(PWR_FLAG_UDRDY))
 666              		.loc 1 401 3 is_stmt 1 view .LVU149
 667              	.L64:
 668              		.loc 1 401 8 view .LVU150
 669              		.loc 1 401 9 is_stmt 0 view .LVU151
 670 0034 144B     		ldr	r3, .L73+4
 671 0036 5B68     		ldr	r3, [r3, #4]
 672 0038 03F44023 		and	r3, r3, #786432
 673              		.loc 1 401 8 view .LVU152
 674 003c B3F5402F 		cmp	r3, #786432
 675 0040 07D1     		bne	.L71
 402:Drivers/STM32F7xx_HAL_Driver/Src/stm32f7xx_hal_pwr_ex.c ****   {
 403:Drivers/STM32F7xx_HAL_Driver/Src/stm32f7xx_hal_pwr_ex.c ****     if((HAL_GetTick() - tickstart ) > PWR_UDERDRIVE_TIMEOUT_VALUE)
ARM GAS  /tmp/cc8sELAz.s 			page 20


 676              		.loc 1 403 5 is_stmt 1 view .LVU153
 677              		.loc 1 403 9 is_stmt 0 view .LVU154
 678 0042 FFF7FEFF 		bl	HAL_GetTick
 679              	.LVL30:
 680              		.loc 1 403 23 view .LVU155
 681 0046 001B     		subs	r0, r0, r4
 682              		.loc 1 403 7 view .LVU156
 683 0048 B0F57A7F 		cmp	r0, #1000
 684 004c F2D9     		bls	.L64
 404:Drivers/STM32F7xx_HAL_Driver/Src/stm32f7xx_hal_pwr_ex.c ****     {
 405:Drivers/STM32F7xx_HAL_Driver/Src/stm32f7xx_hal_pwr_ex.c ****       return HAL_TIMEOUT;
 685              		.loc 1 405 14 view .LVU157
 686 004e 0320     		movs	r0, #3
 687 0050 13E0     		b	.L65
 688              	.L71:
 406:Drivers/STM32F7xx_HAL_Driver/Src/stm32f7xx_hal_pwr_ex.c ****     }
 407:Drivers/STM32F7xx_HAL_Driver/Src/stm32f7xx_hal_pwr_ex.c ****   }
 408:Drivers/STM32F7xx_HAL_Driver/Src/stm32f7xx_hal_pwr_ex.c ****   
 409:Drivers/STM32F7xx_HAL_Driver/Src/stm32f7xx_hal_pwr_ex.c ****   /* Select the regulator state in STOP mode ---------------------------------*/
 410:Drivers/STM32F7xx_HAL_Driver/Src/stm32f7xx_hal_pwr_ex.c ****   tempreg = PWR->CR1;
 689              		.loc 1 410 3 is_stmt 1 view .LVU158
 690              		.loc 1 410 11 is_stmt 0 view .LVU159
 691 0052 0D4A     		ldr	r2, .L73+4
 692 0054 1168     		ldr	r1, [r2]
 693              	.LVL31:
 411:Drivers/STM32F7xx_HAL_Driver/Src/stm32f7xx_hal_pwr_ex.c ****   /* Clear PDDS, LPDS, MRLUDS and LPLUDS bits */
 412:Drivers/STM32F7xx_HAL_Driver/Src/stm32f7xx_hal_pwr_ex.c ****   tempreg &= (uint32_t)~(PWR_CR1_PDDS | PWR_CR1_LPDS | PWR_CR1_LPUDS | PWR_CR1_MRUDS);
 694              		.loc 1 412 3 is_stmt 1 view .LVU160
 695              		.loc 1 412 11 is_stmt 0 view .LVU161
 696 0056 0D4B     		ldr	r3, .L73+8
 697 0058 0B40     		ands	r3, r3, r1
 698              	.LVL32:
 413:Drivers/STM32F7xx_HAL_Driver/Src/stm32f7xx_hal_pwr_ex.c ****   
 414:Drivers/STM32F7xx_HAL_Driver/Src/stm32f7xx_hal_pwr_ex.c ****   /* Set LPDS, MRLUDS and LPLUDS bits according to PWR_Regulator value */
 415:Drivers/STM32F7xx_HAL_Driver/Src/stm32f7xx_hal_pwr_ex.c ****   tempreg |= Regulator;
 699              		.loc 1 415 3 is_stmt 1 view .LVU162
 700              		.loc 1 415 11 is_stmt 0 view .LVU163
 701 005a 1E43     		orrs	r6, r6, r3
 702              	.LVL33:
 416:Drivers/STM32F7xx_HAL_Driver/Src/stm32f7xx_hal_pwr_ex.c ****   
 417:Drivers/STM32F7xx_HAL_Driver/Src/stm32f7xx_hal_pwr_ex.c ****   /* Store the new value */
 418:Drivers/STM32F7xx_HAL_Driver/Src/stm32f7xx_hal_pwr_ex.c ****   PWR->CR1 = tempreg;
 703              		.loc 1 418 3 is_stmt 1 view .LVU164
 704              		.loc 1 418 12 is_stmt 0 view .LVU165
 705 005c 1660     		str	r6, [r2]
 419:Drivers/STM32F7xx_HAL_Driver/Src/stm32f7xx_hal_pwr_ex.c ****   
 420:Drivers/STM32F7xx_HAL_Driver/Src/stm32f7xx_hal_pwr_ex.c ****   /* Set SLEEPDEEP bit of Cortex System Control Register */
 421:Drivers/STM32F7xx_HAL_Driver/Src/stm32f7xx_hal_pwr_ex.c ****   SCB->SCR |= SCB_SCR_SLEEPDEEP_Msk;
 706              		.loc 1 421 3 is_stmt 1 view .LVU166
 707              		.loc 1 421 12 is_stmt 0 view .LVU167
 708 005e 0C4A     		ldr	r2, .L73+12
 709 0060 1369     		ldr	r3, [r2, #16]
 710 0062 43F00403 		orr	r3, r3, #4
 711 0066 1361     		str	r3, [r2, #16]
 422:Drivers/STM32F7xx_HAL_Driver/Src/stm32f7xx_hal_pwr_ex.c ****   
 423:Drivers/STM32F7xx_HAL_Driver/Src/stm32f7xx_hal_pwr_ex.c ****   /* Select STOP mode entry --------------------------------------------------*/
 424:Drivers/STM32F7xx_HAL_Driver/Src/stm32f7xx_hal_pwr_ex.c ****   if(STOPEntry == PWR_SLEEPENTRY_WFI)
ARM GAS  /tmp/cc8sELAz.s 			page 21


 712              		.loc 1 424 3 is_stmt 1 view .LVU168
 713              		.loc 1 424 5 is_stmt 0 view .LVU169
 714 0068 012D     		cmp	r5, #1
 715 006a 08D0     		beq	.L72
 425:Drivers/STM32F7xx_HAL_Driver/Src/stm32f7xx_hal_pwr_ex.c ****   {   
 426:Drivers/STM32F7xx_HAL_Driver/Src/stm32f7xx_hal_pwr_ex.c ****     /* Request Wait For Interrupt */
 427:Drivers/STM32F7xx_HAL_Driver/Src/stm32f7xx_hal_pwr_ex.c ****     __WFI();
 428:Drivers/STM32F7xx_HAL_Driver/Src/stm32f7xx_hal_pwr_ex.c ****   }
 429:Drivers/STM32F7xx_HAL_Driver/Src/stm32f7xx_hal_pwr_ex.c ****   else
 430:Drivers/STM32F7xx_HAL_Driver/Src/stm32f7xx_hal_pwr_ex.c ****   {
 431:Drivers/STM32F7xx_HAL_Driver/Src/stm32f7xx_hal_pwr_ex.c ****     /* Request Wait For Event */
 432:Drivers/STM32F7xx_HAL_Driver/Src/stm32f7xx_hal_pwr_ex.c ****     __WFE();
 716              		.loc 1 432 5 is_stmt 1 view .LVU170
 717              		.syntax unified
 718              	@ 432 "Drivers/STM32F7xx_HAL_Driver/Src/stm32f7xx_hal_pwr_ex.c" 1
 719 006c 20BF     		wfe
 720              	@ 0 "" 2
 721              		.thumb
 722              		.syntax unified
 723              	.L68:
 433:Drivers/STM32F7xx_HAL_Driver/Src/stm32f7xx_hal_pwr_ex.c ****   }
 434:Drivers/STM32F7xx_HAL_Driver/Src/stm32f7xx_hal_pwr_ex.c ****   /* Reset SLEEPDEEP bit of Cortex System Control Register */
 435:Drivers/STM32F7xx_HAL_Driver/Src/stm32f7xx_hal_pwr_ex.c ****   SCB->SCR &= (uint32_t)~((uint32_t)SCB_SCR_SLEEPDEEP_Msk);
 724              		.loc 1 435 3 view .LVU171
 725              		.loc 1 435 12 is_stmt 0 view .LVU172
 726 006e 084A     		ldr	r2, .L73+12
 727 0070 1369     		ldr	r3, [r2, #16]
 728 0072 23F00403 		bic	r3, r3, #4
 729 0076 1361     		str	r3, [r2, #16]
 436:Drivers/STM32F7xx_HAL_Driver/Src/stm32f7xx_hal_pwr_ex.c **** 
 437:Drivers/STM32F7xx_HAL_Driver/Src/stm32f7xx_hal_pwr_ex.c ****   return HAL_OK;  
 730              		.loc 1 437 3 is_stmt 1 view .LVU173
 731              		.loc 1 437 10 is_stmt 0 view .LVU174
 732 0078 0020     		movs	r0, #0
 733              	.LVL34:
 734              	.L65:
 438:Drivers/STM32F7xx_HAL_Driver/Src/stm32f7xx_hal_pwr_ex.c **** }
 735              		.loc 1 438 1 view .LVU175
 736 007a 02B0     		add	sp, sp, #8
 737              	.LCFI12:
 738              		.cfi_remember_state
 739              		.cfi_def_cfa_offset 16
 740              		@ sp needed
 741 007c 70BD     		pop	{r4, r5, r6, pc}
 742              	.LVL35:
 743              	.L72:
 744              	.LCFI13:
 745              		.cfi_restore_state
 427:Drivers/STM32F7xx_HAL_Driver/Src/stm32f7xx_hal_pwr_ex.c ****   }
 746              		.loc 1 427 5 is_stmt 1 view .LVU176
 747              		.syntax unified
 748              	@ 427 "Drivers/STM32F7xx_HAL_Driver/Src/stm32f7xx_hal_pwr_ex.c" 1
 749 007e 30BF     		wfi
 750              	@ 0 "" 2
 751              		.thumb
 752              		.syntax unified
 753 0080 F5E7     		b	.L68
ARM GAS  /tmp/cc8sELAz.s 			page 22


 754              	.L74:
 755 0082 00BF     		.align	2
 756              	.L73:
 757 0084 00380240 		.word	1073887232
 758 0088 00700040 		.word	1073770496
 759 008c FCF3FFFF 		.word	-3076
 760 0090 00ED00E0 		.word	-536810240
 761              		.cfi_endproc
 762              	.LFE151:
 764              		.section	.text.HAL_PWREx_GetVoltageRange,"ax",%progbits
 765              		.align	1
 766              		.global	HAL_PWREx_GetVoltageRange
 767              		.syntax unified
 768              		.thumb
 769              		.thumb_func
 770              		.fpu fpv5-sp-d16
 772              	HAL_PWREx_GetVoltageRange:
 773              	.LFB152:
 439:Drivers/STM32F7xx_HAL_Driver/Src/stm32f7xx_hal_pwr_ex.c **** 
 440:Drivers/STM32F7xx_HAL_Driver/Src/stm32f7xx_hal_pwr_ex.c **** /**
 441:Drivers/STM32F7xx_HAL_Driver/Src/stm32f7xx_hal_pwr_ex.c ****   * @brief Returns Voltage Scaling Range.
 442:Drivers/STM32F7xx_HAL_Driver/Src/stm32f7xx_hal_pwr_ex.c ****   * @retval VOS bit field (PWR_REGULATOR_VOLTAGE_SCALE1, PWR_REGULATOR_VOLTAGE_SCALE2 or 
 443:Drivers/STM32F7xx_HAL_Driver/Src/stm32f7xx_hal_pwr_ex.c ****   *            PWR_REGULATOR_VOLTAGE_SCALE3)PWR_REGULATOR_VOLTAGE_SCALE1
 444:Drivers/STM32F7xx_HAL_Driver/Src/stm32f7xx_hal_pwr_ex.c ****   */  
 445:Drivers/STM32F7xx_HAL_Driver/Src/stm32f7xx_hal_pwr_ex.c **** uint32_t HAL_PWREx_GetVoltageRange(void)
 446:Drivers/STM32F7xx_HAL_Driver/Src/stm32f7xx_hal_pwr_ex.c **** {
 774              		.loc 1 446 1 view -0
 775              		.cfi_startproc
 776              		@ args = 0, pretend = 0, frame = 0
 777              		@ frame_needed = 0, uses_anonymous_args = 0
 778              		@ link register save eliminated.
 447:Drivers/STM32F7xx_HAL_Driver/Src/stm32f7xx_hal_pwr_ex.c ****   return  (PWR->CR1 & PWR_CR1_VOS);
 779              		.loc 1 447 3 view .LVU178
 780              		.loc 1 447 15 is_stmt 0 view .LVU179
 781 0000 024B     		ldr	r3, .L76
 782 0002 1868     		ldr	r0, [r3]
 448:Drivers/STM32F7xx_HAL_Driver/Src/stm32f7xx_hal_pwr_ex.c **** }
 783              		.loc 1 448 1 view .LVU180
 784 0004 00F44040 		and	r0, r0, #49152
 785 0008 7047     		bx	lr
 786              	.L77:
 787 000a 00BF     		.align	2
 788              	.L76:
 789 000c 00700040 		.word	1073770496
 790              		.cfi_endproc
 791              	.LFE152:
 793              		.section	.text.HAL_PWREx_ControlVoltageScaling,"ax",%progbits
 794              		.align	1
 795              		.global	HAL_PWREx_ControlVoltageScaling
 796              		.syntax unified
 797              		.thumb
 798              		.thumb_func
 799              		.fpu fpv5-sp-d16
 801              	HAL_PWREx_ControlVoltageScaling:
 802              	.LVL36:
 803              	.LFB153:
 449:Drivers/STM32F7xx_HAL_Driver/Src/stm32f7xx_hal_pwr_ex.c **** 
ARM GAS  /tmp/cc8sELAz.s 			page 23


 450:Drivers/STM32F7xx_HAL_Driver/Src/stm32f7xx_hal_pwr_ex.c **** /**
 451:Drivers/STM32F7xx_HAL_Driver/Src/stm32f7xx_hal_pwr_ex.c ****   * @brief Configures the main internal regulator output voltage.
 452:Drivers/STM32F7xx_HAL_Driver/Src/stm32f7xx_hal_pwr_ex.c ****   * @param  VoltageScaling specifies the regulator output voltage to achieve
 453:Drivers/STM32F7xx_HAL_Driver/Src/stm32f7xx_hal_pwr_ex.c ****   *         a tradeoff between performance and power consumption.
 454:Drivers/STM32F7xx_HAL_Driver/Src/stm32f7xx_hal_pwr_ex.c ****   *          This parameter can be one of the following values:
 455:Drivers/STM32F7xx_HAL_Driver/Src/stm32f7xx_hal_pwr_ex.c ****   *            @arg PWR_REGULATOR_VOLTAGE_SCALE1: Regulator voltage output range 1 mode,
 456:Drivers/STM32F7xx_HAL_Driver/Src/stm32f7xx_hal_pwr_ex.c ****   *                                                typical output voltage at 1.4 V,  
 457:Drivers/STM32F7xx_HAL_Driver/Src/stm32f7xx_hal_pwr_ex.c ****   *                                                system frequency up to 216 MHz.
 458:Drivers/STM32F7xx_HAL_Driver/Src/stm32f7xx_hal_pwr_ex.c ****   *            @arg PWR_REGULATOR_VOLTAGE_SCALE2: Regulator voltage output range 2 mode,
 459:Drivers/STM32F7xx_HAL_Driver/Src/stm32f7xx_hal_pwr_ex.c ****   *                                                typical output voltage at 1.2 V,                
 460:Drivers/STM32F7xx_HAL_Driver/Src/stm32f7xx_hal_pwr_ex.c ****   *                                                system frequency up to 180 MHz.
 461:Drivers/STM32F7xx_HAL_Driver/Src/stm32f7xx_hal_pwr_ex.c ****   *            @arg PWR_REGULATOR_VOLTAGE_SCALE3: Regulator voltage output range 2 mode,
 462:Drivers/STM32F7xx_HAL_Driver/Src/stm32f7xx_hal_pwr_ex.c ****   *                                                typical output voltage at 1.00 V,               
 463:Drivers/STM32F7xx_HAL_Driver/Src/stm32f7xx_hal_pwr_ex.c ****   *                                                system frequency up to 151 MHz.
 464:Drivers/STM32F7xx_HAL_Driver/Src/stm32f7xx_hal_pwr_ex.c ****   * @note To update the system clock frequency(SYSCLK):
 465:Drivers/STM32F7xx_HAL_Driver/Src/stm32f7xx_hal_pwr_ex.c ****   *        - Set the HSI or HSE as system clock frequency using the HAL_RCC_ClockConfig().
 466:Drivers/STM32F7xx_HAL_Driver/Src/stm32f7xx_hal_pwr_ex.c ****   *        - Call the HAL_RCC_OscConfig() to configure the PLL.
 467:Drivers/STM32F7xx_HAL_Driver/Src/stm32f7xx_hal_pwr_ex.c ****   *        - Call HAL_PWREx_ConfigVoltageScaling() API to adjust the voltage scale.
 468:Drivers/STM32F7xx_HAL_Driver/Src/stm32f7xx_hal_pwr_ex.c ****   *        - Set the new system clock frequency using the HAL_RCC_ClockConfig().
 469:Drivers/STM32F7xx_HAL_Driver/Src/stm32f7xx_hal_pwr_ex.c ****   * @note The scale can be modified only when the HSI or HSE clock source is selected 
 470:Drivers/STM32F7xx_HAL_Driver/Src/stm32f7xx_hal_pwr_ex.c ****   *        as system clock source, otherwise the API returns HAL_ERROR.  
 471:Drivers/STM32F7xx_HAL_Driver/Src/stm32f7xx_hal_pwr_ex.c ****   * @note When the PLL is OFF, the voltage scale 3 is automatically selected and the VOS bits
 472:Drivers/STM32F7xx_HAL_Driver/Src/stm32f7xx_hal_pwr_ex.c ****   *       value in the PWR_CR1 register are not taken in account.
 473:Drivers/STM32F7xx_HAL_Driver/Src/stm32f7xx_hal_pwr_ex.c ****   * @note This API forces the PLL state ON to allow the possibility to configure the voltage scale 
 474:Drivers/STM32F7xx_HAL_Driver/Src/stm32f7xx_hal_pwr_ex.c ****   * @note The new voltage scale is active only when the PLL is ON.  
 475:Drivers/STM32F7xx_HAL_Driver/Src/stm32f7xx_hal_pwr_ex.c ****   * @retval HAL Status
 476:Drivers/STM32F7xx_HAL_Driver/Src/stm32f7xx_hal_pwr_ex.c ****   */
 477:Drivers/STM32F7xx_HAL_Driver/Src/stm32f7xx_hal_pwr_ex.c **** HAL_StatusTypeDef HAL_PWREx_ControlVoltageScaling(uint32_t VoltageScaling)
 478:Drivers/STM32F7xx_HAL_Driver/Src/stm32f7xx_hal_pwr_ex.c **** {
 804              		.loc 1 478 1 is_stmt 1 view -0
 805              		.cfi_startproc
 806              		@ args = 0, pretend = 0, frame = 8
 807              		@ frame_needed = 0, uses_anonymous_args = 0
 808              		.loc 1 478 1 is_stmt 0 view .LVU182
 809 0000 30B5     		push	{r4, r5, lr}
 810              	.LCFI14:
 811              		.cfi_def_cfa_offset 12
 812              		.cfi_offset 4, -12
 813              		.cfi_offset 5, -8
 814              		.cfi_offset 14, -4
 815 0002 83B0     		sub	sp, sp, #12
 816              	.LCFI15:
 817              		.cfi_def_cfa_offset 24
 479:Drivers/STM32F7xx_HAL_Driver/Src/stm32f7xx_hal_pwr_ex.c ****   uint32_t tickstart = 0;
 818              		.loc 1 479 3 is_stmt 1 view .LVU183
 819              	.LVL37:
 480:Drivers/STM32F7xx_HAL_Driver/Src/stm32f7xx_hal_pwr_ex.c **** 
 481:Drivers/STM32F7xx_HAL_Driver/Src/stm32f7xx_hal_pwr_ex.c ****   assert_param(IS_PWR_REGULATOR_VOLTAGE(VoltageScaling));
 820              		.loc 1 481 3 view .LVU184
 482:Drivers/STM32F7xx_HAL_Driver/Src/stm32f7xx_hal_pwr_ex.c **** 
 483:Drivers/STM32F7xx_HAL_Driver/Src/stm32f7xx_hal_pwr_ex.c ****   /* Enable Power ctrl clock */
 484:Drivers/STM32F7xx_HAL_Driver/Src/stm32f7xx_hal_pwr_ex.c ****   __HAL_RCC_PWR_CLK_ENABLE();
 821              		.loc 1 484 3 view .LVU185
 822              	.LBB5:
 823              		.loc 1 484 3 view .LVU186
 824              		.loc 1 484 3 view .LVU187
 825 0004 2C4B     		ldr	r3, .L94
ARM GAS  /tmp/cc8sELAz.s 			page 24


 826 0006 1A6C     		ldr	r2, [r3, #64]
 827 0008 42F08052 		orr	r2, r2, #268435456
 828 000c 1A64     		str	r2, [r3, #64]
 829              		.loc 1 484 3 view .LVU188
 830 000e 1A6C     		ldr	r2, [r3, #64]
 831 0010 02F08052 		and	r2, r2, #268435456
 832 0014 0092     		str	r2, [sp]
 833              		.loc 1 484 3 view .LVU189
 834 0016 009A     		ldr	r2, [sp]
 835              	.LBE5:
 836              		.loc 1 484 3 view .LVU190
 485:Drivers/STM32F7xx_HAL_Driver/Src/stm32f7xx_hal_pwr_ex.c **** 
 486:Drivers/STM32F7xx_HAL_Driver/Src/stm32f7xx_hal_pwr_ex.c ****   /* Check if the PLL is used as system clock or not */
 487:Drivers/STM32F7xx_HAL_Driver/Src/stm32f7xx_hal_pwr_ex.c ****   if(__HAL_RCC_GET_SYSCLK_SOURCE() != RCC_CFGR_SWS_PLL)
 837              		.loc 1 487 3 view .LVU191
 838              		.loc 1 487 6 is_stmt 0 view .LVU192
 839 0018 9B68     		ldr	r3, [r3, #8]
 840 001a 03F00C03 		and	r3, r3, #12
 841              		.loc 1 487 5 view .LVU193
 842 001e 082B     		cmp	r3, #8
 843 0020 46D0     		beq	.L86
 844 0022 0546     		mov	r5, r0
 488:Drivers/STM32F7xx_HAL_Driver/Src/stm32f7xx_hal_pwr_ex.c ****   {
 489:Drivers/STM32F7xx_HAL_Driver/Src/stm32f7xx_hal_pwr_ex.c ****     /* Disable the main PLL */
 490:Drivers/STM32F7xx_HAL_Driver/Src/stm32f7xx_hal_pwr_ex.c ****     __HAL_RCC_PLL_DISABLE();
 845              		.loc 1 490 5 is_stmt 1 view .LVU194
 846 0024 244A     		ldr	r2, .L94
 847 0026 1368     		ldr	r3, [r2]
 848 0028 23F08073 		bic	r3, r3, #16777216
 849 002c 1360     		str	r3, [r2]
 491:Drivers/STM32F7xx_HAL_Driver/Src/stm32f7xx_hal_pwr_ex.c ****     
 492:Drivers/STM32F7xx_HAL_Driver/Src/stm32f7xx_hal_pwr_ex.c ****     /* Get Start Tick */
 493:Drivers/STM32F7xx_HAL_Driver/Src/stm32f7xx_hal_pwr_ex.c ****     tickstart = HAL_GetTick();    
 850              		.loc 1 493 5 view .LVU195
 851              		.loc 1 493 17 is_stmt 0 view .LVU196
 852 002e FFF7FEFF 		bl	HAL_GetTick
 853              	.LVL38:
 854              		.loc 1 493 17 view .LVU197
 855 0032 0446     		mov	r4, r0
 856              	.LVL39:
 494:Drivers/STM32F7xx_HAL_Driver/Src/stm32f7xx_hal_pwr_ex.c ****     /* Wait till PLL is disabled */  
 495:Drivers/STM32F7xx_HAL_Driver/Src/stm32f7xx_hal_pwr_ex.c ****     while(__HAL_RCC_GET_FLAG(RCC_FLAG_PLLRDY) != RESET)
 857              		.loc 1 495 5 is_stmt 1 view .LVU198
 858              	.L80:
 859              		.loc 1 495 10 view .LVU199
 860              		.loc 1 495 11 is_stmt 0 view .LVU200
 861 0034 204B     		ldr	r3, .L94
 862 0036 1B68     		ldr	r3, [r3]
 863              		.loc 1 495 10 view .LVU201
 864 0038 13F0007F 		tst	r3, #33554432
 865 003c 06D0     		beq	.L91
 496:Drivers/STM32F7xx_HAL_Driver/Src/stm32f7xx_hal_pwr_ex.c ****     {
 497:Drivers/STM32F7xx_HAL_Driver/Src/stm32f7xx_hal_pwr_ex.c ****       if((HAL_GetTick() - tickstart ) > PLL_TIMEOUT_VALUE)
 866              		.loc 1 497 7 is_stmt 1 view .LVU202
 867              		.loc 1 497 11 is_stmt 0 view .LVU203
 868 003e FFF7FEFF 		bl	HAL_GetTick
 869              	.LVL40:
ARM GAS  /tmp/cc8sELAz.s 			page 25


 870              		.loc 1 497 25 view .LVU204
 871 0042 031B     		subs	r3, r0, r4
 872              		.loc 1 497 9 view .LVU205
 873 0044 022B     		cmp	r3, #2
 874 0046 F5D9     		bls	.L80
 498:Drivers/STM32F7xx_HAL_Driver/Src/stm32f7xx_hal_pwr_ex.c ****       {
 499:Drivers/STM32F7xx_HAL_Driver/Src/stm32f7xx_hal_pwr_ex.c ****         return HAL_TIMEOUT;
 875              		.loc 1 499 16 view .LVU206
 876 0048 0320     		movs	r0, #3
 877 004a 32E0     		b	.L79
 878              	.L91:
 500:Drivers/STM32F7xx_HAL_Driver/Src/stm32f7xx_hal_pwr_ex.c ****       }
 501:Drivers/STM32F7xx_HAL_Driver/Src/stm32f7xx_hal_pwr_ex.c ****     }
 502:Drivers/STM32F7xx_HAL_Driver/Src/stm32f7xx_hal_pwr_ex.c ****     
 503:Drivers/STM32F7xx_HAL_Driver/Src/stm32f7xx_hal_pwr_ex.c ****     /* Set Range */
 504:Drivers/STM32F7xx_HAL_Driver/Src/stm32f7xx_hal_pwr_ex.c ****     __HAL_PWR_VOLTAGESCALING_CONFIG(VoltageScaling);
 879              		.loc 1 504 5 is_stmt 1 view .LVU207
 880              	.LBB6:
 881              		.loc 1 504 5 view .LVU208
 882              		.loc 1 504 5 view .LVU209
 883 004c 1B4A     		ldr	r2, .L94+4
 884 004e 1368     		ldr	r3, [r2]
 885 0050 23F44043 		bic	r3, r3, #49152
 886 0054 1D43     		orrs	r5, r5, r3
 887              	.LVL41:
 888              		.loc 1 504 5 is_stmt 0 view .LVU210
 889 0056 1560     		str	r5, [r2]
 890              		.loc 1 504 5 is_stmt 1 view .LVU211
 891 0058 1368     		ldr	r3, [r2]
 892 005a 03F44043 		and	r3, r3, #49152
 893 005e 0193     		str	r3, [sp, #4]
 894              		.loc 1 504 5 view .LVU212
 895 0060 019B     		ldr	r3, [sp, #4]
 896              	.LBE6:
 897              		.loc 1 504 5 view .LVU213
 505:Drivers/STM32F7xx_HAL_Driver/Src/stm32f7xx_hal_pwr_ex.c ****     
 506:Drivers/STM32F7xx_HAL_Driver/Src/stm32f7xx_hal_pwr_ex.c ****     /* Enable the main PLL */
 507:Drivers/STM32F7xx_HAL_Driver/Src/stm32f7xx_hal_pwr_ex.c ****     __HAL_RCC_PLL_ENABLE();
 898              		.loc 1 507 5 view .LVU214
 899 0062 02F5E432 		add	r2, r2, #116736
 900 0066 1368     		ldr	r3, [r2]
 901 0068 43F08073 		orr	r3, r3, #16777216
 902 006c 1360     		str	r3, [r2]
 508:Drivers/STM32F7xx_HAL_Driver/Src/stm32f7xx_hal_pwr_ex.c ****     
 509:Drivers/STM32F7xx_HAL_Driver/Src/stm32f7xx_hal_pwr_ex.c ****     /* Get Start Tick */
 510:Drivers/STM32F7xx_HAL_Driver/Src/stm32f7xx_hal_pwr_ex.c ****     tickstart = HAL_GetTick();
 903              		.loc 1 510 5 view .LVU215
 904              		.loc 1 510 17 is_stmt 0 view .LVU216
 905 006e FFF7FEFF 		bl	HAL_GetTick
 906              	.LVL42:
 907 0072 0446     		mov	r4, r0
 908              	.LVL43:
 511:Drivers/STM32F7xx_HAL_Driver/Src/stm32f7xx_hal_pwr_ex.c ****     /* Wait till PLL is ready */  
 512:Drivers/STM32F7xx_HAL_Driver/Src/stm32f7xx_hal_pwr_ex.c ****     while(__HAL_RCC_GET_FLAG(RCC_FLAG_PLLRDY) == RESET)
 909              		.loc 1 512 5 is_stmt 1 view .LVU217
 910              	.L82:
 911              		.loc 1 512 10 view .LVU218
ARM GAS  /tmp/cc8sELAz.s 			page 26


 912              		.loc 1 512 11 is_stmt 0 view .LVU219
 913 0074 104B     		ldr	r3, .L94
 914 0076 1B68     		ldr	r3, [r3]
 915              		.loc 1 512 10 view .LVU220
 916 0078 13F0007F 		tst	r3, #33554432
 917 007c 06D1     		bne	.L92
 513:Drivers/STM32F7xx_HAL_Driver/Src/stm32f7xx_hal_pwr_ex.c ****     {
 514:Drivers/STM32F7xx_HAL_Driver/Src/stm32f7xx_hal_pwr_ex.c ****       if((HAL_GetTick() - tickstart ) > PLL_TIMEOUT_VALUE)
 918              		.loc 1 514 7 is_stmt 1 view .LVU221
 919              		.loc 1 514 11 is_stmt 0 view .LVU222
 920 007e FFF7FEFF 		bl	HAL_GetTick
 921              	.LVL44:
 922              		.loc 1 514 25 view .LVU223
 923 0082 001B     		subs	r0, r0, r4
 924              		.loc 1 514 9 view .LVU224
 925 0084 0228     		cmp	r0, #2
 926 0086 F5D9     		bls	.L82
 515:Drivers/STM32F7xx_HAL_Driver/Src/stm32f7xx_hal_pwr_ex.c ****       {
 516:Drivers/STM32F7xx_HAL_Driver/Src/stm32f7xx_hal_pwr_ex.c ****         return HAL_TIMEOUT;
 927              		.loc 1 516 16 view .LVU225
 928 0088 0320     		movs	r0, #3
 929 008a 12E0     		b	.L79
 930              	.L92:
 517:Drivers/STM32F7xx_HAL_Driver/Src/stm32f7xx_hal_pwr_ex.c ****       } 
 518:Drivers/STM32F7xx_HAL_Driver/Src/stm32f7xx_hal_pwr_ex.c ****     }
 519:Drivers/STM32F7xx_HAL_Driver/Src/stm32f7xx_hal_pwr_ex.c ****     
 520:Drivers/STM32F7xx_HAL_Driver/Src/stm32f7xx_hal_pwr_ex.c ****     /* Get Start Tick */
 521:Drivers/STM32F7xx_HAL_Driver/Src/stm32f7xx_hal_pwr_ex.c ****     tickstart = HAL_GetTick();
 931              		.loc 1 521 5 is_stmt 1 view .LVU226
 932              		.loc 1 521 17 is_stmt 0 view .LVU227
 933 008c FFF7FEFF 		bl	HAL_GetTick
 934              	.LVL45:
 935 0090 0446     		mov	r4, r0
 936              	.LVL46:
 522:Drivers/STM32F7xx_HAL_Driver/Src/stm32f7xx_hal_pwr_ex.c ****     while((__HAL_PWR_GET_FLAG(PWR_FLAG_VOSRDY) == RESET))
 937              		.loc 1 522 5 is_stmt 1 view .LVU228
 938              	.L84:
 939              		.loc 1 522 10 view .LVU229
 940              		.loc 1 522 12 is_stmt 0 view .LVU230
 941 0092 0A4B     		ldr	r3, .L94+4
 942 0094 5B68     		ldr	r3, [r3, #4]
 943              		.loc 1 522 10 view .LVU231
 944 0096 13F4804F 		tst	r3, #16384
 945 009a 07D1     		bne	.L93
 523:Drivers/STM32F7xx_HAL_Driver/Src/stm32f7xx_hal_pwr_ex.c ****     {
 524:Drivers/STM32F7xx_HAL_Driver/Src/stm32f7xx_hal_pwr_ex.c ****       if((HAL_GetTick() - tickstart ) > PWR_VOSRDY_TIMEOUT_VALUE)
 946              		.loc 1 524 7 is_stmt 1 view .LVU232
 947              		.loc 1 524 11 is_stmt 0 view .LVU233
 948 009c FFF7FEFF 		bl	HAL_GetTick
 949              	.LVL47:
 950              		.loc 1 524 25 view .LVU234
 951 00a0 001B     		subs	r0, r0, r4
 952              		.loc 1 524 9 view .LVU235
 953 00a2 B0F57A7F 		cmp	r0, #1000
 954 00a6 F4D9     		bls	.L84
 525:Drivers/STM32F7xx_HAL_Driver/Src/stm32f7xx_hal_pwr_ex.c ****       {
 526:Drivers/STM32F7xx_HAL_Driver/Src/stm32f7xx_hal_pwr_ex.c ****         return HAL_TIMEOUT;
ARM GAS  /tmp/cc8sELAz.s 			page 27


 955              		.loc 1 526 16 view .LVU236
 956 00a8 0320     		movs	r0, #3
 957 00aa 02E0     		b	.L79
 958              	.L93:
 527:Drivers/STM32F7xx_HAL_Driver/Src/stm32f7xx_hal_pwr_ex.c ****       } 
 528:Drivers/STM32F7xx_HAL_Driver/Src/stm32f7xx_hal_pwr_ex.c ****     }
 529:Drivers/STM32F7xx_HAL_Driver/Src/stm32f7xx_hal_pwr_ex.c ****   }
 530:Drivers/STM32F7xx_HAL_Driver/Src/stm32f7xx_hal_pwr_ex.c ****   else
 531:Drivers/STM32F7xx_HAL_Driver/Src/stm32f7xx_hal_pwr_ex.c ****   {
 532:Drivers/STM32F7xx_HAL_Driver/Src/stm32f7xx_hal_pwr_ex.c ****     return HAL_ERROR;
 533:Drivers/STM32F7xx_HAL_Driver/Src/stm32f7xx_hal_pwr_ex.c ****   }
 534:Drivers/STM32F7xx_HAL_Driver/Src/stm32f7xx_hal_pwr_ex.c ****   return HAL_OK;
 959              		.loc 1 534 10 view .LVU237
 960 00ac 0020     		movs	r0, #0
 961 00ae 00E0     		b	.L79
 962              	.LVL48:
 963              	.L86:
 532:Drivers/STM32F7xx_HAL_Driver/Src/stm32f7xx_hal_pwr_ex.c ****   }
 964              		.loc 1 532 12 view .LVU238
 965 00b0 0120     		movs	r0, #1
 966              	.LVL49:
 967              	.L79:
 535:Drivers/STM32F7xx_HAL_Driver/Src/stm32f7xx_hal_pwr_ex.c **** }
 968              		.loc 1 535 1 view .LVU239
 969 00b2 03B0     		add	sp, sp, #12
 970              	.LCFI16:
 971              		.cfi_def_cfa_offset 12
 972              		@ sp needed
 973 00b4 30BD     		pop	{r4, r5, pc}
 974              	.L95:
 975 00b6 00BF     		.align	2
 976              	.L94:
 977 00b8 00380240 		.word	1073887232
 978 00bc 00700040 		.word	1073770496
 979              		.cfi_endproc
 980              	.LFE153:
 982              		.text
 983              	.Letext0:
 984              		.file 2 "/usr/local/arm-none-eabi/include/machine/_default_types.h"
 985              		.file 3 "/usr/local/arm-none-eabi/include/sys/_stdint.h"
 986              		.file 4 "Drivers/CMSIS/Include/core_cm7.h"
 987              		.file 5 "Drivers/CMSIS/Device/ST/STM32F7xx/Include/system_stm32f7xx.h"
 988              		.file 6 "Drivers/CMSIS/Device/ST/STM32F7xx/Include/stm32f746xx.h"
 989              		.file 7 "Drivers/CMSIS/Device/ST/STM32F7xx/Include/stm32f7xx.h"
 990              		.file 8 "Drivers/STM32F7xx_HAL_Driver/Inc/stm32f7xx_hal_def.h"
 991              		.file 9 "Drivers/STM32F7xx_HAL_Driver/Inc/stm32f7xx_hal.h"
ARM GAS  /tmp/cc8sELAz.s 			page 28


DEFINED SYMBOLS
                            *ABS*:0000000000000000 stm32f7xx_hal_pwr_ex.c
     /tmp/cc8sELAz.s:18     .text.HAL_PWREx_EnableBkUpReg:0000000000000000 $t
     /tmp/cc8sELAz.s:26     .text.HAL_PWREx_EnableBkUpReg:0000000000000000 HAL_PWREx_EnableBkUpReg
     /tmp/cc8sELAz.s:89     .text.HAL_PWREx_EnableBkUpReg:0000000000000038 $d
     /tmp/cc8sELAz.s:94     .text.HAL_PWREx_DisableBkUpReg:0000000000000000 $t
     /tmp/cc8sELAz.s:101    .text.HAL_PWREx_DisableBkUpReg:0000000000000000 HAL_PWREx_DisableBkUpReg
     /tmp/cc8sELAz.s:163    .text.HAL_PWREx_DisableBkUpReg:0000000000000038 $d
     /tmp/cc8sELAz.s:168    .text.HAL_PWREx_EnableFlashPowerDown:0000000000000000 $t
     /tmp/cc8sELAz.s:175    .text.HAL_PWREx_EnableFlashPowerDown:0000000000000000 HAL_PWREx_EnableFlashPowerDown
     /tmp/cc8sELAz.s:193    .text.HAL_PWREx_EnableFlashPowerDown:000000000000000c $d
     /tmp/cc8sELAz.s:198    .text.HAL_PWREx_DisableFlashPowerDown:0000000000000000 $t
     /tmp/cc8sELAz.s:205    .text.HAL_PWREx_DisableFlashPowerDown:0000000000000000 HAL_PWREx_DisableFlashPowerDown
     /tmp/cc8sELAz.s:223    .text.HAL_PWREx_DisableFlashPowerDown:000000000000000c $d
     /tmp/cc8sELAz.s:228    .text.HAL_PWREx_EnableMainRegulatorLowVoltage:0000000000000000 $t
     /tmp/cc8sELAz.s:235    .text.HAL_PWREx_EnableMainRegulatorLowVoltage:0000000000000000 HAL_PWREx_EnableMainRegulatorLowVoltage
     /tmp/cc8sELAz.s:253    .text.HAL_PWREx_EnableMainRegulatorLowVoltage:000000000000000c $d
     /tmp/cc8sELAz.s:258    .text.HAL_PWREx_DisableMainRegulatorLowVoltage:0000000000000000 $t
     /tmp/cc8sELAz.s:265    .text.HAL_PWREx_DisableMainRegulatorLowVoltage:0000000000000000 HAL_PWREx_DisableMainRegulatorLowVoltage
     /tmp/cc8sELAz.s:283    .text.HAL_PWREx_DisableMainRegulatorLowVoltage:000000000000000c $d
     /tmp/cc8sELAz.s:288    .text.HAL_PWREx_EnableLowRegulatorLowVoltage:0000000000000000 $t
     /tmp/cc8sELAz.s:295    .text.HAL_PWREx_EnableLowRegulatorLowVoltage:0000000000000000 HAL_PWREx_EnableLowRegulatorLowVoltage
     /tmp/cc8sELAz.s:313    .text.HAL_PWREx_EnableLowRegulatorLowVoltage:000000000000000c $d
     /tmp/cc8sELAz.s:318    .text.HAL_PWREx_DisableLowRegulatorLowVoltage:0000000000000000 $t
     /tmp/cc8sELAz.s:325    .text.HAL_PWREx_DisableLowRegulatorLowVoltage:0000000000000000 HAL_PWREx_DisableLowRegulatorLowVoltage
     /tmp/cc8sELAz.s:343    .text.HAL_PWREx_DisableLowRegulatorLowVoltage:000000000000000c $d
     /tmp/cc8sELAz.s:348    .text.HAL_PWREx_EnableOverDrive:0000000000000000 $t
     /tmp/cc8sELAz.s:355    .text.HAL_PWREx_EnableOverDrive:0000000000000000 HAL_PWREx_EnableOverDrive
     /tmp/cc8sELAz.s:469    .text.HAL_PWREx_EnableOverDrive:0000000000000074 $d
     /tmp/cc8sELAz.s:475    .text.HAL_PWREx_DisableOverDrive:0000000000000000 $t
     /tmp/cc8sELAz.s:482    .text.HAL_PWREx_DisableOverDrive:0000000000000000 HAL_PWREx_DisableOverDrive
     /tmp/cc8sELAz.s:596    .text.HAL_PWREx_DisableOverDrive:0000000000000074 $d
     /tmp/cc8sELAz.s:602    .text.HAL_PWREx_EnterUnderDriveSTOPMode:0000000000000000 $t
     /tmp/cc8sELAz.s:609    .text.HAL_PWREx_EnterUnderDriveSTOPMode:0000000000000000 HAL_PWREx_EnterUnderDriveSTOPMode
     /tmp/cc8sELAz.s:757    .text.HAL_PWREx_EnterUnderDriveSTOPMode:0000000000000084 $d
     /tmp/cc8sELAz.s:765    .text.HAL_PWREx_GetVoltageRange:0000000000000000 $t
     /tmp/cc8sELAz.s:772    .text.HAL_PWREx_GetVoltageRange:0000000000000000 HAL_PWREx_GetVoltageRange
     /tmp/cc8sELAz.s:789    .text.HAL_PWREx_GetVoltageRange:000000000000000c $d
     /tmp/cc8sELAz.s:794    .text.HAL_PWREx_ControlVoltageScaling:0000000000000000 $t
     /tmp/cc8sELAz.s:801    .text.HAL_PWREx_ControlVoltageScaling:0000000000000000 HAL_PWREx_ControlVoltageScaling
     /tmp/cc8sELAz.s:977    .text.HAL_PWREx_ControlVoltageScaling:00000000000000b8 $d

UNDEFINED SYMBOLS
HAL_GetTick
